:020000041008E2
:4000000000780408EB0208100D00000051030810510308105103081051030810000000000000000000000000000000004D0308104D030810000000004D0308104D030810DA
:400040004D0308104D0308104D0308104D0308104D0308104D0308104D0308104D0308104D0308104D0308104D0308104D0308104D0308104D0308104D0308104D03081000
:400080004D0308104D0308104D0308104D0308104D0308104D0308104D0308104D0308104D0308104D0308104D0308104D0308104D0308104D0308104D0308104D030810C0
:4000C0004D0308104D0308104D0308104D0308104D0308104D0308104D0308104D0308104D0308104D0308104D0308104D0308104D0308104D0308104D0308104D03081080
:400100004D0308104D0308104D0308104D0308104D0308104D0308104D0308104D0308104D0308104D0308104D0308104D0308104D0308104D0308104D0308104D0308103F
:400140004D0308104D0308104D0308104D0308104D0308104D0308104D0308104D0308104D0308104D0308104D0308104D0308104D0308104D0308104D0308104D030810FF
:400180004D0308104D0308104D0308104D0308104D0308104D0308104D0308104D0308104D0308104D0308104D0308104D0308104D0308104D0308104D0308104D030810BF
:4001C0004D0308104D0308104D0308104D0308104D0308104D0308104D0308104D0308104D0308104D0308104D0308104D0308104D0308104D0308104D0308104D0308107F
:400200004D0308104D0308104D0308104D0308104D0308104D0308104D0308104D0308104D0308104D0308104D0308104D0308104D0308104D0308104D0308104D0308103E
:400240004D0308104D0308104D0308104D0308104D0308104D0308104D0308104D0308104D0308104D0308104D0308104D0308104D0308104D0308104D0308104D030810FE
:400280004D0308104D0308104D03081010B5054C237833B9044B13B10448AFF300800123237010BD844B0208000000002C040910084B10B51BB108490848AFF3008008484B
:4002C000036803B910BD074B002BFBD0BDE81040184700BF00000000884B02082C04091050450208000000007047FFF7FDFF72B6104C114DAC4209DA21686268A368043BF1
:40030000A2BFC858D050FAE70C34F3E70B490C4A00209142BCBF41F8040BFAE709480A490860BFF34F8F00F0FDFA00F0D7FA00F083F9FEE73004091048040910844B0208C0
:40034000F00A03080040020808ED00E0FEE7FEE700B504207146084202D0EFF3098001E0EFF30880043001F0B1FFFEE710B5234B1C68234B1B6803EB83039A00214B1A44F3
:40038000536823B94FF476711F4801F08FFF00211E4802F05BFB07EE900AF8EEE77A1C4B03EB8403C3ED007A144B1A6801321A601B68B3F5FA6F05D1104B01221A711A6868
:4003C0009A600BE00D4B1B68B3F57A6F06D10B4B01221A711A689A6000221A600D4BB3F90030002B09DB5A0903F01F03012101FA03F36032084941F8223010BDA04B0208BB
:400400008C7C0208ACA408107C9F081000001D41207E02086CA0081000E100E0F8B506460F4601F039F90546064C3B4632460146204600F095FF41F2B0622946204609F0D9
:40044000A5F8F8BDAC4B020870B50646012003F00FF99B2340F201120521072002F03AFC00240925072021E006EB8403D3ED007A9FED127A67EE877A9FED116A77EE867A1E
:40048000013406EB8403D3ED006A26EE877A37EE067ABDEEC77A17EE103A2A46FDEEE77A17EE901A03F0D0FD284602357C2CDBD901210846FFF7B2FF70BD00BF0000964269
:4004C00000009E4200B59BB00B460246074901A809F08AF8A022812101A803F077FB01210846FFF79BFF1BB05DF804FB9C9F0810F0B583B04A4AD2F8C4350133C2F8C43515
:400500004FF4FA63002400251AE05E1E454A02EB8303D3ED007AFDEEE77ACDED017ABDF904200021404802F0E7FA08F08FFD02460B462046294608F03DFC04460D46334610
:40054000002BE2DC0022394B2046294608F00EFF06460F460022364B08F0DEFD2EA3D3E9002308F003FF04460D463046394609F0ABFC08F0E3FF06462046294609F0A4FC8B
:4005800008F0DCFF0446264BD3F8C435032B3BD1012003F06DF8002003F09CF86FF07F4003F094F803F01EF99B2340F201120521072002F08FFB650011350F23112291215A
:4005C000104603F041FD0F232A461946112003F03BFD91232A460F21284603F035FD9123D9221946284603F02FFD0F4A136823F00043136031462046FFF764FF02F024FBB1
:400600000022074BC3F8C42500220A4B1A7103B0F0BD00BFAFF300800000000000C8A940985C0208207E020800001D4100409F4000005940A04B020808B562B603F002F93A
:40064000142000F079FE012000F07EFE012003F00FF8002003F03EF86FF07F4003F036F803F0C0F8AF2340F207120121084602F031FB042002F0FCFF4123F322194614203C
:4006800003F0E2FC002003F025F86FF07F4003F01DF8214803F022F8022003F043F81E2284211E4803F088FA1D4803F017F8462284211C4803F080FA01210846FFF7AEFE36
:4006C00003F090F81848FFF7BFFE40F282610A20FFF7F8FE03F086F802F0E4FA134C1449204601F085FDB4F90030002B08DB590903F01F03012202FA03F30E4A42F8213011
:4007000002F0A2FA02F074FA0B4B1B7913F0FF0FFAD0FFF7EDFEF7E77CBB0810C49F08109CA50810CC9F08108C4202086CA008106D03081000E100E0A04B020808B5012089
:4007400001F078FB08BD00BF704700BF5C4AD2F8803303F00F0303F1D00152F8212002F00702032A04D0042A05D092B9554914E0554A116811E003F1C002514951F82220E3
:4007800002F01F02112A06D0132A04D04FF4FA4103E04E4901E04FF400418BBB484BD3F8902502F00100D3F88825C2F30172D3F8883513F0405F07D0414BD3F88835C3F3F0
:4007C0000173012B02D102E0012300E0002303B108B9032A46D13A48D0F88025C2F31103D0F88425C2F30C02D0F88005C0F300600130B1FBF2F202FB03F2B2FBF0F131E026
:40080000012B2FD12E4BD3F8402602F00100D3F80026C2F30172D3F8003613F0405F07D0274BD3F80036C3F30173012B02D102E0012300E0002303B108B9032A12D12048CA
:40084000D0F8002602F07F02D0F80036C3F30423D0F80006C0F3044002FB01F2B2FBF3F2B2FBF0F1164BD3F88033C3F3011321FA03F215494A601648D0F89030C3F30723E0
:4008800001330069000E0130B2FBF0F08860B2FBF3F3CB600B6103F5742202F23F220D48A0FB0202C2F387420A7503F2E7330A4AA2FB03239B098B61DB03CB61704700BFB3
:4008C0000000264000127A008044020800366E010000214083DE1B43D34D621008B50D4801F00CFFFFF730FFFFF730FF00221146042001F067F8084801F0FAF8074B1B6894
:4009000093F8513013B1064801F062F900F0A4FF08BD00BF7CA308106062020818090308DC9F081008B501F02CFD074AD2F8883043F47003C2F88830BFF34F8FBFF36F8F6E
:4009400001F023FD08BD00BF00ED00E02DE9F04180460E4617460A4C08256560702000F06FFD404600F06CFDA5606560722000F067FD3946304600F0C7FDA560BDE8F081D0
:400980000006324000B583B002AB03F8011D01221946FFF7DBFF03B05DF804FBF8B507460E46094C08256560702000F049FD384600F046FDA5606560732000F041FD3046AB
:4009C00000F06EFDA560F8BD0006324038B50425084B5D60084C402363601023636000F0FFFC0822054B5A6065602023636000F0E1FC38BD0000324080023240000632404A
:400A000010B5434C6F220021204608F0E5FD631C236704F14E03636704F12203A36700F0C9FC03E000F0D0FC032868D800F0AEFD0028F7D100F0CEFC00217220FFF7AEFFD9
:400A400000F00F0002285CD14021FFF79BFF00210F20FFF7A3FF10F0800F54D002210B20FFF790FF08222B490120FFF76FFFD1210720FFF787FF02210820FFF783FFC22163
:400A80000920FFF77FFF03210420FFF77BFF01210320FFF777FF00210320FFF773FF0A2001F0E0FB002400E01C4601210520FFF769FF642001F0D6FB03210520FFF762FF9D
:400AC000322001F0CFFB0F210520FFF75BFF322001F0C8FB00210F20FFF760FF10F0400F05D040210220FFF74DFF234603E0631C9BB2042CD8D1032B07D9052010BD01209E
:400B000010BD022010BD032010BD002010BD00BFE063020810A0081010F1090F0EDB10F1040F0EDB05280FDD0A2810DD0F2811DD142811DD282811DC5A2210E04FF49662DE
:400B40000DE04FF461720AE04FF4167207E04FF4A57204E0DC2202E0B42200E03C22034BA3F87C20A3F87E20704700BFE06302082DE9F84F06460D46047828B1CA4B9842E3
:400B800005D10127002403E00127FF2400E0002700F010FC4FF00008D0E1C8EBC80AC8EB0A1ADFF80C930AEB090B6F220021584608F012FD0BF1010EBC4BC3F870E00AF1A0
:400BC00048004844063058670AF1200AD14409F10209C3F878902022002397E10FB934780136032D00F29081DFE815F004006500C600270100EB030C14F0400F01D0C0214D
:400C000000E080218CF8001049B214F0100F02D04FF0300A01E04FF0200A4AEA01018CF8001014F0040F02D04FF00C0A01E04FF0080A4AEA01018CF8001014F0010F02D002
:400C40004FF0030A01E04FF0020A4AEA01018CF800100EEB020C14F0800F01D0032100E002218CF8001049B214F0200F02D04FF00C0A01E04FF0080A4AEA01018CF80010BB
:400C800014F0080F02D04FF0300A01E04FF0200A4AEA01018CF80010013A92B214F0020F02D06FF03F0A01E06FF07F0A4AEA01018CF8001028E100EB030C14F0400F01D0F2
:400CC000802100E040218CF8001049B214F0100F02D04FF0200A01E04FF0100A4AEA01018CF8001014F0040F02D04FF0080A01E04FF0040A4AEA01018CF8001014F0010FDB
:400D000002D04FF0020A01E04FF0010A4AEA01018CF800100EEB020C14F0800F01D0022100E001218CF8001049B214F0200F02D04FF0080A01E04FF0040A4AEA01018CF844
:400D4000001014F0080F02D04FF0200A01E04FF0100A4AEA01018CF80010013A92B214F0020F02D06FF07F0A01E04FF0400A4AEA01018CF80010C7E000EB030C14F0400F93
:400D800001D0C02100E040218CF8001049B214F0100F02D04FF0300A01E04FF0100A4AEA01018CF8001014F0040F02D04FF00C0A01E04FF0040A4AEA01018CF8001014F005
:400DC000010F02D04FF0030A01E04FF0010A4AEA01018CF800100EEB020C14F0800F01D0032100E001218CF8001049B214F0200F02D04FF00C0A01E04FF0040A4AEA0101F2
:400E00008CF8001014F0080F02D04FF0300A01E04FF0100A4AEA01018CF80010013A92B214F0020F02D06FF03F0A01E04FF0400A4AEA01018CF8001066E000EB030C14F02E
:400E4000400F01D0802100E0C0218CF8001049B214F0100F02D04FF0200A01E04FF0300A4AEA01018CF8001014F0040F02D04FF0080A01E04FF00C0A4AEA01018CF80010A5
:400E800014F0010F02D04FF0020A01E04FF0030A4AEA01018CF800100EEB020C14F0800F08D0022107E000BFFFFF0F10E0630208A0BC020803218CF8001049B214F0200F19
:400EC00002D04FF0080A01E04FF00C0A4AEA01018CF8001014F0080F02D04FF0200A01E04FF0300A4AEA01018CF80010013A92B214F0020F02D06FF07F0A01E06FF03F0A7E
:400F00004AEA01018CF8001001339BB2202B7FF665AEC8F1AF031BB299101A4A134003D5013B63F003030133174A02FA83F31B7A09F8013008F101081FFA88F8B8F1AF0FBE
:400F40007FF62BAE00240FE0C4EBC403C4EB03136F220E4919440A20FFF7F8FC07210220FFF710FD0134A4B2AF2CEDD9084BB3F87C4000F029FA8442E4D800F02BFABDE8FA
:400F8000F88F00BF0300008010A00810A0BC0208E06302082DE9F04706460D4600F00AFAD2210920FFF7EEFC0024C6E0C4EBC407C4EB0717DFF8008207EB08096F220021F2
:400FC000484608F009FB09F1010C784BC3F870C007F1480EC6440EF1060EC3F874E02037B84408F10208C3F87880202000218EE0771C32786E1C95F800900EEB010582EA11
:40100000090212F0400F04D019F0400F03D0802302E0402300E0C0232B705BB212F0100F05D019F0100F05D04FF0200A04E04FF0100A01E04FF0300A4AEA03032B7012F038
:40104000040F05D019F0040F05D04FF0080A04E04FF0040A01E04FF00C0A4AEA03032B7012F0010F05D019F0010F05D04FF0020A04E04FF0010A01E04FF0030A4AEA030355
:401080002B700CEB000512F0800F04D019F0800F03D0022302E0012300E003232B705BB212F0200F05D019F0200F05D04FF0080A04E04FF0040A01E04FF00C0A4AEA0303EB
:4010C0002B7012F0080F05D019F0080F05D04FF0200A04E04FF0100A01E04FF0300A4AEA03032B70013880B212F0020F05D019F0020F04D06FF07F0203E0402201E06FF0F7
:401100003F0213432B70013189B235463E4620297FF66EAFC4F1AF031BB29910244A134003D5013B63F003030133224A02FA83F31B7A08F801300134A4B2AF2C7FF636AF93
:40114000002421E0C4EBC405C4EB05151A4B1D446F2229460A20FFF7F9FB07210220FFF711FCC4F1AF0343F38D032B44002283F822206F2229460A20FFF7E8FB072102201A
:40118000FFF700FC0134A4B2AF2CDBD9074BB3F87E4000F019F98442D2D800F01BF9C2210920FFF7EFFBBDE8F08700BFE06302080300008010A00810A0BC0208002307E023
:4011C0001349086F5522C254496FCA5401339BB2202BF5D970B5002416E0A6080C4DAA6F04F003030B490B441B7A93556F2229460A20FFF7ABFB07210220FFF7C3FBAB6FC8
:4012000000229A550134A4B2AF2CE6D970BD00BFE063020810A0081008B5002304E00021094AD1540133DBB2152BF8D900210420FFF7A8FB6F2204490A20FFF787FB0721C2
:401240000220FFF79FFB08BDE063020838B50E4C1023A360142001F005F800F0D9F808220A4B9A604023A3600425A5600A2000F0F9FF65600A2000F0F5FFA5600A2000F039
:40128000F1FFFFF7BDFB38BD800232400006324038B5FFF793FFFFF7BFFF1E2000F0E2FF234C40256560322000F0DCFFA56000210F20FFF773FB10F0400F36D000210B20E7
:4012C000FFF760FB01210320FFF75CFB03210520FFF758FB01210520FFF754FB322000F0C1FF80210420FFF74DFB00210520FFF749FB01210720FFF745FB1E2000F0B2FF0A
:4013000000F094F8102363606560142000F0AAFF0822084B5A60042363602025A5601E2000F0A0FF6560002038BD042038BD00BF800232400006324010B50446FFF746FB0D
:401340002046FFF7E9FB10BD08B510B1FFF77EFF01E0FFF79DFF08B9012008BD002008BDF8B507460E4614461D4613B10120FFF7EBFF24B931463846FFF70CFE15E0631E58
:40138000DBB2012B11D800213846FFF7F1FB012C07D101213846FFF7EBFB02213046FFF7E7FB03213046FFF7E3FB15B10020FFF7CBFFF8BD08B50022024BC3F8082100F04F
:4013C0006FF908BD00003840014BD3F808017047000038400122014B5A6070470000384010B5074C074A0849204600F097FD236843F0004323600822044B9A6010BD00BF7A
:4014000000006740F40803087CA00810000632400822044B9A60044A136843F000431360704700BF000632400000674008B50249024800F0A7FE08BDF4080308000067403E
:4014400008B50146154800F00BFD144BD3F8C03F13F0040FF9D0114BD3F8042242F48032C3F80422D3F8042222F48032C3F80422D3F80422D3F8042342F48032C3F80423AE
:40148000D3F8042322F48032C3F80423D3F804230422C3F8C02FD3F8C03F08BD0000674008B50146174800F0DBFC164BD3F8C03F13F0040FF9D0134BD3F84003D3F8042207
:4014C00042F48032C3F80422D3F8042222F48032C3F80422D3F80422D3F8042342F48032C3F80423D3F8042322F48032C3F80423D3F804230422C3F8C02FD3F8C03FC0B242
:4015000008BD00BF0000674038B50C46054600B121B940F2E6511B4800F0C8FE22462946194800F0E3FC184AD2F80832C3F30803D2F80822C2F3C032D342F4D1124BD3F81E
:40154000042242F48032C3F80422D3F8042222F48032C3F80422D3F80422D3F8042342F48032C3F80423D3F8042322F48032C3F80423D3F804230422C3F8C02FD3F8C03F0D
:40158000204638BD1CA0081000006740044B1B6913F0080F01D0012070470020704700BF8002324008B54FF48071034801F0DAFC024802F0E3F808BD60640208F8F908107F
:4015C000024A136801331360704700BFF008030810B52021002000F019FF002409E0204600F044FF20B90849204600F031FF02E00134042CF3D9042C03D9A421034800F061
:4016000055FE00F0DBFE10BDC11508105CA0081008B5FFF7DDFF08BD10B582B002AC012344F8043D00231A461449154802F026FA214603F0F6FD04F055FA60B14FF48472FC
:40164000B021002004F033FB4FF48472B021002004F059FB0BE0B0224FF48471002004F026FBB0224FF48471002004F04CFB0549002004F033FB02B010BD00BF80010910EE
:40168000B4010910A0440208012901D1002070474FF0FF30704700BF004870476065020808B5084B1B783BB9074A0021074800F0E7FE0122034B1A70044B01229A609A615A
:4016C00008BD00BF107C0208B0A00810000038401F4B98422DD00CD840282ED003D8E8B1102828D02FE0802829D0B0F5807F28D029E0184B984228D006D8B0F1204F0DD06C
:40170000154B984212D01EE0144B98420AD00133984209D0023B984215D101E0002070470F4870470F4870470F4870474FF4A0007047074870470D4870470D4870470D48A9
:401740007047034870470C4870474FF4A400704706005200010000F0090000A0040000F0010052000200520003005200010050000200500005005200FF00520038B5124B90
:401780001B6893F83130012B04D840F2C3110F4800F08CFD0C4B1D682A6AB5F8B03013442C46D5F8B420D358002B0BDB084B1868FFF78EFF6B6801229A6063689B68002BFA
:4017C000FBD138BD034838BD18090308FCA00810147C0208020050001A4B186128B102230370FF23437000234380174B1B6893F850202AB300B583B0B3F93830ADF8003084
:40180000002301931149684600F0F2FCBDF90030002B08DB590903F01F03012202FA03F30B4A42F82130084B1B6893F8513023B102220849012000F077FA03B05DF804FBF7
:40184000704700BF147C020818090308C145020800E100E07946020808B50248FFF7BCFF08BD00BF287C020838B50B4B1B68D3F8B4301B58002B0DDA0D4604460B0C1B04DB
:4018800023B140F2D521054800F010FDA9B26160002038BD024838BD180903083CA1081001008A0038B50368002B01DA002300E0094B73B90D460446C2600B0C1B0423B11C
:4018C00040F2BB21054800F0F1FCA9B2A160002038BD014838BD00BF01008A003CA1081038B504460D4619B99921084800F0DEFC074B1B68D3F8B4301B59002B03DAE36847
:401900002B60002038BD034838BD00BF7CA108101809030801008A00254B1B6893F8313083423AD900293AD00B6813F01F0F38D170B50D4604461E4B1B6893F83130984211
:4019400004D340F2C3111B4800F0B0FC184B1B68186AB3F8B03004FB0304174E34602A68D2080021686807F037FE00212046FFF77BFF346825B940F293310E4800F096FCD1
:401980002A4600212046FFF78DFF60B900210A4B1868FFF769FF40B970BD084870470748704706487047064870BD054870BD00BF180903083CA108102C7C020803018A00F4
:4019C00001018A0010B504461346B2B9A9B9124B1B6893F83130984204D340F2C3110F4800F064FC0C4B1B681A6AB3F8B03004FB03240B4B1C60002010BD43B149B1084AEE
:401A000051609360111D2046FFF786FF10BD054810BD044810BD00BF180903083CA108102C7C020803018A002DE9F0411B4B1B68DC68236883422CD90D464609A0EB461087
:401A4000012303FA00F819B900F09BFC074600E00027124B18680368002B01DA002300E00F4B83B9626852F8263018EA030F05D023EA080342F82630002400E0094C002144
:401A8000FFF7F2FE00E0084C25B9384600F07DFC00E0064C2046BDE8F08100BF2C7C020801008A00020188000301880004018A000B4B1B68DB681A6882420CD94109A0EBDB
:401AC0004110012202FA00F05B6853F82130184203D004487047044870470448704700BF2C7C02080101880004018A0000018800024B1B680BB9014B18607047387C020811
:401B00002DE9F8430446884691461D46089F2C4B1B681BB9B5212B4800F0C8FB284B1B682C2000FB04F01C18EEB21E50C5F3072363602D0CA560244B1B6893F831309E427D
:401B400004D340F2C311214800F0B0FB1E4B1B68196AB3F8B02006FB02162661666893F832309E4204D340F2DF11184800F09EFB154B1B681D6A803605EB46156561A6683E
:401B8000330C1B0423B14FF4FF71104800F08EFB330C1B0423B140F2FF110C4800F086FBB3B243EA0646AE60C4F81C90C4F820800023A36117B1B7F90030A381BDE8F88373
:401BC000387C0208BCA10810180903083CA10810F0B58FB0044618B95221274800F066FBA369072B03D95621234800F05FFBE36A1BB95821204800F059FB236B1BB95921F7
:401C00001D4800F053FB07AD04F114060FCE0FC537682F6002AD26460FCE0FC533682B60164B1B68B3F93620079B1344ADF83030089B0D93A26AE16A0CAD00953B460A987E
:401C4000FFF75EFF00210091069B0A460598FFF757FF216B284600F0CBFABDF93030002B08DB590903F01F03012202FA03F3044A42F821300FB0F0BDBCA108101809030840
:401C800000E100E0F8B506460F461D4614461AB9FD211F4800F00AFB1E4B1B681BB9FE211B4800F003FB1B4B1B682C2101FB063001FB07314B68012202FA03F31B044668AA
:401CC00002FA06F60269EAB18F69EFB91268002A01DA002200E0104AC2B92288134323600369DC6001238B614D620469330C1B0423B140F2BB21094800F0D8FAB2B2A260E0
:401D00000020F8BD0648F8BD0648F8BD0548F8BDBCA10810387C020801008A003CA1081004028A0007028A00F8B505460F4616460E4B1B6823B94FF4AF710D4800F0B6FA37
:401D40000A4B1B682C2404FB0534236A23B94FF4B171074800F0AAFAE369B34204D9236A43F826700020F8BD0248F8BD387C0208BCA108100A028A0070B582B0002301932B
:401D8000044620B940F2D111284800F08FFA236923B94FF4E971254800F088FA636923B940F2D311214800F081FA236A23B94FF4EA711E4800F07AFA6369DD682A0C20D085
:401DC00012041A601B682069194B1B68D3F8B430C358002B15DA01A9FFF782FD60B9019803681E0CDBB2E269934206D2226A52F8233013B1984700E0002631462069FFF7C9
:401E000033FDADB275B16369ADB21D601B68636A1BB198470023636202E0A36A03B198470023A36163691B6802B070BDBCA108101809030810B50446074B1B6823B940F2F8
:401E4000B111064800F032FA034B1B682C2000FB0430FFF791FF10BD387C0208BCA10810036813F4006F01D0802200E04022D0F80832C3F30803934203D0C0F84012012038
:401E800070470020704700BF10B4D0F8003203F00F03072B06D900230DE0CC5CC0F84042013300E000239342F7D306E031F81340C0F8404201339342F8D35DF8044B7047EE
:401EC00010B51446036813F4006F01D0802200E04022D0F80832C3F30803D31AA34200D81C462246FFF7D0FF204610BDF8B507460D461446D0F8006206F00F060BE02246CF
:401F000029463846FFF7DCFF072E01D9430000E003461D44241A002CF1D1F8BD002800F02481F8B50546002900F0218117460C460B78012B03D93F218F4800F0B7F96378CA
:401F4000012B07D9052B05D0022B03D040218A4800F0ACF9A378032B03D94121864800F0A5F92378012B07D16368023B0E2B03D94321814800F09AF9A36933F00F0303D025
:401F800044217D4800F092F9A368043B0C2B03D94521794800F08AF9E368043B0C2B03D94621754800F082F96378022B07D0A268E3689A4203D047216F4800F077F9636A2A
:401FC00033F06D0303D049216B4800F06FF9E36A33F0730303D04A21674800F067F9236B33F4206303D04B21634800F05FF96378A678052B07D8DFE803F00603050606039A
:40200000022600E00026A368082B04D8E368082B03D9002302E0002300E0012313B14FF4006200E00022237F13B14FF4807300E000231A436368013B03F00F03134343F0D6
:4020400080732B60226A2B6813F4006F01D0802300E040239A4203D35821474800F026F9A26A2B6813F4006F01D0802300E040239A4203D35921404800F018F9237D0BB9E8
:40208000012100E000216278052A01D1022300E000230B43E17C09B1102100E000210B43617C09B1202100E000210B432178012902D14FF0004100E000210B43B60006F0DD
:4020C0000C063343A169090201F470610B43120602F0407213432B62237C13B14FF4807200E00022A37C13B14FF4007300E000231A43A368013B03F00F031343C5F800336B
:4021000094F82030C5F80433237C13B14FF4807200E00022E368013B03F00F031343C5F8003294F82830C5F80432636A03F06D03C5F8C83FE36A03F07303C5F8883F236BD1
:4021400003F40073C5F8003F236B03F40063C5F8403F0023C5F8C83E5FB118463B60BB61FB60FB61054B3B62F8BD054870470448F8BD0020F8BD00BF40A20810EFCDAB0077
:402180000140AA00036823F00043036019B100220A60CA608A61036A002B04DB0023C0F8C83FC0F8883F704738B50D4B9A680D4B9A420FD10D46044621B940F237110A4878
:4021C00000F074F804F11003064A52F8230042F8235038BD1030054B53F8200038BD00BF00ED00E00040020880A208100000081048B338B504460D464368072B03D9322173
:40220000134800F053F8B4F900306268002B08DB5201D2B203F1604303F5614383F8002305E003F00F035201D2B20A49CA540A4B9A680A4B9A4208D12946B4F90000FFF706
:40224000B3FF002038BD06487047002038BD00BF80A2081014ED00E000ED00E0004002080100560010B5044605E0084B186800F07FF8A4F50044B4F5004FF6D8044B186895
:4022800000FB04F000F074F810BD00BF9C4402089844020808B5034B1B7800FB03F000F067F808BD9444020801BEFEE738B50D46044C18220146204607F0BAF9A56100200A
:4022C000FFF7F2FFF04A0208FEE700BF08B50268254BDA6142681A6282685A62C2689A620269DA6242691A6382695A63C2699A631E4A916AD963D16A1964516A5964516B21
:402300009964926BDA64F1EE103A13F0900F27D0026A154B1A65426A5A65826A9A65C26ADA65026B1A66426B5A66826B9A66C26BDA66026C1A67426C5A67826C9A67C26C68
:40234000DA67026DC3F88020426DC3F88420826DC3F88820C26DC3F88C20026EC3F89020FFF7B2FF08BD00BFF04A020800ED00E00230800803D001300238FCD100BF00BF02
:402380007047EFF3108072B6704780F310887047084B1B6813F4803F07D17047064B53F8243003B19847013401E010B50024042CF4D910BD10E000E0787C0208044B1A683D
:4023C00042F002021A601A6842F001021A60704710E000E0042805D10A4A136843F0040313607047084B1B681A68D3F8A030000600F04070D050034A136823F00403136032
:40240000704700BF10E000E01809030810B50C46002304E000210A4A42F823100133042BF8D9084A084BDA63FFF7D4FF24F07F44064B5C6000229A60FFF7C0FF10BD00BF0A
:40244000787C0208912308100040020810E000E00346042805D8044A52F8200042F8231070470020704700BF787C0208042803D8024B53F82000704700207047787C02086B
:4024800000287DD00346002A7CD070B45068000280B29568AD0405F480252843D468240404F4403404431069000600F0E0602043147F0CB1012400E0002420430C1DA4014E
:4024C0001851D06828B903EB81100024C0F808410CE0012805D1146803EB8110C0F8084104E003EB81100124C0F80841106938B9546903EB8110C0F80C419469C0F8104195
:40250000146803EB8110C0F81441906CB0F1FF3F17D0946A04F00F04166B360206F470663443956B2D0405F470252543146C2403A4B22C430001C0B2204303EB8114C4F824
:402540002001506A00F00300D66A360106F030063043556B2D0205F440752843D46BA401E4B20443506C800000F00C00204303EB8113C3F82401126AC3F83821002003E01E
:40258000024870470148704770BC70470100B600002800F0AC8070B40446002A00F0A98092F828300BB1012500E00025137F0BB1022300E000231D431669B60406F4802613
:4025C00045EA060395682D0405F440351D431668300600F0E0602843136B556B43EA45031B0503F440130343906B43EA8000052E03D1D3681B029BB202E053681B029BB29A
:402600000343081D800123501368062B08D104EB81130120C3F808013F20C3F828011DE0936843B904EB81130020C3F808013120C3F8280112E0012B08D1506904EB811348
:40264000C3F808011C20C3F8280107E004EB81130120C3F808011220C3F82801106A04EB8113C3F80C01506AC3F810015069C3F814019069C3F81801136EB3F1FF3F17D026
:40268000106C00F00F00966C360206F470663043156D2D0405F470250543906D000380B228431B01DBB2034304EB8110C0F82031D36B03F00303566C360106F030063343B2
:4026C000D56C2D0205F440752B43506D8001C0B21843D36D9B0003F00C03034304EB8114C4F82431D36AC4F83831002002E002487047014870BC70470100B600014B18607F
:40270000704700BF180903082DE9F8430E46074618B93A217548FFF7C9FD1EB93B217348FFF7C4FD002F00F0DA80002E00F0DA8032686F4B13401BB14A216C48FFF7B6FD8F
:4027400072686C4B13401BB14B216848FFF7AEFDB36813F0FC2F03D04C216448FFF7A6FDF36813F0FC2F03D04D216048FFF79EFD337D032B03D94E215C48FFF797FDB369A8
:40278000B3F5803F03D34F215848FFF78FFDF36D072B03D950215548FFF788FD336EB3F5803F03D351215148FFF780FD736EB3F5803F03D352214D48FFF778FD736843F058
:4027C00000437B60B3683B61F3687B613369BB61337D9B07FB61B3693B62336803F46068736803F00409002435E02546A31D06EB83035A68404B13401BB163213B48FFF735
:4028000055FDAB1D06EB8303596805F1200247F822105B6813F0012F0BD1B8F5606F08D1B9F1000F05D04FF47842344B23F8152003E00022314B23F81520726F02F11C7308
:4028400003F58033520093FBF2F31BB22C4A42F825300134E4B20F2CC7D9F36DC7F81832F36DC7F81032336EC7F82832336EC7F82032736EC7F83832736EC7F8303296F8A0
:402880007030DBB1B36EB3F1804F03D382211748FFF70CFDF36E23F44F0323F0FF031BB183211248FFF702FD6FF04043C7F80433B36EC7F80033F36EC7F84433D7F8003F53
:4028C0003F2B02D0D7F8003F13B90B23C7F8003F336843F400133B600020BDE8F8830948BDE8F8830748BDE8F88300BF34A408100811DF0001FE302088CA887E1C09030878
:402900003C0903080100060038B50D46044618B9B5211748FFF7CAFC2CB30023236063604FF0031222616261A361E361236206E003F12002002144F822100133DBB20F2BBF
:40294000F6D90023C4F81832C4F82832C4F838325DB16FF04043C4F804330020C4F84003C4F8440338BD034838BD002038BD00BF34A408100100060008B50368002B0ADBE6
:40298000D0F8A032002BFBDB036843F0004303600220FFF77FFC08BD38B505460C46012904D940F271110648FFF780FC012C04D16B6843F480336B6038BD01236B6238BD76
:4029C00034A4081038B505460C460F2904D94FF415710848FFF76AFC0F2C07D8203455F8243013F0012F03D0002038BD002038BD012038BD34A4081038B505460C460F29CC
:402A000004D940F222211048FFF750FC0F2C14D821462846FFF7D6FF80F0010010F0FF0F05D06B6813F0080F09D1002038BD6B6813F0040F05D1002038BD002038BD0120A9
:402A400038BD012038BD00BF34A4081038B505460C460F2904D940F27B210648FFF726FC0F2C04D8603455F8240080B200E0002000B238BD34A40810F8B506460C4615463E
:402A80000F2904D940F27B311948FFF70FFC0F2C2BD8736813F0800F22D104F1200356F8233013F4806F1BD07768C7F302170137012303FA07F7736813F4807F02D1102F8D
:402AC00000D9102721463046FFF796FF20B9ADB2B5FBF7F52DB203E03FB295FBF7F52DB2044B33F81430ED1A2DB22846F8BD00BF34A408101C09030870B505460C461646B8
:402B00000F2904D940F21F411648FFF7CFFB0F2C23D86B6813F0020F21D1324621462846FFF7AAFF42F2107303FB00F2002807DD0D4B53F8240000EBD07002EB600306E0FA
:402B4000094B53F8240000EBD070A2EB6003064A52F8240093FBF0F002E0002000E0002000B270BD34A408103C09030838B504461D4B1A68916892F8703003F0010343F0BC
:402B80008043C1F800340369FF2B0AD89168B2F874200A44516821F47F411B029BB20B435360114B1A68906892F87310032303FA01F592F8703092F8721003FA01F12943E2
:402BC00003F001030B4343F00043C0F800349368D3F80034054D00212846FFF795FEA1682846FFF791FD38BD1809030800001D4108B5074B5B6813F4802F04D00121044886
:402C0000FFF7CAFE08BD00210148FFF7C5FE08BD00001D4108B5084B1B7963B907490848FFF7E6FA044B5B792BB90122024B5A710448FFF79BFF08BD8C7C0208752C0810E7
:402C400064A00810ACA4081008B5084B1B7913F0010F06D1FFF7DEFF044A137943F0010313710348FFF788FE08BD00BF8C7C020800001D4110B5094BD3F81042072C04D9D9
:402C800040F231610648FFF711FB044BC3F81042D3F81022D3F8103210BD00BF00001D4170A4081008B5084B1B783BB9074A01210748FFF76DFC0122034B1A70044B02225E
:402CC0009A609A6108BD00BF927C020838A5081000003840F0B51B4C85B02668F76C3D18306DBC1841180191C718337E02A9013B9BB2EA1A0A801A198A80019A0800D21AD5
:402D0000DB194A80CB8003F0F5FC002818D022000199280002F0DCFA22003900280002F0D7FA019B7A1E5E1C3100280002F0F6FA7A1E3100200002F0F1FA03F02BFCE4E710
:402D400005B0F0BDC0440208064B5A68596B01325A60C2008A18596A51600021117058627047C0467C0903080F2330B542680E4CD90009190D6C2100AA4202D2013BF7D229
:402D800011E00F2B0FD82468A21A0A608268C068002A00D05060002801D0026003E00833DB00CB185A6030BD7C090308F8B5284C0600E368A26B013B0818D3180D00984278
:402DC00006D80368002B03D14368F618FFF7CCFFA36B9D420BD92B1F1F68EF1B3B68002B05D17B683800F6183D00FFF7BDFF0F23DA00A218126C964202D2013BF8D225E0AE
:402E00000F2B23D80833DA00A21850680022A91904392A606E60A8602D610E6029000831904200D04160EA602200DB00E318A860596023682932F31823601278002A05D1B3
:402E4000E268D31AA268934200D9A3603000F8BD7C090308F0B5234B87B09C6BDB680490013BE318039323686568002B30D1039B6719BB422CD93B680293002B28D0194E90
:402E8000DB00726B9B5C012B22D17B6820000193F36A0593FFF768FF3B68726BDB00D3185C60019A3900200006F07BFB029B059A934202D1736B5B1B7363019B2800E1182E
:402EC000FFF774FF049B002B01D0984206D2019D039B6419A342C6D8012000E0002007B0F0BDC0467C090308002806D0034BDA6B0260002A00D05060D86370477C090308A6
:402F0000034BC0005B6B1818406808307047C0467C090308064A10B5D3690133D361526BC300D3181A7801321A70FFF7E9FF10BD7C090308036810B5083B094C1B68626B9A
:402F4000DB00D3181A78012A04D9E169002901D00139E161013A1A7000230360180010BD7C0903080322024B9143186059607047947C020810B5041E0BD0064B5A6BC3008E
:402F8000D3185B6819005868FFF710FF2000FFF7DBFE10BD7C090308F7B5224DEB6A002B07D1214B99685868083105F0D3FE841C03E02B691C1DDB08E418E00000F0CAF8D9
:402FC0000126071E2CD06A6BC300D3185E68EB6A083601932B69696BDA00144B30001B68984729696E630B00CA000432EF62B218601E834203D2013313600832F9E7DB00A9
:40300000F31800265E60074B5A685962511A091959601C61019BB34202D01800FFF7AAFF3000FEBD7C090308947C0208D844020870B5184C230028331A78002A29D101324A
:403040001A70154B0F32DA609A68002A02D15A6892089A605A2210252262002228009040D100611801320864102AF7D15868196803000125143BCB180E3A22616363A1632B
:40308000E0605D6065626560FFF790FEFFF784FF256370BD7C090308947C0208F0B5040085B0FFF7C5FF0323294E03349C43376C201DB84200D30700F26B1400002C06D0B9
:4030C000231F196823688F4232D01C00F6E7F268B36B944663440193043B02931B680393039A019B9D1A2B68002B06D02000FFF7B1FE029B1D68019B5D1B2B68002B23D10B
:403100006B689F4220DC28001C1DFFF72DFEF368E41BDB1BF36073692C19DB1973616B68D81B02D02900FFF741FE231F1F600BE0002B01D0616859606168002900D00B6084
:40314000A24201D12368F363200005B0F0BDC0467C090308F0B585B00400FFF769FF3C4D2E6CB44203D3032303349C4326002B680C360196B34241D32B6B6A689A420FD972
:403180006B686F6A013B6B60FB0003936B6BFA009B185A686A6201221A70002F0AD12DE0013B2B63FFF7F8FE2B6B01332B630028E6D023E00F23DA00AA18126C964201D210
:4031C000013BF8D21A00DB004433EB180F2A0DD81968002907D08C68002C04D061688E420ED9A168F5E701320833EFE73000FFF731FE0028DED03800FFF7A6FD002723E0F8
:40320000636802939E1B2B6C0C339E4201D2029B01932000FFF7A8FD6B6B039A9B185C60019B019A63600023A360019B2760E1180B1F24611A601300029A934204DA130044
:40324000019A981AFFF7B2FD380005B0F0BDC0467C090308002310B5984202D0FFF77AFF0300180010BD000037B50500FFF7F2FF041E0AD0FFF74EFE054B01901B682A009D
:403280000021984701A8FFF755FE20003EBDC046DC440208514BF0B51B688FB0DA69D469A589A84208DBE189814205D32168451B09910121494215E0A168002900D184E0C2
:4032C0000D88A84200DA80E04E8886427DD3451B4968A8B266688000081809960021455E0221415E0891691C6FD022215E5E2420195E0691127E0A92A27C0A9951430C915D
:40330000227C0B922A229B5E1800079301F0AAFF324F0D903A680699D369926B300005920C9A5543099A551904950125A27C02950392DA7E01929B7E0B9A00930A9B02F037
:4033400023F9089B01331BD00220079B184301F089FF3B680899DA699B6B300005930C9B4B430999CB180493A37C02950393D37E06990193937E0B9A00930A9B02F004F984
:40338000164D2B68DB695A7E1B7E9A4217D9079B022B14D00420584001F064FF2B68069AD8690B99437E057E9B18827E51438A19C17E069869430918300001F0D5FF6B463D
:4033C00034229B18187801F04DFF044B617C1A68538CCB1853840FB0F0BDC046C0440208044B1B68DB69DB69002901D01A7C0A60587C7047C044020802230B80704710B517
:40340000C3699A89914203DBDA8901208A4210D29B68181E0DD01A880020914209D35C888C4206D3891A5B688900C85AC04380B2C00B10BD002807D003888B4202D843886E
:403440008B4201D28068F5E770470000F0B5334F8BB03B6804002A215A5EDB690100D8690792FFF7E7FF002855D00388E41A4368E4001E190798B47801F0F4FE39680990A6
:40348000CD6932782B7E08932423C85E84462223C85E896B089B059171680394049101210291E97E0191A97E0091614602F06CF83B68DB695C7E1A7E089294421FD9079A4F
:4034C000022A1CD0DD7E00F082F8079000F079F800F000F93A682423D15E2223D05E2300D2696B43D47E32785B186243089C12186543691801F038FF079800F0EBF8099831
:4035000001F0B0FE054B71781B68DA69927E4A43598C52185A840BB0F0BDC046C04402080C4B70B51B680400DE690D000100F069FFF780FF00280CD002884368A41AE400A6
:403540001C196078B37E5843002D02D0227853432B6070BDC044020801230B80704710B5C069FFF767FF431E9841C0B210BDFF2230B5040014400A40A21A92B213B2002BBC
:4035800001DA524213B25B431D00FF23020A1A4014000A0A1340E21A92B213B2002B01DA524213B2000C5B43090C411A89B208B25B19002801DA494208B280B24043C0185D
:4035C00030BD10B502F048FA02F04EF910BD10B502F04AFA02F048F910BD70B500282CD0002926D0002A25D013880D881C1C2EB21BB2B34200DD2C1C048053884D881C1CC2
:403600002EB21BB2B34200DD2C1C448093888D881C1C2EB21BB2B34200DA2C1C8480D388C9881A1C0CB21BB2A34200DA0A1CC28003E01100082205F0A9FF70BD00280DD04E
:40364000038889B2CB180380838892B2C91843888180D3184380C388D218C28070470000024B1B685884998400207047C0440208024B1B681A7E187610007047C0440208CD
:4036800030B503000222845E06200A5E0020944213DC02228C5E06255A5F94420DDC00229C5E04254A5F944207DC00228A5E0421595ED00FCB179142584130BD10B502F09A
:4036C000BDFA02F037FB03F095F810BD10B502F00FF910BD10B502F013F910BD034B021E1B68D86900D0DA617047C046C0440208084B10B51880084B0A001980074B084935
:403700001B685B7C9B005B58D9680C6A01001800A04710BD640A0308540A0308C04402088C0A0308034B1B682C215A5E988510007047C046C044020870B50024094D0A4E07
:4037400010C53368210028007022984733680422210006489847064B1D60064B1C70064B1C6070BDA47C0208DC4402088C0A0308C0440208740A0308500A0308014BD860F6
:403780007047C046C0440208F0B50700160085B00C000420019301F065FD114B00901A68D36CDD199E19176D019B3C19FF1802AB18001D809E805C80DF8002F09BFF0028DB
:4037C00004D1009801F04EFD05B0F0BD3B0032002100280001F0C8FD02F0DCFEEFE7C046C0440208002110B50800FFF739FF034A034813000100FFF7C7FF10BDFF3F00000D
:4038000001C0FFFF024BDA6FD86742607047C046A47C0208084B10B51A68002A0AD101321A60FDF7BFFEFDF7F7FE0448044B0360FFF7E8FF10BDC046A47C0208247D020802
:403840003937081070B5FFF7E5FF2E22314B1A70FDF7DEFE304C314D2100314B0C3123672B681A1DDA630432A2619B631B645B7C2C4A9B009858C3681B6B98472A4B6366DA
:40388000EB6823622B680833A36101232377E37703F0A4F82300032268331A70234BE064606F6363A36302F023F8A86802F028F81F4A204B1A6001F07DFF050002F05CF9C7
:4038C000060002F05FF9002E01D0002808D102F043F9060002F045F90100300002F046F900210800FFF704FF02F0D2FFA36F002B0AD0A36F002B07D01B68002B00D0984745
:40390000A36F5B68A367F4E701220B4B28001A7070BDC046450A0308A47C0208C0440208180109108C0A030810010910785634FF70010910840A03086C0A03080300002018
:4039400083420ADC054A9B009858002805D0C3681B68002B01D00068F7E770478C0A030810B5FFF7C1FA10BDF8B506000D0017001C1E01DD00201BE01C20FFF78FFB00284C
:40398000F8D0002D01D005610BE00A4BA200D358002B06D01A68002A01D01300FAE71B690361002384618782C660036043608360F8BDC0468C0A030883690C499A0010B558
:4039C00054580368A04204D15350002B01D000225A604268002A00D013600368002B00D05A6000230360436010BDC0468C0A030830B5002801D101203BE08269002AFADCA4
:403A00001C4B19788A4201DB012119701A49920053580D00002B02D15050180029E05968002901D00B00FAE7C1680968DC6824688C4203DD1B68002BF8D1DCE78C420AD12D
:403A4000848A012C07D11C68002C04D02300E4682468A142F7DD5968002902D00860416000E0A85058600022984200D01A000260002030BD3D0A03088C0A030870B51C001F
:403A8000FFF772FF051E0AD0FFF7B2FFEB681B68002B04D1034B16341B68A400E550280070BDC046C0440208F0B5040087B0002800D17BE003F0D6F83D4D02902B682222E0
:403AC0009B5E039303F0B8F82A6883B20093938C00995B1A93842378002B5AD03549200003F02CF901000600200003F051F9304B1A680323918D19400300012905D000232D
:403B0000022902D1C30F1B185B10518C04ADCB1A9BB219B25184298081B2019101395B18AB802423D35E6A4617896B80013BFB182A0020003100EB8003F058F91C4D04AB2D
:403B40005B882A6820009384310000F0C9FB241823780A2B01D00D2B12D103212B689A8D0A40013A012A02D86A46928900E01A8C5A8422780A2A09D19A8CBF189F8405E078
:403B800004AA1088019A2B68101858842378002B0AD10321064B009A1B68988C10189A8D98848A439A8501E0013494E707B0F0BDC0440208FF7F000010B5034B1B685984EB
:403BC0009A84FFF771FF10BDC0440208F8B504000220094B0D001B6816009B8D184300B2FFF7A0FD0700320029002000FFF7E4FF3800FFF797FDF8BDC044020810B51F4AC3
:403C0000030012680020927E013A032A35D8100005F08CF8020F1D25194A0633134004D51022013B524213430133D80F00210B220AE0144A134004D50422013B524213433D
:403C4000013300210122D80F9A42484115E01421180005F09FF801200B2909DC0DE01821180005F097F801200B2906DD042399430023103988425B41180010BDC0440208B6
:403C80000F000080030000808023000530B5000D1B010021984202DD104A013180188022D200904200DD181A3F23402482111840201A0B4D83B25000405B5843A34207D02F
:403CC000102A05D001325200525BE31A5343C01820308009002900D0404230BD00F8FFFF2C010910802310B5DB00C018FFF7CCFF10BD0000F0B587B002910299141A5F1A41
:403D0000210001900C9D394303D1029903F0BCF8BFE0F917E61778184840A11971400026049688420BDD21003C000F0011001A000B00019902980291012101900491E0174D
:403D40002118414001200390A14208D00293019B01921A0001235B4264427F4203932E68002F3FD14C4B04991B6800291BD09B7E3700002B13D10199029801F0CFFA88E029
:403D80003800FFF73BFF002808D1019B0298991B414BC9191B681B6E5B6898470137BB1BA342EDDD1BE0997E3700002914D11B6E02991B68019898476BE03800FFF71EFFCB
:403DC000002808D1019B0299981B334BC0191B681B6E5B6898470137BB1B9C42EDDA013F2F6056E0E30F1B195B10002F00DA5B42294A1268927E002A19D11D00019E019B7B
:403E0000F31A9C4245DB2100280004F0B5FF029B049AC018204B31001B681B6E5B68002A01D10100300098470136ED19E7E7039A013201D1A6192E60019E0593019B28689F
:403E4000F31A9C421CDB039B18182860FFF7D6FE002810D12100059804F08EFF029B049AC0180D4B31001B681B6E5B68002A01D1010030009847059B0136DB190593DDE75A
:403E8000039B013301D104192C602B68039A9B1A2B6007B0F0BDC046C0440208F0B58BB00593634B03901B6804921E7E0F00012E05D1109B0093059BFFF71CFFB5E0039B29
:403EC000049A991A059BF81A0B00034300D1ACE00024013EA14201DA49420134002802DA022340421C43814204DA04231C430B00010018004B108002181804F03DFF102569
:403F00004C4983119C46800622315B00000F5B5E2D1A6B43102D05D0624601325200525E50431B180F220833DD171540ED182D11630702D58023DB005D1BE30702D580233D
:403F40001B015D1BA30702D580235B015D1B8023DB00ED182800FFF7C5FE704304002800FFF792FE4643002C05DA80208000041BA412644203E080239B00E418A412002EBC
:403F800005DA80208000861BB612764203E080239B00F618B612002C02DD621C521005E0E20F1219013CE00F521004196410002E02DD731C5B1005E0F30F9B19013EF00FFF
:403FC0005B1086196946898992B206A894468A1802809DB2BAB2531943806B467610B6B2921BC2801A8A9B8AA4B29E1BEB18C3810023091B141B6244818004818281468103
:404000001A00042100F062F8094C23685B7E002B03D13900039802F037FF23685B7E002B03D10599049802F02FFF0BB0F0BDC046C04402082C0109101FB50024039403AC86
:404040000094FFF72BFF1FBDF7B51F000B4B00901B68002001911600DD6C1C6D02F04AFB00280AD001990098E319AA1961182818FFF7E2FF02F08EFAF2E7F7BDC044020813
:40408000F7B511490A6801910B2A1BDC002A01DC002311E0019B00251C1D5300E41813005E1EB446AE1EA75F874205DB634667533500002BF4D1EBE701995B00CB180132FD
:4040C00098800A60F7BDC046347D0208F0B587B00292002204936E4B039001936D4B059105998A420DDA0398910041180220095E8B4200DD0B000198884200DA019101325C
:40410000EEE7654A1268516900290ED006200A5E0498121A0198904200DD019202228A5E0499521A934200DA1300049A9B180093009B049A9C1A019BA34200DAA6E00025DF
:40414000564B039E1D60059B9D425CDA059B00215F1EBD4200DA691C0223F25E039B8900591802200B5E94461800A24239D1A34203D000212A008C461EE00023F75E029BCF
:40418000FF180023C85E029B3A00C018424B1B681B6E1B68874221DA0200009938001EE0002A0CD0013A0398910041180220095EA14206D101218C446745F1DC20E03A0091
:4041C000F1E7091B1B1B0022B05E59404BD4029BC0180200304B1B681B6E1B68009998470EE0A3420CD002DBA2423FDD02E0A24206DB01E0A34203DC9A423DDCA2421FDDFF
:40420000013504369FE7002420002500234B1A68954212DA04336A00D65E002C08D0029B00999A1918181C4B1B681B6E1B689847012330005C40ED18E8E7009B013376E7B5
:40424000A342DDDB0023F75E0023C95E63466246C91BE31A4B43811A4810002B13DDC01804F08AFDC019FFF70BFFC9E79A42E9DDA342C5DCA242C3DB0027CF5F9C46002034
:40428000315E1000E2E70138181AE9E707B0F0BD01C0FFFFFF3F0000C0440208347D0208044B10B51A68002A00D1186000F036F810BDC046507D0208F8B5084F06683B684B
:4042C00004001B68300098473B6805005B6830009847301820602800F8BDC046840A030870B506000D000024002D08D0054B30001B68013D5B68984736182418F4E72000A1
:4043000070BDC046840A03080078704701207047012070470170012070470000034B10B51B68002B00D0984710BDC046B07D02080200FF231100000A194010B51840120C3C
:4043400040181340C0188030FF30024904F014FD10BDC046FD020000002800D000487047FFFFFF0001207047F7B58068C46A856B624307245218D2080192026A0C4092004A
:40438000002D18D080212141CCB2A446C94301248218151F019E2D68AD192F783E000E40234201D066463E436400043A2E70E4B29042EED117E001210D00A540ECB2A446F4
:4043C000ED438218141F019E2468A41927783E002E400B4201D066463E434900043A2670C9B29042EED1F7BD70B5072584680D40E36AA06B5A43236A5218D2089B00002852
:4044000010D0802129410020CDB20121E318043B1E68B65C2E4200D008434900C9B29C42F5D10EE001210E00AE40E318F5B2043B1E68B65C2E4200D008434900C9B29C4259
:40444000F5D170BDF8B50D0016000400FFF7CCFF070023699B6898473B003200434029002000FFF781FFF8BDF0B580688BB00090066AC06A5B1A42435F1CA44B5218D20841
:404480001B680190039200981A7C806BD20779D50722082311405B1A002839D0F8321000DD1B0841AA40C4B21040C2B238009F4200DD1800381A009D0190B00028189F42CA
:4044C00000DB221CD3B29C46FF25031F039A1B689B183A00002905D064461A7862401A70019A0133072A05DD1E78083AF6431E700133F7E7002A06D00824A21A2C00944008
:404500001E7866401E70009B04388342DDD1FAE0FF221000DD1B88402A41C4B21040C2B238009F4200DD1800381A009D0190B00028189F4200DB221CD3B29C46FF25031FD2
:40454000039A1B689B183A00002905D064461A7862401A70019A0133072A05DD1E78083AF6431E700133F7E7002A06D00824A21A2C0014411E7866401E70009B0438834266
:40458000DDD1C0E00722DB6B11401B68FF22019308230491591A130000285AD00498CC1B0341A2401A40D8B2D3B23A008F4200DD0A00BA1A09928F4200DB031CDAB2DB4335
:4045C0005BB20893012307920293013E009AB300D458039B3D00E418049B002B0BD02278089B019902981340014201D0079B1343099D23700134072D14DD029A0199444B65
:4046000011404A1E91412B400593059A414B49421B68D2102000C9B206929847069BE418059BED1A002D0DD0082321785D1BF733AB400A000198029D9A43284201D00B4378
:40464000DAB22270029B5B00DBB20293002EBCD159E00498CC1B834022411A40D8B2D3B23A008F4200DD0A00BA1A09928F4200DB031CDAB2DB435BB208930123079202932C
:40468000013E009AB300D458039B3D00E418049B002B0BD02278089B019902981340014201D0079B1343099D23700134072D14DD029A0199164B11404A1E91412B4005933E
:4046C000059A144B49421B68D2102000C9B206929847069BE418059BED1A002D0DD0082321785D1BF7332B410A000198029D9A43284201D00B43DAB22270029B5B00DBB24F
:404700000293002EBCD10BB0F0BDC046C0440208F8FF0000DC440208F8B505000E0014001F00069B9C4207DC22003B0031002800FFF79AFE0134F4E7F8BD002382680B8096
:404740004B80D36A013B8B80136B013BCB80704700B58368481E0D2818D804F0E7FA090B0D0F17171711131A1A070707002011E0586A0FE0986A0DE0D86A0BE0186B09E002
:40478000186A07E001201B6A984003E00120404200E0012000BD000009390020062902D8014B8900C85870479801091010B501290FD1094B1B68587CFFF7C0F803699B686E
:4047C000984701F01EFA054B012803D0044B082800D00023180010BDC04402080C0209108002091010B5002206218069FCF74CFF10BD10B5002205218069FCF745FF10BD62
:4048000073B504000E00150000210822684604F0E3FE6A460321A06900960195FCF734FF73BD0000F7B51D000F4B14001B6806001A7C0F00D20708D5A54213DB22003900B1
:404840003000FFF7FFFD0134F6E7DB6B1B680193AC4207DC2200019B39003000FFF784FD0134F5E7F7BDC046C0440208F0B591B00193179B0390581E06910592072801D9F3
:4048800000F05EFC04F05CFA230021005C041F005C045C045C0408000723069A1340802211001941C9B29A40099101219940D3B2199A0A939446019BC9B263440293059BC3
:4048C00007910893FBE2059B50E2059BB0E11A9A069B9446634409930723099A134080221A41D2B20A9201229A40D3B20C93059B0793059A079B9B1A169A9A4201DC00F04C
:404900001FFC1B9BBE4C5B680693039B9B680293D96A1A6A079B5943099BC918CB08049303232168087C1840022800D1A1E0984200D10FE1012800D10CE11B9B06981B68B6
:404940000893834210D1CB6B089A1D681A60099A019B09999B18013B079A0398FFF784FD2368DB6B1D6043E1029B92009B6B002B3ED00127029B9E1808990FAA39401170ED
:404980000699049B39405170321F12680A99D218019B1A989C46199B0B936346002B20D08025054113780D930B9B1C782C40651EAC410FAD2D5D0D9C8C43002D01D00D9C50
:4049C0000C4301301470082803D10B9801300B900020490801D10132803101235B429C44DBE7029B7A00043ED7B2B342C4D1FFE00127029B9E1808990FAA394011700699FD
:404A0000049B39405170321F11681A98C918019B0C9A9C46199B0B936346002B22D0802505410B780D930B9B1C782C40651EAC410FAD2D5D0D9C9443002D01D00D9C14431C
:404A400001300C70082803D10B9801300B9000205200D2B2002A01D10131013201235B429C44D9E7029B7A00043ED7B2B342C2D1BEE0029B92009B6B002B34D0029B9A18A3
:404A800001230893089B06990A9819400B91111F0968049B019D1A9C199EC918002D19D08023234137783B4209D00B781F009C460B9B8743002B01D0674607430F70013475
:404AC000082C01D100240136400801D101318030013DE3E7089B043A5900CBB20893029B9342CFD184E0029B9A18012308930899069B019D0B40111F08680B93049B0C99CE
:404B00001A9C199EC018002D1BD08023234137783B4209D003781F009C460B9B8F43002B01D067460F4307700134082C01D1002401364900C9B2002901D101300131013DB0
:404B4000E1E7089B043A5900CBB20893029B9342CDD14DE0029B92009B6B002B23D0029B9A18111F0968049B0A9C019D1A98199EC918002D12D08023034137783B4202D07A
:404B80000F7867400F700130082801D100200136640801D101318034013DEAE7029B043A9342DED124E0029B9A18111F0868049B0C99019D1A9C199EC018002D14D080235E
:404BC000234137783B4202D007784F4007700134082C01D1002401364900C9B2002901D101300131013DE8E7029B043A9342DCD1189A199B944663441993079B013377E6E6
:404C0000C04402081A9A199B944603221C78069B63440493C34B1B681B7C134010D0022B4DD0189A199B944663441993029B01330293059A029B9B1A169A9A42E2DC7FE252
:404C40001B9B1A9D199E0499002B23D003235A1B5200DB18981ABA3303412340D3401B9A9B009B580398029A01354F1CFFF77CFB042D02D1002574780136019B049A3900D5
:404C80009B189F42E2D1CCE7019B049A39009B189F42C6D003235A1B5200DB18981ABA3303412340D3400398029A01354F1CFFF75BFB042DE8D1747800250136E4E71B9B4D
:404CC0001A9D019E199F002B27D0019B049A991803235A1B5200DB18981ABA3303412340891BD34006D01B9A9B009B580398029AFFF73AFB0135042D02D100257C780137B6
:404D0000013E002EE1D18CE70135042D02D100257C780137013E002E83D0019B049A991803235A1B5200DB18981ABA3303412340891BD340E8D0029A0398FFF715FBE3E70F
:404D40001A9A199B944603221F78069B63440493744B1B681B7C134010D0022B4DD0189A199B944663441993029B01330293059A029B9B1A169A9A42E2DCE1E11B9B1A9C9E
:404D8000199D0499002B23D001231A1B9200CE180333981AEC3303413B40D3401B9A9B009B580398029A0134FFF7DEFA022C02D100246F780135019B049A31009B189E421B
:404DC000E2D1CCE7049B019A31009B189E42C6D001231A1B9200CE180333981AEC3303413B40D3400398029A0134FFF7BDFA022CE8D16F7800240135E4E71B9B1A9C019DF9
:404E0000199E002B27D0019B049A991801231A1B92000333981AEC3303413B40491BD34006D01B9A9B009B580398029AFFF79CFA0134022C02D1002477780136013D002DBF
:404E4000E1D18CE70134022C02D1002477780136013D002D83D0049B019A991801231A1B92000333981AEC3303413B40491BD340E8D0029A0398FFF777FAE3E7039B08985E
:404E80009B680193019A1B6AD16A4143069809180320C9080491234909680B91097C014014D0022900D1ABE0189A199B944663441993089B01330893029B63440293059A0D
:404EC000089B9B1A169A9A42D8DC39E1019A1B98916B9B0000284ED0002925D00124D318191F04980968199D09180998029A954211D02E780F781B9AB600B2583E008643ED
:404F0000224201D03E0006430E70400801D1013180300135EAE7019A6400043BE4B29A42DED1C1E7C04402080124019AD318191F0868049A199D07998018029A954213D0EA
:404F40002E7807781B9AB600B2583E008E43224201D03E000E434900C9B20670002901D1013001310135E8E7019A6400043BE4B29A42DCD198E7019A0124D318002938D06F
:404F8000191F0968049A199D09988918029A95420ED00F782A783E008643224201D03E0006430E70400801D1013180300135EDE7019A6400043BE4B29A42E1D174E70778B5
:404FC0002A783E008E43224201D03E000E434900C9B20670002901D1013001310135029A9542ECD1019A6400043BE4B29A4200D15AE7191F0868049A199D80180799EEE773
:40500000019A9B00916B1B9A002A4FD0019A0124D318002937D0191F0968049A199D09988918029A954213D02E78002E0AD00F781B9AB600B2583E008643224201D03E00AC
:4050400006430E70400801D1013180300135E8E7019A6400043BE4B29A42DCD124E72E78002E17D14900C9B2002901D1013001310135029A9542F2D1019A6400043BE4B2E2
:405080009A4200D110E7191F0868049A199D80180799EEE707781B9AB600B2583E008E43224201D03E000E430670DBE7019A0124D318002934D0191F0968049A199D0A98CD
:4050C0008918029A954210D02A78002A07D00F783E008643144201D03E0006430E70400801D1013180300135EBE7019A6400043BE4B29A42DFD1D7E62A78002A17D1490041
:40510000C9B2002901D1013001310135029A9542F2D1019A6400043BE4B29A4200D1C3E6191F0868049A199D80180799EEE707783E008E43144201D03E000E430670DEE778
:4051400011B0F0BD70B505680400002D0AD13C20FDF7A4FF2060002804D0044B3C221B682900984720684342584170BDDC44020870B504000830FFF7E5FF002205000121FB
:40518000A069FCF781FA284370BD73B504000D00160000210822684604F01EFA20000830FFF7D0FFA368002B0CD05A6B002A00D15D635D629E626A460721A0690095019611
:4051C000FCF762FA73BD70B5050008300C001600FFF7B8FFAB68002B02D0DC621E635C6370BDF7B50500002708300E000197FFF7A9FFAC68BC4213D02B699B68984700F095
:40520000C7FC3B002062F258E2500433202BFAD1E36A01AA63630221A8690196FCF734FAF7BD70B5040008300D00FFF78BFFA368002B01D02A689A6370BD000070B5084B9E
:405240001B681A7C11004140490705D59C6BD96B25680E6826600D601874100070BDC046C044020810B5024B1B689B68984710BDD044020870B5144B05001B680A000A2099
:40528000195E91421EDC0E20195E8A421ADC0820195EA94216DC0C20195E8D4212DC5C7C187C0A49A400C00705D508592900C368DB69984706E00859DB6BC1681B688C695D
:4052C0002900A04770BDC046C04402088C0A030870B5104B0D001C680A21635EAB4217DC0E21635E9D4213DC0823E15E814200DA01000C20235E934200DD1300994207DCE9
:40530000627C054892001058C26894682A00A04770BDC046C04402088C0A030870B5104B15001C680822A35E834218DC0C22A35E984214DC0A23E25E8A4200DA0A000E21ED
:40534000635EAB4200DD2B009A4208DC617C054C89000D59E968CC6801002800A04770BDC04402088C0A030873B51E00114B0D001C680823E15E814200DA01000C20235E41
:40538000934200DD13008B4213DB0A20225EAA4200DA2A000E20255EB54200DD3500AA4207DC607C044C80000059C46800952469A04773BDC04402088C0A0308F0B5170075
:4053C0006E4A91B01268069308900C001C9B002A10D01B9B05931A9B0493199B0393189B0293179B0193169B00931568069B3A00A847C1E016991798014301294FD1604A08
:40540000069D10680A21425E111B002909DD6D1A002D00DCB0E0199E71431A9E71181A9100E02200069964180E26815F013C641A002C03DD2D1B002D00DC9DE008990C263B
:40544000845FC9190139091B002900DD7F1A08990826845FC91AA1420CDA641A1B199C46DE101A9B3F1B9E191A9607266346B44309193340002F7FDD407C424C8000005904
:405480001B9EC46804931A9B05960393199B00950293189B019364683B00A0476CE00823160018990A925B1A0E930A9B069A934262DA179BE3180C93013B0D93304B1B680B
:4054C0000A215A5E0D998A424CDC0E229B5E9C4248DC00251A9B09950B93089B0793099BBB423FDA002D04D10B9B08351E7801330B9333000E9A1899134132008A40D6B246
:40550000DAB26D1A002A05D102211D4A1268127C0A421ED11A4A1268D26B11680F911B99002905D0FF210B401B999B005B5801E0FF210B401360169B21005A1E079B0798EE
:40554000D2180D9BFFF710FF0D4B0F9A1B68DB6B1A60169A099B944601330993079B63440793BCE7199A0A9B944601330A931A9B0C9C63441A9398E711B0F0BD480A0308CE
:40558000C04402088C0A0308F0B593B008937E4B06001B680C0006921A9D1C9F002B0ED01D9A049705921B9A02950392199A0192189A00921D68069A089BA847E1E0189ACA
:4055C00019990A43012A6DD1704B19680A228B5E089A9C461B1B002B07DDD21A002A00DCCFE01B984343FF1800E0A446089BE4180E200B5E013CE41A002C03DD121B002A9A
:4056000000DCBEE0069B0C24085FF318013B1B1A002B02DD0698C31A06930823C85E0023864228DA069C831BE41A0694082D1FD009DC022D0FD0042D15D0012D1BD1D810D9
:405640003F1807200AE0182D11D0202D0FD0102D11D15B000CE098103F1803201C0084433619034007E058103F180120F6E79B00FF18060000230698002800DC81E0497C2C
:405680004348890008581D9CC16804931B9B009202930594039701954C68069B62463100A0476EE00822521B109207930C930C9B089A934265DA199BE3180E93013B0F93F7
:4056C000324B1B680A215A5E0F998A4252DC0E229B5E9C424EDC00230D9709960A930B930B9B069A934245DA0A9B002B07D10D9B1B7807930D9B01330D9308230A93079BB6
:40570000109A1341079AAA40D2B207920A9A521B0A92DAB2002A05D102211C4A1268127C0A421ED1194A1268D26B116811911D99002905D0FF210B401D999B005B5801E085
:40574000FF210B401360189B21005A1E099B0998D2180F9BFFF708FE0C4B119A1B68DB6B1A60189A0B9B944601330B93099B63440993B5E70C9B0E9C01330C931B9BFF186D
:4057800095E713B0F0BDC046480A0308C04402088C0A030810B5054B054A19684B7C08319B009858C3681B6B984710BDC04402088C0A030807B5FFF7EDFF00F0B7F800280A
:4057C0003AD1FEF7BBF80190002807D100F006F91A4A1B4B12689A420ED12CE0C3680C215B6A01A8984703000120002B24D0019898470028EAD01FE00020FEF79FF80190ED
:40580000002818D0002001F053FB0420FFF72AFD00210C4B08001A00FFF7A6FD0020FFF721FD019B0E21DB6801A85B6A9847031E01D00198984700200EBDC046187D0208FC
:40584000785634FFFF3F000010B5054B054A1B685B7C9B009B581B691B68984710BDC046C04402088C0A030810B5054B054A1B685B7C9B009B581B695B68984710BDC046F0
:40588000C04402088C0A0308044B1B681A7C520701D59B6B00E0DB6B18607047C0440208054B10B51B681A6B824204D01863FFF7CBFFFFF7E9FF10BDC0440208044B1B68BE
:4058C0001A7C520701D5DB6B00E09B6B18607047C0440208054B10B51B685A6B824204D05863FFF7B1FFFFF7E9FF10BDC044020810B5024B1B685B68984710BDD044020849
:4059000010B5024B1B681B68984710BDD044020810B5044C2068FDF7E7FA0023024A2360136010BD980A0308B87D020870B500240A4D2B68A3420FD1094B18688000FDF7B5
:40594000ADFB2860A04206D00648074B04300360FDF758FF00E00124200070BD980A0308D4440208B87D020811590810F7B5051E28D08768381E25D0134C2068002821D0DA
:4059800080232A685B0000209A421BDC0F4B00921B689A4200DD00930026009B9E420ADA2268B300D218F8580192FFF74DFF019B01361860F1E7064B1B68002B01D02800BD
:4059C00098472068FEBDC046980A0308D4440208B87D020810B5FFF7C9FF10BDF7B500F025F900240090009B9C422EDA2000FDF7A5FF002827D0154E200033685A7C5C7497
:405A0000019200F056F8082804DD6A46336812795A7418E00E4AA300D2580E4B12699A42F3D0200000F04AF800250700BD42ECDAFF202840FFF718FFE9B20200200000F0CC
:405A40001FF90135F2E70134CDE7F7BDC04402088C0A0308F4010910024B1B689B6B18687047C046C0440208024B1B68DB6B18687047C046C044020810B50C00FDF75EFF01
:405A8000002803D0C2682100926A904710BD002310B5984202DCFFF7EFFF0300180010BD10B501000020FFF7E7FFC343DB17184010BD10B50821FFF7EAFF10BD10B509212C
:405AC000FFF7E5FF10BD10B50E21FFF7E0FF10BD10B5034B1B68587CFFF7F0FF10BDC046C044020810B5034B1B68587CFFF7EBFF10BDC046C0440208044B800010B5C05862
:405B00000821C3689B6A984710BDC0468C0A030810B5FDF713FF002803D0C2680221D26A904710BD10B5034B1B68587CFFF7F0FF10BDC046C0440208024B8000C3581B692A
:405B4000586870478C0A0308024B8000C3581B69186870478C0A030810B50120FFF7A0FF10BD10B50220FFF79BFF10BD014B03C37047C046C47D0208014B18687047C0469A
:405B8000C47D0208014B58687047C046C47D02080023984233D0020001339A432FD003220100013391432AD00100053399431300002924D002000C339A430B3B002A1ED08B
:405BC00002001B339A431A3B002A18D00200FA339A43F73B002A12D0420A0833002A0ED0020B0CD0C20B0AD0020C08D0820C0233002A04D0000E0633002800D0083318006F
:405C0000704710B5FFF7C4FF030001280DD0821E0820062A09D9073A0018072A05D900200F22113B9A424041400110BD10B50020FDF784FE431E984110BD00000E4B10B55C
:405C40001C001A680D49527C92005058002809D0C368002B02D01B68042B01D00068F5E7FDF7AAFE00222368DA651A0008325A61FFF790FD10BDC046C04402088C0A03089C
:405C800037B50C001500FDF759FE0190002801D101200BE0C36810215B6A01A89847031EF6D001982A002100984700203EBD37B50C001500FDF742FE0190002801D101209A
:405CC0000BE0C3680B215B6A01A89847031EF6D001982A002100984700203EBD13B50C00FDF72CFE0190002801D101200AE0C36809215B6A01A89847031EF6D00198210085
:405D00009847002016BD37B50C001500FDF716FE0190002801D101200BE0C3680A215B6A01A89847031EF6D001982A002100984700203EBD10B5074C2368186BFFF784FDE0
:405D4000FFF7A2FD2368586BFFF77EFDFFF7B6FD10BDC046C044020870B50024134B144D1C60144B14481C60144B04701C60144B44601C60134B84601C60134B21001C6003
:405D8000124B18221C600C302B689847104B21001C60104B08221C600F482B6898472B68082221000D48984770BDC046C80A0308DC440208B00A0308CC7D0208D00A030817
:405DC000D80A0308A00A0308C00A0308CC0A0308AC0A0308A40A0308E40A0308DC0A0308F0B504000D00160085B0002C50D02000FDF790F80223876A010001901F4241D0E4
:405E000002AC002E04D03200200000F0E1FE02E0230005C905C321002800FDF731FC002830D00122019B17421FD1002E09D05A887188131C08B212B2824200DA0B1C1BB23B
:405E400001E002229B5E0222A95E06202A5E8B4205DD0221635E9A4214DB013B03E00621635E9A420EDDEB800CE0DF69002F09D0380022002900FFF7B3FF3800FDF740F8E9
:405E8000076AF3E7019B01A81C6AFDF753F8ACE705B0F0BDF0B504000F00002687B00192002C39D02000FDF735F80223856A010003901D422AD0019B04AC002B04D01A0014
:405EC000200000F085FE02E0230005C905C321003800FDF7D5FB002818D001231D4204D1A388012601333B8010E0039BDD69002D0CD0220039002800FFF7CCFF002800D095
:405F000001262800FCF7FCFF056AF0E7039B03A81C6AFDF70FF8C3E7300007B0F0BDF0B504000E00170085B0002C34D02000FCF7F1FF0223856A010001901D4225D002ACF8
:405F4000002F04D03A00200000F042FE02E0230005C905C321003000FDF792FB002814D001231D4203D12388013BB3800DE0019BDD69002D09D0280022003100FFF7CFFF96
:405F80002800FCF7BDFF056AF3E7019B01A81C6AFCF7D0FFC8E705B0F0BD0000F7B506000D0002272800FCF7B5FF846A010001903C4004D101A8FCF7BDFF230013E03000FD
:405FC00000F0E8FD019B01A89C69002C07D1FCF7B1FF064B1868401B4342434103E0FCF7A9FF2500DEE71800FEBDC046A40A0308F0B5040085B00D1E4DD0FCF78BFF0023E6
:406000000190036285612800FCF784FFC6690290002E05D1C46101A8FCF78CFF02A838E0019B30009D6A0827FCF774FF3D4003900ED1836A3B420BD0019B01A81E62029B15
:40604000DC61FCF777FF02A8FCF774FF03A820E002A8FCF76FFF03A8FCF76CFF3000FCF74FFF08270390039B1E6A002E01D11C620EE03000FCF744FF002D07D1836A3B4211
:4060800004D0039B1C62019B1E6201E00390EAE701A8FCF74FFF05B0F0BD030010B5080002215A5E0021595EFDF7C8FA10BD0000114B30B51D6885B0696C0400002916D05A
:4060C000082202A803F062FA0C4B1868002800D1A86CFCF71FFF02A90190FFF7DEFF01A8FCF728FF02A8210000F054FD02A802F0EBFC05B030BDC046C0440208A00A0308BC
:406100001FB5104B1B681A0054321278002A02D00D48143012E0986CFCF7FCFE02AC2300019006C806C301A8FCF704FF074B1968002902D02000FFF731FF2000FFF7B8FF92
:406140001FBDC046C0440208CC7D0208A00A030813B5041E22D0FCF7DDFE836A01909B0719D5406A002808D00D4B1B689C4204D000F020FF0022019B5A62200000F034FC6F
:406180000400002C07D02000FFF7E2FF2000FCF7B7FE046AF5E701A8FCF7CCFE13BDC046D40A030803000022815E04201A5E0020914207DC02215A5E0621595ED00FCB17BA
:4061C0009142584170470000F0B585B004000E001500FCF795FE876A0190BB0730D53000FFF7E0FF00282BD0164B3B40012B27D02000FCF78FFE02AC020001903100200053
:4062000000F0E6FC2000FFF7CDFF002815D0019B0D4918009A6A08300A4204D022000100FDF7DBF909E042CC42C02A439A62074A138801331380FEF771F801A8FCF77AFEC5
:4062400005B0F0BD0108000020400000B40A030810B52022FFF7B8FF10BD7FB504000E001500002828D0FCF755FE836A020001909B0703D401A8FCF75DFE1DE0310002A880
:4062800000F0A6FC0028F5D001A8FCF753FE20002A0002A9FFF798FF200000F0A5FB0400002C09D020002A0002A9FFF7D6FF2000FCF726FE046AF3E77FBD0000F0B587B0E0
:4062C00007000D0001921C00002932D00800FCF721FE866A02000390B30727D5390004A800F076FC002821D0134B1E40012E07D1039923000A6A04A88969FFF7DFFF04E0AF
:40630000220004A92800FFF75FFF039BDD69002D0CD0019B9D4209D02800220004A9FFF79CFF2800FCF7ECFD056AF0E703A8FCF701FE07B0F0BDC0460108000010B52023E7
:40634000FFF7BCFF10BD1FB500916946019000F011FB05B000BD00234B800B80028883889B1A8B80C38842889B1ACB8070470000F0B5050087B00F00002835D0FCF7CAFD1B
:40638000866A0190B3072CD504AC230006C806C3F30302D52800FFF7DBFE002F0CD00822390002A803F0F2F802A90198FFF775FE02A9200000F0EEFB29002000FFF7EEFD03
:4063C00000280ED0094B1E40012E06D1019B20001A6A9969FFF7B2FF03E021002800FFF737FF01A8FCF7A6FD07B0F0BD0108000010B50021FFF7BCFF10BD000070B50B4C12
:40640000051E23689E6C01D1094A15689D64FFF7C1F92800FCF774FD23680021425EDA640221425E30001A6570BDC046C0440208B80A0308F0B585B00193494B05001F682D
:406440000A9B0E000092002B27D1464B1B88002B28D0454B1B685A1C012A23D90A930A98FCF758FD03900022835E0222815E009AED187618002A04D10424025FD21A531C7D
:406480000093019B002B04D10622835E5B1A0133019303A8FCF74EFD04E00A9B0133DED100230A930D982C30FCF7DEFE041E53D02C4A0B9B1F43138801331380FCF72AFD43
:4064C000009B02900580ED18019B4680F6180C9B826A0361254B013D3B401343013E83628580C68002A8FCF725FD214B1868002809D0FCF705FD05002000FCF701FD6B6905
:4065000043616C6100E01C600A992000FFF770FDBB0602D52000FFF771FFFB0703D5154A1368013313607B0602D5200000F06AFA02252F420CD02000FCF7ECFC836A029035
:406540002B43836202A8FCF7F5FC2000FFF750FF01212000FFF7F7FE200005B0F0BDC046C00A03089C0A0308A40A03089F3F3F00B80A0308D80A03081FB5089C0394079C58
:406580000294069C019400240094FFF753FF04B010BD00000020F0B5534E85B0336854331B78834200D19DE0504A136A1500012B02DD013B136295E002AC2100D36914327C
:4065C0000133936081CA81C1002B03D1AB892380EB890DE02B8B01331BB22380EA8A628010216A5E9A4204DAAB8923806B8B013363800223E25E12216B5E9A4204DD2B6AB6
:406600000020013B2B626DE03368986CFCF782FC0023E25E0C216B5E01909A4217D16B8AE3802B8AA38033689A6C002A0AD01000FCF766FC070000222100006AFFF7D0FBB7
:40664000BA69F2E7019B2100D869FFF7C9FB2388A38033689A6C002A0CD01000FCF750FC002207002100006AFFF714FC0028EED1BA69F0E7019B2100D869FFF70BFC0028E4
:40668000E5D11022AB5E0021625EA3809A4208DD2B002200143303CA03C301A8FCF74AFCA2E733689A6C002A0AD01000FCF728FC060000222100006AFFF731FCB269F2E7FC
:4066C000019B2100D869FFF72AFC01A8FCF732FC074BEA699A4292DC14350CCC0CC5FFF70FFD012005B0F0BDC0440208CC7D0208204E0000F0B53B4D89B02A68070013006F
:4067000054331B78002B03D1FFF7FAFC012066E00120354E336A34000133336283425EDC906CFCF7F7FB01235B42F3612F4B02901B78002B02D004AB083005E00223826A41
:406740001A4001920AD004AB06C806C304AE002F0CD03900300000F01DFA07E0336A02A8013B3362FCF7E6FB019838E02B68204F596C02A8002918D0029B082206A80393CE
:4067800002F004FF3B68002B06D003A8FCF7D2FB3868FCF7BFFB039006A90398FFF77DFC300006A900F0F6F903A8FCF7C3FB3968002904D03000FFF7F1FB002806D02B68E1
:4067C0003000996CFFF7EAFB002803D1236A013B236204E00C340CCE0CC4FFF7DBFE09B0F0BDC046C0440208CC7D0208BD0A0308A00A03080122024B1B6854331A70704793
:40680000C044020810B5040023684068172B0FD007DC0E2B0ED0142B12D1E16800F0CEF80EE0222B0AD0282B0AD1FFF7E1FD09E0E06007E0210000F025F903E0024B00E0AC
:406840000023E36010BDC046785634FF036810B504000E2B02D00F2B08D010E0C3685A68012A0FD11868FDF71BFD0BE0064B1868064B984203D0FCF729FFFCF7B3FF20007F
:40688000FFF7C0FF10BDC046C40A0308785634FF30B51B4C85B0207800282ED1194BA0601860194B01001B685864184B1880184B188004230293174B019302230093164BF5
:4068C0001A00FFF759FE154B154A164D1A602860FFF78EFD144800F069F8144800F066F82868FFF78BFDFFF785FF0123200023700F4B24306362FCF785FF05B030BDC04644
:40690000CC7D0208B80A0308C0440208B40A03089C0A03084D680810FF3F0000C40A0308785634FFA40A0308E40A0308DC0A0308595D081010B500F05EF80023984202D07F
:40694000FCF7DEFAC369180010BD70B50500FFF7F1FF0400002C0AD0AC4207D02000FCF7CFFA036A9D4202D01C00F3E70024200070BD000070B50C4C060023680D00132BA2
:4069800011DCFCF7BDFA02696E60002A08D0236828000133236090472368013B236002E02800FFF72FFF70BDFC7D0208024B1A68026018607047C046C80A030813B50C0085
:4069C00000280AD0002908D0FCF7A4FA21000190FFF7C1FC01A8FCF7ADFA13BD014B18687047C046A40A030810B5002802D0FCF787FAC06910BD10B5002802D0FCF780FAF4
:406A0000806910BDF0B5040089B0002838D0FCF781FA0200039006AB22CA22C3836A076A03A80193FCF786FA2000FFF78EFF051E26D02000FFF7DFFF019B06009B0704D52C
:406A400001003A0006A8FFF779FC2000FCF762FA03903000FCF75EFA05902800FCF75AFA059B039AD96907620490116203A8DC61FCF760FA05A8FCF75DFA04A8FCF75AFA33
:406A800009B0F0BD70B505000C1E07D0FFF7B3FF002803D0A5602100FFF76CFF70BD0000F7B505000E000120002D66DC334F7B683C00002B01D028009847012E04D0022EC8
:406AC00020D0002E58D133E0AF00E719BC68002C14D12800FCF732FF019000284CD0C3680D215B6A01A89847031E45D0310001989847BB6820000133BB603EE0601CB8606E
:406B000030003AE02800FCF719FF0190002833D0C3680D215B6A01A89847051E2CD02368002B00D0984702210198A847002024E0AF00E3199B68012B01D0012014E028003B
:406B4000FCF7FCFE01900028F7D0C3680D215B6A01A89847051EF0D02368002B00D0984700210198A8470020E719BB681A00511E8A419B1ABB6000E00120FEBD007E020866
:406B800010B5034B01001B68587CFFF789FF10BDC044020810B500228B5E0024025F9A4200DA038002228B5E0224025F9A4200DA438004228B5E0424025F9A4200DD838022
:406BC00006228B5E0621425E9A4200DDC38010BDF7B513880D881C1C2EB21BB2B34200DA2C1C0480538825B24C881E1C27B21BB2BB4200DA261C4680938834B28E881F1C01
:406C00001BB2019333B29C46019B634500DD371C8780D388C9883EB21A1C0FB21BB2BB4200DD0A1CC28011B20020B54203DCE00FCB17A1425841FEBD094B1A680C23918D2B
:406C40000B40082B08D00C2B06D00020042B06D1D369187E013802E0D369187E40087047C0440208024B1B68DB69587E7047C046C0440208034B10B51B680021DB695B684C
:406C8000984710BDC0440208034B10B51B68DB695B68984710BDC046C04402087047000037B5224B00911B6801906946150098471F4C019023685869002808D10120FFF705
:406CC0005FFF2268D3695B69002B06D125E02900FCF7D6FC0028F1D127E0164C9B682168002908D02225555F01980099984723682800984716E000990198984712E001A897
:406D0000FDF7DAFA23680500DB691B6898470A4B1B68002B01D028009847009B013B0093002BECDA0020FFF72BFF37BDE0440208C04402085C0A0308680A030837B50D00C8
:406D40000190002815D00B4A1268D2695469002C0CD06468002C09D0A0470AE001A8FDF7ABFA002804D00A2802D00134AC42F5DB20003EBDC044020813B5002401A901947B
:406D8000FFF782FF019B984200DA1C1A200016BD37B5144B009101901B6869469847019000281ED0104A1268D2695469002C02D02468002C01D1250002E00099A04710E0F3
:406DC000009B013B0093002B07DB01A8FDF774FA0400FFF74FFF2D18F2E72000FFF7CCFF28183EBDE0440208C0440208244B73B51B680E0005001100002B0CD00020FFF7F8
:406E000079FC00283BD06A4631002800FFF748FFFFF7C0FBF5E70822684602F0B7FB194C68462168CB6C9AB26B461B88D31803800B6D41889BB25918418081885218828045
:406E4000C2889B18C380FFF755FC2368002808D15A8CD96C521A5A84196D9A8C521A9A840DE06A46128831005A846A46528828009A846A46FFF714FFFFF78CFBE5E773BD0C
:406E8000480A0308C044020810B5084B1B681A7E012A03D11B6E5B68984705E0013AD30F9A18521001F0CEFE10BDC046C044020870B5084D04002B685E7C002807D1FCF778
:406EC0003DFD002803D02B685C74FCF7F7FB300070BDC046C044020810B5FEF7F9FD802208235200904215D0013B7F2812D8013B3F280FD8013B1F280CD8013B0F2809D80C
:406F0000013B072806D8013B032803D8013B83429B415B4201209840013810BD70B50400FEF7D6FD0500FEF7FDFD0023A54203D9984201D0A4002358180070BDF7B50700C0
:406F4000FEF7C6FD0190FEF7EDFD051E1BD000208300EB58BB4216D0019B01308342F7DC00263400084B0093A300E9583800FCF7FEFA009B834201D926000090019B0134A5
:406F8000A342F1DC3000FEBDFFFFFF0013B50024A0420CD0FBF7BEFF036801901B699B689847FEF72EFE040001A8FBF7C3FF200016BD000013B5041E19D00D4B1B68DB6D11
:406FC000984201D1FCF77AFB2000FBF7A3FF01904069002801D001F094F9019B1868FCF7BFFC01A8FBF7A6FF2000FBF7C3FF13BDC04402080248012900D000207047C0463B
:407000000C0209100248162900D000207047C046B583081010B50068C3681B6A984710BD10B50068C3689B6A984710BD13B580680C00FBF76FFF01900422835E2380062292
:40704000815E618002899A18013AA280438901A8CB18013BE380FBF76DFF13BD0F4BF7B51B680700D86D16000C00FBF753FF050001900422835E0622805EEA68241A54438C
:40708000FB1ADF101834002E02D007229A43326001A8FBF74FFF38192818FEBDC044020807B50800110001AAFFF7D8FF019B00781841012318400EBD30B5144B85B01B68A8
:4070C0000C00D86D1500FBF725FF03AA019029002000FFF7C3FF0123039A9340027853400370019B586900280AD0FBF713FF836802901B682A002100984702A8FBF71AFF7F
:4071000001A8FBF717FF05B030BDC046C04402087FB51E00154B0C001B681500D86DFBF7F9FE03AA019029002000FFF797FF01231900039A3340914002788A4302700399DE
:407140008B4013430370019B586900280AD0FBF7E1FE836802901B682A002100984702A8FBF7E8FE01A8FBF7E5FE7FBDC0440208F0B587B000932B4B0E001B681400D86D08
:40718000FBF7C8FE002303904069984202D0FBF7C1FE030005AA210030000493FFF75EFF01231F001F4905000968059A087C974018421BD02B787B402B700498002804D07D
:4071C000836822001B6831009847039B0134DB68ED18009B9C42EDDD03A8FBF7ABFE049B002B1DD004A8FBF7A5FE19E0C96B09680B40934001932B78019ABB4313432B70D6
:407200000498002804D0836822001B6831009847039B0134DB68ED18009BA342EBDADBE707B0F0BDC0440208F0B51C00524B8BB01B680591D86D1700FBF76CFE059B0790E1
