:020000041008E2
:4000000000780408EB0208100D0000005103081051030810510308105103081000000000000000000000000000000000613708104D0308100000000001380810653808105C
:400040004D0308104D0308104D0308104D0308104D0308104D0308104D0308104D0308104D0308104D0308104D0308104D0308104D0308104D0308104D0308104D03081000
:400080004D0308104D0308104D0308104D0308104D0308104D0308104D0308104D0308104D0308104D0308104D0308104D0308104D0308104D0308104D0308104D030810C0
:4000C0004D0308104D0308104D0308104D0308104D0308104D0308104D0308104D0308104D0308104D0308104D0308104D0308104D0308104D0308104D0308104D03081080
:400100004D0308104D0308104D0308104D0308104D0308104D0308104D0308104D0308104D0308104D0308104D0308104D0308104D0308104D0308104D0308104D0308103F
:400140004D0308104D0308104D0308104D0308104D0308104D0308104D0308104D0308104D0308104D0308104D0308104D0308104D0308104D0308104D0308104D030810FF
:400180004D0308104D0308104D0308104D0308104D0308104D0308104D0308104D0308104D0308104D0308104D0308104D0308104D0308104D0308104D0308104D030810BF
:4001C0004D0308104D0308104D0308104D0308104D0308104D0308104D0308104D0308104D0308104D0308104D0308104D0308104D0308104D0308104D0308104D0308107F
:400200004D0308104D0308104D0308104D0308104D0308104D0308104D0308104D0308104D0308104D0308104D0308104D0308104D0308104D0308104D0308104D0308103E
:400240004D0308104D0308104D0308104D0308104D0308104D0308104D0308104D0308104D0308104D0308104D0308104D0308104D0308104D0308104D0308104D030810FE
:400280004D0308104D0308104D03081010B5054C237833B9044B13B10448AFF300800123237010BDC44B0208000000009C2F0910084B10B51BB108490848AFF30080084870
:4002C000036803B910BD074B002BFBD0BDE81040184700BF00000000C84B02089C2F091094450208000000007047FFF7FDFF72B6104C114DAC4209DA21686268A368043BD2
:40030000A2BFC858D050FAE70C34F3E70B490C4A00209142BCBF41F8040BFAE709480A490860BFF34F8F00F0FDFA00F0D7FA00F083F9FEE7A02F0910B82F0910C44B02084A
:4003400064B303080040020808ED00E0FEE7FEE700B504207146084202D0EFF3098001E0EFF30880043001F0ABFFFEE710B5234B1C68234B1B6803EB83039A00214B1A44DC
:40038000536823B94FF476711F4801F089FF00211E4802F0DFFA07EE900AF8EEE77A1C4B03EB8403C3ED007A144B1A6801321A601B68B3F5FA6F05D1104B01221A711A68EB
:4003C0009A600BE00D4B1B68B3F57A6F06D10B4B01221A711A689A6000221A600D4BB3F90030002B09DB5A0903F01F03012101FA03F36032084941F8223010BDE04B02087B
:40040000F0240308F4CE08107CC9081000001D419826030864CA081000E100E0F8B506460F4601F0FFF80546064C3B4632460146204600F095FF41F2B062294620460AF027
:400440000BF9F8BDEC4B020870B50646012004F00DF89B2340F201120521072003F00EFB00240925072021E006EB8403D3ED007A9FED127A67EE877A9FED116A77EE867AA5
:40048000013406EB8403D3ED006A26EE877A37EE067ABDEEC77A17EE103A2A46FDEEE77A17EE901A04F016FD284602357C2CDBD901210846FFF7B2FF70BD00BF0000964222
:4004C00000009E4200B59BB00B460246074901A80AF062FDA022812101A804F0BDFA01210846FFF79BFF1BB05DF804FB9CC90810F0B583B04A4AD2F8C4350133C2F8C435C7
:400500004FF4FA63002400251AE05E1E454A02EB8303D3ED007AFDEEE77ACDED017ABDF904200021404802F06BFA09F0F5FD02460B462046294609F0A3FC04460D463346BE
:40054000002BE2DC0022394B2046294609F074FF06460F460022364B09F044FE2EA3D3E9002309F069FF04460D46304639460CF0ABF90AF049F80646204629460CF0A4F9F4
:400580000AF042F80446264BD3F8C435032B3BD1012003F06BFF002003F0AAFF6FF07F4003F09CFF04F048F89B2340F201120521072003F063FA650011350F2311229121D2
:4005C000104604F087FC0F232A461946112004F081FC91232A460F21284604F07BFC9123D9221946284604F075FC0F4A136823F00043136031462046FFF764FF03F0F8F9C6
:400600000022074BC3F8C42500220A4B1A7103B0F0BD00BFAFF300800000000000C8A940D85C02089826030800001D4100409F4000005940E04B020808B562B604F02EF86D
:40064000142000F079FE012000F07EFE012003F00DFF002003F04CFF6FF07F4003F03EFF03F0EAFFAF2340F207120121084603F005FA042003F0FAFE4123F3221946142010
:4006800004F028FC002003F033FF6FF07F4003F025FF214803F036FF022003F063FF1E2284211E4804F0C6F91D4803F02BFF462284211C4804F0BEF901210846FFF7AEFEF2
:4006C00003F0BAFF1848FFF7BFFE40F282610A20FFF7F8FE03F0B0FF03F0B8F9134C1449204601F07FFDB4F90030002B08DB590903F01F03012202FA03F30E4A42F82130E1
:4007000003F076F903F048F90B4B1B7913F0FF0FFAD0FFF7EDFEF7E7C4E50810C4C90810E4CF0810CCC908108C42020864CA08106D03081000E100E0E04B020808B5012047
:4007400001F072FB08BD00BF704700BF5C4AD2F8803303F00F0303F1D00152F8212002F00702032A04D0042A05D092B9554914E0554A116811E003F1C002514951F82220E9
:4007800002F01F02112A06D0132A04D04FF4FA4103E04E4901E04FF400418BBB484BD3F8902502F00100D3F88825C2F30172D3F8883513F0405F07D0414BD3F88835C3F3F0
:4007C0000173012B02D102E0012300E0002303B108B9032A46D13A48D0F88025C2F31103D0F88425C2F30C02D0F88005C0F300600130B1FBF2F202FB03F2B2FBF0F131E026
:40080000012B2FD12E4BD3F8402602F00100D3F80026C2F30172D3F8003613F0405F07D0274BD3F80036C3F30173012B02D102E0012300E0002303B108B9032A12D12048CA
:40084000D0F8002602F07F02D0F80036C3F30423D0F80006C0F3044002FB01F2B2FBF3F2B2FBF0F1164BD3F88033C3F3011321FA03F215494A601648D0F89030C3F30723E0
:4008800001330069000E0130B2FBF0F08860B2FBF3F3CB600B6103F5742202F23F220D48A0FB0202C2F387420A7503F2E7330A4AA2FB03239B098B61DB03CB61704700BFB3
:4008C0000000264000127A008044020800366E010000214083DE1B43D34D621008B50D4801F090FEFFF730FFFFF730FF00221146042001F061F8084801F0F4F8074B1B681D
:4009000093F8513013B1064801F05CF900F09EFF08BD00BF74CD0810A06202088CB10308DCC9081008B501F028FD074AD2F8883043F47003C2F88830BFF34F8FBFF36F8FD6
:4009400001F01FFD08BD00BF00ED00E02DE9F04180460E4617460A4C08256560702000F06FFD404600F06CFDA5606560722000F067FD3946304600F0C7FDA560BDE8F081D4
:400980000006324000B583B002AB03F8011D01221946FFF7DBFF03B05DF804FBF8B507460E46094C08256560702000F049FD384600F046FDA5606560732000F041FD3046AB
:4009C00000F06EFDA560F8BD0006324038B50425084B5D60084C402363601023636000F0FFFC0822054B5A6065602023636000F0E1FC38BD0000324080023240000632404A
:400A000010B5434C6F220021204609F04BFE631C236704F14E03636704F12203A36700F0C9FC03E000F0D0FC032868D800F0AEFD0028F7D100F0CEFC00217220FFF7AEFF71
:400A400000F00F0002285CD14021FFF79BFF00210F20FFF7A3FF10F0800F54D002210B20FFF790FF08222B490120FFF76FFFD1210720FFF787FF02210820FFF783FFC22163
:400A80000920FFF77FFF03210420FFF77BFF01210320FFF777FF00210320FFF773FF0A2001F0DAFB002400E01C4601210520FFF769FF642001F0D0FB03210520FFF762FFA9
:400AC000322001F0C9FB0F210520FFF75BFF322001F0C2FB00210F20FFF760FF10F0400F05D040210220FFF74DFF234603E0631C9BB2042CD8D1032B07D9052010BD0120AA
:400B000010BD022010BD032010BD002010BD00BF2064020810CA081010F1090F0EDB10F1040F0EDB05280FDD0A2810DD0F2811DD142811DD282811DC5A2210E04FF4966273
:400B40000DE04FF461720AE04FF4167207E04FF4A57204E0DC2202E0B42200E03C22034BA3F87C20A3F87E20704700BF206402082DE9F84F06460D46047828B1CA4B9842A2
:400B800005D10127002403E00127FF2400E0002700F010FC4FF00008D0E1C8EBC80AC8EB0A1ADFF80C930AEB090B6F220021584609F078FD0BF1010EBC4BC3F870E00AF139
:400BC00048004844063058670AF1200AD14409F10209C3F878902022002397E10FB934780136032D00F29081DFE815F004006500C600270100EB030C14F0400F01D0C0214D
:400C000000E080218CF8001049B214F0100F02D04FF0300A01E04FF0200A4AEA01018CF8001014F0040F02D04FF00C0A01E04FF0080A4AEA01018CF8001014F0010F02D002
:400C40004FF0030A01E04FF0020A4AEA01018CF800100EEB020C14F0800F01D0032100E002218CF8001049B214F0200F02D04FF00C0A01E04FF0080A4AEA01018CF80010BB
:400C800014F0080F02D04FF0300A01E04FF0200A4AEA01018CF80010013A92B214F0020F02D06FF03F0A01E06FF07F0A4AEA01018CF8001028E100EB030C14F0400F01D0F2
:400CC000802100E040218CF8001049B214F0100F02D04FF0200A01E04FF0100A4AEA01018CF8001014F0040F02D04FF0080A01E04FF0040A4AEA01018CF8001014F0010FDB
:400D000002D04FF0020A01E04FF0010A4AEA01018CF800100EEB020C14F0800F01D0022100E001218CF8001049B214F0200F02D04FF0080A01E04FF0040A4AEA01018CF844
:400D4000001014F0080F02D04FF0200A01E04FF0100A4AEA01018CF80010013A92B214F0020F02D06FF07F0A01E04FF0400A4AEA01018CF80010C7E000EB030C14F0400F93
:400D800001D0C02100E040218CF8001049B214F0100F02D04FF0300A01E04FF0100A4AEA01018CF8001014F0040F02D04FF00C0A01E04FF0040A4AEA01018CF8001014F005
:400DC000010F02D04FF0030A01E04FF0010A4AEA01018CF800100EEB020C14F0800F01D0032100E001218CF8001049B214F0200F02D04FF00C0A01E04FF0040A4AEA0101F2
:400E00008CF8001014F0080F02D04FF0300A01E04FF0100A4AEA01018CF80010013A92B214F0020F02D06FF03F0A01E04FF0400A4AEA01018CF8001066E000EB030C14F02E
:400E4000400F01D0802100E0C0218CF8001049B214F0100F02D04FF0200A01E04FF0300A4AEA01018CF8001014F0040F02D04FF0080A01E04FF00C0A4AEA01018CF80010A5
:400E800014F0010F02D04FF0020A01E04FF0030A4AEA01018CF800100EEB020C14F0800F08D0022107E000BFFFFF0F10206402081865030803218CF8001049B214F0200FB6
:400EC00002D04FF0080A01E04FF00C0A4AEA01018CF8001014F0080F02D04FF0200A01E04FF0300A4AEA01018CF80010013A92B214F0020F02D06FF07F0A01E06FF03F0A7E
:400F00004AEA01018CF8001001339BB2202B7FF665AEC8F1AF031BB299101A4A134003D5013B63F003030133174A02FA83F31B7A09F8013008F101081FFA88F8B8F1AF0FBE
:400F40007FF62BAE00240FE0C4EBC403C4EB03136F220E4919440A20FFF7F8FC07210220FFF710FD0134A4B2AF2CEDD9084BB3F87C4000F029FA8442E4D800F02BFABDE8FA
:400F8000F88F00BF0300008010CA081018650308206402082DE9F04706460D4600F00AFAD2210920FFF7EEFC0024C6E0C4EBC407C4EB0717DFF8008207EB08096F22002165
:400FC000484609F06FFB09F1010C784BC3F870C007F1480EC6440EF1060EC3F874E02037B84408F10208C3F87880202000218EE0771C32786E1C95F800900EEB010582EAAA
:40100000090212F0400F04D019F0400F03D0802302E0402300E0C0232B705BB212F0100F05D019F0100F05D04FF0200A04E04FF0100A01E04FF0300A4AEA03032B7012F038
:40104000040F05D019F0040F05D04FF0080A04E04FF0040A01E04FF00C0A4AEA03032B7012F0010F05D019F0010F05D04FF0020A04E04FF0010A01E04FF0030A4AEA030355
:401080002B700CEB000512F0800F04D019F0800F03D0022302E0012300E003232B705BB212F0200F05D019F0200F05D04FF0080A04E04FF0040A01E04FF00C0A4AEA0303EB
:4010C0002B7012F0080F05D019F0080F05D04FF0200A04E04FF0100A01E04FF0300A4AEA03032B70013880B212F0020F05D019F0020F04D06FF07F0203E0402201E06FF0F7
:401100003F0213432B70013189B235463E4620297FF66EAFC4F1AF031BB29910244A134003D5013B63F003030133224A02FA83F31B7A08F801300134A4B2AF2C7FF636AF93
:40114000002421E0C4EBC405C4EB05151A4B1D446F2229460A20FFF7F9FB07210220FFF711FCC4F1AF0343F38D032B44002283F822206F2229460A20FFF7E8FB072102201A
:40118000FFF700FC0134A4B2AF2CDBD9074BB3F87E4000F019F98442D2D800F01BF9C2210920FFF7EFFBBDE8F08700BF206402080300008010CA081018650308002307E096
:4011C0001349086F5522C254496FCA5401339BB2202BF5D970B5002416E0A6080C4DAA6F04F003030B490B441B7A93556F2229460A20FFF7ABFB07210220FFF7C3FBAB6FC8
:4012000000229A550134A4B2AF2CE6D970BD00BF2064020810CA081008B5002304E00021094AD1540133DBB2152BF8D900210420FFF7A8FB6F2204490A20FFF787FB072157
:401240000220FFF79FFB08BD2064020838B50E4C1023A360142000F0FFFF00F0D9F808220A4B9A604023A3600425A5600A2000F0F3FF65600A2000F0EFFFA5600A2000F004
:40128000EBFFFFF7BDFB38BD800232400006324038B5FFF793FFFFF7BFFF1E2000F0DCFF234C40256560322000F0D6FFA56000210F20FFF773FB10F0400F36D000210B20F9
:4012C000FFF760FB01210320FFF75CFB03210520FFF758FB01210520FFF754FB322000F0BBFF80210420FFF74DFB00210520FFF749FB01210720FFF745FB1E2000F0ACFF16
:4013000000F094F8102363606560142000F0A4FF0822084B5A60042363602025A5601E2000F09AFF6560002038BD042038BD00BF800232400006324010B50446FFF746FB19
:401340002046FFF7E9FB10BD08B510B1FFF77EFF01E0FFF79DFF08B9012008BD002008BDF8B507460E4614461D4613B10120FFF7EBFF24B931463846FFF70CFE15E0631E58
:40138000DBB2012B11D800213846FFF7F1FB012C07D101213846FFF7EBFB02213046FFF7E7FB03213046FFF7E3FB15B10020FFF7CBFFF8BD08B50022024BC3F8082100F04F
:4013C00069F908BD00003840014BD3F808017047000038400122014B5A6070470000384010B5074C074A0849204600F091FD236843F0004323600822044B9A6010BD00BF86
:401400000000674068B1030874CA0810000632400822044B9A60044A136843F000431360704700BF000632400000674008B50249024800F0A1FE08BD68B1030800006740E8
:4014400008B50146154800F005FD144BD3F8C03F13F0040FF9D0114BD3F8042242F48032C3F80422D3F8042222F48032C3F80422D3F80422D3F8042342F48032C3F80423B4
:40148000D3F8042322F48032C3F80423D3F804230422C3F8C02FD3F8C03F08BD0000674008B50146174800F0D5FC164BD3F8C03F13F0040FF9D0134BD3F84003D3F804220D
:4014C00042F48032C3F80422D3F8042222F48032C3F80422D3F80422D3F8042342F48032C3F80423D3F8042322F48032C3F80423D3F804230422C3F8C02FD3F8C03FC0B242
:4015000008BD00BF0000674038B50C46054600B121B940F2E6511B4800F0C2FE22462946194800F0DDFC184AD2F80832C3F30803D2F80822C2F3C032D342F4D1124BD3F82A
:40154000042242F48032C3F80422D3F8042222F48032C3F80422D3F80422D3F8042342F48032C3F80423D3F8042322F48032C3F80423D3F804230422C3F8C02FD3F8C03F0D
:40158000204638BD1CCA081000006740044B1B6913F0080F01D0012070470020704700BF8002324010B582B002AC012344F8043D00231A461449154803F08EF9214604F0B3
:4015C0003CFE05F09BFA60B14FF48472B021002005F079FB4FF48472B021002005F09FFB0BE0B0224FF48471002005F06CFBB0224FF48471002005F092FB0549002005F04A
:4016000079FB02B010BD00BFC82B0910FC2B0910A0440208012901D1002070474FF0FF30704700BF00487047A064020808B5012001F046FC014B186008BD00BF507B0208CC
:4016400008B500231A4619460248006801F064FB08BD00BF507B020808B54FF0FF31024B186801F039FC08BD507B020808B501F059FF08BD704700BF08B54FF400410348EA
:4016800002F04CFB024802F09FFF08BD547B02084024091008B5084B1B783BB9074A0021074800F071FE0122034B1A70044B01229A609A6108BD00BF54FB0208A8CA08107C
:4016C000000038401F4B98422DD00CD840282ED003D8E8B1102828D02FE0802829D0B0F5807F28D029E0184B984228D006D8B0F1204F0DD0154B984212D01EE0144B98429B
:401700000AD00133984209D0023B984215D101E0002070470F4870470F4870470F4870474FF4A0007047074870470D4870470D4870470D487047034870470C4870474FF4F5
:40174000A400704706005200010000F0090000A0040000F0010052000200520003005200010050000200500005005200FF00520038B5124B1B6893F83130012B04D840F2EE
:40178000C3110F4800F08CFD0C4B1D682A6AB5F8B03013442C46D5F8B420D358002B0BDB084B1868FFF78EFF6B6801229A6063689B68002BFBD138BD034838BD8CB103085A
:4017C000F4CA081058FB0208020050001A4B186128B102230370FF23437000234380174B1B6893F850202AB300B583B0B3F93830ADF80030002301931149684600F0F2FC2F
:40180000BDF90030002B08DB590903F01F03012202FA03F30B4A42F82130084B1B6893F8513023B102220849012000F077FA03B05DF804FB704700BF58FB02088CB1030879
:401840000546020800E100E0BD46020808B50248FFF7BCFF08BD00BF6CFB020838B50B4B1B68D3F8B4301B58002B0DDA0D4604460B0C1B0423B140F2D521054800F010FD85
:40188000A9B26160002038BD024838BD8CB1030834CB081001008A0038B50368002B01DA002300E0094B73B90D460446C2600B0C1B0423B140F2BB21054800F0F1FCA9B291
:4018C000A160002038BD014838BD00BF01008A0034CB081038B504460D4619B99921084800F0DEFC074B1B68D3F8B4301B59002B03DAE3682B60002038BD034838BD00BF19
:4019000074CB08108CB1030801008A00254B1B6893F8313083423AD900293AD00B6813F01F0F38D170B50D4604461E4B1B6893F83130984204D340F2C3111B4800F0B0FC96
:40194000184B1B68186AB3F8B03004FB0304174E34602A68D2080021686808F0A3FE00212046FFF77BFF346825B940F293310E4800F096FC2A4600212046FFF78DFF60B9AE
:4019800000210A4B1868FFF769FF40B970BD084870470748704706487047064870BD054870BD00BF8CB1030834CB081070FB020803018A0001018A0010B504461346B2B926
:4019C000A9B9124B1B6893F83130984204D340F2C3110F4800F064FC0C4B1B681A6AB3F8B03004FB03240B4B1C60002010BD43B149B1084A51609360111D2046FFF786FF9A
:401A000010BD054810BD044810BD00BF8CB1030834CB081070FB020803018A002DE9F0411B4B1B68DC68236883422CD90D464609A0EB4610012303FA00F819B900F09DFCC5
:401A4000074600E00027124B18680368002B01DA002300E00F4B83B9626852F8263018EA030F05D023EA080342F82630002400E0094C0021FFF7F2FE00E0084C25B9384640
:401A800000F07FFC00E0064C2046BDE8F08100BF70FB020801008A00020188000301880004018A000B4B1B68DB681A6882420CD94109A0EB4110012202FA00F05B6853F81E
:401AC0002130184203D004487047044870470448704700BF70FB02080101880004018A0000018800024B1B680BB9014B186070477CFB02082DE9F8430446884691461D4656
:401B0000089F2C4B1B681BB9B5212B4800F0C8FB284B1B682C2000FB04F01C18EEB21E50C5F3072363602D0CA560244B1B6893F831309E4204D340F2C311214800F0B0FB3F
:401B40001E4B1B68196AB3F8B02006FB02162661666893F832309E4204D340F2DF11184800F09EFB154B1B681D6A803605EB46156561A668330C1B0423B14FF4FF711048E2
:401B800000F08EFB330C1B0423B140F2FF110C4800F086FBB3B243EA0646AE60C4F81C90C4F820800023A36117B1B7F90030A381BDE8F8837CFB0208B4CB08108CB1030850
:401BC00034CB0810F0B58FB0044618B95221274800F066FBA369072B03D95621234800F05FFBE36A1BB95821204800F059FB236B1BB959211D4800F053FB07AD04F11406CE
:401C00000FCE0FC537682F6002AD26460FCE0FC533682B60164B1B68B3F93620079B1344ADF83030089B0D93A26AE16A0CAD00953B460A98FFF75EFF00210091069B0A46EE
:401C40000598FFF757FF216B284600F0CBFABDF93030002B08DB590903F01F03012202FA03F3044A42F821300FB0F0BDB4CB08108CB1030800E100E0F8B506460F461D4686
:401C800014461AB9FD211F4800F00AFB1E4B1B681BB9FE211B4800F003FB1B4B1B682C2101FB063001FB07314B68012202FA03F31B04466802FA06F60269EAB18F69EFB97E
:401CC0001268002A01DA002200E0104AC2B92288134323600369DC6001238B614D620469330C1B0423B140F2BB21094800F0D8FAB2B2A2600020F8BD0648F8BD0648F8BDA3
:401D00000548F8BDB4CB08107CFB020801008A0034CB081004028A0007028A00F8B505460F4616460E4B1B6823B94FF4AF710D4800F0B6FA0A4B1B682C2404FB0534236A1E
:401D400023B94FF4B171074800F0AAFAE369B34204D9236A43F826700020F8BD0248F8BD7CFB0208B4CB08100A028A0070B582B000230193044620B940F2D111284800F09C
:401D80008FFA236923B94FF4E971254800F088FA636923B940F2D311214800F081FA236A23B94FF4EA711E4800F07AFA6369DD682A0C20D012041A601B682069194B1B6899
:401DC000D3F8B430C358002B15DA01A9FFF782FD60B9019803681E0CDBB2E269934206D2226A52F8233013B1984700E0002631462069FFF733FDADB275B16369ADB21D60EF
:401E00001B68636A1BB198470023636202E0A36A03B198470023A36163691B6802B070BDB4CB08108CB1030810B50446074B1B6823B940F2B111064800F032FA034B1B681A
:401E40002C2000FB0430FFF791FF10BD7CFB0208B4CB0810036813F4006F01D0802200E04022D0F80832C3F30803934203D0C0F84012012070470020704700BF10B4D0F877
:401E8000003203F00F03072B06D900230DE0CC5CC0F84042013300E000239342F7D306E031F81340C0F8404201339342F8D35DF8044B704710B51446036813F4006F01D0F6
:401EC000802200E04022D0F80832C3F30803D31AA34200D81C462246FFF7D0FF204610BDF8B507460D461446D0F8006206F00F060BE0224629463846FFF7DCFF072E01D9D3
:401F0000430000E003461D44241A002CF1D1F8BD002800F02481F8B50546002900F0218117460C460B78012B03D93F218F4800F0B7F96378012B07D9052B05D0022B03D086
:401F400040218A4800F0ACF9A378032B03D94121864800F0A5F92378012B07D16368023B0E2B03D94321814800F09AF9A36933F00F0303D044217D4800F092F9A368043B47
:401F80000C2B03D94521794800F08AF9E368043B0C2B03D94621754800F082F96378022B07D0A268E3689A4203D047216F4800F077F9636A33F06D0303D049216B4800F0A6
:401FC0006FF9E36A33F0730303D04A21674800F067F9236B33F4206303D04B21634800F05FF96378A678052B07D8DFE803F0060305060603022600E00026A368082B04D8C5
:40200000E368082B03D9002302E0002300E0012313B14FF4006200E00022237F13B14FF4807300E000231A436368013B03F00F03134343F080732B60226A2B6813F4006F0B
:4020400001D0802300E040239A4203D35821474800F026F9A26A2B6813F4006F01D0802300E040239A4203D35921404800F018F9237D0BB9012100E000216278052A01D1FD
:40208000022300E000230B43E17C09B1102100E000210B43617C09B1202100E000210B432178012902D14FF0004100E000210B43B60006F00C063343A169090201F4706178
:4020C0000B43120602F0407213432B62237C13B14FF4807200E00022A37C13B14FF4007300E000231A43A368013B03F00F031343C5F8003394F82030C5F80433237C13B19B
:402100004FF4807200E00022E368013B03F00F031343C5F8003294F82830C5F80432636A03F06D03C5F8C83FE36A03F07303C5F8883F236B03F40073C5F8003F236B03F419
:402140000063C5F8403F0023C5F8C83E5FB118463B60BB61FB60FB61054B3B62F8BD054870470448F8BD0020F8BD00BF38CC0810EFCDAB000140AA00036823F00043036031
:4021800019B100220A60CA608A61036A002B04DB0023C0F8C83FC0F8883F704738B50D4B9A680D4B9A420FD10D46044621B940F237110A4800F074F804F11003064A52F889
:4021C000230042F8235038BD1030054B53F8200038BD00BF00ED00E00040020878CC08100000081048B338B504460D464368072B03D93221134800F053F8B4F90030626812
:40220000002B08DB5201D2B203F1604303F5614383F8002305E003F00F035201D2B20A49CA540A4B9A680A4B9A4208D12946B4F90000FFF7B3FF002038BD06487047002057
:4022400038BD00BF78CC081014ED00E000ED00E0004002080100560010B5044605E0084B186800F081F8A4F50044B4F5004FF6D8044B186800FB04F000F076F810BD00BF84
:402280009C4402089844020808B5034B1B7800FB03F000F069F808BD9444020801BEFEE738B50D46044C18220146204608F0A0FEA5610020FFF7F2FF304B0208FEE700BFE3
:4022C00008B50268254BDA6142681A6282685A62C2689A620269DA6242691A6382695A63C2699A631E4A916AD963D16A1964516A5964516B9964926BDA64F1EE103A13F08C
:40230000900F27D0026A154B1A65426A5A65826A9A65C26ADA65026B1A66426B5A66826B9A66C26BDA66026C1A67426C5A67826C9A67C26CDA67026DC3F88020426DC3F857
:402340008420826DC3F88820C26DC3F88C20026EC3F89020FFF7B2FF08BD00BF304B020800ED00E0000000000230800803D001300238FCD100BF00BF7047EFF3108072B6E5
:40238000704780F31088704700287DD00346002A7CD070B45068000280B29568AD0405F480252843D468240404F4403404431069000600F0E0602043147F0CB1012400E02B
:4023C000002420430C1DA4011851D06828B903EB81100024C0F808410CE0012805D1146803EB8110C0F8084104E003EB81100124C0F80841106938B9546903EB8110C0F894
:402400000C419469C0F81041146803EB8110C0F81441906CB0F1FF3F17D0946A04F00F04166B360206F470663443956B2D0405F470252543146C2403A4B22C430001C0B274
:40244000204303EB8114C4F82001506A00F00300D66A360106F030063043556B2D0205F440752843D46BA401E4B20443506C800000F00C00204303EB8113C3F82401126A94
:40248000C3F83821002003E0024870470148704770BC70470100B600002800F0AC8070B40446002A00F0A98092F828300BB1012500E00025137F0BB1022300E000231D43D6
:4024C0001669B60406F4802645EA060395682D0405F440351D431668300600F0E0602843136B556B43EA45031B0503F440130343906B43EA8000052E03D1D3681B029BB2C9
:4025000002E053681B029BB20343081D800123501368062B08D104EB81130120C3F808013F20C3F828011DE0936843B904EB81130020C3F808013120C3F8280112E0012B57
:4025400008D1506904EB8113C3F808011C20C3F8280107E004EB81130120C3F808011220C3F82801106A04EB8113C3F80C01506AC3F810015069C3F814019069C3F818015C
:40258000136EB3F1FF3F17D0106C00F00F00966C360206F470663043156D2D0405F470250543906D000380B228431B01DBB2034304EB8110C0F82031D36B03F00303566C42
:4025C000360106F030063343D56C2D0205F440752B43506D8001C0B21843D36D9B0003F00C03034304EB8114C4F82431D36AC4F83831002002E002487047014870BC704722
:402600000100B600014B1860704700BF8CB103082DE9F8430E46074618B93A217548FFF73FFE1EB93B217348FFF73AFE002F00F0DA80002E00F0DA8032686F4B13401BB1D3
:402640004A216C48FFF72CFE72686C4B13401BB14B216848FFF724FEB36813F0FC2F03D04C216448FFF71CFEF36813F0FC2F03D04D216048FFF714FE337D032B03D94E214F
:402680005C48FFF70DFEB369B3F5803F03D34F215848FFF705FEF36D072B03D950215548FFF7FEFD336EB3F5803F03D351215148FFF7F6FD736EB3F5803F03D352214D48AE
:4026C000FFF7EEFD736843F000437B60B3683B61F3687B613369BB61337D9B07FB61B3693B62336803F46068736803F00409002435E02546A31D06EB83035A68404B134010
:402700001BB163213B48FFF7CBFDAB1D06EB8303596805F1200247F822105B6813F0012F0BD1B8F5606F08D1B9F1000F05D04FF47842344B23F8152003E00022314B23F862
:402740001520726F02F11C7303F58033520093FBF2F31BB22C4A42F825300134E4B20F2CC7D9F36DC7F81832F36DC7F81032336EC7F82832336EC7F82032736EC7F8383299
:40278000736EC7F8303296F87030DBB1B36EB3F1804F03D382211748FFF782FDF36E23F44F0323F0FF031BB183211248FFF778FD6FF04043C7F80433B36EC7F80033F36E1C
:4027C000C7F84433D7F8003F3F2B02D0D7F8003F13B90B23C7F8003F336843F400133B600020BDE8F8830948BDE8F8830748BDE8F88300BF2CCE08100811DF0001FE30209B
:4028000088CA887E90B10308B0B103080100060038B50D46044618B9B5211748FFF740FD2CB30023236063604FF0031222616261A361E361236206E003F12002002144F8B6
:4028400022100133DBB20F2BF6D90023C4F81832C4F82832C4F838325DB16FF04043C4F804330020C4F84003C4F8440338BD034838BD002038BD00BF2CCE081001000600D0
:4028800008B50368002B0ADBD0F8A032002BFBDB036843F0004303600220FFF7F5FC08BD38B505460C46012904D940F271110648FFF7F6FC012C04D16B6843F480336B602E
:4028C00038BD01236B6238BD2CCE081038B505460C460F2904D94FF415710848FFF7E0FC0F2C07D8203455F8243013F0012F03D0002038BD002038BD012038BD2CCE0810FA
:4029000038B505460C460F2904D940F222211048FFF7C6FC0F2C14D821462846FFF7D6FF80F0010010F0FF0F05D06B6813F0080F09D1002038BD6B6813F0040F05D100209D
:4029400038BD002038BD012038BD012038BD00BF2CCE081038B505460C460F2904D940F27B210648FFF79CFC0F2C04D8603455F8240080B200E0002000B238BD2CCE081000
:40298000F8B506460C4615460F2904D940F27B311948FFF785FC0F2C2BD8736813F0800F22D104F1200356F8233013F4806F1BD07768C7F302170137012303FA07F773688A
:4029C00013F4807F02D1102F00D9102721463046FFF796FF20B9ADB2B5FBF7F52DB203E03FB295FBF7F52DB2044B33F81430ED1A2DB22846F8BD00BF2CCE081090B1030881
:402A000070B505460C4616460F2904D940F21F411648FFF745FC0F2C23D86B6813F0020F21D1324621462846FFF7AAFF42F2107303FB00F2002807DD0D4B53F8240000EBDC
:402A4000D07002EB600306E0094B53F8240000EBD070A2EB6003064A52F8240093FBF0F002E0002000E0002000B270BD2CCE0810B0B1030800F1080343604FF0FF32826086
:402A8000C360036100230360704700BF43684B609A688A609A68516099600861036801330360704730B40D68B5F1FF3F01D1026907E000F1080200E01A4653681C68A542C1
:402AC000FAD253684B6099608A605160086103680133036030BC704703694268816891608268416851605A68904201D182685A60002202611A68013A1A601868704700BF12
:402B0000436A23B1036B1868C0F1070070470020704700BF10B5044600F034FEA26BE36B9A4201D1012400E0002400F04DFE204610BD00BF10B5044600F024FEA36B0BB99E
:402B4000012400E0002400F03FFE204610BD00BF70B504461646856B026C3AB9036843BB406800F049FD0023636029E06EB9806807F072FDA268236C1344A36062689342B4
:402B800019D32368A36000201AE0C06807F064FD236C5B42E2681A44E26021688A4202D262681344E360022E07D145B1013D002006E0002004E0002002E0002000E00020F6
:402BC0000135A56370BD00BF38B5054600F0DAFD95F8454064B20AE06B6A53B105F1240000F00AFC08B100F095FC013C64B2002CF2DCFF2385F8453000F0E6FD00F0C2FD94
:402C000095F8444064B20AE02B6953B105F1100000F0F2FB08B100F07DFC013C64B2002CF2DCFF2385F8443000F0CEFD38BD00BF38B540B94FF03F0383F31188BFF36F8FF1
:402C4000BFF34F8FFEE704460D4600F09BFD2168E26B236C03FB021060600020A063A160013A02FB0313E360FF2384F8443084F845307DB92369ABB104F1100000F0BCFB03
:402C800080B14FF08052094B1A60BFF34F8FBFF36F8F07E004F11000FFF7ECFE04F12400FFF7E8FE00F090FD012038BD04ED00E010B5029B0C4609B91B6000E01A60D86319
:402CC0001C6401211846FFF7B3FF10BD40B94FF03F0383F31188BFF36F8FBFF34F8FFEE7F0B583B0034611B101FB00F000E000201D4617460C46483000F0DCFD064638B15A
:402D000000903B4600F1480221462846FFF7D0FF304603B0F0BD00BFF0B585B0019240B94FF03F0383F31188BFF36F8FBFF34F8FFEE7044619B9026C1AB9012202E0012278
:402D400000E0002242B94FF03F0383F31188BFF36F8FBFF34F8FFEE7022B03D1E26B012A02D102E0012200E0002242B94FF03F0383F31188BFF36F8FBFF34F8FFEE71D463B
:402D80000E4600F0D5FB18B9019B1BB9012302E0012300E0002343B94FF03F0383F31188BFF36F8FBFF34F8FFEE7002700F0EAFCA26BE36B9A4201D3022D21D12A463146D0
:402DC0002046FFF7C5FE636A6BB104F1240000F013FB88B14FF08052324B1A60BFF34F8FBFF36F8F08E038B14FF080522D4B1A60BFF34F8FBFF36F8F00F0E6FC01204EE0FE
:402E0000019B1BB900F0E0FC002048E01FB902A800F036FB012700F0D7FC00F06FF900F0B1FC94F844305BB2B3F1FF3F02D1002384F8443094F845305BB2B3F1FF3F02D1F3
:402E4000002384F8453000F0BFFC01A902A800F021FBF0B92046FFF75DFEA0B1019904F1100000F0AFFA2046FFF7AEFE00F0CEF900289BD14FF080520A4B1A60BFF34F8F87
:402E8000BFF36F8F92E72046FFF79EFE00F0BEF98CE72046FFF798FE00F0B8F9002005B0F0BD00BF04ED00E048B108B5002141600160C1600B460A46FFF72EFF08BD7047F8
:402EC00010B5024600210120FFF700FF0446FFF7EBFF204610BD00BF70B584B0019140B94FF03F0383F31188BFF36F8FBFF34F8FFEE70446036C43B14FF03F0383F311889C
:402F0000BFF36F8FBFF34F8FFEE700F011FB18B9019B1BB9012302E0012300E0002343B94FF03F0383F31188BFF36F8FBFF34F8FFEE700252E4600F025FCA36BCBB1013BE1
:402F4000A363236813B900F0F7FB6060236963B104F1100000F050FA38B14FF08052414B1A60BFF34F8FBFF36F8F00F02DFC012076E0019B6BB945B14FF03F0383F311885D
:402F8000BFF36F8FBFF34F8FFEE700F01DFC002066E01EB902A800F073FA012600F014FC00F0ACF800F0EEFB94F844305BB2B3F1FF3F02D1002384F8443094F845305BB228
:402FC000B3F1FF3F02D1002384F8453000F0FCFB01A902A800F05EFA40BB2046FFF7AAFDF0B123683BB900F0CDFB606800F0B0FA054600F0E9FB019904F1240000F0E2F9B0
:403000002046FFF7E1FD00F001F9002893D14FF08052144B1A60BFF34F8FBFF36F8F8AE72046FFF7D1FD00F0F1F884E72046FFF7CBFD00F0EBF82046FFF77CFD00283FF4B0
:403040007AAF65B100F09EFB2046FFF759FD0146606800F01BFB00F0B7FB002000E0002004B070BD04ED00E0094B9B6A1B680BB9012300E0002323B14FF0FF32044BDA62B7
:403080007047034B9A6AD268D2685268DA627047BCFB020870B504460E46174BD3F81451D3F800010430FFF717FDB4F1FF3F07D136B11148D0F800110431FFF7E7FC70BDB7
:4030C0002C440D4BD3F800315C60A54208D90A4BD3F8F800D3F800110431FFF7E3FC70BD054DA86AD5F800110431FFF7DBFCEB6A9C4200D2EC6270BDBCFB0208034AD2F8C1
:4031000018310133C2F81831704700BFBCFB02082DE9F0413C4BD3F81831002B65D13A4BD3F814410134C3F81441CCB99B6A1B6843B14FF03F0383F31188BFF36F8FBFF3B8
:403140004F8FFEE7304B9A6AD3F8F8109962C3F8F820D3F820210132C3F82021FFF784FF294BDB6A9C4203D2002645E0012600E00026254B9B6A1B680BB9012300E00023F1
:4031800023B14FF0FF32204BDA6235E01E4B9B6ADB68DD686B689C4202D21B4AD3622BE005F104084046FFF797FCAB6A1BB105F11800FFF791FCEB6A134AD2F80C219342EE
:4031C00002D9114AC2F80C310F4F07F1300003EB83039A0041461044FFF758FCEA6AD7F80031DB6A9A42C1D2C3E7074AD2F824310133C2F824310026034BD3F8283103B138
:4032000001263046BDE8F081BCFB0208394BD3F8183143B94FF03F0383F31188BFF36F8FBFF34F8FFEE770B500F0ACFA314BD3F81821013AC3F81821D3F81831002B52D105
:403240002C4BD3F8FC303BBB00244FE0294D2B6ADC6804F11800FFF73FFC261D3046FFF73BFCE36AD5F80C21934201D9C5F80C31204D05F1300003EB83039A0031461044C8
:40328000FFF704FCE26AD5F80031DB6A9A4204D30122C5F8282100E00024164B5B69002BD4D10CB1FFF7E0FE124BD3F8244164B1FFF72EFF18B101220E4BC3F82821013CD8
:4032C000F6D100220B4BC3F824210A4BD3F828315BB14FF08052084B1A60BFF34F8FBFF36F8F012402E0002400E0002400F06CFA204670BDBCFB020804ED00E0304BD3F8FC
:40330000183123B101222E4BC3F82821704710B52B4B0022C3F82821D3F800311B6B1A68B2F1A53F0BD15A68B2F1A53F07D19A68B2F1A53F03D1DB68B3F1A53F07D0204BC6
:40334000D3F80001D3F80011343100F0A1FA1C4BD3F80C310AE043B94FF03F0383F31188BFF36F8FBFF34F8FFEE7013B03EB83018A0013490A44126B002AECD0084699007F
:40338000CC18A2000244546B64685463303019448A0008320244944206D1606803EB83018A0007490A445063054903EB830082000A44526BD268C1F80021C1F80C3110BD53
:4033C000BCFB020840B94FF03F0383F31188BFF36F8FBFF34F8FFEE710B50C46054BD3F800111831FFF75EFB01212046FFF752FE10BD00BFBCFB020838B5C368DC6844B90F
:403400004FF03F0383F31188BFF36F8FBFF34F8FFEE704F118052846FFF75EFB154BD3F81831ABB9251D2846FFF756FBE36A114AD2F80C21934202D90E4AC2F80C3103EBAD
:4034400083039A0029460C481044FFF71FFB03E029460A48FFF71AFBE26A064BD3F80031DB6A9A4204D90120024BC3F8280138BD002038BDBCFB0208ECFB0208D0FB0208DC
:40348000034BD3F820210260D3F8143143607047BCFB0208F8B540B94FF03F0383F31188BFF36F8FBFF34F8FFEE7054641B94FF03F0383F31188BFF36F8FBFF34F8FFEE7D0
:4034C0000C4600F05FF9124BD3F814016968421A2368B3F1FF3F14D02F680D4ED6F82061B74201D088420ED29A4206D29B1A23602846FFF7C5FF002406E0002323600124D9
:4035000002E0002400E0012400F05EF92046F8BDBCFB02080122024BC3F82821704700BFBCFB0208014BD3F800017047BCFB0208064BD3F804312BB1044BD3F818311BB9BE
:40354000022070470120704700207047BCFB0208002849D038B50346C26A2549D1F80011C96A8A4237D28169002906DB2049D1F80011C96AC1F107018161586902EB8202D7
:4035800091001C4A1144884201D1012200E00022D2B11D461C1D2046FFF79EFA144AD2F80031DB6AEB62D2F80C21934202D9104AC2F80C3103EB83039A0021460D481044EA
:4035C000FFF764FA012038BD094AD2F80021D26ADA62012038BD426C054BD3F80031DB6A9A4203D3002038BD00207047012038BDBCFB0208ECFB020800283DD038B5034685
:40360000204AD2F80021904208D04FF03F0383F31188BFF36F8FBFF34F8FFEE7826C42B94FF03F0383F31188BFF36F8FBFF34F8FFEE7013A8264C06A596C88421ED0FAB9BD
:403640001C461D1D2846FFF747FA636CE362C3F10702A2610B4AD2F80C21934202D9094AC2F80C3103EB83039A00294606481044FFF70CFA012038BD00207047002038BDD2
:40368000002038BDBCFB0208ECFB020800284DD038B50346806C40B94FF03F0383F31188BFF36F8FBFF34F8FFEE75A6C8A4200D20A46D96A8A4238D0012836D11C48D0F807
:4036C0000001834208D14FF03F0383F31188BFF36F8FBFF34F8FFEE7DA629869002802DBC2F107029A61586901EB81018A0011490A44904201D1012200E00022AAB11C4696
:403700001D1D2846FFF7E8F9E36A094AD2F80C21934202D9064AC2F80C3103EB83039A00294604481044FFF7B1F938BD704700BFBCFB0208ECFB0208064BD3F800312BB179
:40374000044BD3F80021936C01339364014BD3F800017047BCFB02080000000000000000074B19680868B0E8F04F80F30988BFF36F8F4FF0000080F311887047AFF3008062
:40378000BCFC02084FF03F0383F31188BFF36F8FBFF34F8F0A4A136801331360012B0DD1084B1B6813F0FF0F08D04FF03F0383F31188BFF36F8FBFF34F8FFEE7704700BF0D
:4037C000C044020804ED00E0094B1B6843B94FF03F0383F31188BFF36F8FBFF34F8FFEE7013B034A13600BB983F31188704700BFC04402080000000000000000000000000F
:40380000EFF30980BFF36F8F154B1A681EF0100F08BF20ED108A20E9F04F10602DE909004FF03F0080F31188BFF34F8FBFF36F8FFFF764FD4FF0000080F3118809BC196867
:403840000868B0E8F04F1EF0100F08BFB0EC108A80F30988BFF36F8F704700BFAFF30080BCFC020808B54FF03F0383F31188BFF36F8FBFF34F8FFFF74BFC18B14FF0805225
:40388000024B1A60002383F3118808BD04ED00E008B54FF03F0383F31188BFF36F8FBFF34F8F4FF441710248FEF7FAFCFEE700BF68CE081038B5044610F0070F02D020F0A1
:4038C00007040834FFF71AFC104B1B682BB90F4A02F10C0323F0070313600D4BD3F814361C4442F2F772944208D8A34208D2074A15681D44064BC3F8144602E0002500E06D
:403900000025FFF783FC284638BD00BFE8FC0208D81E030838B504461D4B1A68916892F8703003F0010343F08043C1F800340369FF2B0AD89168B2F874200A44516821F4F3
:403940007F411B029BB20B435360114B1A68906892F87310032303FA01F592F8703092F8721003FA01F1294303F001030B4343F00043C0F800349368D3F80034054D00217B
:403980002846FEF745FFA1682846FEF741FE38BD8CB1030800001D4108B5074B5B6813F4802F04D001210448FEF77AFF08BD00210148FEF775FF08BD00001D4108B5084B17
:4039C0001B7963B907490848FEF70CFC044B5B792BB90122024B5A710448FFF79BFF08BDF02403081D3A08105CCA0810F4CE081008B5084B1B7913F0010F06D1FFF7DEFF90
:403A0000044A137943F0010313710348FEF738FF08BD00BFF024030800001D4110B5094BD3F81042072C04D940F231610648FEF737FC044BC3F81042D3F81022D3F8103293
:403A400010BD00BF00001D41B8CE081008B5084B1B783BB9074A01210748FEF71DFD0122034B1A70044B02229A609A6108BD00BFF624030880CF081000003840F0B50F00B7
:403A8000050014001E0085B001F096FB1B4B1B681A6DD96CD01901901B7E4D19013B9BB20C19971902A9EA1A0A801A198A80C21ADB1908004A80CB8003F036FE002803D106
:403AC00001F06EFB05B0F0BD22000199280002F00BFC22003900280002F006FC019B7A1E5E1C3100280002F025FC7A1E3100200002F020FC03F068FDE0E7C046C44402086E
:403B0000064B5A68596B01325A60C2008A18596A51600021117058627047C046F0B103080F2330B542680E4CD90009190D6C2100AA4202D2013BF7D211E00F2B0FD8246811
:403B4000A21A0A608268C068002A00D05060002801D0026003E00833DB00CB185A6030BDF0B10308F8B5284C0600E368A26B013B0818D3180D00984206D80368002B03D1E4
:403B80004368F618FFF7CCFFA36B9D420BD92B1F1F68EF1B3B68002B05D17B683800F6183D00FFF7BDFF0F23DA00A218126C964202D2013BF8D225E00F2B23D80833DA00DE
:403BC000A21850680022A91904392A606E60A8602D610E6029000831904200D04160EA602200DB00E318A860596023682932F31823601278002A05D1E268D31AA26893421A
:403C000000D9A3603000F8BDF0B10308F0B5234B87B09C6BDB680490013BE318039323686568002B30D1039B6719BB422CD93B680293002B28D0194EDB00726B9B5C012BE1
:403C400022D17B6820000193F36A0593FFF768FF3B68726BDB00D3185C60019A3900200006F005FD029B059A934202D1736B5B1B7363019B2800E118FFF774FF049B002B7C
:403C800001D0984206D2019D039B6419A342C6D8012000E0002007B0F0BDC046F0B10308002806D0034BDA6B0260002A00D05060D8637047F0B10308034BC0005B6B1818CF
:403CC000406808307047C046F0B10308064A10B5D3690133D361526BC300D3181A7801321A70FFF7E9FF10BDF0B10308036810B5083B094C1B68626BDB00D3181A78012A16
:403D000004D9E169002901D00139E161013A1A7000230360180010BDF0B103080322024B9143186059607047F824030810B5041E0FD001F041FA074B5A6BE300D3185B681B
:403D400019005868FFF70EFF2000FFF7D9FE01F027FA10BDF0B10308F7B5224DEB6A002B07D1214B99685868083106F059F8841C03E02B691C1DDB08E418E00000F0CAF80E
:403D80000126071E2CD06A6BC300D3185E68EB6A083601932B69696BDA00144B30001B68984729696E630B00CA000432EF62B218601E834203D2013313600832F9E7DB00DB
:403DC000F31800265E60074B5A685962511A091959601C61019BB34202D01800FFF7A6FF3000FEBDF0B10308F8240308E444020870B5184C230028331A78002A29D101324C
:403E00001A70154B0F32DA609A68002A02D15A6892089A605A2210252262002228009040D100611801320864102AF7D15868196803000125143BCB180E3A22616363A1635D
:403E4000E0605D6065626560FFF78CFEFFF784FF256370BDF0B10308F8240308F0B5040085B0FFF7C5FF0323294E03349C43376C201DB84200D30700F26B1400002C06D0C6
:403E8000231F196823688F4232D01C00F6E7F268B36B944663440193043B02931B680393039A019B9D1A2B68002B06D02000FFF7ADFE029B1D68019B5D1B2B68002B23D141
:403EC0006B689F4220DC28001C1DFFF729FEF368E41BDB1BF36073692C19DB1973616B68D81B02D02900FFF73DFE231F1F600BE0002B01D0616859606168002900D00B60BF
:403F0000A24201D12368F363200005B0F0BDC046F0B10308F0B585B00400FFF769FF3C4D2E6CB44203D3032303349C4326002B680C360196B34241D32B6B6A689A420FD988
:403F40006B686F6A013B6B60FB0003936B6BFA009B185A686A6201221A70002F0AD12DE0013B2B63FFF7F8FE2B6B01332B630028E6D023E00F23DA00AA18126C964201D242
:403F8000013BF8D21A00DB004433EB180F2A0DD81968002907D08C68002C04D061688E420ED9A168F5E701320833EFE73000FFF72DFE0028DED03800FFF7A2FD002723E032
:403FC000636802939E1B2B6C0C339E4201D2029B01932000FFF7A4FD6B6B039A9B185C60019B019A63600023A360019B2760E1180B1F24611A601300029A934204DA13007B
:40400000019A981AFFF7AEFD380005B0F0BDC046F0B1030810B504000020844208D001F0CBF82000FFF776FF040001F0B9F8200010BD000037B5050001F0BEF82800FFF737
:40404000E9FF041E0AD0FFF741FE064B01901B682A000021984701A8FFF748FE01F0A0F820003EBDE8440208514BF0B51B688FB0DA69D469A589A84208DBE189814205D356
:404080002168451B09910121494215E0A168002900D184E00D88A84200DA80E04E8886427DD3451B4968A8B266688000081809960021455E0221415E0891691C6FD022212F
:4040C0005E5E2420195E0691127E0A92A27C0A9951430C91227C0B922A229B5E1800079302F0CCF8324F0D903A680699D369926B300005920C9A5543099A5519049501253F
:40410000A27C02950392DA7E01929B7E0B9A00930A9B02F045FA089B01331BD00220079B184302F0ABF83B680899DA699B6B300005930C9B4B430999CB180493A37C029551
:404140000393D37E06990193937E0B9A00930A9B02F026FA164D2B68DB695A7E1B7E9A4217D9079B022B14D00420584002F086F82B68069AD8690B99437E057E9B18827EC0
:4041800051438A19C17E069869430918300002F0F7F86B4634229B18187802F06FF8044B617C1A68538CCB1853840FB0F0BDC046C4440208044B1B68DB69DB69002901D04B
:4041C0001A7C0A60587C7047C444020802230B80704710B5C3699A89914203DBDA8901208A4210D29B68181E0DD01A880020914209D35C888C4206D3891A5B688900C85AA1
:40420000C04380B2C00B10BD002807D003888B4202D843888B4201D28068F5E770470000F0B5334F8BB03B6804002A215A5EDB690100D8690792FFF7E7FF002855D00388BB
:40424000E41A4368E4001E190798B47802F016F839680990CD6932782B7E08932423C85E84462223C85E896B089B059171680394049101210291E97E0191A97E0091614670
:4042800002F08EF93B68DB695C7E1A7E089294421FD9079A022A1CD0DD7E00F088F8079000F079F800F024F93A682423D15E2223D05E2300D2696B43D47E32785B18624390
:4042C000089C12186543691802F05AF8079800F00FF9099801F0D2FF054B71781B68DA69927E4A43598C52185A840BB0F0BDC046C44402080C4B70B51B680400DE690D00E9
:404300000100F069FFF780FF00280CD002884368A41AE4001C196078B37E5843002D02D0227853432B6070BDC444020801230B80704710B5C069FFF767FF431E9841C0B2A5
:4043400010BDFF2230B5040014400A40A21A92B213B2002B01DA524213B25B431D00FF23020A1A4014000A0A1340E21A92B213B2002B01DA524213B2000C5B43090C411A68
:4043800089B208B25B19002801DA494208B280B24043C01830BD10B500F00EFF02F068FB02F06EFA040000F0FBFE200010BD10B500F002FF02F064FB02F062FA040000F03E
:4043C000EFFE200010BD70B500282CD0002926D0002A25D013880D881C1C2EB21BB2B34200DD2C1C048053884D881C1C2EB21BB2B34200DD2C1C448093888D881C1C2EB2EE
:404400001BB2B34200DA2C1C8480D388C9881A1C0CB21BB2A34200DA0A1CC28003E01100082206F019F970BD00280DD0038889B2CB180380838892B2C91843888180D31895
:404440004380C388D218C2807047000070B505000C0000F0B1FE044B1B685D849C8400F09FFE002070BDC046C444020870B5050000F0A2FE034B1B681C7E1D7600F090FE7B
:40448000200070BDC444020830B503000222845E06200A5E0020944213DC02228C5E06255A5F94420DDC00229C5E04254A5F944207DC00228A5E0421595ED00FCB1791426A
:4044C000584130BD10B500F077FE02F0C3FB02F03DFC03F0A9F900F063FE10BD10B5040000F06AFE200002F00FFA00F059FE10BD10B5040000F060FE200002F00DFA00F00E
:404500004FFE10BD70B5040000F056FE044B1B68DD69002C00D0DC6100F042FE280070BDC444020870B504000D0000F045FE094B094A1C80094B21001D80094B1B685B7CA0
:404540009B0098582A00C3681B6A984700F028FE70BDC046D8B2030800B30308C8B20308C444020870B5050000F026FE044B1B682C229C5E9D8500F013FE200070BDC046F6
:40458000C444020870B50024094D0A4E10C53368210028007022984733680422210006489847064B1D60064B1C70064B1C6070BD08250308E844020800B30308C4440208D6
:4045C000E8B20308C4B20308014BD8607047C046C4440208F0B50700160085B00C00019300F0EAFD042001F049FE124B00901A68D36CDD199E19176D019B3C19FF1802ABE4
:4046000018001D809E805C80DF8003F08DF8002806D1009801F032FE00F0C2FD05B0F0BD3B0032002100280001F0AAFE02F0CCFFEDE7C046C4440208002110B50800FFF74F
:4046400005FF034A034813000100FFF7C3FF10BDFF3F000001C0FFFF024BDA6FD86742607047C04608250308094B10B51A68002A0CD101321A60FCF7FFFF00F0D5FDFCF7A7
:4046800091FF0448044B0360FFF7E6FF10BDC04608250308882503088545081070B5FFF7E3FF2E22324B1A70FCF7E4FF314C324D2100324B0C3123672B681A1DDA63043224
:4046C000A2619B631B645B7C2D4A9B009858C3681B6B98472B4B6366EB6823622B680833A36101232377E37703F092F92300032268331A70244BE064606F6363A36302F0A5
:4047000003F9A86802F008F9204A214B1A6002F05DF8050002F03CFA060002F03FFA002E01D0002808D102F023FA060002F025FA0100300002F026FA00210800FFF7F2FE0D
:4047400003F0C0F800F096FDA36F002B0AD0A36F002B07D01B68002B00D09847A36F5B68A367F4E701220B4B28001A7070BDC046B9B2030808250308C4440208602B091007
:4047800000B30308582B0910785634FFB82B0910F8B20308E0B203080300002083420ADC054A9B009858002805D0C3681B68002B01D00068F7E7704700B3030810B5FFF78B
:4047C0006FFA10BDF8B506000D0017001C1E01DD00201BE01C20FFF741FB0028F8D0002D01D005610BE00A4BA200D358002B06D01A68002A01D01300FAE71B69036100232D
:4048000084618782C660036043608360F8BDC04600B3030883690C499A0010B554580368A04204D15350002B01D000225A604268002A00D013600368002B00D05A600023BF
:404840000360436010BDC04600B3030830B5002801D101203BE08269002AFADC1C4B19788A4201DB012119701A49920053580D00002B02D15050180029E05968002901D029
:404880000B00FAE7C1680968DC6824688C4203DD1B68002BF8D1DCE78C420AD1848A012C07D11C68002C04D02300E4682468A142F7DD5968002902D00860416000E0A8502B
:4048C00058600022984200D01A000260002030BDB1B2030800B3030870B51C00FFF772FF051E0AD0FFF7B2FFEB681B68002B04D1034B16341B68A400E550280070BDC0460E
:40490000C44402080020704710B5002804D00468FFF79CFF2000F8E710BD0000F0B5040087B0002800D17FE000F046FC03F0D0F93E4D02902B6822229B5E039303F0ACF9C3
:404940002A6883B20093938C00995B1A93842378002B5AD03649200003F03EFA01000600200003F063FA314B1A680323918D19400300012905D00023022902D1C30F1B18A5
:404980005B10518C04ADCB1A9BB219B25184298081B2019101395B18AB802423D35E6A4617896B80013BFB182A0020003100EB8003F06AFA1D4D04AB5B882A6820009384E2
:4049C000310000F099FC241823780A2B01D00D2B12D103212B689A8D0A40013A012A02D86A46928900E01A8C5A8422780A2A09D19A8CBF189F8405E004AA1088019A2B6851
:404A0000101858842378002B0CD10321074B009A1B68988C10189A8D98848A439A8500F0BFFB01E0013492E707B0F0BDC4440208FF7F000070B50E001500040000F0BCFBA1
:404A4000044B20001B685E849D84FFF767FF00F0A7FB70BDC4440208F8B504000220094B0D001B6816009B8D184300B2FFF77AFD0700320029002000FFF7DCFF3800FFF724
:404A800071FDF8BDC444020810B51F4A030012680020927E013A032A35D8100005F0ACF9020F1D25194A0633134004D51022013B524213430133D80F00210B220AE0144AA3
:404AC000134004D50422013B52421343013300210122D80F9A42484115E01421180005F0BFF901200B2909DC0DE01821180005F0B7F901200B2906DD0423994300231039C7
:404B000088425B41180010BDC44402080F000080030000808023000530B5000D1B010021984202DD104A013180188022D200904200DD181A3F23402482111840201A0B4DBA
:404B400083B25000405B5843A34207D0102A05D001325200525BE31A5343C01820308009002900D0404230BD00F8FFFF742B0910802310B5DB00C018FFF7CCFF10BD00007A
:404B8000F0B587B002910299141A5F1A210001900C9D394303D1029903F0C4F9BFE0F917E61778184840A11971400026049688420BDD21003C000F0011001A000B00019971
:404BC00002980291012101900491E0172118414001200390A14208D00293019B01921A0001235B4264427F4203932E68002F3FD14C4B04991B6800291BD09B7E3700002B69
:404C000013D10199029801F095FB88E03800FFF73BFF002808D1019B0298991B414BC9191B681B6E5B6898470137BB1BA342EDDD1BE0997E3700002914D11B6E02991B6849
:404C4000019898476BE03800FFF71EFF002808D1019B0299981B334BC0191B681B6E5B6898470137BB1B9C42EDDA013F2F6056E0E30F1B195B10002F00DA5B42294A12685A
:404C8000927E002A19D11D00019E019BF31A9C4245DB2100280005F0D5F8029B049AC018204B31001B681B6E5B68002A01D10100300098470136ED19E7E7039A013201D12B
:404CC000A6192E60019E0593019B2868F31A9C421CDB039B18182860FFF7D6FE002810D12100059805F0AEF8029B049AC0180D4B31001B681B6E5B68002A01D10100300008
:404D00009847059B0136DB190593DDE7039B013301D104192C602B68039A9B1A2B6007B0F0BDC046C4440208F0B58BB00593634B03901B6804921E7E0F00012E05D1109B07
:404D40000093059BFFF71CFFB5E0039B049A991A059BF81A0B00034300D1ACE00024013EA14201DA49420134002802DA022340421C43814204DA04231C430B0001001800D5
:404D80004B108002181805F05DF810254C4983119C46800622315B00000F5B5E2D1A6B43102D05D0624601325200525E50431B180F220833DD171540ED182D11630702D57D
:404DC0008023DB005D1BE30702D580231B015D1BA30702D580235B015D1B8023DB00ED182800FFF7C5FE704304002800FFF792FE4643002C05DA80208000041BA4126442D5
:404E000003E080239B00E418A412002E05DA80208000861BB612764203E080239B00F618B612002C02DD621C521005E0E20F1219013CE00F521004196410002E02DD731CB3
:404E40005B1005E0F30F9B19013EF00F5B1086196946898992B206A894468A1802809DB2BAB2531943806B467610B6B2921BC2801A8A9B8AA4B29E1BEB18C3810023091B55
:404E8000141B624481800481828146811A00042100F066F8094C23685B7E002B03D13900039803F03FF823685B7E002B03D10599049803F037F80BB0F0BDC046C44402084B
:404EC000742B09101FB50024039403AC0094FFF72BFF1FBDF7B51F0000900191160000F06BF90B4B00201B68DD6C1C6D02F01CFC002802D100F054F9F7BD01990098E319E6
:404F0000AA1961182818FFF7DDFF02F05DFBEFE7C4440208F7B511490A6801910B2A1BDC002A01DC002311E0019B00251C1D5300E41813005E1EB446AE1EA75F874205DB53
:404F4000634667533500002BF4D1EBE701995B00CB18013298800A60F7BDC04698250308F0B587B00292002204936E4B039001936D4B059105998A420DDA0398910041189B
:404F80000220095E8B4200DD0B000198884200DA01910132EEE7654A1268516900290ED006200A5E0498121A0198904200DD019202228A5E0499521A934200DA1300049A4C
:404FC0009B180093009B049A9C1A019BA34200DAA6E00025564B039E1D60059B9D425CDA059B00215F1EBD4200DA691C0223F25E039B8900591802200B5E94461800A242F8
:4050000039D1A34203D000212A008C461EE00023F75E029BFF180023C85E029B3A00C018424B1B681B6E1B68874221DA0200009938001EE0002A0CD0013A039891004118F8
:405040000220095EA14206D101218C446745F1DC20E03A00F1E7091B1B1B0022B05E59404BD4029BC0180200304B1B681B6E1B68009998470EE0A3420CD002DBA2423FDDA9
:4050800002E0A24206DB01E0A34203DC9A423DDCA2421FDD013504369FE7002420002500234B1A68954212DA04336A00D65E002C08D0029B00999A1918181C4B1B681B6E58
:4050C0001B689847012330005C40ED18E8E7009B013376E7A342DDDB0023F75E0023C95E63466246C91BE31A4B43811A4810002B13DDC01804F0A6FEC019FFF70BFFC9E738
:405100009A42E9DDA342C5DCA242C3DB0027CF5F9C460020315E1000E2E70138181AE9E707B0F0BD01C0FFFFFF3F0000C444020898250308044B10B51A68002A00D1186087
:4051400000F0F8F810BDC046B425030870B5002478250C4B1B689C420FDAFCF787FA0A4B1A682B006343D3181A68904207D0002A01D1186003E00134EBE7002000E0200061
:4051800070BDC046D44402081426030810B5034C2068FEF785FD0023236010BD14260308044A10B55368013B5360002B01D1FCF747FA10BD14260308F7B5184C6368002B84
:4051C00004D0FCF753FAA368984204D0FCF744FAFCF74CFAA060636801336360012B1BD1FFF7B4FF0E4B07005E680193B04213D0002E0FDB78256E4323687D439E19FFF708
:4052000081FB236870675D19064B2A1D686F1A60FFF77AFB019B5F60F7BDC04614260308D4440208C444020870B50E4D782428000D4B0C30EB60FFF70FFA0C4E33685C4382
:405240002000FEF70BFE0A4B220000211B682860984701235B427360FCF7E8F9FFF776FF70BDC046142603088D510810D4440208E8440208F8B500267827124B124C1B6845
:40528000124D9E4214DA3B00734324682968E418251D7022280005F0DFF90023236023000C33A361043BE563236465640136E4E7FFF74CFF7823584323681818043028601B
:4052C000F8BDC046D444020814260308C4440208F8B5084F06683B6804001B68300098473B6805005B6830009847301820602800F8BDC046F8B2030870B506000D00002499
:40530000002D08D0054B30001B68013D5B68984736182418F4E7200070BDC046F8B203080078704701207047012070470170012070470000034B10B51B68002B00D0984780
:4053400010BDC046282603080200FF231100000A194010B51840120C40181340C0188030FF30024904F06EFD10BDC046FD020000002800D000487047FFFFFF000120704784
:40538000F7B58068C46A856B624307245218D2080192026A0C409200002D18D080212141CCB2A446C94301248218151F019E2D68AD192F783E000E40234201D066463E433B
:4053C0006400043A2E70E4B29042EED117E001210D00A540ECB2A446ED438218141F019E2468A41927783E002E400B4201D066463E434900043A2670C9B29042EED1F7BD5B
:4054000070B5072584680D40E36AA06B5A43236A5218D2089B00002810D0802129410020CDB20121E318043B1E68B65C2E4200D008434900C9B29C42F5D10EE001210E00CA
:40544000AE40E318F5B2043B1E68B65C2E4200D008434900C9B29C42F5D170BDF8B50D0016000400FFF7CCFF070023699B6898473B003200434029002000FFF781FFF8BD37
:40548000F0B580688BB00090066AC06A5B1A42435F1CA44B5218D2081B680190039200981A7C806BD20779D50722082311405B1A002839D0F8321000DD1B0841AA40C4B243
:4054C0001040C2B238009F4200DD1800381A009D0190B00028189F4200DB221CD3B29C46FF25031F039A1B689B183A00002905D064461A7862401A70019A0133072A05DD6E
:405500001E78083AF6431E700133F7E7002A06D00824A21A2C0094401E7866401E70009B04388342DDD1FAE0FF221000DD1B88402A41C4B21040C2B238009F4200DD180040
:40554000381A009D0190B00028189F4200DB221CD3B29C46FF25031F039A1B689B183A00002905D064461A7862401A70019A0133072A05DD1E78083AF6431E700133F7E70E
:40558000002A06D00824A21A2C0014411E7866401E70009B04388342DDD1C0E00722DB6B11401B68FF22019308230491591A130000285AD00498CC1B0341A2401A40D8B2B1
:4055C000D3B23A008F4200DD0A00BA1A09928F4200DB031CDAB2DB435BB20893012307920293013E009AB300D458039B3D00E418049B002B0BD02278089B0199029813405E
:40560000014201D0079B1343099D23700134072D14DD029A0199444B11404A1E91412B400593059A414B49421B68D2102000C9B206929847069BE418059BED1A002D0DD0FD
:40564000082321785D1BF733AB400A000198029D9A43284201D00B43DAB22270029B5B00DBB20293002EBCD159E00498CC1B834022411A40D8B2D3B23A008F4200DD0A0001
:40568000BA1A09928F4200DB031CDAB2DB435BB20893012307920293013E009AB300D458039B3D00E418049B002B0BD02278089B019902981340014201D0079B1343099D62
:4056C00023700134072D14DD029A0199164B11404A1E91412B400593059A144B49421B68D2102000C9B206929847069BE418059BED1A002D0DD0082321785D1BF7332B4178
:405700000A000198029D9A43284201D00B43DAB22270029B5B00DBB20293002EBCD10BB0F0BDC046C4440208F8FF0000E8440208F8B505000E0014001F00069B9C4207DCCC
:4057400022003B0031002800FFF79AFE0134F4E7F8BD002382680B804B80D36A013B8B80136B013BCB80704700B58368481E0D2818D804F041FB090B0D0F17171711131A6F
:405780001A070707002011E0586A0FE0986A0DE0D86A0BE0186B09E0186A07E001201B6A984003E00120404200E0012000BD000009390020062902D8014B8900C85870472E
:4057C000E02B091010B501290FD1094B1B68587CFEF7E2FF03699B68984701F01EFA054B012803D0044B082800D00023180010BDC4440208542C0910C82C091010B500229C
:4058000006218069FBF706FF10BD10B5002205218069FBF7FFFE10BD73B504000E00150000210822684604F03DFF6A460321A06900960195FBF7EEFE73BD0000F7B51D008A
:405840000F4B14001B6806001A7C0F00D20708D5A54213DB220039003000FFF7FFFD0134F6E7DB6B1B680193AC4207DC2200019B39003000FFF784FD0134F5E7F7BDC046DB
:40588000C4440208F0B591B00193179B0390581E06910592072801D900F05EFC04F0B6FA230021005C041F005C045C045C0408000723069A1340802211001941C9B29A4012
:4058C000099101219940D3B2199A0A939446019BC9B263440293059B07910893FBE2059B50E2059BB0E11A9A069B9446634409930723099A134080221A41D2B20A9201228C
:405900009A40D3B20C93059B0793059A079B9B1A169A9A4201DC00F01FFC1B9BBE4C5B680693039B9B680293D96A1A6A079B5943099BC918CB08049303232168087C1840F4
:40594000022800D1A1E0984200D10FE1012800D10CE11B9B06981B680893834210D1CB6B089A1D681A60099A019B09999B18013B079A0398FFF784FD2368DB6B1D6043E145
:40598000029B92009B6B002B3ED00127029B9E1808990FAA394011700699049B39405170321F12680A99D218019B1A989C46199B0B936346002B20D08025054113780D937E
:4059C0000B9B1C782C40651EAC410FAD2D5D0D9C8C43002D01D00D9C0C4301301470082803D10B9801300B900020490801D10132803101235B429C44DBE7029B7A00043ED2
:405A0000D7B2B342C4D1FFE00127029B9E1808990FAA394011700699049B39405170321F11681A98C918019B0C9A9C46199B0B936346002B22D0802505410B780D930B9BE0
:405A40001C782C40651EAC410FAD2D5D0D9C9443002D01D00D9C144301300C70082803D10B9801300B9000205200D2B2002A01D10131013201235B429C44D9E7029B7A0003
:405A8000043ED7B2B342C2D1BEE0029B92009B6B002B34D0029B9A1801230893089B06990A9819400B91111F0968049B019D1A9C199EC918002D19D08023234137783B4235
:405AC00009D00B781F009C460B9B8743002B01D0674607430F700134082C01D100240136400801D101318030013DE3E7089B043A5900CBB20893029B9342CFD184E0029B68
:405B00009A18012308930899069B019D0B40111F08680B93049B0C991A9C199EC018002D1BD08023234137783B4209D003781F009C460B9B8F43002B01D067460F43077078
:405B40000134082C01D1002401364900C9B2002901D101300131013DE1E7089B043A5900CBB20893029B9342CDD14DE0029B92009B6B002B23D0029B9A18111F0968049BF6
:405B80000A9C019D1A98199EC918002D12D08023034137783B4202D00F7867400F700130082801D100200136640801D101318034013DEAE7029B043A9342DED124E0029BF9
:405BC0009A18111F0868049B0C99019D1A9C199EC018002D14D08023234137783B4202D007784F4007700134082C01D1002401364900C9B2002901D101300131013DE8E7CC
:405C0000029B043A9342DCD1189A199B944663441993079B013377E6C44402081A9A199B944603221C78069B63440493C34B1B681B7C134010D0022B4DD0189A199B944670
:405C400063441993029B01330293059A029B9B1A169A9A42E2DC7FE21B9B1A9D199E0499002B23D003235A1B5200DB18981ABA3303412340D3401B9A9B009B580398029A3D
:405C800001354F1CFFF77CFB042D02D1002574780136019B049A39009B189F42E2D1CCE7019B049A39009B189F42C6D003235A1B5200DB18981ABA3303412340D3400398AC
:405CC000029A01354F1CFFF75BFB042DE8D1747800250136E4E71B9B1A9D019E199F002B27D0019B049A991803235A1B5200DB18981ABA3303412340891BD34006D01B9AE5
:405D00009B009B580398029AFFF73AFB0135042D02D100257C780137013E002EE1D18CE70135042D02D100257C780137013E002E83D0019B049A991803235A1B5200DB1840
:405D4000981ABA3303412340891BD340E8D0029A0398FFF715FBE3E71A9A199B944603221F78069B63440493744B1B681B7C134010D0022B4DD0189A199B944663441993A1
:405D8000029B01330293059A029B9B1A169A9A42E2DCE1E11B9B1A9C199D0499002B23D001231A1B9200CE180333981AEC3303413B40D3401B9A9B009B580398029A01344A
:405DC000FFF7DEFA022C02D100246F780135019B049A31009B189E42E2D1CCE7049B019A31009B189E42C6D001231A1B9200CE180333981AEC3303413B40D3400398029ABA
:405E00000134FFF7BDFA022CE8D16F7800240135E4E71B9B1A9C019D199E002B27D0019B049A991801231A1B92000333981AEC3303413B40491BD34006D01B9A9B009B587E
:405E40000398029AFFF79CFA0134022C02D1002477780136013D002DE1D18CE70134022C02D1002477780136013D002D83D0049B019A991801231A1B92000333981AEC3334
:405E800003413B40491BD340E8D0029A0398FFF777FAE3E7039B08989B680193019A1B6AD16A4143069809180320C9080491234909680B91097C014014D0022900D1ABE0E6
:405EC000189A199B944663441993089B01330893029B63440293059A089B9B1A169A9A42D8DC39E1019A1B98916B9B0000284ED0002925D00124D318191F04980968199D1F
:405F000009180998029A954211D02E780F781B9AB600B2583E008643224201D03E0006430E70400801D1013180300135EAE7019A6400043BE4B29A42DED1C1E7C44402084C
:405F40000124019AD318191F0868049A199D07998018029A954213D02E7807781B9AB600B2583E008E43224201D03E000E434900C9B20670002901D1013001310135E8E7E2
:405F8000019A6400043BE4B29A42DCD198E7019A0124D318002938D0191F0968049A199D09988918029A95420ED00F782A783E008643224201D03E0006430E70400801D115
:405FC000013180300135EDE7019A6400043BE4B29A42E1D174E707782A783E008E43224201D03E000E434900C9B20670002901D1013001310135029A9542ECD1019A640007
:40600000043BE4B29A4200D15AE7191F0868049A199D80180799EEE7019A9B00916B1B9A002A4FD0019A0124D318002937D0191F0968049A199D09988918029A954213D0F4
:406040002E78002E0AD00F781B9AB600B2583E008643224201D03E0006430E70400801D1013180300135E8E7019A6400043BE4B29A42DCD124E72E78002E17D14900C9B24C
:40608000002901D1013001310135029A9542F2D1019A6400043BE4B29A4200D110E7191F0868049A199D80180799EEE707781B9AB600B2583E008E43224201D03E000E43CE
:4060C0000670DBE7019A0124D318002934D0191F0968049A199D0A988918029A954210D02A78002A07D00F783E008643144201D03E0006430E70400801D10131803001356E
:40610000EBE7019A6400043BE4B29A42DFD1D7E62A78002A17D14900C9B2002901D1013001310135029A9542F2D1019A6400043BE4B29A4200D1C3E6191F0868049A199D08
:4061400080180799EEE707783E008E43144201D03E000E430670DEE711B0F0BD70B505680400002D0AD13C20FDF778FE2060002804D0044B3C221B68290098472068434200
:40618000584170BDE844020870B504000830FFF7E5FF002205000121A069FBF73BFA284370BD73B504000D00160000210822684604F078FA20000830FFF7D0FFA368002B96
:4061C0000CD05A6B002A00D15D635D629E626A460721A06900950196FBF71CFA73BD70B5050008300C001600FFF7B8FFAB68002B02D0DC621E635C6370BDF7B5050000277B
:4062000008300E000197FFF7A9FFAC68BC4213D02B699B68984700F0C7FC3B002062F258E2500433202BFAD1E36A01AA63630221A8690196FBF7EEF9F7BD70B504000830C7
:406240000D00FFF78BFFA368002B01D02A689A6370BD000070B5084B1B681A7C11004140490705D59C6BD96B25680E6826600D601874100070BDC046C444020810B5024B4D
:406280001B689B68984710BDDC44020870B5144B05001B680A000A20195E91421EDC0E20195E8A421ADC0820195EA94216DC0C20195E8D4212DC5C7C187C0A49A400C00791
:4062C00005D508592900C368DB69984706E00859DB6BC1681B688C692900A04770BDC046C444020800B3030870B5104B0D001C680A21635EAB4217DC0E21635E9D4213DC10
:406300000823E15E814200DA01000C20235E934200DD1300994207DC627C054892001058C26894682A00A04770BDC046C444020800B3030870B5104B15001C680822A35E82
:40634000834218DC0C22A35E984214DC0A23E25E8A4200DA0A000E21635EAB4200DD2B009A4208DC617C054C89000D59E968CC6801002800A04770BDC444020800B30308FA
:4063800073B51E00114B0D001C680823E15E814200DA01000C20235E934200DD13008B4213DB0A20225EAA4200DA2A000E20255EB54200DD3500AA4207DC607C044C8000A6
:4063C0000059C46800952469A04773BDC444020800B30308F0B517006E4A91B01268069308900C001C9B002A10D01B9B05931A9B0493199B0393189B0293179B0193169BBF
:4064000000931568069B3A00A847C1E016991798014301294FD1604A069D10680A21425E111B002909DD6D1A002D00DCB0E0199E71431A9E71181A9100E022000699641896
:406440000E26815F013C641A002C03DD2D1B002D00DC9DE008990C26845FC9190139091B002900DD7F1A08990826845FC91AA1420CDA641A1B199C46DE101A9B3F1B9E1938
:406480001A9607266346B44309193340002F7FDD407C424C800000591B9EC46804931A9B05960393199B00950293189B019364683B00A0476CE00823160018990A925B1A58
:4064C0000E930A9B069A934262DA179BE3180C93013B0D93304B1B680A215A5E0D998A424CDC0E229B5E9C4248DC00251A9B09950B93089B0793099BBB423FDA002D04D1C8
:406500000B9B08351E7801330B9333000E9A1899134132008A40D6B2DAB26D1A002A05D102211D4A1268127C0A421ED11A4A1268D26B11680F911B99002905D0FF210B407B
:406540001B999B005B5801E0FF210B401360169B21005A1E079B0798D2180D9BFFF710FF0D4B0F9A1B68DB6B1A60169A099B944601330993079B63440793BCE7199A0A9B18
:40658000944601330A931A9B0C9C63441A9398E711B0F0BDBCB20308C444020800B30308F0B593B008937E4B06001B680C0006921A9D1C9F002B0ED01D9A049705921B9AB7
:4065C00002950392199A0192189A00921D68069A089BA847E1E0189A19990A43012A6DD1704B19680A228B5E089A9C461B1B002B07DDD21A002A00DCCFE01B984343FF1848
:4066000000E0A446089BE4180E200B5E013CE41A002C03DD121B002A00DCBEE0069B0C24085FF318013B1B1A002B02DD0698C31A06930823C85E0023864228DA069C831BF2
:40664000E41A0694082D1FD009DC022D0FD0042D15D0012D1BD1D8103F1807200AE0182D11D0202D0FD0102D11D15B000CE098103F1803201C0084433619034007E058104D
:406680003F180120F6E79B00FF18060000230698002800DC81E0497C4348890008581D9CC16804931B9B009202930594039701954C68069B62463100A0476EE00822521B55
:4066C000109207930C930C9B089A934265DA199BE3180E93013B0F93324B1B680A215A5E0F998A4252DC0E229B5E9C424EDC00230D9709960A930B930B9B069A934245DAA3
:406700000A9B002B07D10D9B1B7807930D9B01330D9308230A93079B109A1341079AAA40D2B207920A9A521B0A92DAB2002A05D102211C4A1268127C0A421ED1194A12686E
:40674000D26B116811911D99002905D0FF210B401D999B005B5801E0FF210B401360189B21005A1E099B0998D2180F9BFFF708FE0C4B119A1B68DB6B1A60189A0B9B944647
:4067800001330B93099B63440993B5E70C9B0E9C01330C931B9BFF1895E713B0F0BDC046BCB20308C444020800B3030810B5054B054A19684B7C08319B009858C3681B6B37
:4067C000984710BDC444020800B3030807B5FFF7EDFF00F0B7F800283AD1FDF7DDFF0190002807D100F006F91A4A1B4B12689A420ED12CE0C3680C215B6A01A898470300AA
:406800000120002B24D0019898470028EAD01FE00020FDF7C1FF0190002818D0002001F095FB0420FFF72AFD00210C4B08001A00FFF7A6FD0020FFF721FD019B0E21DB68F3
:4068400001A85B6A9847031E01D00198984700200EBDC0467C250308785634FFFF3F000010B5054B054A1B685B7C9B009B581B691B68984710BDC046C444020800B30308B0
:4068800010B5054B054A1B685B7C9B009B581B695B68984710BDC046C444020800B30308044B1B681A7C520701D59B6B00E0DB6B18607047C4440208054B10B51B681A6BA2
:4068C000824204D01863FFF7CBFFFFF7E9FF10BDC4440208044B1B681A7C520701D5DB6B00E09B6B18607047C4440208054B10B51B685A6B824204D05863FFF7B1FFFFF7B8
:40690000E9FF10BDC444020810B5024B1B685B68984710BDDC44020810B5024B1B681B68984710BDDC44020810B5044C2068FDF7B7F90023024A2360136010BD0CB3030837
:406940003026030870B500240A4D2B68A3420FD1094B18688000FDF781FA2860A04206D00648074B04300360FDF776FE00E00124200070BD0CB30308E04402083026030871
:4069800029690810F7B5051E28D08768381E25D0134C2068002821D080232A685B0000209A421BDC0F4B00921B689A4200DD00930026009B9E420ADA2268B300D218F858F2
:4069C0000192FFF74DFF019B01361860F1E7064B1B68002B01D0280098472068FEBDC0460CB30308E04402083026030810B5FFF7C9FF10BDF7B500F025F900240090009BCD
:406A00009C422EDA2000FDF7C7FE002827D0154E200033685A7C5C74019200F056F8082804DD6A46336812795A7418E00E4AA300D2580E4B12699A42F3D0200000F04AF84C
:406A400000250700BD42ECDAFF202840FFF718FFE9B20200200000F01FF90135F2E70134CDE7F7BDC444020800B303083C2C0910024B1B689B6B18687047C046C4440208AA
:406A8000024B1B68DB6B18687047C046C444020810B50C00FDF780FE002803D0C2682100926A904710BD002310B5984202DCFFF7EFFF0300180010BD10B501000020FFF700
:406AC000E7FFC343DB17184010BD10B50821FFF7EAFF10BD10B50921FFF7E5FF10BD10B50E21FFF7E0FF10BD10B5034B1B68587CFFF7F0FF10BDC046C444020810B5034B86
:406B00001B68587CFFF7EBFF10BDC046C4440208044B800010B5C0580821C3689B6A984710BDC04600B3030810B5FDF735FE002803D0C2680221D26A904710BD10B5034B9D
:406B40001B68587CFFF7F0FF10BDC046C4440208024B8000C3581B695868704700B30308024B8000C3581B691868704700B3030810B50120FFF7A0FF10BD10B50220FFF7CD
:406B80009BFF10BD014B03C37047C0463C260308014B18687047C0463C260308014B58687047C0463C2603080023984233D0020001339A432FD003220100013391432AD0CC
:406BC0000100053399431300002924D002000C339A430B3B002A1ED002001B339A431A3B002A18D00200FA339A43F73B002A12D0420A0833002A0ED0020B0CD0C20B0AD0D7
:406C0000020C08D0820C0233002A04D0000E0633002800D008331800704710B5FFF7C4FF030001280DD0821E0820062A09D9073A0018072A05D900200F22113B9A424041A1
:406C4000400110BD10B50020FDF7A6FD431E984110BD00000E4B10B51C001A680D49527C92005058002809D0C368002B02D01B68042B01D00068F5E7FDF7CCFD002223680F
:406C8000DA651A0008325A61FFF790FD10BDC046C444020800B3030837B50C001500FDF77BFD0190002801D101200BE0C36810215B6A01A89847031EF6D001982A002100DC
:406CC000984700203EBD37B50C001500FDF764FD0190002801D101200BE0C3680B215B6A01A89847031EF6D001982A002100984700203EBD13B50C00FDF74EFD019000286C
:406D000001D101200AE0C36809215B6A01A89847031EF6D0019821009847002016BD37B50C001500FDF738FD0190002801D101200BE0C3680A215B6A01A89847031EF6D00A
:406D400001982A002100984700203EBD10B5074C2368186BFFF784FDFFF7A2FD2368586BFFF77EFDFFF7B6FD10BDC046C444020870B50024134B144D1C60144B14481C60FB
:406D8000144B04701C60144B44601C60134B84601C60134B21001C60124B18221C600C302B689847104B21001C60104B08221C600F482B6898472B68082221000D489847B7
:406DC00070BDC0463CB30308E844020824B303084426030844B303084CB3030814B3030834B3030840B3030820B3030818B3030858B3030850B30308F0B504000D00160067
:406E000085B0002C50D02000FCF760FF0223876A010001901F4241D002AC002E04D03200200000F005FF02E0230005C905C321002800FDF729FB002830D00122019B174213
:406E40001FD1002E09D05A887188131C08B212B2824200DA0B1C1BB201E002229B5E0222A95E06202A5E8B4205DD0221635E9A4214DB013B03E00621635E9A420EDDEB8093
:406E80000CE0DF69002F09D0380022002900FFF7B3FF3800FCF710FF076AF3E7019B01A81C6AFCF723FFACE705B0F0BDF0B504000F00002687B00192002C39D02000FCF721
:406EC00005FF0223856A010003901D422AD0019B04AC002B04D01A00200000F0A9FE02E0230005C905C321003800FDF7CDFA002818D001231D4204D1A388012601333B8019
:406F000010E0039BDD69002D0CD0220039002800FFF7CCFF002800D001262800FCF7CCFE056AF0E7039B03A81C6AFCF7DFFEC3E7300007B0F0BDF0B504000E00170085B006
:406F4000002C34D02000FCF7C1FE0223856A010001901D4225D002AC002F04D03A00200000F066FE02E0230005C905C321003000FDF78AFA002814D001231D4203D1238844
:406F8000013BB3800DE0019BDD69002D09D0280022003100FFF7CFFF2800FCF78DFE056AF3E7019B01A81C6AFCF7A0FEC8E705B0F0BD0000F7B506000D0002272800FCF7EF
:406FC00085FE846A010001903C4004D101A8FCF78DFE230013E0300000F00CFE019B01A89C69002C07D1FCF781FE064B1868401B4342434103E0FCF779FE2500DEE7180092
:40700000FEBDC04618B30308F0B5040085B00D1E4DD0FCF75BFE00230190036285612800FCF754FEC6690290002E05D1C46101A8FCF75CFE02A838E0019B30009D6A082737
:40704000FCF744FE3D4003900ED1836A3B420BD0019B01A81E62029BDC61FCF747FE02A8FCF744FE03A820E002A8FCF73FFE03A8FCF73CFE3000FCF71FFE08270390039BF4
:407080001E6A002E01D11C620EE03000FCF714FE002D07D1836A3B4204D0039B1C62019B1E6201E00390EAE701A8FCF71FFE05B0F0BD030010B5080002215A5E0021595E49
:4070C000FDF7B2F910BD0000114B30B51D6885B0696C0400002916D0082202A803F0BCFA0C4B1868002800D1A86CFCF7EFFD02A90190FFF7DEFF01A8FCF7F8FD02A8210096
:4071000000F078FD02A802F041FD05B030BDC046C444020814B303081FB5104B1B681A0054321278002A02D00D48143012E0986CFCF7CCFD02AC2300019006C806C301A8BF
:40714000FCF7D4FD074B1968002902D02000FFF731FF2000FFF7B8FF1FBDC046C44402084426030814B3030813B5041E22D0FCF7ADFD836A01909B0719D5406A002808D0FE
:407180000D4B1B689C4204D000F06CFF0022019B5A62200000F042FC0400002C07D02000FFF7E2FF2000FCF787FD046AF5E701A8FCF79CFD13BDC04648B30308030000220A
:4071C000815E04201A5E0020914207DC02215A5E0621595ED00FCB179142584170470000F0B585B004000E001500FCF765FD876A0190BB0730D53000FFF7E0FF00282BD0DA
:40720000164B3B40012B27D02000FCF75FFD02AC020001903100200000F00AFD2000FFF7CDFF002815D0019B0D4918009A6A08300A4204D022000100FDF7C5F809E042CC37
