:020000041008E2
:4000000000780408EB0208100D0000005103081051030810510308105103081000000000000000000000000000000000712E08104D03081000000000112F0810752F081047
:400040004D0308104D0308104D0308104D0308104D0308104D0308104D0308104D0308104D0308104D0308104D0308104D0308104D0308104D0308104D0308104D03081000
:400080004D0308104D0308104D0308104D0308104D0308104D0308104D0308104D0308104D0308104D0308104D0308104D0308104D0308104D0308104D0308104D030810C0
:4000C0004D0308104D0308104D0308104D0308104D0308104D0308104D0308104D0308104D0308104D0308104D0308104D0308104D0308104D0308104D0308104D03081080
:400100004D0308104D0308104D0308104D0308104D0308104D0308104D0308104D0308104D0308104D0308104D0308104D0308104D0308104D0308104D0308104D0308103F
:400140004D0308104D0308104D0308104D0308104D0308104D0308104D0308104D0308104D0308104D0308104D0308104D0308104D0308104D0308104D0308104D030810FF
:400180004D0308104D0308104D0308104D0308104D0308104D0308104D0308104D0308104D0308104D0308104D0308104D0308104D0308104D0308104D0308104D030810BF
:4001C0004D0308104D0308104D0308104D0308104D0308104D0308104D0308104D0308104D0308104D0308104D0308104D0308104D0308104D0308104D0308104D0308107F
:400200004D0308104D0308104D0308104D0308104D0308104D0308104D0308104D0308104D0308104D0308104D0308104D0308104D0308104D0308104D0308104D0308103E
:400240004D0308104D0308104D0308104D0308104D0308104D0308104D0308104D0308104D0308104D0308104D0308104D0308104D0308104D0308104D0308104D030810FE
:400280004D0308104D0308104D03081010B5054C237833B9044B13B10448AFF300800123237010BD344902080000000078F70810084B10B51BB108490848AFF3008008485F
:4002C000036803B910BD074B002BFBD0BDE81040184700BF000000003849020878F7081004430208000000007047FFF7FDFF72B6104C114DAC4209DA21686268A368043B53
:40030000A2BFC858D050FAE70C34F3E70B490C4A00209142BCBF41F8040BFAE709480A490860BFF34F8F00F079F900F053F900F033F8FEE77CF7081094F7081034490208F1
:40034000CC7103080040020808ED00E0FEE7FEE700B504207146084202D0EFF3098001E0EFF30880043001F01DFEFEE7F8B506460F4600F0D3FF0546064C3B4632460146D8
:40038000204600F069FE41F2B0622946204609F02DF8F8BD5049020808B562B603F052FC142000F045FE012000F04AFE012003F031FB002003F070FB6FF07F4003F062FBEE
:4003C00003F00EFCAF2340F207120121084602F029FE042003F01EFB4123F3221946142004F034F8002003F057FB6FF07F4003F049FB0C4803F05AFB022003F087FB1E22D1
:400400008421094803F0EAFD084803F04FFB46228421074803F0E2FD01210846FFF7A6FFFEE700BF00AF081088940810209908109094081008B5012001F072FB08BD00BFBA
:40044000704700BF5C4AD2F8803303F00F0303F1D00152F8212002F00702032A04D0042A05D092B9554914E0554A116811E003F1C002514951F8222002F01F02112A06D0AA
:40048000132A04D04FF4FA4103E04E4901E04FF400418BBB484BD3F8902502F00100D3F88825C2F30172D3F8883513F0405F07D0414BD3F88835C3F30173012B02D102E0C2
:4004C000012300E0002303B108B9032A46D13A48D0F88025C2F31103D0F88425C2F30C02D0F88005C0F300600130B1FBF2F202FB03F2B2FBF0F131E0012B2FD12E4BD3F80E
:40050000402602F00100D3F80026C2F30172D3F8003613F0405F07D0274BD3F80036C3F30173012B02D102E0012300E0002303B108B9032A12D12048D0F8002602F07F02DC
:40054000D0F80036C3F30423D0F80006C0F3044002FB01F2B2FBF3F2B2FBF0F1164BD3F88033C3F3011321FA03F215494A601648D0F89030C3F3072301330069000E013068
:40058000B2FBF0F08860B2FBF3F3CB600B6103F5742202F23F220D48A0FB0202C2F387420A7503F2E7330A4AA2FB03239B098B61DB03CB61704700BF0000264000127A00A0
:4005C0008C42020800366E010000214083DE1B43D34D621008B50D4801F0CEFDFFF730FFFFF730FF00221146042001F061F8084801F0F4F8074B1B6893F8513013B10648AD
:4006000001F05CF900F09EFF08BD00BF1898081000600208587003089894081008B501F01CFD074AD2F8883043F47003C2F88830BFF34F8FBFF36F8F01F013FD08BD00BF9F
:4006400000ED00E02DE9F04180460E4617460A4C08256560702000F06FFD404600F06CFDA5606560722000F067FD3946304600F0C7FDA560BDE8F0810006324000B583B008
:4006800002AB03F8011D01221946FFF7DBFF03B05DF804FBF8B507460E46094C08256560702000F049FD384600F046FDA5606560732000F041FD304600F06EFDA560F8BDF9
:4006C0000006324038B50425084B5D60084C402363601023636000F0FFFC0822054B5A6065602023636000F0E1FC38BD00003240800232400006324010B5434C6F2200215C
:40070000204608F099FE631C236704F14E03636704F12203A36700F0C9FC03E000F0D0FC032868D800F0AEFD0028F7D100F0CEFC00217220FFF7AEFF00F00F0002285CD1D7
:400740004021FFF79BFF00210F20FFF7A3FF10F0800F54D002210B20FFF790FF08222B490120FFF76FFFD1210720FFF787FF02210820FFF783FFC2210920FFF77FFF0321FB
:400780000420FFF77BFF01210320FFF777FF00210320FFF773FF0A2001F0DAFB002400E01C4601210520FFF769FF642001F0D0FB03210520FFF762FF322001F0C9FB0F2136
:4007C0000520FFF75BFF322001F0C2FB00210F20FFF760FF10F0400F05D040210220FFF74DFF234603E0631C9BB2042CD8D1032B07D9052010BD012010BD022010BD032005
:4008000010BD002010BD00BF80610208CC94081010F1090F0EDB10F1040F0EDB05280FDD0A2810DD0F2811DD142811DD282811DC5A2210E04FF496620DE04FF461720AE085
:400840004FF4167207E04FF4A57204E0DC2202E0B42200E03C22034BA3F87C20A3F87E20704700BF806102082DE9F84F06460D46047828B1CA4B984205D10127002403E030
:400880000127FF2400E0002700F010FC4FF00008D0E1C8EBC80AC8EB0A1ADFF80C930AEB090B6F220021584608F0C6FD0BF1010EBC4BC3F870E00AF148004844063058672B
:4008C0000AF1200AD14409F10209C3F878902022002397E10FB934780136032D00F29081DFE815F004006500C600270100EB030C14F0400F01D0C02100E080218CF8001004
:4009000049B214F0100F02D04FF0300A01E04FF0200A4AEA01018CF8001014F0040F02D04FF00C0A01E04FF0080A4AEA01018CF8001014F0010F02D04FF0030A01E04FF0AE
:40094000020A4AEA01018CF800100EEB020C14F0800F01D0032100E002218CF8001049B214F0200F02D04FF00C0A01E04FF0080A4AEA01018CF8001014F0080F02D04FF0FE
:40098000300A01E04FF0200A4AEA01018CF80010013A92B214F0020F02D06FF03F0A01E06FF07F0A4AEA01018CF8001028E100EB030C14F0400F01D0802100E040218CF8BB
:4009C000001049B214F0100F02D04FF0200A01E04FF0100A4AEA01018CF8001014F0040F02D04FF0080A01E04FF0040A4AEA01018CF8001014F0010F02D04FF0020A01E046
:400A00004FF0010A4AEA01018CF800100EEB020C14F0800F01D0022100E001218CF8001049B214F0200F02D04FF0080A01E04FF0040A4AEA01018CF8001014F0080F02D048
:400A40004FF0200A01E04FF0100A4AEA01018CF80010013A92B214F0020F02D06FF07F0A01E04FF0400A4AEA01018CF80010C7E000EB030C14F0400F01D0C02100E04021A0
:400A80008CF8001049B214F0100F02D04FF0300A01E04FF0100A4AEA01018CF8001014F0040F02D04FF00C0A01E04FF0040A4AEA01018CF8001014F0010F02D04FF0030ACD
:400AC00001E04FF0010A4AEA01018CF800100EEB020C14F0800F01D0032100E001218CF8001049B214F0200F02D04FF00C0A01E04FF0040A4AEA01018CF8001014F0080F74
:400B000002D04FF0300A01E04FF0100A4AEA01018CF80010013A92B214F0020F02D06FF03F0A01E04FF0400A4AEA01018CF8001066E000EB030C14F0400F01D0802100E03F
:400B4000C0218CF8001049B214F0100F02D04FF0200A01E04FF0300A4AEA01018CF8001014F0040F02D04FF0080A01E04FF00C0A4AEA01018CF8001014F0010F02D04FF024
:400B8000020A01E04FF0030A4AEA01018CF800100EEB020C14F0800F08D0022107E000BFFFFF0F1080610208E423030803218CF8001049B214F0200F02D04FF0080A01E0F3
:400BC0004FF00C0A4AEA01018CF8001014F0080F02D04FF0200A01E04FF0300A4AEA01018CF80010013A92B214F0020F02D06FF07F0A01E06FF03F0A4AEA01018CF80010BB
:400C000001339BB2202B7FF665AEC8F1AF031BB299101A4A134003D5013B63F003030133174A02FA83F31B7A09F8013008F101081FFA88F8B8F1AF0F7FF62BAE00240FE02A
:400C4000C4EBC403C4EB03136F220E4919440A20FFF7F8FC07210220FFF710FD0134A4B2AF2CEDD9084BB3F87C4000F029FA8442E4D800F02BFABDE8F88F00BF0300008095
:400C8000CC940810E4230308806102082DE9F04706460D4600F00AFAD2210920FFF7EEFC0024C6E0C4EBC407C4EB0717DFF8008207EB08096F220021484608F0BDFB09F18C
:400CC000010C784BC3F870C007F1480EC6440EF1060EC3F874E02037B84408F10208C3F87880202000218EE0771C32786E1C95F800900EEB010582EA090212F0400F04D068
:400D000019F0400F03D0802302E0402300E0C0232B705BB212F0100F05D019F0100F05D04FF0200A04E04FF0100A01E04FF0300A4AEA03032B7012F0040F05D019F0040F67
:400D400005D04FF0080A04E04FF0040A01E04FF00C0A4AEA03032B7012F0010F05D019F0010F05D04FF0020A04E04FF0010A01E04FF0030A4AEA03032B700CEB000512F0C3
:400D8000800F04D019F0800F03D0022302E0012300E003232B705BB212F0200F05D019F0200F05D04FF0080A04E04FF0040A01E04FF00C0A4AEA03032B7012F0080F05D0FE
:400DC00019F0080F05D04FF0200A04E04FF0100A01E04FF0300A4AEA03032B70013880B212F0020F05D019F0020F04D06FF07F0203E0402201E06FF03F0213432B7001311F
:400E000089B235463E4620297FF66EAFC4F1AF031BB29910244A134003D5013B63F003030133224A02FA83F31B7A08F801300134A4B2AF2C7FF636AF002421E0C4EBC4055D
:400E4000C4EB05151A4B1D446F2229460A20FFF7F9FB07210220FFF711FCC4F1AF0343F38D032B44002283F822206F2229460A20FFF7E8FB07210220FFF700FC0134A4B23D
:400E8000AF2CDBD9074BB3F87E4000F019F98442D2D800F01BF9C2210920FFF7EFFBBDE8F08700BF8061020803000080CC940810E4230308002307E01349086F5522C25449
:400EC000496FCA5401339BB2202BF5D970B5002416E0A6080C4DAA6F04F003030B490B441B7A93556F2229460A20FFF7ABFB07210220FFF7C3FBAB6F00229A550134A4B28F
:400F0000AF2CE6D970BD00BF80610208CC94081008B5002304E00021094AD1540133DBB2152BF8D900210420FFF7A8FB6F2204490A20FFF787FB07210220FFF79FFB08BD9C
:400F40008061020838B50E4C1023A360142000F0FFFF00F0D9F808220A4B9A604023A3600425A5600A2000F0F3FF65600A2000F0EFFFA5600A2000F0EBFFFFF7BDFB38BD94
:400F8000800232400006324038B5FFF793FFFFF7BFFF1E2000F0DCFF234C40256560322000F0D6FFA56000210F20FFF773FB10F0400F36D000210B20FFF760FB01210320F3
:400FC000FFF75CFB03210520FFF758FB01210520FFF754FB322000F0BBFF80210420FFF74DFB00210520FFF749FB01210720FFF745FB1E2000F0ACFF00F094F8102363603D
:401000006560142000F0A4FF0822084B5A60042363602025A5601E2000F09AFF6560002038BD042038BD00BF800232400006324010B50446FFF746FB2046FFF7E9FB10BD81
:4010400008B510B1FFF77EFF01E0FFF79DFF08B9012008BD002008BDF8B507460E4614461D4613B10120FFF7EBFF24B931463846FFF70CFE15E0631EDBB2012B11D80021A5
:401080003846FFF7F1FB012C07D101213846FFF7EBFB02213046FFF7E7FB03213046FFF7E3FB15B10020FFF7CBFFF8BD08B50022024BC3F8082100F069F908BD0000384076
:4010C000014BD3F808017047000038400122014B5A6070470000384010B5074C074A0849204600F091FD236843F0004323600822044B9A6010BD00BF0000674034700308D2
:4011000018950810000632400822044B9A60044A136843F000431360704700BF000632400000674008B50249024800F0A1FE08BD347003080000674008B50146154800F06B
:4011400005FD144BD3F8C03F13F0040FF9D0114BD3F8042242F48032C3F80422D3F8042222F48032C3F80422D3F80422D3F8042342F48032C3F80423D3F8042322F480324E
:40118000C3F80423D3F804230422C3F8C02FD3F8C03F08BD0000674008B50146174800F0D5FC164BD3F8C03F13F0040FF9D0134BD3F84003D3F8042242F48032C3F8042201
:4011C000D3F8042222F48032C3F80422D3F80422D3F8042342F48032C3F80423D3F8042322F48032C3F80423D3F804230422C3F8C02FD3F8C03FC0B208BD00BF00006740E3
:4012000038B50C46054600B121B940F2E6511B4800F0B8FE22462946194800F0DDFC184AD2F80832C3F30803D2F80822C2F3C032D342F4D1124BD3F8042242F48032C3F899
:401240000422D3F8042222F48032C3F80422D3F80422D3F8042342F48032C3F80423D3F8042322F48032C3F80423D3F804230422C3F8C02FD3F8C03F204638BDD8940810FA
:4012800000006740044B1B6913F0080F01D0012070470020704700BF8002324010B582B002AC012344F8043D00231A461449154802F0E6FD214604F07CFA04F0DBFE60B160
:4012C0004FF48472B021002004F0B9FF4FF48472B021002004F0DFFF0BE0B0224FF48471002004F0ACFFB0224FF48471002004F0D2FF0549002004F0B9FF02B010BD00BF21
:4013000004F5081038F50810AC420208012901D1002070474FF0FF30704700BF004870470062020808B5012001F052F9014B186008BD00BFB078020808B500231A4619460A
:401340000248006801F070F808BD00BFB078020808B54FF0FF31024B186801F045F908BDB078020808B501F065FC08BD704700BF08B54FF40041034801F0A4FF024802F0E7
:40138000F7FB08BDB47802087CED081008B5084B1B783BB9074A0021074800F065FE0122034B1A70044B01229A609A6108BD00BFB4F802084C950810000038401F4B9842C3
:4013C0002DD00CD840282ED003D8E8B1102828D02FE0802829D0B0F5807F28D029E0184B984228D006D8B0F1204F0DD0154B984212D01EE0144B98420AD00133984209D099
:40140000023B984215D101E0002070470F4870470F4870470F4870474FF4A0007047074870470D4870470D4870470D487047034870470C4870474FF4A40070470600520006
:40144000010000F0090000A0040000F0010052000200520003005200010050000200500005005200FF00520038B5124B1B6893F83130012B04D840F2C3110F4800F082FD0A
:401480000C4B1D682A6AB5F8B03013442C46D5F8B420D358002B0BDB084B1868FFF78EFF6B6801229A6063689B68002BFBD138BD034838BD5870030898950810B8F8020877
:4014C000020050001A4B186128B102230370FF23437000234380174B1B6893F850202AB300B583B0B3F93830ADF80030002301931149684600F0F2FCBDF90030002B08DB71
:40150000590903F01F03012202FA03F30B4A42F82130084B1B6893F8513023B102220849012000F077FA03B05DF804FB704700BFB8F80208587003087543020800E100E005
:401540002D44020808B50248FFF7BCFF08BD00BFCCF8020838B50B4B1B68D3F8B4301B58002B0DDA0D4604460B0C1B0423B140F2D521054800F006FDA9B26160002038BDAC
:40158000024838BD58700308D895081001008A0038B50368002B01DA002300E0094B73B90D460446C2600B0C1B0423B140F2BB21054800F0E7FCA9B2A160002038BD014877
:4015C00038BD00BF01008A00D895081038B504460D4619B99921084800F0D4FC074B1B68D3F8B4301B59002B03DAE3682B60002038BD034838BD00BF18960810587003087E
:4016000001008A00254B1B6893F8313083423AD900293AD00B6813F01F0F38D170B50D4604461E4B1B6893F83130984204D340F2C3111B4800F0A6FC184B1B68186AB3F82F
:40164000B03004FB0304174E34602A68D2080021686807F0F1FE00212046FFF77BFF346825B940F293310E4800F08CFC2A4600212046FFF78DFF60B900210A4B1868FFF795
:4016800069FF40B970BD084870470748704706487047064870BD054870BD00BF58700308D8950810D0F8020803018A0001018A0010B504461346B2B9A9B9124B1B6893F8F2
:4016C0003130984204D340F2C3110F4800F05AFC0C4B1B681A6AB3F8B03004FB03240B4B1C60002010BD43B149B1084A51609360111D2046FFF786FF10BD054810BD044841
:4017000010BD00BF58700308D8950810D0F8020803018A002DE9F0411B4B1B68DC68236883422CD90D464609A0EB4610012303FA00F819B900F091FC074600E00027124B00
:4017400018680368002B01DA002300E00F4B83B9626852F8263018EA030F05D023EA080342F82630002400E0094C0021FFF7F2FE00E0084C25B9384600F073FC00E0064C63
:401780002046BDE8F08100BFD0F8020801008A00020188000301880004018A000B4B1B68DB681A6882420CD94109A0EB4110012202FA00F05B6853F82130184203D0044897
:4017C0007047044870470448704700BFD0F802080101880004018A0000018800024B1B680BB9014B18607047DCF802082DE9F8430446884691461D46089F2C4B1B681BB9F4
:40180000B5212B4800F0BEFB284B1B682C2000FB04F01C18EEB21E50C5F3072363602D0CA560244B1B6893F831309E4204D340F2C311214800F0A6FB1E4B1B68196AB3F8B1
:40184000B02006FB02162661666893F832309E4204D340F2DF11184800F094FB154B1B681D6A803605EB46156561A668330C1B0423B14FF4FF71104800F084FB330C1B043C
:4018800023B140F2FF110C4800F07CFBB3B243EA0646AE60C4F81C90C4F820800023A36117B1B7F90030A381BDE8F883DCF802085896081058700308D8950810F0B58FB074
:4018C000044618B95221274800F05CFBA369072B03D95621234800F055FBE36A1BB95821204800F04FFB236B1BB959211D4800F049FB07AD04F114060FCE0FC537682F6015
:4019000002AD26460FCE0FC533682B60164B1B68B3F93620079B1344ADF83030089B0D93A26AE16A0CAD00953B460A98FFF75EFF00210091069B0A460598FFF757FF216B5B
:40194000284600F0CBFABDF93030002B08DB590903F01F03012202FA03F3044A42F821300FB0F0BD589608105870030800E100E0F8B506460F461D4614461AB9FD211F4852
:4019800000F000FB1E4B1B681BB9FE211B4800F0F9FA1B4B1B682C2101FB063001FB07314B68012202FA03F31B04466802FA06F60269EAB18F69EFB91268002A01DA0022A7
:4019C00000E0104AC2B92288134323600369DC6001238B614D620469330C1B0423B140F2BB21094800F0CEFAB2B2A2600020F8BD0648F8BD0648F8BD0548F8BD5896081049
:401A0000DCF8020801008A00D895081004028A0007028A00F8B505460F4616460E4B1B6823B94FF4AF710D4800F0ACFA0A4B1B682C2404FB0534236A23B94FF4B171074869
:401A400000F0A0FAE369B34204D9236A43F826700020F8BD0248F8BDDCF80208589608100A028A0070B582B000230193044620B940F2D111284800F085FA236923B94FF443
:401A8000E971254800F07EFA636923B940F2D311214800F077FA236A23B94FF4EA711E4800F070FA6369DD682A0C20D012041A601B682069194B1B68D3F8B430C358002BF9
:401AC00015DA01A9FFF782FD60B9019803681E0CDBB2E269934206D2226A52F8233013B1984700E0002631462069FFF733FDADB275B16369ADB21D601B68636A1BB19847EC
:401B00000023636202E0A36A03B198470023A36163691B6802B070BD589608105870030810B50446074B1B6823B940F2B111064800F028FA034B1B682C2000FB0430FFF7B7
:401B400091FF10BDDCF8020858960810036813F4006F01D0802200E04022D0F80832C3F30803934203D0C0F84012012070470020704700BF10B4D0F8003203F00F03072BB6
:401B800006D900230DE0CC5CC0F84042013300E000239342F7D306E031F81340C0F8404201339342F8D35DF8044B704710B51446036813F4006F01D0802200E04022D0F8B6
:401BC0000832C3F30803D31AA34200D81C462246FFF7D0FF204610BDF8B507460D461446D0F8006206F00F060BE0224629463846FFF7DCFF072E01D9430000E003461D44B5
:401C0000241A002CF1D1F8BD002800F02481F8B50546002900F0218117460C460B78012B03D93F218F4800F0ADF96378012B07D9052B05D0022B03D040218A4800F0A2F9A2
:401C4000A378032B03D94121864800F09BF92378012B07D16368023B0E2B03D94321814800F090F9A36933F00F0303D044217D4800F088F9A368043B0C2B03D945217948F6
:401C800000F080F9E368043B0C2B03D94621754800F078F96378022B07D0A268E3689A4203D047216F4800F06DF9636A33F06D0303D049216B4800F065F9E36A33F07303BD
:401CC00003D04A21674800F05DF9236B33F4206303D04B21634800F055F96378A678052B07D8DFE803F0060305060603022600E00026A368082B04D8E368082B03D90023AD
:401D000002E0002300E0012313B14FF4006200E00022237F13B14FF4807300E000231A436368013B03F00F03134343F080732B60226A2B6813F4006F01D0802300E04023D4
:401D40009A4203D35821474800F01CF9A26A2B6813F4006F01D0802300E040239A4203D35921404800F00EF9237D0BB9012100E000216278052A01D1022300E000230B4355
:401D8000E17C09B1102100E000210B43617C09B1202100E000210B432178012902D14FF0004100E000210B43B60006F00C063343A169090201F470610B43120602F04072E7
:401DC00013432B62237C13B14FF4807200E00022A37C13B14FF4007300E000231A43A368013B03F00F031343C5F8003394F82030C5F80433237C13B14FF4807200E0002271
:401E0000E368013B03F00F031343C5F8003294F82830C5F80432636A03F06D03C5F8C83FE36A03F07303C5F8883F236B03F40073C5F8003F236B03F40063C5F8403F002391
:401E4000C5F8C83E5FB118463B60BB61FB60FB61054B3B62F8BD054870470448F8BD0020F8BD00BFDC960810EFCDAB000140AA00036823F00043036019B100220A60CA6008
:401E80008A61036A002B04DB0023C0F8C83FC0F8883F704738B50D4B9A680D4B9A420FD10D46044621B940F237110A4800F06AF804F11003064A52F8230042F8235038BD51
:401EC0001030054B53F8200038BD00BF00ED00E0004002081C9708100000081048B338B504460D464368072B03D93221134800F049F8B4F900306268002B08DB5201D2B290
:401F000003F1604303F5614383F8002305E003F00F035201D2B20A49CA540A4B9A680A4B9A4208D12946B4F90000FFF7B3FF002038BD06487047002038BD00BF1C970810C0
:401F400014ED00E000ED00E0004002080100560010B5044605E0084B186800F075F8A4F50044B4F5004FF6D8044B186800FB04F000F06AF810BD00BFA8420208A4420208CB
:401F800001BEFEE738B50D46044C18220146204607F05AFAA5610020FFF7F2FFA0480208FEE700BF08B50268254BDA6142681A6282685A62C2689A620269DA6242691A6385
:401FC00082695A63C2699A631E4A916AD963D16A1964516A5964516B9964926BDA64F1EE103A13F0900F27D0026A154B1A65426A5A65826A9A65C26ADA65026B1A66426BE6
:402000005A66826B9A66C26BDA66026C1A67426C5A67826C9A67C26CDA67026DC3F88020426DC3F88420826DC3F88820C26DC3F88C20026EC3F89020FFF7B2FF08BD00BF04
:40204000A048020800ED00E00230800803D001300238FCD100BF00BF7047EFF3108072B6704780F31088704700287DD00346002A7CD070B45068000280B29568AD0405F4A9
:4020800080252843D468240404F4403404431069000600F0E0602043147F0CB1012400E0002420430C1DA4011851D06828B903EB81100024C0F808410CE0012805D11468B0
:4020C00003EB8110C0F8084104E003EB81100124C0F80841106938B9546903EB8110C0F80C419469C0F81041146803EB8110C0F81441906CB0F1FF3F17D0946A04F00F0457
:40210000166B360206F470663443956B2D0405F470252543146C2403A4B22C430001C0B2204303EB8114C4F82001506A00F00300D66A360106F030063043556B2D0205F42B
:4021400040752843D46BA401E4B20443506C800000F00C00204303EB8113C3F82401126AC3F83821002003E0024870470148704770BC70470100B600014B1860704700BF19
:402180005870030800F1080343604FF0FF328260C360036100230360704700BF43684B609A688A609A68516099600861036801330360704730B40D68B5F1FF3F01D102694E
:4021C00007E000F1080200E01A4653681C68A542FAD253684B6099608A605160086103680133036030BC704703694268816891608268416851605A68904201D182685A6085
:40220000002202611A68013A1A601868704700BF436A23B1036B1868C0F1070070470020704700BF10B5044600F034FEA26BE36B9A4201D1012400E0002400F04DFE204674
:4022400010BD00BF10B5044600F024FEA36B0BB9012400E0002400F03FFE204610BD00BF70B504461646856B026C3AB9036843BB406800F049FD0023636029E06EB9806836
:4022800007F0B4F8A268236C1344A3606268934219D32368A36000201AE0C06807F0A6F8236C5B42E2681A44E26021688A4202D262681344E360022E07D145B1013D002099
:4022C00006E0002004E0002002E0002000E000200135A56370BD00BF38B5054600F0DAFD95F8454064B20AE06B6A53B105F1240000F00AFC08B100F095FC013C64B2002CF5
:40230000F2DCFF2385F8453000F0E6FD00F0C2FD95F8444064B20AE02B6953B105F1100000F0F2FB08B100F07DFC013C64B2002CF2DCFF2385F8443000F0CEFD38BD00BFBC
:4023400038B540B94FF03F0383F31188BFF36F8FBFF34F8FFEE704460D4600F09BFD2168E26B236C03FB021060600020A063A160013A02FB0313E360FF2384F8443084F825
:4023800045307DB92369ABB104F1100000F0BCFB80B14FF08052094B1A60BFF34F8FBFF36F8F07E004F11000FFF7ECFE04F12400FFF7E8FE00F090FD012038BD04ED00E069
:4023C00010B5029B0C4609B91B6000E01A60D8631C6401211846FFF7B3FF10BD40B94FF03F0383F31188BFF36F8FBFF34F8FFEE7F0B583B0034611B101FB00F000E0002065
:402400001D4617460C46483000F0DCFD064638B100903B4600F1480221462846FFF7D0FF304603B0F0BD00BFF0B585B0019240B94FF03F0383F31188BFF36F8FBFF34F8F63
:40244000FEE7044619B9026C1AB9012202E0012200E0002242B94FF03F0383F31188BFF36F8FBFF34F8FFEE7022B03D1E26B012A02D102E0012200E0002242B94FF03F0371
:4024800083F31188BFF36F8FBFF34F8FFEE71D460E4600F0D5FB18B9019B1BB9012302E0012300E0002343B94FF03F0383F31188BFF36F8FBFF34F8FFEE7002700F0EAFC55
:4024C000A26BE36B9A4201D3022D21D12A4631462046FFF7C5FE636A6BB104F1240000F013FB88B14FF08052324B1A60BFF34F8FBFF36F8F08E038B14FF080522D4B1A6055
:40250000BFF34F8FBFF36F8F00F0E6FC01204EE0019B1BB900F0E0FC002048E01FB902A800F036FB012700F0D7FC00F06FF900F0B1FC94F844305BB2B3F1FF3F02D100234E
:4025400084F8443094F845305BB2B3F1FF3F02D1002384F8453000F0BFFC01A902A800F021FBF0B92046FFF75DFEA0B1019904F1100000F0AFFA2046FFF7AEFE00F0CEF9E1
:4025800000289BD14FF080520A4B1A60BFF34F8FBFF36F8F92E72046FFF79EFE00F0BEF98CE72046FFF798FE00F0B8F9002005B0F0BD00BF04ED00E048B108B500214160BF
:4025C0000160C1600B460A46FFF72EFF08BD704710B5024600210120FFF700FF0446FFF7EBFF204610BD00BF70B584B0019140B94FF03F0383F31188BFF36F8FBFF34F8F05
:40260000FEE70446036C43B14FF03F0383F31188BFF36F8FBFF34F8FFEE700F011FB18B9019B1BB9012302E0012300E0002343B94FF03F0383F31188BFF36F8FBFF34F8F1D
:40264000FEE700252E4600F025FCA36BCBB1013BA363236813B900F0F7FB6060236963B104F1100000F050FA38B14FF08052414B1A60BFF34F8FBFF36F8F00F02DFC0120AD
:4026800076E0019B6BB945B14FF03F0383F31188BFF36F8FBFF34F8FFEE700F01DFC002066E01EB902A800F073FA012600F014FC00F0ACF800F0EEFB94F844305BB2B3F1C7
:4026C000FF3F02D1002384F8443094F845305BB2B3F1FF3F02D1002384F8453000F0FCFB01A902A800F05EFA40BB2046FFF7AAFDF0B123683BB900F0CDFB606800F0B0FA24
:40270000054600F0E9FB019904F1240000F0E2F92046FFF7E1FD00F001F9002893D14FF08052144B1A60BFF34F8FBFF36F8F8AE72046FFF7D1FD00F0F1F884E72046FFF7E7
:40274000CBFD00F0EBF82046FFF77CFD00283FF47AAF65B100F09EFB2046FFF759FD0146606800F01BFB00F0B7FB002000E0002004B070BD04ED00E0094B9B6A1B680BB9EB
:40278000012300E0002323B14FF0FF32044BDA627047034B9A6AD268D2685268DA6270471CF9020870B504460E46174BD3F81451D3F800010430FFF717FDB4F1FF3F07D1C0
:4027C00036B11148D0F800110431FFF7E7FC70BD2C440D4BD3F800315C60A54208D90A4BD3F8F800D3F800110431FFF7E3FC70BD054DA86AD5F800110431FFF7DBFCEB6A79
:402800009C4200D2EC6270BD1CF90208034AD2F818310133C2F81831704700BF1CF902082DE9F0413C4BD3F81831002B65D13A4BD3F814410134C3F81441CCB99B6A1B68E8
:4028400043B14FF03F0383F31188BFF36F8FBFF34F8FFEE7304B9A6AD3F8F8109962C3F8F820D3F820210132C3F82021FFF784FF294BDB6A9C4203D2002645E0012600E01D
:402880000026254B9B6A1B680BB9012300E0002323B14FF0FF32204BDA6235E01E4B9B6ADB68DD686B689C4202D21B4AD3622BE005F104084046FFF797FCAB6A1BB105F107
:4028C0001800FFF791FCEB6A134AD2F80C21934202D9114AC2F80C310F4F07F1300003EB83039A0041461044FFF758FCEA6AD7F80031DB6A9A42C1D2C3E7074AD2F82431B7
:402900000133C2F824310026034BD3F8283103B101263046BDE8F0811CF90208394BD3F8183143B94FF03F0383F31188BFF36F8FBFF34F8FFEE770B500F0ACFA314BD3F8EB
:402940001821013AC3F81821D3F81831002B52D12C4BD3F8FC303BBB00244FE0294D2B6ADC6804F11800FFF73FFC261D3046FFF73BFCE36AD5F80C21934201D9C5F80C3173
:40298000204D05F1300003EB83039A0031461044FFF704FCE26AD5F80031DB6A9A4204D30122C5F8282100E00024164B5B69002BD4D10CB1FFF7E0FE124BD3F8244164B11E
:4029C000FFF72EFF18B101220E4BC3F82821013CF6D100220B4BC3F824210A4BD3F828315BB14FF08052084B1A60BFF34F8FBFF36F8F012402E0002400E0002400F06CFAC7
:402A0000204670BD1CF9020804ED00E0304BD3F8183123B101222E4BC3F82821704710B52B4B0022C3F82821D3F800311B6B1A68B2F1A53F0BD15A68B2F1A53F07D19A686E
:402A4000B2F1A53F03D1DB68B3F1A53F07D0204BD3F80001D3F80011343100F0A1FA1C4BD3F80C310AE043B94FF03F0383F31188BFF36F8FBFF34F8FFEE7013B03EB83019E
:402A80008A0013490A44126B002AECD008469900CC18A2000244546B64685463303019448A0008320244944206D1606803EB83018A0007490A445063054903EB83008200C0
:402AC0000A44526BD268C1F80021C1F80C3110BD1CF9020840B94FF03F0383F31188BFF36F8FBFF34F8FFEE710B50C46054BD3F800111831FFF75EFB01212046FFF752FE7E
:402B000010BD00BF1CF9020838B5C368DC6844B94FF03F0383F31188BFF36F8FBFF34F8FFEE704F118052846FFF75EFB154BD3F81831ABB9251D2846FFF756FBE36A114A96
:402B4000D2F80C21934202D90E4AC2F80C3103EB83039A0029460C481044FFF71FFB03E029460A48FFF71AFBE26A064BD3F80031DB6A9A4204D90120024BC3F8280138BD9D
:402B8000002038BD1CF902084CF9020830F90208034BD3F820210260D3F81431436070471CF90208F8B540B94FF03F0383F31188BFF36F8FBFF34F8FFEE7054641B94FF03B
:402BC0003F0383F31188BFF36F8FBFF34F8FFEE70C4600F05FF9124BD3F814016968421A2368B3F1FF3F14D02F680D4ED6F82061B74201D088420ED29A4206D29B1A236069
:402C00002846FFF7C5FF002406E000232360012402E0002400E0012400F05EF92046F8BD1CF902080122024BC3F82821704700BF1CF90208014BD3F8000170471CF9020814
:402C4000064BD3F804312BB1044BD3F818311BB90220704701207047002070471CF90208002849D038B50346C26A2549D1F80011C96A8A4237D28169002906DB2049D1F830
:402C80000011C96AC1F107018161586902EB820291001C4A1144884201D1012200E00022D2B11D461C1D2046FFF79EFA144AD2F80031DB6AEB62D2F80C21934202D9104AF6
:402CC000C2F80C3103EB83039A0021460D481044FFF764FA012038BD094AD2F80021D26ADA62012038BD426C054BD3F80031DB6A9A4203D3002038BD00207047012038BD96
:402D00001CF902084CF9020800283DD038B50346204AD2F80021904208D04FF03F0383F31188BFF36F8FBFF34F8FFEE7826C42B94FF03F0383F31188BFF36F8FBFF34F8F4D
:402D4000FEE7013A8264C06A596C88421ED0FAB91C461D1D2846FFF747FA636CE362C3F10702A2610B4AD2F80C21934202D9094AC2F80C3103EB83039A0029460648104479
:402D8000FFF70CFA012038BD00207047002038BD002038BD1CF902084CF9020800284DD038B50346806C40B94FF03F0383F31188BFF36F8FBFF34F8FFEE75A6C8A4200D219
:402DC0000A46D96A8A4238D0012836D11C48D0F80001834208D14FF03F0383F31188BFF36F8FBFF34F8FFEE7DA629869002802DBC2F107029A61586901EB81018A001149B0
:402E00000A44904201D1012200E00022AAB11C461D1D2846FFF7E8F9E36A094AD2F80C21934202D9064AC2F80C3103EB83039A00294604481044FFF7B1F938BD704700BF89
:402E40001CF902084CF90208064BD3F800312BB1044BD3F80021936C01339364014BD3F8000170471CF902080000000000000000074B19680868B0E8F04F80F30988BFF398
:402E80006F8F4FF0000080F311887047AFF300801CFA02084FF03F0383F31188BFF36F8FBFF34F8F0A4A136801331360012B0DD1084B1B6813F0FF0F08D04FF03F0383F3CA
:402EC0001188BFF36F8FBFF34F8FFEE7704700BFCC42020804ED00E0094B1B6843B94FF03F0383F31188BFF36F8FBFF34F8FFEE7013B034A13600BB983F31188704700BFE8
:402F0000CC420208000000000000000000000000EFF30980BFF36F8F154B1A681EF0100F08BF20ED108A20E9F04F10602DE909004FF03F0080F31188BFF34F8FBFF36F8F40
:402F4000FFF764FD4FF0000080F3118809BC19680868B0E8F04F1EF0100F08BFB0EC108A80F30988BFF36F8F704700BFAFF300801CFA020808B54FF03F0383F31188BFF38D
:402F80006F8FBFF34F8FFFF74BFC18B14FF08052024B1A60002383F3118808BD04ED00E008B54FF03F0383F31188BFF36F8FBFF34F8F4FF441710248FEF7E4FFFEE700BF95
:402FC000D098081038B5044610F0070F02D020F007040834FFF71AFC104B1B682BB90F4A02F10C0323F0070313600D4BD3F814361C4442F2F772944208D8A34208D2074AF2
:4030000015681D44064BC3F8144602E0002500E00025FFF783FC284638BD00BF48FA0208381C0308F0B50F00050014001E0085B001F07EFB1B4B1B681A6DD96CD019019045
:403040001B7E4D19013B9BB20C19971902A9EA1A0A801A198A80C21ADB1908004A80CB8003F01EFE002803D101F056FB05B0F0BD22000199280002F0F3FB2200390028009A
:4030800002F0EEFB019B7A1E5E1C3100280002F00DFC7A1E3100200002F008FC03F050FDE0E7C046D0420208064B5A68596B01325A60C2008A18596A516000211170586233
:4030C0007047C0465C7003080F2330B542680E4CD90009190D6C2100AA4202D2013BF7D211E00F2B0FD82468A21A0A608268C068002A00D05060002801D0026003E00833CE
:40310000DB00CB185A6030BD5C700308F8B5284C0600E368A26B013B0818D3180D00984206D80368002B03D14368F618FFF7CCFFA36B9D420BD92B1F1F68EF1B3B68002B6A
:4031400005D17B683800F6183D00FFF7BDFF0F23DA00A218126C964202D2013BF8D225E00F2B23D80833DA00A21850680022A91904392A606E60A8602D610E6029000831CB
:40318000904200D04160EA602200DB00E318A860596023682932F31823601278002A05D1E268D31AA268934200D9A3603000F8BD5C700308F0B5234B87B09C6BDB680490F5
:4031C000013BE318039323686568002B30D1039B6719BB422CD93B680293002B28D0194EDB00726B9B5C012B22D17B6820000193F36A0593FFF768FF3B68726BDB00D3189F
:403200005C60019A3900200006F0FBF8029B059A934202D1736B5B1B7363019B2800E118FFF774FF049B002B01D0984206D2019D039B6419A342C6D8012000E0002007B060
:40324000F0BDC0465C700308002806D0034BDA6B0260002A00D05060D86370475C700308034BC0005B6B1818406808307047C0465C700308064A10B5D3690133D361526B70
:40328000C300D3181A7801321A70FFF7E9FF10BD5C700308036810B5083B094C1B68626BDB00D3181A78012A04D9E169002901D00139E161013A1A7000230360180010BD27
:4032C0005C7003080322024B91431860596070475022030810B5041E0FD001F029FA074B5A6BE300D3185B6819005868FFF70EFF2000FFF7D9FE01F00FFA10BD5C70030863
:40330000F7B5224DEB6A002B07D1214B99685868083106F041F8841C03E02B691C1DDB08E418E00000F0CAF80126071E2CD06A6BC300D3185E68EB6A083601932B69696BA4
:40334000DA00144B30001B68984729696E630B00CA000432EF62B218601E834203D2013313600832F9E7DB00F31800265E60074B5A685962511A091959601C61019BB34233
:4033800002D01800FFF7A6FF3000FEBD5C70030850220308F042020870B5184C230028331A78002A29D101321A70154B0F32DA609A68002A02D15A6892089A605A221025B2
:4033C0002262002228009040D100611801320864102AF7D15868196803000125143BCB180E3A22616363A163E0605D6065626560FFF78CFEFFF784FF256370BD5C70030805
:4034000050220308F0B5040085B0FFF7C5FF0323294E03349C43376C201DB84200D30700F26B1400002C06D0231F196823688F4232D01C00F6E7F268B36B944663440193F6
:40344000043B02931B680393039A019B9D1A2B68002B06D02000FFF7ADFE029B1D68019B5D1B2B68002B23D16B689F4220DC28001C1DFFF729FEF368E41BDB1BF360736985
:403480002C19DB1973616B68D81B02D02900FFF73DFE231F1F600BE0002B01D0616859606168002900D00B60A24201D12368F363200005B0F0BDC0465C700308F0B585B0E6
:4034C0000400FFF769FF3C4D2E6CB44203D3032303349C4326002B680C360196B34241D32B6B6A689A420FD96B686F6A013B6B60FB0003936B6BFA009B185A686A62012200
:403500001A70002F0AD12DE0013B2B63FFF7F8FE2B6B01332B630028E6D023E00F23DA00AA18126C964201D2013BF8D21A00DB004433EB180F2A0DD81968002907D08C68FC
:40354000002C04D061688E420ED9A168F5E701320833EFE73000FFF72DFE0028DED03800FFF7A2FD002723E0636802939E1B2B6C0C339E4201D2029B01932000FFF7A4FDFA
:403580006B6B039A9B185C60019B019A63600023A360019B2760E1180B1F24611A601300029A934204DA1300019A981AFFF7AEFD380005B0F0BDC0465C70030810B5040021
:4035C0000020844208D001F0B3F82000FFF776FF040001F0A1F8200010BD000037B5050001F0A6F82800FFF7E9FF041E0AD0FFF741FE064B01901B682A000021984701A87C
:40360000FFF748FE01F088F820003EBDF4420208514BF0B51B688FB0DA69D469A589A84208DBE189814205D32168451B09910121494215E0A168002900D184E00D88A842F4
:4036400000DA80E04E8886427DD3451B4968A8B266688000081809960021455E0221415E0891691C6FD022215E5E2420195E0691127E0A92A27C0A9951430C91227C0B921D
:403680002A229B5E1800079302F0B4F8324F0D903A680699D369926B300005920C9A5543099A551904950125A27C02950392DA7E01929B7E0B9A00930A9B02F02DFA089B21
:4036C00001331BD00220079B184302F093F83B680899DA699B6B300005930C9B4B430999CB180493A37C02950393D37E06990193937E0B9A00930A9B02F00EFA164D2B68BB
:40370000DB695A7E1B7E9A4217D9079B022B14D00420584002F06EF82B68069AD8690B99437E057E9B18827E51438A19C17E069869430918300002F0DFF86B4634229B189E
:40374000187802F057F8044B617C1A68538CCB1853840FB0F0BDC046D0420208044B1B68DB69DB69002901D01A7C0A60587C7047D042020802230B80704710B5C3699A892D
:40378000914203DBDA8901208A4210D29B68181E0DD01A880020914209D35C888C4206D3891A5B688900C85AC04380B2C00B10BD002807D003888B4202D843888B4201D29A
:4037C0008068F5E770470000F0B5334F8BB03B6804002A215A5EDB690100D8690792FFF7E7FF002855D00388E41A4368E4001E190798B47801F0FEFF39680990CD693278D8
:403800002B7E08932423C85E84462223C85E896B089B059171680394049101210291E97E0191A97E0091614602F076F93B68DB695C7E1A7E089294421FD9079A022A1CD088
:40384000DD7E00F088F8079000F079F800F024F93A682423D15E2223D05E2300D2696B43D47E32785B186243089C12186543691802F042F8079800F00FF9099801F0BAFFC8
:40388000054B71781B68DA69927E4A43598C52185A840BB0F0BDC046D04202080C4B70B51B680400DE690D000100F069FFF780FF00280CD002884368A41AE4001C196078A7
:4038C000B37E5843002D02D0227853432B6070BDD042020801230B80704710B5C069FFF767FF431E9841C0B210BDFF2230B5040014400A40A21A92B213B2002B01DA5242C9
:4039000013B25B431D00FF23020A1A4014000A0A1340E21A92B213B2002B01DA524213B2000C5B43090C411A89B208B25B19002801DA494208B280B24043C01830BD10B596
:4039400000F0F6FE02F050FB02F056FA040000F0E3FE200010BD10B500F0EAFE02F04CFB02F04AFA040000F0D7FE200010BD70B500282CD0002926D0002A25D013880D88A9
:403980001C1C2EB21BB2B34200DD2C1C048053884D881C1C2EB21BB2B34200DD2C1C448093888D881C1C2EB21BB2B34200DA2C1C8480D388C9881A1C0CB21BB2A34200DAB5
:4039C0000A1CC28003E01100082205F00FFD70BD00280DD0038889B2CB180380838892B2C91843888180D3184380C388D218C2807047000070B505000C0000F099FE044BFE
:403A00001B685D849C8400F087FE002070BDC046D042020870B5050000F08AFE034B1B681C7E1D7600F078FE200070BDD042020830B503000222845E06200A5E002094423D
:403A400013DC02228C5E06255A5F94420DDC00229C5E04254A5F944207DC00228A5E0421595ED00FCB179142584130BD10B500F05FFE02F0ABFB02F025FC03F091F900F0D5
:403A80004BFE10BD10B5040000F052FE200002F0F7F900F041FE10BD10B5040000F048FE200002F0F5F900F037FE10BD70B5040000F03EFE044B1B68DD69002C00D0DC6152
:403AC00000F02AFE280070BDD042020870B504000D0000F02DFE094B094A1C80094B21001D80094B1B685B7C9B0098582A00C3681B6A984700F010FE70BDC04644710308B4
:403B00006C71030834710308D042020870B5050000F00EFE044B1B682C229C5E9D8500F0FBFD200070BDC046D042020870B50024094D0A4E10C533682100280070229847F7
:403B400033680422210006489847064B1D60064B1C70064B1C6070BD60220308F44202086C710308D04202085471030830710308014BD8607047C046D0420208F0B507003B
:403B8000160085B00C00019300F0D2FD042001F031FE124B00901A68D36CDD199E19176D019B3C19FF1802AB18001D809E805C80DF8003F075F8002806D1009801F01AFE75
:403BC00000F0AAFD05B0F0BD3B0032002100280001F092FE02F0B4FFEDE7C046D0420208002110B50800FFF705FF034A034813000100FFF7C3FF10BDFF3F000001C0FFFFE4
:403C0000024BDA6FD86742607047C04660220308094B10B51A68002A0CD101321A60FDF7A7FB00F0BDFDFDF739FB0448044B0360FFF7E6FF10BDC04660220308E0220308C6
:403C40002D3B081070B5FFF7E3FF2E22324B1A70FDF78CFB314C324D2100324B0C3123672B681A1DDA630432A2619B631B645B7C2D4A9B009858C3681B6B98472B4B63662F
:403C8000EB6823622B680833A36101232377E37703F07AF92300032268331A70244BE064606F6363A36302F0EBF8A86802F0F0F8204A214B1A6002F045F8050002F024FACE
:403CC000060002F027FA002E01D0002808D102F00BFA060002F00DFA0100300002F00EFA00210800FFF7F2FE03F0A8F800F07EFDA36F002B0AD0A36F002B07D01B68002BA4
:403D000000D09847A36F5B68A367F4E701220B4B28001A7070BDC0462571030860220308D04202089CF408106C71030894F40810785634FFF4F40810647103084C71030899
:403D40000300002083420ADC054A9B009858002805D0C3681B68002B01D00068F7E770476C71030810B5FFF76FFA10BDF8B506000D0017001C1E01DD00201BE01C20FFF7E2
:403D800041FB0028F8D0002D01D005610BE00A4BA200D358002B06D01A68002A01D01300FAE71B690361002384618782C660036043608360F8BDC0466C71030883690C4908
:403DC0009A0010B554580368A04204D15350002B01D000225A604268002A00D013600368002B00D05A6000230360436010BDC0466C71030830B5002801D101203BE08269FA
:403E0000002AFADC1C4B19788A4201DB012119701A49920053580D00002B02D15050180029E05968002901D00B00FAE7C1680968DC6824688C4203DD1B68002BF8D1DCE7D2
:403E40008C420AD1848A012C07D11C68002C04D02300E4682468A142F7DD5968002902D00860416000E0A85058600022984200D01A000260002030BD1D7103086C71030825
:403E800070B51C00FFF772FF051E0AD0FFF7B2FFEB681B68002B04D1034B16341B68A400E550280070BDC046D04202080020704710B5002804D00468FFF79CFF2000F8E7E1
:403EC00010BD0000F0B5040087B0002800D17FE000F02EFC03F0B8F93E4D02902B6822229B5E039303F094F92A6883B20093938C00995B1A93842378002B5AD036492000CF
:403F000003F026FA01000600200003F04BFA314B1A680323918D19400300012905D00023022902D1C30F1B185B10518C04ADCB1A9BB219B25184298081B2019101395B1866
:403F4000AB802423D35E6A4617896B80013BFB182A0020003100EB8003F052FA1D4D04AB5B882A6820009384310000F081FC241823780A2B01D00D2B12D103212B689A8DB6
:403F80000A40013A012A02D86A46928900E01A8C5A8422780A2A09D19A8CBF189F8405E004AA1088019A2B68101858842378002B0CD10321074B009A1B68988C10189A8D7A
:403FC00098848A439A8500F0A7FB01E0013492E707B0F0BDD0420208FF7F000070B50E001500040000F0A4FB044B20001B685E849D84FFF767FF00F08FFB70BDD0420208AB
:4040000010B51F4A030012680020927E013A032A35D8100005F0ACF9020F1D25194A0633134004D51022013B524213430133D80F00210B220AE0144A134004D50422013BD4
:4040400052421343013300210122D80F9A42484115E01421180005F0BFF901200B2909DC0DE01821180005F0B7F901200B2906DD042399430023103988425B41180010BD94
:40408000D04202080F000080030000808023000530B5000D1B010021984202DD104A013180188022D200904200DD181A3F23402482111840201A0B4D83B25000405B5843CB
:4040C000A34207D0102A05D001325200525BE31A5343C01820308009002900D0404230BD00F8FFFFB0F40810802310B5DB00C018FFF7CCFF10BD0000F0B587B002910299B2
:40410000141A5F1A210001900C9D394303D1029903F0C4F9BFE0F917E61778184840A11971400026049688420BDD21003C000F0011001A000B000199029802910121019025
:404140000491E0172118414001200390A14208D00293019B01921A0001235B4264427F4203932E68002F3FD14C4B04991B6800291BD09B7E3700002B13D10199029801F0CA
:4041800095FB88E03800FFF73BFF002808D1019B0298991B414BC9191B681B6E5B6898470137BB1BA342EDDD1BE0997E3700002914D11B6E02991B68019898476BE03800E2
:4041C000FFF71EFF002808D1019B0299981B334BC0191B681B6E5B6898470137BB1B9C42EDDA013F2F6056E0E30F1B195B10002F00DA5B42294A1268927E002A19D11D009F
:40420000019E019BF31A9C4245DB2100280005F0D5F8029B049AC018204B31001B681B6E5B68002A01D10100300098470136ED19E7E7039A013201D1A6192E60019E059372
:40424000019B2868F31A9C421CDB039B18182860FFF7D6FE002810D12100059805F0AEF8029B049AC0180D4B31001B681B6E5B68002A01D1010030009847059B0136DB196C
:404280000593DDE7039B013301D104192C602B68039A9B1A2B6007B0F0BDC046D0420208F0B58BB00593634B03901B6804921E7E0F00012E05D1109B0093059BFFF71CFFEE
:4042C000B5E0039B049A991A059BF81A0B00034300D1ACE00024013EA14201DA49420134002802DA022340421C43814204DA04231C430B00010018004B108002181805F0A2
:404300005DF810254C4983119C46800622315B00000F5B5E2D1A6B43102D05D0624601325200525E50431B180F220833DD171540ED182D11630702D58023DB005D1BE30729
:4043400002D580231B015D1BA30702D580235B015D1B8023DB00ED182800FFF7C5FE704304002800FFF792FE4643002C05DA80208000041BA412644203E080239B00E41822
:40438000A412002E05DA80208000861BB612764203E080239B00F618B612002C02DD621C521005E0E20F1219013CE00F521004196410002E02DD731C5B1005E0F30F9B1955
:4043C000013EF00F5B1086196946898992B206A894468A1802809DB2BAB2531943806B467610B6B2921BC2801A8A9B8AA4B29E1BEB18C3810023091B141B6244818004818B
:40440000828146811A00042100F066F8094C23685B7E002B03D13900039803F03FF823685B7E002B03D10599049803F037F80BB0F0BDC046D0420208B0F408101FB5002472
:40444000039403AC0094FFF72BFF1FBDF7B51F0000900191160000F06BF90B4B00201B68DD6C1C6D02F01CFC002802D100F054F9F7BD01990098E319AA1961182818FFF7AE
:40448000DDFF02F05DFBEFE7D0420208F7B511490A6801910B2A1BDC002A01DC002311E0019B00251C1D5300E41813005E1EB446AE1EA75F874205DB634667533500002B83
:4044C000F4D1EBE701995B00CB18013298800A60F7BDC046F0220308F0B587B00292002204936E4B039001936D4B059105998A420DDA0398910041180220095E8B4200DD61
:404500000B000198884200DA01910132EEE7654A1268516900290ED006200A5E0498121A0198904200DD019202228A5E0499521A934200DA1300049A9B180093009B049A8A
:404540009C1A019BA34200DAA6E00025564B039E1D60059B9D425CDA059B00215F1EBD4200DA691C0223F25E039B8900591802200B5E94461800A24239D1A34203D000211E
:404580002A008C461EE00023F75E029BFF180023C85E029B3A00C018424B1B681B6E1B68874221DA0200009938001EE0002A0CD0013A0398910041180220095EA14206D123
:4045C00001218C446745F1DC20E03A00F1E7091B1B1B0022B05E59404BD4029BC0180200304B1B681B6E1B68009998470EE0A3420CD002DBA2423FDD02E0A24206DB01E0EF
:40460000A34203DC9A423DDCA2421FDD013504369FE7002420002500234B1A68954212DA04336A00D65E002C08D0029B00999A1918181C4B1B681B6E1B68984701233000B4
:404640005C40ED18E8E7009B013376E7A342DDDB0023F75E0023C95E63466246C91BE31A4B43811A4810002B13DDC01804F0A6FEC019FFF70BFFC9E79A42E9DDA342C5DC50
:40468000A242C3DB0027CF5F9C460020315E1000E2E70138181AE9E707B0F0BD01C0FFFFFF3F0000D0420208F0220308044B10B51A68002A00D1186000F0F8F810BDC04628
:4046C0000C23030870B5002478250C4B1B689C420FDAFCF747FE0A4B1A682B006343D3181A68904207D0002A01D1186003E00134EBE7002000E0200070BDC046E042020826
:404700006C23030810B5034C2068FEF79DFD0023236010BD6C230308044A10B55368013B5360002B01D1FCF707FE10BD6C230308F7B5184C6368002B04D0FCF713FEA368A5
:40474000984204D0FCF704FEFCF70CFEA060636801336360012B1BD1FFF7B4FF0E4B07005E680193B04213D0002E0FDB78256E4323687D439E19FFF799FB236870675D19BD
:40478000064B2A1D686F1A60FFF792FB019B5F60F7BDC0466C230308E0420208D042020870B50E4D782428000D4B0C30EB60FFF727FA0C4E33685C432000FEF723FE0A4B3D
:4047C000220000211B682860984701235B427360FCF7A8FDFFF776FF70BDC0466C23030805470810E0420208F4420208F8B500267827124B124C1B68124D9E4214DA3B0040
:40480000734324682968E418251D7022280004F0EDFD0023236023000C33A361043BE563236465640136E4E7FFF74CFF782358432368181804302860F8BDC046E042020815
:404840006C230308D0420208F8B5084F06683B6804001B68300098473B6805005B6830009847301820602800F8BDC0466471030870B506000D000024002D08D0054B3000F1
:404880001B68013D5B68984736182418F4E7200070BDC046647103080078704701207047012070470170012070470000034B10B51B68002B00D0984710BDC04680230308E4
:4048C0000200FF231100000A194010B51840120C40181340C0188030FF30024904F06EFD10BDC046FD020000002800D000487047FFFFFF0001207047F7B58068C46A856B89
:40490000624307245218D2080192026A0C409200002D18D080212141CCB2A446C94301248218151F019E2D68AD192F783E000E40234201D066463E436400043A2E70E4B2A1
:404940009042EED117E001210D00A540ECB2A446ED438218141F019E2468A41927783E002E400B4201D066463E434900043A2670C9B29042EED1F7BD70B5072584680D4031
:40498000E36AA06B5A43236A5218D2089B00002810D0802129410020CDB20121E318043B1E68B65C2E4200D008434900C9B29C42F5D10EE001210E00AE40E318F5B2043B10
:4049C0001E68B65C2E4200D008434900C9B29C42F5D170BDF8B50D0016000400FFF7CCFF070023699B6898473B003200434029002000FFF781FFF8BDF0B580688BB0009039
:404A0000066AC06A5B1A42435F1CA44B5218D2081B680190039200981A7C806BD20779D50722082311405B1A002839D0F8321000DD1B0841AA40C4B21040C2B238009F4248
:404A400000DD1800381A009D0190B00028189F4200DB221CD3B29C46FF25031F039A1B689B183A00002905D064461A7862401A70019A0133072A05DD1E78083AF6431E7036
:404A80000133F7E7002A06D00824A21A2C0094401E7866401E70009B04388342DDD1FAE0FF221000DD1B88402A41C4B21040C2B238009F4200DD1800381A009D0190B0003A
:404AC00028189F4200DB221CD3B29C46FF25031F039A1B689B183A00002905D064461A7862401A70019A0133072A05DD1E78083AF6431E700133F7E7002A06D00824A21AE1
:404B00002C0014411E7866401E70009B04388342DDD1C0E00722DB6B11401B68FF22019308230491591A130000285AD00498CC1B0341A2401A40D8B2D3B23A008F4200DDB6
:404B40000A00BA1A09928F4200DB031CDAB2DB435BB20893012307920293013E009AB300D458039B3D00E418049B002B0BD02278089B019902981340014201D0079B134349
:404B8000099D23700134072D14DD029A0199444B11404A1E91412B400593059A414B49421B68D2102000C9B206929847069BE418059BED1A002D0DD0082321785D1BF7332E
:404BC000AB400A000198029D9A43284201D00B43DAB22270029B5B00DBB20293002EBCD159E00498CC1B834022411A40D8B2D3B23A008F4200DD0A00BA1A09928F4200DBD7
:404C0000031CDAB2DB435BB20893012307920293013E009AB300D458039B3D00E418049B002B0BD02278089B019902981340014201D0079B1343099D23700134072D14DD1A
:404C4000029A0199164B11404A1E91412B400593059A144B49421B68D2102000C9B206929847069BE418059BED1A002D0DD0082321785D1BF7332B410A000198029D9A43D0
:404C8000284201D00B43DAB22270029B5B00DBB20293002EBCD10BB0F0BDC046D0420208F8FF0000F4420208F8B505000E0014001F00069B9C4207DC22003B0031002800AC
:404CC000FFF79AFE0134F4E7F8BD002382680B804B80D36A013B8B80136B013BCB80704700B58368481E0D2818D804F041FB090B0D0F17171711131A1A070707002011E070
:404D0000586A0FE0986A0DE0D86A0BE0186B09E0186A07E001201B6A984003E00120404200E0012000BD000009390020062902D8014B8900C85870471CF5081010B50129E0
:404D40000FD1094B1B68587CFEF7FAFF03699B68984701F01EFA054B012803D0044B082800D00023180010BDD042020890F5081004F6081010B5002206218069FCF7C6FA4B
:404D800010BD10B5002205218069FCF7BFFA10BD73B504000E00150000210822684604F04BFB6A460321A06900960195FCF7AEFA73BD0000F7B51D000F4B14001B680600A1
:404DC0001A7C0F00D20708D5A54213DB220039003000FFF7FFFD0134F6E7DB6B1B680193AC4207DC2200019B39003000FFF784FD0134F5E7F7BDC046D0420208F0B591B05B
:404E00000193179B0390581E06910592072801D900F05EFC04F0B6FA230021005C041F005C045C045C0408000723069A1340802211001941C9B29A40099101219940D3B27A
:404E4000199A0A939446019BC9B263440293059B07910893FBE2059B50E2059BB0E11A9A069B9446634409930723099A134080221A41D2B20A9201229A40D3B20C93059B92
:404E80000793059A079B9B1A169A9A4201DC00F01FFC1B9BBE4C5B680693039B9B680293D96A1A6A079B5943099BC918CB08049303232168087C1840022800D1A1E09842C7
:404EC00000D10FE1012800D10CE11B9B06981B680893834210D1CB6B089A1D681A60099A019B09999B18013B079A0398FFF784FD2368DB6B1D6043E1029B92009B6B002BC6
:404F00003ED00127029B9E1808990FAA394011700699049B39405170321F12680A99D218019B1A989C46199B0B936346002B20D08025054113780D930B9B1C782C40651E3F
:404F4000AC410FAD2D5D0D9C8C43002D01D00D9C0C4301301470082803D10B9801300B900020490801D10132803101235B429C44DBE7029B7A00043ED7B2B342C4D1FFE093
:404F80000127029B9E1808990FAA394011700699049B39405170321F11681A98C918019B0C9A9C46199B0B936346002B22D0802505410B780D930B9B1C782C40651EAC41ED
:404FC0000FAD2D5D0D9C9443002D01D00D9C144301300C70082803D10B9801300B9000205200D2B2002A01D10131013201235B429C44D9E7029B7A00043ED7B2B342C2D1AB
:40500000BEE0029B92009B6B002B34D0029B9A1801230893089B06990A9819400B91111F0968049B019D1A9C199EC918002D19D08023234137783B4209D00B781F009C46B5
:405040000B9B8743002B01D0674607430F700134082C01D100240136400801D101318030013DE3E7089B043A5900CBB20893029B9342CFD184E0029B9A180123089308993D
:40508000069B019D0B40111F08680B93049B0C991A9C199EC018002D1BD08023234137783B4209D003781F009C460B9B8F43002B01D067460F4307700134082C01D10024B6
:4050C00001364900C9B2002901D101300131013DE1E7089B043A5900CBB20893029B9342CDD14DE0029B92009B6B002B23D0029B9A18111F0968049B0A9C019D1A98199E33
:40510000C918002D12D08023034137783B4202D00F7867400F700130082801D100200136640801D101318034013DEAE7029B043A9342DED124E0029B9A18111F0868049B3F
:405140000C99019D1A9C199EC018002D14D08023234137783B4202D007784F4007700134082C01D1002401364900C9B2002901D101300131013DE8E7029B043A9342DCD1EA
:40518000189A199B944663441993079B013377E6D04202081A9A199B944603221C78069B63440493C34B1B681B7C134010D0022B4DD0189A199B944663441993029B01332A
:4051C0000293059A029B9B1A169A9A42E2DC7FE21B9B1A9D199E0499002B23D003235A1B5200DB18981ABA3303412340D3401B9A9B009B580398029A01354F1CFFF77CFBDE
:40520000042D02D1002574780136019B049A39009B189F42E2D1CCE7019B049A39009B189F42C6D003235A1B5200DB18981ABA3303412340D3400398029A01354F1CFFF711
:405240005BFB042DE8D1747800250136E4E71B9B1A9D019E199F002B27D0019B049A991803235A1B5200DB18981ABA3303412340891BD34006D01B9A9B009B580398029ADD
:40528000FFF73AFB0135042D02D100257C780137013E002EE1D18CE70135042D02D100257C780137013E002E83D0019B049A991803235A1B5200DB18981ABA33034123404A
:4052C000891BD340E8D0029A0398FFF715FBE3E71A9A199B944603221F78069B63440493744B1B681B7C134010D0022B4DD0189A199B944663441993029B01330293059A6D
:40530000029B9B1A169A9A42E2DCE1E11B9B1A9C199D0499002B23D001231A1B9200CE180333981AEC3303413B40D3401B9A9B009B580398029A0134FFF7DEFA022C02D10A
:4053400000246F780135019B049A31009B189E42E2D1CCE7049B019A31009B189E42C6D001231A1B9200CE180333981AEC3303413B40D3400398029A0134FFF7BDFA022C03
:40538000E8D16F7800240135E4E71B9B1A9C019D199E002B27D0019B049A991801231A1B92000333981AEC3303413B40491BD34006D01B9A9B009B580398029AFFF79CFA56
:4053C0000134022C02D1002477780136013D002DE1D18CE70134022C02D1002477780136013D002D83D0049B019A991801231A1B92000333981AEC3303413B40491BD3404C
:40540000E8D0029A0398FFF777FAE3E7039B08989B680193019A1B6AD16A4143069809180320C9080491234909680B91097C014014D0022900D1ABE0189A199B94466344BF
:405440001993089B01330893029B63440293059A089B9B1A169A9A42D8DC39E1019A1B98916B9B0000284ED0002925D00124D318191F04980968199D09180998029A95425B
:4054800011D02E780F781B9AB600B2583E008643224201D03E0006430E70400801D1013180300135EAE7019A6400043BE4B29A42DED1C1E7D04202080124019AD318191F1F
:4054C0000868049A199D07998018029A954213D02E7807781B9AB600B2583E008E43224201D03E000E434900C9B20670002901D1013001310135E8E7019A6400043BE4B27C
:405500009A42DCD198E7019A0124D318002938D0191F0968049A199D09988918029A95420ED00F782A783E008643224201D03E0006430E70400801D1013180300135EDE787
:40554000019A6400043BE4B29A42E1D174E707782A783E008E43224201D03E000E434900C9B20670002901D1013001310135029A9542ECD1019A6400043BE4B29A4200D1FB
:405580005AE7191F0868049A199D80180799EEE7019A9B00916B1B9A002A4FD0019A0124D318002937D0191F0968049A199D09988918029A954213D02E78002E0AD00F78CC
:4055C0001B9AB600B2583E008643224201D03E0006430E70400801D1013180300135E8E7019A6400043BE4B29A42DCD124E72E78002E17D14900C9B2002901D101300131AE
:405600000135029A9542F2D1019A6400043BE4B29A4200D110E7191F0868049A199D80180799EEE707781B9AB600B2583E008E43224201D03E000E430670DBE7019A0124BE
:40564000D318002934D0191F0968049A199D0A988918029A954210D02A78002A07D00F783E008643144201D03E0006430E70400801D1013180300135EBE7019A6400043BE0
:40568000E4B29A42DFD1D7E62A78002A17D14900C9B2002901D1013001310135029A9542F2D1019A6400043BE4B29A4200D1C3E6191F0868049A199D80180799EEE7077817
:4056C0003E008E43144201D03E000E430670DEE711B0F0BD70B505680400002D0AD13C20FDF790FE2060002804D0044B3C221B682900984720684342584170BDF4420208F9
:4057000070B504000830FFF7E5FF002205000121A069FBF7FBFD284370BD73B504000D00160000210822684603F086FE20000830FFF7D0FFA368002B0CD05A6B002A00D1AC
:405740005D635D629E626A460721A06900950196FBF7DCFD73BD70B5050008300C001600FFF7B8FFAB68002B02D0DC621E635C6370BDF7B50500002708300E000197FFF70A
:40578000A9FFAC68BC4213D02B699B68984700F0C7FC3B002062F258E2500433202BFAD1E36A01AA63630221A8690196FBF7AEFDF7BD70B5040008300D00FFF78BFFA368CA
:4057C000002B01D02A689A6370BD000070B5084B1B681A7C11004140490705D59C6BD96B25680E6826600D601874100070BDC046D042020810B5024B1B689B68984710BD34
:40580000E842020870B5144B05001B680A000A20195E91421EDC0E20195E8A421ADC0820195EA94216DC0C20195E8D4212DC5C7C187C0A49A400C00705D508592900C368B4
:40584000DB69984706E00859DB6BC1681B688C692900A04770BDC046D04202086C71030870B5104B0D001C680A21635EAB4217DC0E21635E9D4213DC0823E15E814200DAEE
:4058800001000C20235E934200DD1300994207DC627C054892001058C26894682A00A04770BDC046D04202086C71030870B5104B15001C680822A35E834218DC0C22A35EF8
:4058C000984214DC0A23E25E8A4200DA0A000E21635EAB4200DD2B009A4208DC617C054C89000D59E968CC6801002800A04770BDD04202086C71030873B51E00114B0D008A
:405900001C680823E15E814200DA01000C20235E934200DD13008B4213DB0A20225EAA4200DA2A000E20255EB54200DD3500AA4207DC607C044C80000059C4680095246938
:40594000A04773BDD04202086C710308F0B517006E4A91B01268069308900C001C9B002A10D01B9B05931A9B0493199B0393189B0293179B0193169B00931568069B3A00D1
:40598000A847C1E016991798014301294FD1604A069D10680A21425E111B002909DD6D1A002D00DCB0E0199E71431A9E71181A9100E02200069964180E26815F013C641A3D
:4059C000002C03DD2D1B002D00DC9DE008990C26845FC9190139091B002900DD7F1A08990826845FC91AA1420CDA641A1B199C46DE101A9B3F1B9E191A9607266346B44315
:405A000009193340002F7FDD407C424C800000591B9EC46804931A9B05960393199B00950293189B019364683B00A0476CE00823160018990A925B1A0E930A9B069A9342A4
:405A400062DA179BE3180C93013B0D93304B1B680A215A5E0D998A424CDC0E229B5E9C4248DC00251A9B09950B93089B0793099BBB423FDA002D04D10B9B08351E78013360
:405A80000B9333000E9A1899134132008A40D6B2DAB26D1A002A05D102211D4A1268127C0A421ED11A4A1268D26B11680F911B99002905D0FF210B401B999B005B5801E0D0
:405AC000FF210B401360169B21005A1E079B0798D2180D9BFFF710FF0D4B0F9A1B68DB6B1A60169A099B944601330993079B63440793BCE7199A0A9B944601330A931A9B26
:405B00000C9C63441A9398E711B0F0BD28710308D04202086C710308F0B593B008937E4B06001B680C0006921A9D1C9F002B0ED01D9A049705921B9A02950392199A0192D0
:405B4000189A00921D68069A089BA847E1E0189A19990A43012A6DD1704B19680A228B5E089A9C461B1B002B07DDD21A002A00DCCFE01B984343FF1800E0A446089BE418DB
:405B80000E200B5E013CE41A002C03DD121B002A00DCBEE0069B0C24085FF318013B1B1A002B02DD0698C31A06930823C85E0023864228DA069C831BE41A0694082D1FD02A
:405BC00009DC022D0FD0042D15D0012D1BD1D8103F1807200AE0182D11D0202D0FD0102D11D15B000CE098103F1803201C0084433619034007E058103F180120F6E79B00A4
:405C0000FF18060000230698002800DC81E0497C4348890008581D9CC16804931B9B009202930594039701954C68069B62463100A0476EE00822521B109207930C930C9B4D
:405C4000089A934265DA199BE3180E93013B0F93324B1B680A215A5E0F998A4252DC0E229B5E9C424EDC00230D9709960A930B930B9B069A934245DA0A9B002B07D10D9B5F
:405C80001B7807930D9B01330D9308230A93079B109A1341079AAA40D2B207920A9A521B0A92DAB2002A05D102211C4A1268127C0A421ED1194A1268D26B116811911D993B
:405CC000002905D0FF210B401D999B005B5801E0FF210B401360189B21005A1E099B0998D2180F9BFFF708FE0C4B119A1B68DB6B1A60189A0B9B944601330B93099B6344C3
:405D00000993B5E70C9B0E9C01330C931B9BFF1895E713B0F0BDC04628710308D04202086C71030810B5054B054A19684B7C08319B009858C3681B6B984710BDD0420208B7
:405D40006C71030807B5FFF7EDFF00F0B7F800283AD1FDF7F5FF0190002807D100F006F91A4A1B4B12689A420ED12CE0C3680C215B6A01A8984703000120002B24D00198D7
:405D800098470028EAD01FE00020FDF7D9FF0190002818D0002001F095FB0420FFF72AFD00210C4B08001A00FFF7A6FD0020FFF721FD019B0E21DB6801A85B6A9847031ED1
:405DC00001D00198984700200EBDC046D4220308785634FFFF3F000010B5054B054A1B685B7C9B009B581B691B68984710BDC046D04202086C71030810B5054B054A1B6839
:405E00005B7C9B009B581B695B68984710BDC046D04202086C710308044B1B681A7C520701D59B6B00E0DB6B18607047D0420208054B10B51B681A6B824204D01863FFF7CC
:405E4000CBFFFFF7E9FF10BDD0420208044B1B681A7C520701D5DB6B00E09B6B18607047D0420208054B10B51B685A6B824204D05863FFF7B1FFFFF7E9FF10BDD042020866
:405E800010B5024B1B685B68984710BDE842020810B5024B1B681B68984710BDE842020810B5044C2068FDF7CFF90023024A2360136010BD787103088823030870B5002434
:405EC0000A4D2B68A3420FD1094B18688000FDF799FA2860A04206D00648074B04300360FDF78EFE00E00124200070BD78710308EC42020888230308A15E0810F7B5051E07
:405F000028D08768381E25D0134C2068002821D080232A685B0000209A421BDC0F4B00921B689A4200DD00930026009B9E420ADA2268B300D218F8580192FFF74DFF019B84
:405F400001361860F1E7064B1B68002B01D0280098472068FEBDC04678710308EC4202088823030810B5FFF7C9FF10BDF7B500F025F900240090009B9C422EDA2000FDF745
:405F8000DFFE002827D0154E200033685A7C5C74019200F056F8082804DD6A46336812795A7418E00E4AA300D2580E4B12699A42F3D0200000F04AF800250700BD42ECDAC8
:405FC000FF202840FFF718FFE9B20200200000F01FF90135F2E70134CDE7F7BDD04202086C71030878F50810024B1B689B6B18687047C046D0420208024B1B68DB6B18684E
:406000007047C046D042020810B50C00FDF798FE002803D0C2682100926A904710BD002310B5984202DCFFF7EFFF0300180010BD10B501000020FFF7E7FFC343DB171840C8
:4060400010BD10B50821FFF7EAFF10BD10B50921FFF7E5FF10BD10B50E21FFF7E0FF10BD10B5034B1B68587CFFF7F0FF10BDC046D042020810B5034B1B68587CFFF7EBFF05
:4060800010BDC046D0420208044B800010B5C0580821C3689B6A984710BDC0466C71030810B5FDF74DFE002803D0C2680221D26A904710BD10B5034B1B68587CFFF7F0FFD7
:4060C00010BDC046D0420208024B8000C3581B69586870476C710308024B8000C3581B69186870476C71030810B50120FFF7A0FF10BD10B50220FFF79BFF10BD014B03C3BD
:406100007047C04694230308014B18687047C04694230308014B58687047C046942303080023984233D0020001339A432FD003220100013391432AD00100053399431300A8
:40614000002924D002000C339A430B3B002A1ED002001B339A431A3B002A18D00200FA339A43F73B002A12D0420A0833002A0ED0020B0CD0C20B0AD0020C08D0820C0233E0
:40618000002A04D0000E0633002800D008331800704710B5FFF7C4FF030001280DD0821E0820062A09D9073A0018072A05D900200F22113B9A424041400110BD10B50020E2
:4061C000FDF7BEFD431E984110BD00000E4B10B51C001A680D49527C92005058002809D0C368002B02D01B68042B01D00068F5E7FDF7E4FD00222368DA651A0008325A610F
:40620000FFF790FD10BDC046D04202086C71030837B50C001500FDF793FD0190002801D101200BE0C36810215B6A01A89847031EF6D001982A002100984700203EBD37B582
:406240000C001500FDF77CFD0190002801D101200BE0C3680B215B6A01A89847031EF6D001982A002100984700203EBD13B50C00FDF766FD0190002801D101200AE0C368A4
:4062800009215B6A01A89847031EF6D0019821009847002016BD37B50C001500FDF750FD0190002801D101200BE0C3680A215B6A01A89847031EF6D001982A0021009847C2
:4062C00000203EBD10B5074C2368186BFFF784FDFFF7A2FD2368586BFFF77EFDFFF7B6FD10BDC046D042020870B50024134B144D1C60144B14481C60144B04701C60144B91
:4063000044601C60134B84601C60134B21001C60124B18221C600C302B689847104B21001C60104B08221C600F482B6898472B68082221000D48984770BDC046A871030898
:40634000F4420208907103089C230308B0710308B871030880710308A0710308AC7103088C71030884710308C4710308BC710308F0B504000D00160085B0002C50D020007A
:40638000FCF778FF0223876A010001901F4241D002AC002E04D03200200000F005FF02E0230005C905C321002800FDF741FB002830D00122019B17421FD1002E09D05A8836
:4063C0007188131C08B212B2824200DA0B1C1BB201E002229B5E0222A95E06202A5E8B4205DD0221635E9A4214DB013B03E00621635E9A420EDDEB800CE0DF69002F09D0BB
:40640000380022002900FFF7B3FF3800FCF728FF076AF3E7019B01A81C6AFCF73BFFACE705B0F0BDF0B504000F00002687B00192002C39D02000FCF71DFF0223856A010086
:4064400003901D422AD0019B04AC002B04D01A00200000F0A9FE02E0230005C905C321003800FDF7E5FA002818D001231D4204D1A388012601333B8010E0039BDD69002DA3
:406480000CD0220039002800FFF7CCFF002800D001262800FCF7E4FE056AF0E7039B03A81C6AFCF7F7FEC3E7300007B0F0BDF0B504000E00170085B0002C34D02000FCF71F
:4064C000D9FE0223856A010001901D4225D002AC002F04D03A00200000F066FE02E0230005C905C321003000FDF7A2FA002814D001231D4203D12388013BB3800DE0019BEA
:40650000DD69002D09D0280022003100FFF7CFFF2800FCF7A5FE056AF3E7019B01A81C6AFCF7B8FEC8E705B0F0BD0000F7B506000D0002272800FCF79DFE846A0100019026
:406540003C4004D101A8FCF7A5FE230013E0300000F00CFE019B01A89C69002C07D1FCF799FE064B1868401B4342434103E0FCF791FE2500DEE71800FEBDC0468471030816
:40658000F0B5040085B00D1E4DD0FCF773FE00230190036285612800FCF76CFEC6690290002E05D1C46101A8FCF774FE02A838E0019B30009D6A0827FCF75CFE3D400390B4
:4065C0000ED1836A3B420BD0019B01A81E62029BDC61FCF75FFE02A8FCF75CFE03A820E002A8FCF757FE03A8FCF754FE3000FCF737FE08270390039B1E6A002E01D11C6246
:406600000EE03000FCF72CFE002D07D1836A3B4204D0039B1C62019B1E6201E00390EAE701A8FCF737FE05B0F0BD030010B5080002215A5E0021595EFDF7CAF910BD000025
:40664000114B30B51D6885B0696C0400002916D0082202A802F0CAFE0C4B1868002800D1A86CFCF707FE02A90190FFF7DEFF01A8FCF710FE02A8210000F078FD02A802F048
:4066800041FD05B030BDC046D0420208807103081FB5104B1B681A0054321278002A02D00D48143012E0986CFCF7E4FD02AC2300019006C806C301A8FCF7ECFD074B196850
:4066C000002902D02000FFF731FF2000FFF7B8FF1FBDC046D04202089C2303088071030813B5041E22D0FCF7C5FD836A01909B0719D5406A002808D00D4B1B689C4204D0F2
:4067000000F06CFF0022019B5A62200000F042FC0400002C07D02000FFF7E2FF2000FCF79FFD046AF5E701A8FCF7B4FD13BDC046B471030803000022815E04201A5E00202C
:40674000914207DC02215A5E0621595ED00FCB179142584170470000F0B585B004000E001500FCF77DFD876A0190BB0730D53000FFF7E0FF00282BD0164B3B40012B27D0E8
:406780002000FCF777FD02AC020001903100200000F00AFD2000FFF7CDFF002815D0019B0D4918009A6A08300A4204D022000100FDF7DDF809E042CC42C02A439A62074AD5
:4067C000138801331380FEF771F801A8FCF762FD05B0F0BD01080000204000009471030810B52022FFF7B8FF10BD7FB504000E001500002828D0FCF73DFD836A020001905A
:406800009B0703D401A8FCF745FD1DE0310002A800F0CAFC0028F5D001A8FCF73BFD20002A0002A9FFF798FF200000F0B3FB0400002C09D020002A0002A9FFF7D6FF200089
:40684000FCF70EFD046AF3E77FBD0000F0B587B007000D0001921C00002932D00800FCF709FD866A02000390B30727D5390004A800F09AFC002821D0134B1E40012E07D149
:40688000039923000A6A04A88969FFF7DFFF04E0220004A92800FFF75FFF039BDD69002D0CD0019B9D4209D02800220004A9FFF79CFF2800FCF7D4FC056AF0E703A8FCF76C
:4068C000E9FC07B0F0BDC0460108000010B52023FFF7BCFF10BD1FB500916946019000F01FFB05B000BD00234B800B80028883889B1A8B80C38842889B1ACB8070470000FF
:40690000F0B5050087B00F0000283AD0FDF710FF2800FCF7AFFC866A0190B3072CD504AC230006C806C3F30302D52800FFF7D8FE002F0CD00822390002A802F057FD02A9FC
:406940000198FFF772FE02A9200000F00FFC29002000FFF7EBFD00280ED00B4B1E40012E06D1019B20001A6A9969FFF7AFFF03E021002800FFF734FF01A8FCF78BFCFDF719
:40698000CBFE07B0F0BDC0460108000010B50021FFF7B6FF10BD000070B50500FDF7C8FE0B4C23689E6C002D01D10A4A15689D64FFF7B8F92800FCF753FC23680021425E3F
:4069C000DA640221425E1A65FDF7A6FE300070BDD042020898710308F0B585B0019305000E000092FDF7A4FE484B1F680A9B002B27D1474B1B88002B28D0464B1B685A1C85
:406A0000012A23D90A930A98FCF734FC03900022835E0222815E009AED187618002A04D10424025FD21A531C0093019B002B04D10622835E5B1A0133019303A8FCF72AFCEB
:406A400004E00A9B0133DED100230A930D982C30FCF7C4FD041E53D02D4A0B9B1F43138801331380FCF706FC009B02900580ED18019B4680F6180C9B826A0361264B013D4D
:406A80003B401343013E83628580C68002A8FCF701FC224B1868002809D0FCF7E1FB05002000FCF7DDFB6B6943616C6100E01C600A992000FFF764FDBB0602D52000FFF7E6
:406AC0006BFFFB0703D5164A1368013313607B0602D5200000F078FA02252F420CD02000FCF7C8FB836A02902B43836202A8FCF7D1FB2000FFF74AFF01212000FFF7EBFEF1
:406B0000FDF70AFE200005B0F0BDC046A07103087C710308847103089F3F3F0098710308B87103081FB5089C0394079C0294069C019400240094FFF74FFF04B010BD00005C
:406B40000020F0B5534E85B0336854331B78834200D19DE0504A136A1500012B02DD013B136295E002AC2100D36914320133936081CA81C1002B03D1AB892380EB890DE019
:406B80002B8B01331BB22380EA8A628010216A5E9A4204DAAB8923806B8B013363800223E25E12216B5E9A4204DD2B6A0020013B2B626DE03368986CFCF75CFB0023E25E59
:406BC0000C216B5E01909A4217D16B8AE3802B8AA38033689A6C002A0AD01000FCF740FB070000222100006AFFF7C2FBBA69F2E7019B2100D869FFF7BBFB2388A3803368C1
:406C00009A6C002A0CD01000FCF72AFB002207002100006AFFF706FC0028EED1BA69F0E7019B2100D869FFF7FDFB0028E5D11022AB5E0021625EA3809A4208DD2B0022007C
:406C4000143303CA03C301A8FCF724FBA2E733689A6C002A0AD01000FCF702FB060000222100006AFFF723FCB269F2E7019B2100D869FFF71CFC01A8FCF70CFB074BEA6941
:406C80009A4292DC14350CCC0CC5FFF701FD012005B0F0BDD04202089C230308204E0000F0B53B4D89B02A680700130054331B78002B03D1FFF7ECFC012066E00120354EB9
:406CC000336A34000133336283425EDC906CFCF7D1FA01235B42F3612F4B02901B78002B02D004AB083005E00223826A1A4001920AD004AB06C806C304AE002F0CD03900B0
:406D0000300000F033FA07E0336A02A8013B3362FCF7C0FA019838E02B68204F596C02A8002918D0029B082206A8039302F05EFB3B68002B06D003A8FCF7ACFA3868FCF756
:406D400099FA039006A90398FFF76FFC300006A900F00CFA03A8FCF79DFA3968002904D03000FFF7E3FB002806D02B683000996CFFF7DCFB002803D1236A013B236204E0D5
:406D80000C340CCE0CC4FFF7DBFE09B0F0BDC046D04202089C2303089D710308807103080122024B1B6854331A707047D042020810B5040023684068172B0FD007DC0E2BA3
:406DC0000ED0142B12D1E16800F0CEF80EE0222B0AD0282B0AD1FFF7D9FD09E0E06007E0210000F036F903E0024B00E00023E36010BDC046785634FF036810B504000E2B7E
:406E000002D00F2B08D010E0C3685A68012A0FD11868FDF74BFC0BE0064B1868064B984203D0FCF72FFEFCF7DBFE2000FFF7C0FF10BDC046A4710308785634FF30B51B4C10
:406E400085B0207800282ED1194BA0601860194B01001B685864184B1880184B188004230293174B019302230093164B1A00FFF759FE154B154A164D1A602860FFF786FDD9
:406E8000144800F069F8144800F066F82868FFF783FDFFF785FF0123200023700F4B24306362FCF7ADFE05B030BDC0469C23030898710308D0420208947103087C71030869
:406EC000F96D0810FF3F0000A4710308785634FF84710308C4710308BC710308E962081010B500F064F80023984202D0FCF7B8F9C369180010BD70B50500FFF7F1FF040031
:406F0000002C0AD0AC4207D02000FCF7A9F9036A9D4202D01C00F3E70024200070BD000070B50C4C060023680D00132B11DCFCF797F902696E60002A08D023682800013361
:406F4000236090472368013B236002E02800FFF72FFF70BDCC230308024B1A68026018607047C046A871030813B50C0000280AD0002908D0FCF77EF921000190FFF7B3FCF6
:406F800001A8FCF787F913BD014B18687047C0468471030810B5041E07D0FDF7C9FB2000FCF75EF9C469FDF7B7FB200010BD10B5041E07D0FDF7BCFB2000FCF751F9846909
:406FC000FDF7AAFB200010BDF0B589B00400FDF7AFFB002C39D02000FCF74CF90200039006AB22CA22C3836A076A03A80193FCF751F92000FFF77FFF051E26D02000FFF74A
:40700000D6FF019B06009B0704D501003A0006A8FFF75CFC2000FCF72DF903903000FCF729F905902800FCF725F9059B039AD96907620490116203A8DC61FCF72BF905A8AD
:40704000FCF728F904A8FCF725F9FDF765FB09B0F0BD70B505000C1E0CD0FDF769FB2800FFF7A5FF002803D0A5602100FFF758FFFDF752FB70BD0000F7B505000E0001207F
:40708000002D66DC334F7B683C00002B01D028009847012E04D0022E20D0002E58D133E0AF00E719BC68002C14D12800FCF748FE019000284CD0C3680D215B6A01A8984770
:4070C000031E45D0310001989847BB6820000133BB603EE0601CB86030003AE02800FCF72FFE0190002833D0C3680D215B6A01A89847051E2CD02368002B00D098470221D2
:407100000198A847002024E0AF00E3199B68012B01D0012014E02800FCF712FE01900028F7D0C3680D215B6A01A89847051EF0D02368002B00D0984700210198A847002081
:40714000E719BB681A00511E8A419B1ABB6000E00120FEBDD023030810B5034B01001B68587CFFF789FF10BDD042020810B500228B5E0024025F9A4200DA038002228B5EA1
:407180000224025F9A4200DA438004228B5E0424025F9A4200DD838006228B5E0621425E9A4200DDC38010BDF7B513880D881C1C2EB21BB2B34200DA2C1C0480538825B2CC
:4071C0004C881E1C27B21BB2BB4200DA261C4680938834B28E881F1C1BB2019333B29C46019B634500DD371C8780D388C9883EB21A1C0FB21BB2BB4200DD0A1CC28011B2A2
:407200000020B54203DCE00FCB17A1425841FEBD10B5FDF78DFA0B4B1A680C23918D0B40082B08D00C2B06D00024042B06D1D3691C7E013C02E0D3691C7E6408FDF76CFACD
