:020000041008E2
:4000000000780408EB0208100D0000005103081051030810510308105103081000000000000000000000000000000000318108104D03081000000000D1810810358208100F
:400040004D0308104D0308104D0308104D0308104D0308104D0308104D0308104D0308104D0308104D0308104D0308104D0308104D0308104D0308104D0308104D03081000
:400080004D0308104D0308104D0308104D0308104D0308104D0308104D0308104D0308104D0308104D0308104D0308104D0308104D0308104D0308104D0308104D030810C0
:4000C0004D0308104D0308104D0308104D0308104D0308104D0308104D0308104D0308104D0308104D0308104D0308104D0308104D0308104D0308104D0308104D03081080
:400100004D0308104D0308104D0308104D0308104D0308104D0308104D0308104D0308104D0308104D0308104D0308104D0308104D0308104D0308104D0308104D0308103F
:400140004D0308104D0308104D0308104D0308104D0308104D0308104D0308104D0308104D0308104D0308104D0308104D0308104D0308104D0308104D0308104D030810FF
:400180004D0308104D0308104D0308104D0308104D0308104D0308104D0308104D0308104D0308104D0308104D0308104D0308104D0308104D0308104D0308104D030810BF
:4001C0004D0308104D0308104D0308104D0308104D0308104D0308104D0308104D0308104D0308104D0308104D0308104D0308104D0308104D0308104D0308104D0308107F
:400200004D0308104D0308104D0308104D0308104D0308104D0308104D0308104D0308104D0308104D0308104D0308104D0308104D0308104D0308104D0308104D0308103E
:400240004D0308104D0308104D0308104D0308104D0308104D0308104D0308104D0308104D0308104D0308104D0308104D0308104D0308104D0308104D0308104D030810FE
:400280004D0308104D0308104D03081010B5054C237833B9044B13B10448AFF300800123237010BD3C6902080000000074B40910084B10B51BB108490848AFF3008008487D
:4002C000036803B910BD074B002BFBD0BDE81040184700BF000000004069020874B4091008630208000000007047FFF7FDFF72B6104C114DAC4209DA21686268A368043B4D
:40030000A2BFC858D050FAE70C34F3E70B490C4A00209142BCBF41F8040BFAE709480A490860BFF34F8F00F06DFA00F047FA00F0F1F8FEE778B4091090B409103C690208AD
:40034000804B04080040020808ED00E0FEE7FEE700B504207146084202D0EFF3098001E0EFF30880043006F0B5F9FEE770B584B000F01AFD02F01AF9584B1B68002B66D1B1
:40038000564B5B6863B102F011F9554B1868554B1968C9B2C0B200F0F3FC00224F4B5A605149524800F058FC0222514B9A600822A3F5B0639A60494B1B68002B40F08880CB
:4003C000464CA31804F10C0204F11001464802F0E7FE2169E268A368464D284611F0EAFE04F1140304F1180204F11C013F4802F0D7FEE169A2696369284611F0DBFE20690C
:40040000E169E268A3686569A6693B4C03943B4C02940196009503F02FF802F023F9384B1A6823689A420ADB364B1A6823689A4205DC354B1A68304B1B689A4203DD08222F
:40044000324B5A6044E00822304B9A6040E008222E4B9A60022203F5B0639A601F4B1B68012B33D102F098F9002425460EE008F02FFE08F0BDFD48B908F0E4F9022008F0B8
:400480000BFC0546012008F007FC044625B91CB9124B1B68002BEADC6DB1104B1B68002B09DD1B4B1A6801321A601B68062B02DD0122174B1A605CB1084B1B68002B07DDDA
:4004C000134B1B680133054A136001E002F02EFA0121084602F018F84EE700BF58690208006202080462020860DC03081CBD03088005324054450910D0810208CC81020897
:40050000F4610208F8610208FC610208000032408C42020800B583B062B608F0A9F80422364B9A60364BB3F90030002B0DDB5A0903F01F03012101FA03F32032314941F80E
:400540002230BFF34F8FBFF36F8F2F4B5A6901225A615B692A4BB3F90030002B09DB5A0903F01F03012101FA03F36032254941F82230264C2649204606F03EF8B4F9003044
:40058000002B08DB5A0903F01F000121814060321C4840F82210002B08DB590903F01F03012202FA03F3174A42F8213008F030F90BF072F9142003F0C1FC012003F0C6FCAE
:4005C00001200BF061F800200BF0A0F86FF07F400BF092F80BF02EF90121084601F094FF00230193062200924FF4FA5209490A4806F088FF06F0B8FFFEE700BF80043240B2
:400600004848091000E100E0800632407848091029310810704509106D03081008B5012004F09AFA08BD00BF704700BF5C4AD2F8803303F00F0303F1D00152F8212002F0ED
:400640000702032A04D0042A05D092B9554914E0554A116811E003F1C002514951F8222002F01F02112A06D0132A04D04FF4FA4103E04E4901E04FF400418BBB484BD3F876
:40068000902502F00100D3F88825C2F30172D3F8883513F0405F07D0414BD3F88835C3F30173012B02D102E0012300E0002303B108B9032A46D13A48D0F88025C2F311033A
:4006C000D0F88425C2F30C02D0F88005C0F300600130B1FBF2F202FB03F2B2FBF0F131E0012B2FD12E4BD3F8402602F00100D3F80026C2F30172D3F8003613F0405F07D0B8
:40070000274BD3F80036C3F30173012B02D102E0012300E0002303B108B9032A12D12048D0F8002602F07F02D0F80036C3F30423D0F80006C0F3044002FB01F2B2FBF3F2A4
:40074000B2FBF0F1164BD3F88033C3F3011321FA03F215494A601648D0F89030C3F3072301330069000E0130B2FBF0F08860B2FBF3F3CB600B6103F5742202F23F220D48B1
:40078000A0FB0202C2F387420A7503F2E7330A4AA2FB03239B098B61DB03CB61704700BF0000264000127A00D461020800366E010000214083DE1B43D34D621008B50D48CD
:4007C00006F072F8FFF730FFFFF730FF00221146042003F089FF084804F01CF8074B1B6893F8513013B1064804F084F803F04AFE08BD00BF004D09107C6902083C480408D8
:400800008045091008B505F0C0FF074AD2F8883043F47003C2F88830BFF34F8FBFF36F8F05F0B7FF08BD00BF00ED00E008B5C82005F01CFF0E4811F02FFD02230D4A936097
:4008400002F5A06253600C4B5A6901225A615B690A4BB3F90030002B09DB5A0903F01F03012101FA03F36032054941F8223008BDC445091080003240800632404848091060
:4008800000E100E0F0B585B0064617461C460F4D284600F8011B1A46394610F0EBFF8DF8006001950134029400238DF80C30084A6946084805F04CF804464FF0FF31064B2D
:4008C000186806F0BBFB204605B0F0BDFC6A020814490408000064405CDC0308F0B587B0054617461E468DF807108DF808000DF107030393012304938DF81430124A02A90A
:40090000124805F025F8124CE0604FF0FF31114B186806F093FBE3688BB98DF80850039704968DF81430084A02A9084804F058FFE0604FF0FF31074B186806F07FFB044B9D
:40094000D86807B0F0BD00BF1449040800006440FC6A02085CDC030800B583B010F4002F07D00E4811F098FCFE210D4805F0A2FE11E010F4C02F0ED001A90A4B186806F037
:4009800053FA019B3BB14FF08052074B1A60BFF34F8FBFF36F8F03B05DF804FBDC450910084609105CDC030804ED00E000B583B010F4002F08D00F4811F06EFC40F273111E
:4009C0000D4805F077FE11E010F4C02F0ED001A90A4B186806F028FA019B3BB14FF08052074B1A60BFF34F8FBFF36F8F03B05DF804FB00BFDC4509100846091018BD0308F3
:400A000004ED00E010B584B002238DF8043000228DF805209DF8063043F0010303F0FD0343F00C0362F304138DF80630BDF80630042262F34813ADF806309DF8083043F048
:400A40003F038DF8083008238DF809300C490DEB020001F025FD0B4C0B49204605F0CCFDB4F90030002B08DB590903F01F03012202FA03F3054A42F8213004B010BD00BFCC
:400A8000A0FB0308484809102D08081000E100E038B50F4C682363700025A5700D4BE3610D4B23620D4B6362204601F091FC0C236371A3710223E371112222710D22627325
:400AC000A573E37315232373204601F0C7FC38BDA0FB0308DD08081085080810F177081070B586B00E4615468DF8070057238DF808300DF107030393012304938DF81430F4
:400B0000134A02A9134804F023FF134C20614FF0FF31124B186806F091FA23699BB957238DF808300396049500238DF81430084A02A9084804F054FE20614FF0FF31074B85
:400B4000186806F07BFA044B186906B070BD00BFC848040800006340FC6A020818BD030810B584B00B4B18750A785A750A4B0FCB8DE80F00094A6946094804F0E9FE0446B1
:400B80004FF0FF31074B186806F058FA204604B010BD00BFFC6A0208B4450910C84804080000634018BD030808B540210920FFF7D7FF08BD30B583B0002502AC04F8015DC8
:400BC000FFF7F2FF4FF47A7005F050FD012221462846FFF785FF012221461046FFF780FF40238DF8073021460220FFF7B9FF8DF8075021460320FFF7B3FF8DF80750214631
:400C00000420FFF7ADFF8DF8075021460520FFF7A7FF8DF8075021460620FFF7A1FF03238DF8073021460920FFF79AFF2B238DF8073021460A20FFF793FF20258DF80750A6
:400C400021460C20FFF78CFF8DF8075021460D20FFF786FF03B030BDF0B583B006460F46434BB3F90030002B08DB5A0903F01F000121814060323F4840F822103E4A5169C7
:400C8000012151615269002B08DB590903F01F03012202FA03F3374A42F82130002405E0062269460720FFF71BFF01341F2CF7DD002431E0A500002346F8243047F8243072
:400CC0002D4B1B6913F0800FFAD1062269460720FFF706FF9DF800207B5903EB02439DF8012003EB02229DF802301344C3F311037B519DF80320735903EB02439DF80420FA
:400D000003EB02229DF805301344C3F3110373511A4B1B681BB90134B4F5FA6FCADB144BB3F90030002B0DDB5A0903F01F03012101FA03F320320F4941F82230BFF34F8FAC
:400D4000BFF36F8F0C4B5A6901225A615B69084BB3F90030002B09DB5A0903F01F03012101FA03F36032034941F8223003B0F0BD4848091000E100E0800632405869020848
:400D800000B583B08DF807008DF806100DF107010C20FFF7E5FE0DF106010D20FFF7E0FE03B05DF804FB00BF08B507F09DFC0E4A0E4B5A6403220021012005F0BDFE0C4B23
:400DC000186007F0D7FC0B4A0B4B5A6403220021012005F0B1FE094B1860FFF759FEFFF711FEFFF7E7FE08BDAD090810C848040818BD030859090810144904085CDC03088F
:400E000040B1C2694AB1026A52B1436A5BB94FF0FF3070474FF0FF3070474FF0FF3070474FF0FF3070470020704700BF0222C271082343711021017103218171C273437367
:400E4000142303730023837343688360C3680361704700BF4B790F2B0BD84A7A93420BD0027802F0F00203F00F0313430370002070476FF00300704700207047CB79022B60
:400E800008D8CA7A934208D0037803F08F030370002070476FF0030070470020704700BF8B790C2B0BD88A7A93420BD0027802F0F00203F00F0313430370002070476FF034
:400EC00003007047002070474B7B0D2B0BD84A7C93420BD0027802F0F00203F00F0313430370002070476FF00300704700207047CB7B022B09D8027802F0CF021B0103F077
:400F0000300313430370002070476FF0030070478B7B042B0BD88A7C93420BD0027802F0F80203F0070313430370002070476FF0030070470020704738B593B11C46DD692B
:400F400095B19B78012B01D140F0800013460A4601466078A8470546636A0120984745B105E04FF0FF3504E04FF0FF3501E06FF00105284638BD00BF38B504460D460B46B3
:400F8000022201464020FFF7D7FF034680B929462046FFF75FFF034650B929462046FFF76DFF034620B92946601CFFF779FF0346184638BD38B504460D460B460222014609
:400FC0004220FFF7B9FF034680B929462046FFF77BFF034650B929462046FFF789FF034620B92946601CFFF793FF0346184638BD00B583B002A9002301F8013D03460122EB
:401000000220FFF799FF9DF80730C3F34303012B06D0022B07D0032B08D0072B0BD108E06FF0050007E06FF0060004E06FF0070001E06FF0080003B05DF804FB2DE9F8439C
:40104000002B31D00546894690461E461C6A74B39B78012B01D100F07F05337A112B02D0337C152B19D143464A4629467078A0470746736A0120984714E0376A012309EBFC
:40108000040229467078B84707460135EDB2736A012098470134E4B201E000242746A3B24345EAD347B105E04FF0FF3704E04FF0FF3701E06FF001073846BDE8F88300BFAE
:4010C00010B582B0044602A8002320F8043D2146FFF752FF0346C8B92346012201A94020FFF7ACFF034688B963796372E379E372636A01209847234601220DF10501412030
:40110000FFF79CFF034608B9A279A272184602B010BD00BF10B582B0044602A8002320F8043D2146FFF746FF0346C8B92346012201A94220FFF782FF034688B9637B637428
:40114000E37BE374636A01209847234601220DF105014320FFF772FF034608B9A27BA274184602B010BD00BF30B583B004460D4600238DF807300B46012201464020FFF715
:40118000DBFE034628BB2A79122A14D1237863F07F0323702B46012221464020FFF74EFF0346B0B92B4602220DF107015820FFF745FF03460DE0227812F0800F09D002F09A
:4011C0007F0222702B46012221464020FFF736FF0346184603B030BD30B583B000238DF807300279A2F11003DBB2022B1AD8037A9A421AD0044601460DF10700FFF7B4FFC9
:40120000054698B923460122211D7E20FFF716FF0546237A102B02D1636A052098472379237203E06FF0030500E00025284603B030BD00BF38B5027BA2F11403DBB2012BBE
:4012400001D9172A1DD1037C9A421DD004460346012200F10C017E20FFF7F0FE0546237C142B03D1636A5120984707E0172B05D1237B152B02D1636A0A209847237B237412
:4012800003E06FF0030500E00025284638BD00BF30B583B005460C4602A9002301F8013D234601225020FFF747FE034660BB2B7813F0010F18D09DF8072002F0FE0329787A
:4012C000C1F340021A4302F0FD02C1F3800342EA430202F0FB02C1F3C00342EA83038DF807300023E37007E09DF8073023F007038DF80730FF23E370234601220DF1070125
:401300005020FFF79BFE0346184603B030BD00BF30B583B005460C4602A9002301F8013D234601225320FFF707FE0346002844D12B78012B1CD19DF8072002F0F702A978EA
:4013400001F0010342EAC30202F0FB02C1F3400342EA830303F0FD02C1F3800342EA430303F0FE03C1F3C0010B438DF807301CE09DF8072002F07F02A97801F0010342EA74
:40138000C31202F0BF02C1F3400342EA831202F0DF02C1F3800342EA431202F0EF02C1F3C00342EA03138DF80730234601220DF107015320FFF742FE0346184603B030BD88
:4013C00030B583B004460D4602A9002301F8013D2B4601225420FFF7AFFD034650BB2378012B0BD19DF8073003F0EF02A378C3F3001342EA03138DF807300AE09DF807304A
:4014000003F0DF02A378C3F3001342EA43138DF807309DF8073003F0F0026388C3F34313134302A901F8013D2B4601225420FFF705FE0346184603B030BD00BF38B5044698
:401440000D46FFF765FF034620B929462046FFF7B7FF0346184638BD10B582B0044602A9002301F8013D034601226220FFF764FD034678B99DF8072012F0020F0AD002F0E0
:40148000FD0202A901F8012D234601226220FFF7D5FD0346184602B010BD00BF70B582B005460C4600238DF804308DF805308DF806300B46032201A95520FFF73DFD02464E
:4014C00098BB9DF804006B781949CE5CF3435BB218409DF806100B402D78032D1BD8DFE805F002070D138DF804008DF8063014E030438DF804008DF806300EE033438DF87B
:4015000006308DF8040008E030438DF8040033438DF8063001E06FF0030232B92346032201A95520FFF78AFD0246104602B070BD1846091030B583B005460C4602A9002306
:4015400001F8013D234601225920FFF7F5FC034688B99DF8073003F07F022B78C3F3801342EAC31302A901F8013D234601225920FFF764FD0346184603B030BD30B583B0F3
:4015800005460C4600238DF80730ADF804300B4601220DF107015F20FFF7CEFC034688B99DF8073003F0FC038DF807308DF804306B788DF805302346022201A95F20FFF717
:4015C0003DFD0346184603B030BD00BF70B505460E4614461146FFF731FF0346A8B92046FFF73AFF034680B921462846FFF756FF034650B921463046FFF79CFF034620B94D
:4016000021463046FFF7BAFF0346184670BD00BF70B505460C460846FFF7F2FB70B985B12E1D21463046FFF733FE034658B9224631462846FFF7CAFF034604E04FF0FF33E6
:4016400001E04FF0FF33184670BD00BF30B583B005460C4602A9002301F8013D234601225020FFF769FC0346F0B92B7813F0200F0AD09DF8073003F0F80343F007038DF8A0
:4016800007300123E37007E09DF8073023F007038DF80730FF23E370234601220DF107015020FFF7CBFC0346184603B030BD00BF30B583B005460C4602A9002301F8013DFC
:4016C000234601225920FFF737FC034688B99DF8073003F07F022B78C3F3001342EAC31302A901F8013D234601225920FFF7A6FC0346184603B030BD30B583B005460C4609
:40170000437802A901F8013D234601226020FFF795FC034630BB234601220DF107016220FFF70AFC0346E8B99DF8072002F0F302297801F0030342EA830202F0CF02C1F3E8
:40174000810342EA031303F0FD02C1F3401342EA430302A901F8013D234601226220FFF76DFC0346184603B030BD00BF70B505460E4614461146FFF761FE034680B9214630
:401780002846FFF78BFE034650B921463046FFF78FFF034620B921463046FFF7ADFF0346184670BD70B505460C460846FFF728FB70B985B12E1D21463046FFF747FF0346DF
:4017C00058B9224631462846FFF7D0FF034604E04FF0FF3301E04FF0FF33184670BD00BF30B583B004460D4602A9002301F8013D2B4601225220FFF79FFB034658BB237845
:4018000013F0010F07D09DF8073003F0FE0343F001038DF80730237813F0020F07D09DF8073003F0FD0343F002038DF80730237813F0040F07D09DF8073003F0FB0343F05A
:4018400004038DF807302B4601220DF107015220FFF7F4FB0346184603B030BD30B583B005460C4602A9002301F8013D234601225920FFF761FB034688B99DF8073003F013
:401880007F026B78C3F3800342EAC31302A901F8013D234601225920FFF7D0FB0346184603B030BD30B583B005460C4600238DF80730ADF804300B4601220DF107015F2034
:4018C000FFF73AFB034688BB9DF8073003F003022B88C3F3C50342EA830302A901F8013D234601225F20FFF7A9FB0346F0B9234601220DF107016220FFF71EFB0346A8B944
:401900009DF8073003F0FE026B78C3F3400313438DF807308DF80530AB7802A901F8043D234602226120FFF789FB0346184603B030BD00BF70B505460E4614461146FFF73F
:401940007DFD034680B921462846FFF7A7FD034650B921463046FFF781FF034620B921463046FFF79FFF0346184670BD70B505460C460846FFF744FA70B985B12E1D21469B
:401980003046FFF72DFF034658B9224631462846FFF7D0FF034604E04FF0FF3301E04FF0FF33184670BD00BF70B582B005460E46144602A9002301F8013D134601225020A8
:4019C000FFF7BAFA034608BB6B78042B0BD19DF8073003F0DF027378C3F3C00342EA43138DF807300AE09DF8073003F0EF027378C3F3C00342EA03138DF807302346012279
:401A00000DF107015020FFF719FB0346184602B070BD00BF30B583B005460C4602A9002301F8013D234601225820FFF785FA034688B99DF8073003F0F7026B78C3F3800350
:401A400042EAC30302A901F8013D234601225820FFF7F4FA0346184603B030BD70B582B006460D46144602A9002321F8043D134602226320FFF760FA034650BB9DF804307E
:401A80007278032A06D12A88C2F3C21203F0F8031343DBB22A78C2F3401103F0BF0343EA8113C2F3801103F07F0343EAC1138DF804309DF80530C2F3040203F0E0031A43E1
:401AC0008DF805202346022201A96320FFF7B6FA0346184602B070BD70B505460E4614461146FFF7ABFC034688B921462846FFF7D5FC034658B921463046FFF78BFF03461E
:401B000028B9224631462846FFF7A8FF0346184670BD00BF70B504460D460846FFF770F9A8B9BCB1261D2A4631462046FFF73CFF034688B929462046FFF780FC034658B91E
:401B40002A4631462046FFF7C7FF034604E04FF0FF3301E04FF0FF33184670BD30B583B005460C4602A9002301F8013D234601225220FFF7E1F9034688B99DF8073003F010
:401B8000F7022B7803F0010342EAC30302A901F8013D234601225220FFF750FA0346184603B030BD30B583B00D460023ADF80430037813F0C00306D115238DF804300323A3
:401BC0008DF8053032E00446402B03D12D238DF804302BE0802B06D11D238DF8043007238DF8053022E0C02B20D10B46022201A97A20FFF7A1F9C8B99DF8043003F0E703CF
:401C00002278C2F3410143EAC10303F0F803C2F3C20213438DF804309DF8053003F0F8026378C3F3020313438DF805302B46022201A97A20FFF702FA03B030BD70B5054674
:401C40000C460846FFF7DCF8C8B9DDB12E1D21463046FFF783FF0346B0B921462846FFF7EDFB034680B921462846FFF717FC034650B921463046FFF795FF034604E04FF061
:401C8000FF3301E04FF0FF33184670BD30B583B005460C4602A9002301F8013D234601225020FFF749F9034688B99DF8073003F0BF02AB7803F0010342EA831302A901F89D
:401CC000013D234601225020FFF7B8F90346184603B030BD30B583B005460C4600238DF804308DF805300B46022201A96520FFF723F9034678BB9DF8042002F0FC032978F4
:401D0000C1F301021A4302F0F30201F00C031A4302F00F0201F0F00313438DF804309DF8052002F0C0036978C1F305021A4302F0BF02C1F3801342EA831202F07F0201F0CE
:401D4000800313438DF805302346022201A96520FFF774F90346184603B030BD70B505460C460846FFF74CF8C8B9DDB12E1D21463046FFF78BFF0346B0B921462846FFF7EC
:401D80005DFB034680B921462846FFF787FB034650B921463046FFF79DFF034604E04FF0FF3301E04FF0FF33184670BD30B583B005460C4602A9002301F8013D234601227A
:401DC0005020FFF7B9F8034688B99DF8073003F07F026B78C3F3C00342EAC31302A901F8013D234601225020FFF728F90346184603B030BD30B583B005460C4600238DF80B
:401E000004308DF805300B46022201A96720FFF793F8034608BB9DF8043003F0C0022B78C3F3050313438DF804309DF8053003F0CF026B78C3F3410342EA031303F0F803F8
:401E40002A88C2F3821213438DF805302346022201A96720FFF7F2F80346184603B030BD70B505460C460846FEF7CAFFC8B9DDB12E1D21463046FFF799FF0346B0B92146C6
:401E80002846FFF7DBFA034680B921462846FFF705FB034650B921463046FFF7ABFF034604E04FF0FF3301E04FF0FF33184670BD30B583B005460C4602A9002301F8013D98
:401EC000234601225120FFF737F8034688B99DF8073003F0F702AB78C3F3001342EAC30302A901F8013D234601225120FFF7A6F80346184603B030BD30B583B005460C4631
:401F000002A9002301F8013D234601225820FFF713F8034688B99DF8073003F07F02AB78C3F3C00342EAC31302A901F8013D234601225820FFF782F80346184603B030BD92
:401F400030B583B005460C4600238DF804308DF8053002A901F8023D234601225C20FEF7EBFF0346E0B99DF8062002F0FC03A978C1F301021A4302F0FB02C1F3800342EA37
:401F800083038DF806306B788DF805302B7802A901F8043D234603225A20FFF74FF80346184603B030BD00BF70B505460C460846FEF726FFF8B90DB32E1D21463046FFF7B7
:401FC00077FF0346E0B921462846FFF737FA0346B0B921462846FFF761FA034680B921463046FFF789FF034650B921463046FFF7A7FF034604E04FF0FF3301E04FF0FF331D
:40200000184670BD30B583B005460C4602A9002301F8013D234601225120FEF78DFF0346E0B99DF8072002F0FE032978C1F300021A4302F0FD02C1F3400342EA430202F04D
:40204000FB02C1F3800342EA830302A901F8013D234601225120FEF7F1FF0346184603B030BD00BF30B583B005460C4602A9002301F8013D234601225820FEF75DFF034658
:4020800088B99DF8073003F07F022B78C3F3401342EAC31302A901F8013D234601225820FEF7CCFF0346184603B030BD30B583B005460C4600238DF804308DF805308DF834
:4020C00006300B46012201A95C20FEF735FF0346B8B99DF8043003F03F022B78C3F3C10342EA83138DF80430AB788DF805306B788DF806302346032201A95C20FEF79EFFD7
:402100000346184603B030BD70B505460C460846FEF776FEF8B90DB32E1D21463046FFF771FF0346E0B921462846FFF787F90346B0B921462846FFF7B1F9034680B92146A3
:402140003046FFF78FFF034650B921463046FFF7ADFF034604E04FF0FF3301E04FF0FF33184670BD10B582B0044602A9002301F8013D034601225120FEF7DEFE034670B9B3
:402180009DF8073003F0EF0343F0100302A901F8013D234601225120FEF750FF0346184602B010BD30B583B005460C4602A9002301F8013D234601225620FEF7BDFE02462B
:4021C00070BB6B781849C85C9DF8073023EA00035BB20101C9B223EA0103DBB22D78032D13D8DFE805F00205090D8DF807300EE00B438DF807300AE003438DF8073006E029
:4022000003430B438DF8073001E06FF003023AB9234601220DF107015620FEF70FFF0246104603B030BD00BF1846091038B505460C460846FEF7E4FD88B99DB12046FFF7FE
:4022400091FF034680B921462846FFF7F7F8034650B921462846FFF7A5FF034604E04FF0FF3301E04FF0FF33184638BD30B583B005460C4602A9002301F8013D2346012248
:402280005120FEF759FE034688B92B7A03F001029DF8073023F0200343EA421302A901F8013D234601225120FEF7C8FE0346184603B030BD38B599B14A6AA2B10C460546FC
:4022C000FFF7D4FF034680B921462846FFF7B6F8034650B921462846FFF764FF034604E04FF0FF3301E04FF0FF33184638BD00BF30B583B005460C4602A9002301F8013DDE
:40230000234601225120FEF717FE034688B92B7AC3F340029DF8073023F0400343EA821302A901F8013D234601225120FEF786FE0346184603B030BD38B599B14A6AA2B1AE
:402340000C460546FFF7D4FF034680B921462846FFF774F8034650B921462846FFF722FF034604E04FF0FF3301E04FF0FF33184638BD00BF30B583B0B6238DF80730F0B1B0
:402380000446436AF3B1034601220DF107017E20FEF754FE0546636A0F20984755B9A378012B07D1234601220DF107017F20FEF7C3FD054645B92046FEF738FD04E04FF0F6
:4023C000FF3501E04FF0FF35284603B030BD00BF10B582B00446FEF713FD034648B9A278012A06D123460DF107017F20FEF7A4FD0346C3B9234601220DF106010020FEF7CD
:402400009BFD58B99DF80630D12B0AD12370FF23E3702046FFF7AEFF034604E06FF0020301E06FF00203184602B010BD60B1426A6AB110B50446FEF7CFFE034658B9204624
:40244000FEF7F8FE034606E04FF0FF3301E04FF0FF3318467047184610BD00BFB0B1426ABAB110B50446FEF72BFE0346A8B92046FEF750FE034680B92046FFF7D7FF03468B
:4024800058B92046FEF7B4FD034606E04FF0FF3301E04FF0FF3318467047184610BD00BF08B543780C2B2CD8DFE803F0070A13101016191F1C0D22252800FFF7A9F808BD1B
:4024C000FFF770F908BDFFF751FA08BDFFF722FB08BDFFF7B3FB08BDFFF740FC08BDFFF7BFFC08BDFFF760FD08BDFFF70DFE08BDFFF79CFE08BDFFF7DDFE08BDFFF71CFF2A
:4025000008BD002008BD00BFF8B506460F4601F08BFE0546064C3B4632460146204601F021FD41F2B062294620460FF0A3F9F8BD1C6B02082DE9F041074600231A4D984621
:4025400008E057F82320904500D29046954200D915460133B3F5FA6FF3DB002408261EE006F18043083B57F82310491B5C2202FB01F1C5EB0803B1FBF3F157F82600401B8B
:4025800002FB00F2B2FBF3F3C3F17C0304F10802C1F17C01E01D09F0BFFD08360134F82CDEDDBDE8F08100BFE093040008B509F041F9244809F0B4F8022009F065F8182334
:4025C000DE2204212A2008F067FB082246211E4809F02EFB08228C211C4809F029FB0822C8211B4809F024FB802340F201121C21072008F051FB32221421164809F018FB90
:402600005A221421144809F013FBAC2384221146072008F041FB8A222421104809F008FBAC2340F201128421892008F035FB8A22A7210B4809F0FCFA01210846FFF764FF11
:4026400008BD00BFF06009102846091034460910384609103C46091060460910784609108446091030B58BB009F0E4F83E4809F057F8022009F008F81823DE2204212A2020
:4026800008F00AFB08224621384809F0D1FA08228C21374809F0CCFA0822C821354809F0C7FA354B1B68012B0FD1122387220A217F2009F0E3FA1223C3220A21BB2008F044
:4026C000EBFA2E48FFF736FF0EE0122387220A217F2008F0E1FA1223C3220A21BB2009F0CDFA2748FFF726FF802340F201121C21072008F0D1FAAC2384221146072008F087
:40270000CBFA8A2224211F4809F092FAAC2340F201128421892008F0BFFA8A22A7211A4809F086FA194808F0FBFF194DD5F8B825184C214668460FF0B7FD9A222421684657
:4027400009F076FAD5F8BC25214668460FF0ACFD9A22A721684609F06BFA01210846FFF7D3FE0BB030BD00BFF0600910284609103446091038460910D061020860DC0308BB
:402780001CBD0308784609108446091060500910147C02089046091008B509F04BF8022008F072FF584808F0BBFF1823B6220421522008F071FA08227621544809F038FABE
:4027C000302340F201121C21072008F065FA2C231E2220210A2008F05FFA20223C214C4809F026FA482340F201123421072008F053FA44231E2238210A2008F04DFA3822BB
:402800003C21444809F014FA602340F201124C21072008F041FA5C231E2250210A2008F03BFA50223C213C4809F002FA782340F201126421072008F02FFA74231E2268213D
:402840000A2008F029FA68223C21344809F0F0F9902340F201127C21072008F01DFA8C231E2280210A2008F017FA80223C212C4809F0DEF9A82340F201129421072008F019
:402880000BFAA4231E2298210A2008F005FA98223C21244809F0CCF9234B1B68013B052B2DD8DFE803F0030A11181F262C231E2220210A2009F0E2F921E044231E2238218B
:4028C0000A2009F0DBF91AE05C231E2250210A2009F0D4F913E074231E2268210A2009F0CDF90CE08C231E2280210A2009F0C6F905E0A4231E2298210A2009F0BFF901218B
:402900000846FFF701FE08BDF0600910944609109C460910B8460910CC460910E0460910F8460910144709108C42020870B586B008F080FFB84B1B68023B052B00F2D48306
:40294000DFE813F0060066000B01DB01730236031E23F2220421162008F09EF9AF4808F0DFFE08223221AE4809F062F9AD4808F0D7FE22222821AC4809F05AF9AB4808F03F
:40298000CFFE64226921AA4809F052F96422AF21A84809F04DF9A84B1B68012B0CD16E23642266215C2009F069F96E23AA226621A22008F071F90BE06E23642266215C207E
:4029C00008F06AF96E23AA226621A22009F056F901210846FFF798FD00240AE006F078FB06F006FB28B905F02DFF022006F054F904461CB9884B1B68002BEFDC002C00F037
:402A000073838D4A1368B3FA83F35B0913606BE31E23F2220421162008F03EF97F4808F07FFE08223721854809F002F97D4808F077FE22221E21824809F0FAF832221421B5
:402A4000804809F0F5F8794808F06AFE6E23E8225F21202008F020F950221C217A4809F0E7F85022D221794809F0E2F8784C2368A3F13C02C82303FB02F3764A82FB031288
:402A80001A44DB17C3EB62126E2320325F21202009F0F4F8704808F043FEA023BE228221502008F0F9F822686C4901A80FF0FCFB8722782101A809F0BBF801210846FFF7B1
:402AC00023FD4FF6FF7400252E4612E006F000FB06F08EFA68B905F0B5FE022006F0DCF80646012006F0D8F80546002006F0E8F804464FF6FE739C4205DD26B91DB9464BD5
:402B00001B68002BE2DC1EB1514A1368013B13601DB14F4A1368013313604FF6FE739C420BDCC4EB0414A3004D4A82FB0312DB17C3EB62133C33464A1360454B1B68782BC1
:402B400002DD7822424B1A60414B1B683B2B00F3CB823C223E4B1A60C6E21E23F2220421162008F099F82D4808F0DAFD082237213C4809F05DF82B4808F0D2FD22221E2189
:402B80002F4809F055F8322214212E4809F050F8264808F0C5FD6E23E8225F21202008F07BF850221C21304809F042F85022D221254809F03DF8264C6368A3F11E02C823F4
:402BC00003FB02F3234A82FB03121A44DB17C3EB22126E2320325F21202009F04FF81E4808F09EFDA023BE228221502008F054F862681A4901A80FF057FB8722782101A8C9
:402C000009F016F801210846FFF77EFC4FF6FF7400252E463DE000BF58690208507209109C4609106050091038470910F06009103446091038460910D0610208B846091099
:402C4000604709108C470910BC470910C4470910F461020889888888B8870910904609101F85EB51CC460910CC47091006F030FA06F0BEF968B905F0E5FD022006F00CF889
:402C80000646012006F008F80546002006F018F804464FF6FE739C4205DD26B91DB9B24B1B68002BE2DC1EB1B04A5368013B53601DB1AE4A5368013353604FF6FE739C42F3
:402CC0000BDCC4EB04146300A94A82FB0312DB17C3EB62130A33A54A5360A44B5B683C2B02DD3C22A14B5A60A04B5B681D2B00F3FB811E229D4B5A60F6E11E23F2220421B6
:402D0000162007F0C9FF9B4808F00AFD08223721994808F08DFF994808F002FD22221E21974808F085FF32221421964808F080FF954808F0F5FC6E23E8225F21202007F029
:402D4000ABFF50221C21914808F072FF5022D2218F4808F06DFF854CA268C82303FB02F3834A82FB0312DB17C3EB62126E2320325F21202008F082FF864808F0D1FCA0237A
:402D8000BE228221502007F087FFA268824901A80FF08AFA8722782101A808F049FF01210846FFF7B1FB4FF6FF7400252E4612E006F08EF906F01CF968B905F043FD022022
:402DC00005F06AFF0646012005F066FF0546002005F076FF04464FF6FE739C4205DD26B91DB9614B1B68002BE2DC1EB15F4A9368013B93601DB15D4A9368013393604FF6CE
:402E0000FE739C4201DC594B9C60584B9B68642B02DD6422554B9A60544B9B68002B80F263810022514B9A605EE11E23F2220421162007F031FF4F4808F072FC0822282131
:402E4000564808F0F5FE4D4808F06AFC22221E214B4808F0EDFE322214214A4808F0E8FE494808F05DFC8223E8226E21202007F013FF5A221C214A4808F0DAFE5A22DE21E5
:402E8000484808F0D5FE394CE268474901A80FF00BFA91226A2101A808F0CAFEAA23A4228621642007F0F8FEE268C82303FB02F33E4A82FB03121A44DB17C3EBE212822380
:402EC00020326E21202008F0D9FE01210846FFF71BFB4FF6FF7400252E4612E006F0F8F806F086F868B905F0ADFC022005F0D4FE0646012005F0D0FE0546002005F0E0FEB3
:402F000004464FF6FE739C4205DD26B91DB9164B1B68002BE2DC1EB1144AD368013BD3601DB1124AD3680133D3604FF6FE739C4209DCC4EB04240E4B83FB0423E417C4EBB4
:402F400063140A4BDC60094BDB68FF2B02DDFF22064BDA60054BDB68002B80F2C5800022024BDA60C0E000BF58690208F46102081F85EB5150720910E04609106050091093
:402F8000604709108C470910F0600910D4470910D8470910B887091090460910F8460910E0470910E4470910E8470910818080801E23F2220421162007F06EFE4D4808F085
:402FC000AFFB082220214C4808F032FE4B4808F0A7FB22221E214A4808F02AFE32221421484808F025FE484808F09AFB8223E8226E21202007F050FE5A221C21434808F04E
:4030000017FE5A22DE21424808F012FE414C2269414901A80FF048F991226A2101A808F007FEAA23A4228621642007F035FE2269C82303FB02F3394A82FB03121A44DB1749
:40304000C3EBE212822320326E21202008F016FE01210846FFF758FA4FF6FF7400252E4612E006F035F805F0C3FF68B905F0EAFB022005F011FE0646012005F00DFE05462E
:40308000002005F01DFE04464FF6FE739C4205DD26B91DB9224B1B68002BE2DC1EB11D4A1369013B13611DB11A4A1369013313614FF6FE739C4209DCC4EB0424194B83FBA8
:4030C0000423E417C4EB6314124B1C61114B1B69FF2B02DDFF220F4B1A610E4B1B69002B02DA00220B4B1A6101210846FFF70CFA06B070BD50720910144709106050091091
:40310000604709108C470910F0600910E0470910E4470910F4610208E847091081808080586902081F85EB5110B5184B5A6910225A615B69164BB3F90040002C08DB63093F
:4031400004F01F0101228A406033124941F82320642003F08BFA104A1168104B19601368B3FA83F35B091360084B5A6910225A615B69002C09DB630904F01F04012202FA53
:4031800004F46033034A42F8234010BD000032407848091000E100E0586902085C6902082DE9F041ADF57A5D82B007460E4614461D464FF4FA58424600210DF5FA50083015
:4031C0000EF07EFB4246002102A80EF079FB002119E00DF5FA5E0EF1080E5EF82100CA1857F8222002444EF82120013300E00123082BEEDD0DF5FA52083252F82130DB0817
:4032000042F821300131B1F5F96FF0DB4FF4F96307E057F823100DF5FA52083242F823100133B3F5FA6FF4DB002300E00133B3F5FA6FFBDB00232B6023609C4640E04FF453
:40324000C87101FB0CF10B46864800270BE00DF5FA52083252F82320974200D21746904200D9104601330CF1010E4FF4C87202FB0EF29342EBDB16E00DF5FA53083353F8AD
:4032800021301B1A07EE903AF8EE677A3B1A07EE103AB8EE477AC7EE876A02AB03EB8103C3ED006A01319142E6DB2B683A1803EB52032B602368381A03EB50002060F446DA
:4032C000BCF1040FBBDD2A686749A1FB023292082A602368A1FB03239B082360012318E002AA02EB830292ED007AF6EE007AB4EEE77AF1EE10FA05D502AA02EB8302002137
:40330000116005E002AA02EB83024FF07E5111600133B3F5FA6FE3DBDDED027AFDEEE77A17EE900A17EE904A0123DFED506A00220192114625E002AA02EB8302D2ED007A75
:4033400014B9B7EE007A01E09FED487AB4EE677AF1EE10FA14D1002C0CBF012400240ED007EE903AF8EEE77A77EEA66ADDED017AF8EEE77A76EEE76A0131019300E00193CD
:403380000133B3F5FA6FD6DB0DF5FA53043393ED006AF7EE007AB4EE676AF1EE10FA0CD1012C0AD1DFED327A76EEA76ADDED017AF8EEE77A76EEE76A013107EE901AB8EE62
:4033C000E77AC6EE877AF6EE006A67EEA66A00231C4625E002AA02EB8302D2ED007A10B9B7EE007A01E09FED217AB4EE677AF1EE10FA14D100280CBF012000200CD01C1B9B
:4034000007EE904AF8EEE77AF4EEE76AF1EE10FA04DD01391C4602E01C4600E01C460133B3F5FA6FD6DBF7EE007AB4EE676AF1EE10FA0ED101280CD1C4F5F964073407EE7B
:40344000904AF8EEE77AF4EEE76AF1EE10FA00DD0139316007480EF0ADFE0DF57A5D02B0BDE8F081E0930400CDCCCCCC0000000000E0F944F4470910F0B407EE102A049A44
:40348000069C079DB3F5966F06D2B2F5966F03D901EB41077E002660B3F5966F06D9B2F5966F03D200EB40077E002660B3F5966F08D9B2F5966F05D9084400EB400041006E
:4034C00049102160B3F5966F04D2B2F5966F01D200212160B8EE477A07EE903AF8EE677AC7EE275ADDED057AB8EE677A07EE902AF8EE677A87EE276AC5EE866A9FED117A25
:4035000066EE877A26EEA77ADFED0F7A66EEA77A77EE277A9FED0D7A77EE877AFCEEE77A17EE903AC5ED007A642B01D900232B6023680BB12B6813B900232B602360F0BCD8
:40354000704700BF8F44CC3F7EA30AC23761E1422DE9F04180460E4617460A4C08256560702000F06FFD404600F06CFDA5606560722000F067FD3946304600F0C7FDA56020
:40358000BDE8F0810006324000B583B002AB03F8011D01221946FFF7DBFF03B05DF804FBF8B507460E46094C08256560702000F049FD384600F046FDA5606560732000F01D
:4035C00041FD304600F06EFDA560F8BD0006324038B50425084B5D60084C402363601023636000F0FFFC0822054B5A6065602023636000F0E1FC38BD0000324080023240E2
:403600000006324010B5434C6F22002120460EF057F9631C236704F14E03636704F12203A36700F0C9FC03E000F0D0FC032868D800F0AEFD0028F7D100F0CEFC0021722064
:40364000FFF7AEFF00F00F0002285CD14021FFF79BFF00210F20FFF7A3FF10F0800F54D002210B20FFF790FF08222B490120FFF76FFFD1210720FFF787FF02210820FFF7F9
:4036800083FFC2210920FFF77FFF03210420FFF77BFF01210320FFF777FF00210320FFF773FF0A2002F0E2FF002400E01C4601210520FFF769FF642002F0D8FF0321052055
:4036C000FFF762FF322002F0D1FF0F210520FFF75BFF322002F0CAFF00210F20FFF760FF10F0400F05D040210220FFF74DFF234603E0631C9BB2042CD8D1032B07D90520FB
:4037000010BD012010BD022010BD032010BD002010BD00BFD4810208FC47091010F1090F0EDB10F1040F0EDB05280FDD0A2810DD0F2811DD142811DD282811DC5A2210E059
:403740004FF496620DE04FF461720AE04FF4167207E04FF4A57204E0DC2202E0B42200E03C22034BA3F87C20A3F87E20704700BFD48102082DE9F84F06460D46047828B159
:40378000CA4B984205D10127002403E00127FF2400E0002700F010FC4FF00008D0E1C8EBC80AC8EB0A1ADFF80C930AEB090B6F22002158460EF084F80BF1010EBC4BC3F85D
:4037C00070E00AF148004844063058670AF1200AD14409F10209C3F878902022002397E10FB934780136032D00F29081DFE815F004006500C600270100EB030C14F0400F88
:4038000001D0C02100E080218CF8001049B214F0100F02D04FF0300A01E04FF0200A4AEA01018CF8001014F0040F02D04FF00C0A01E04FF0080A4AEA01018CF8001014F006
:40384000010F02D04FF0030A01E04FF0020A4AEA01018CF800100EEB020C14F0800F01D0032100E002218CF8001049B214F0200F02D04FF00C0A01E04FF0080A4AEA010141
:403880008CF8001014F0080F02D04FF0300A01E04FF0200A4AEA01018CF80010013A92B214F0020F02D06FF03F0A01E06FF07F0A4AEA01018CF8001028E100EB030C14F052
:4038C000400F01D0802100E040218CF8001049B214F0100F02D04FF0200A01E04FF0100A4AEA01018CF8001014F0040F02D04FF0080A01E04FF0040A4AEA01018CF80010A3
:4039000014F0010F02D04FF0020A01E04FF0010A4AEA01018CF800100EEB020C14F0800F01D0022100E001218CF8001049B214F0200F02D04FF0080A01E04FF0040A4AEA8A
:4039400001018CF8001014F0080F02D04FF0200A01E04FF0100A4AEA01018CF80010013A92B214F0020F02D06FF07F0A01E04FF0400A4AEA01018CF80010C7E000EB030C34
:4039800014F0400F01D0C02100E040218CF8001049B214F0100F02D04FF0300A01E04FF0100A4AEA01018CF8001014F0040F02D04FF00C0A01E04FF0040A4AEA01018CF89A
:4039C000001014F0010F02D04FF0030A01E04FF0010A4AEA01018CF800100EEB020C14F0800F01D0032100E001218CF8001049B214F0200F02D04FF00C0A01E04FF0040AE8
:403A00004AEA01018CF8001014F0080F02D04FF0300A01E04FF0100A4AEA01018CF80010013A92B214F0020F02D06FF03F0A01E04FF0400A4AEA01018CF8001066E000EBDF
:403A4000030C14F0400F01D0802100E0C0218CF8001049B214F0100F02D04FF0200A01E04FF0300A4AEA01018CF8001014F0040F02D04FF0080A01E04FF00C0A4AEA0101FA
:403A80008CF8001014F0010F02D04FF0020A01E04FF0030A4AEA01018CF800100EEB020C14F0800F08D0022107E000BFFFFF0F10D4810208C8FB030803218CF8001049B212
:403AC00014F0200F02D04FF0080A01E04FF00C0A4AEA01018CF8001014F0080F02D04FF0200A01E04FF0300A4AEA01018CF80010013A92B214F0020F02D06FF07F0A01E0C7
:403B00006FF03F0A4AEA01018CF8001001339BB2202B7FF665AEC8F1AF031BB299101A4A134003D5013B63F003030133174A02FA83F31B7A09F8013008F101081FFA88F851
:403B4000B8F1AF0F7FF62BAE00240FE0C4EBC403C4EB03136F220E4919440A20FFF7F8FC07210220FFF710FD0134A4B2AF2CEDD9084BB3F87C4000F029FA8442E4D800F031
:403B80002BFABDE8F88F00BF03000080FC470910C8FB0308D48102082DE9F04706460D4600F00AFAD2210920FFF7EEFC0024C6E0C4EBC407C4EB0717DFF8008207EB0809A0
:403BC0006F22002148460DF07BFE09F1010C784BC3F870C007F1480EC6440EF1060EC3F874E02037B84408F10208C3F87880202000218EE0771C32786E1C95F800900EEB2B
:403C0000010582EA090212F0400F04D019F0400F03D0802302E0402300E0C0232B705BB212F0100F05D019F0100F05D04FF0200A04E04FF0100A01E04FF0300A4AEA030337
:403C40002B7012F0040F05D019F0040F05D04FF0080A04E04FF0040A01E04FF00C0A4AEA03032B7012F0010F05D019F0010F05D04FF0020A04E04FF0010A01E04FF0030AC6
:403C80004AEA03032B700CEB000512F0800F04D019F0800F03D0022302E0012300E003232B705BB212F0200F05D019F0200F05D04FF0080A04E04FF0040A01E04FF00C0ABF
:403CC0004AEA03032B7012F0080F05D019F0080F05D04FF0200A04E04FF0100A01E04FF0300A4AEA03032B70013880B212F0020F05D019F0020F04D06FF07F0203E04022D1
:403D000001E06FF03F0213432B70013189B235463E4620297FF66EAFC4F1AF031BB29910244A134003D5013B63F003030133224A02FA83F31B7A08F801300134A4B2AF2C81
:403D40007FF636AF002421E0C4EBC405C4EB05151A4B1D446F2229460A20FFF7F9FB07210220FFF711FCC4F1AF0343F38D032B44002283F822206F2229460A20FFF7E8FBDE
:403D800007210220FFF700FC0134A4B2AF2CDBD9074BB3F87E4000F019F98442D2D800F01BF9C2210920FFF7EFFBBDE8F08700BFD481020803000080FC470910C8FB0308A9
:403DC000002307E01349086F5522C254496FCA5401339BB2202BF5D970B5002416E0A6080C4DAA6F04F003030B490B441B7A93556F2229460A20FFF7ABFB07210220FFF76A
:403E0000C3FBAB6F00229A550134A4B2AF2CE6D970BD00BFD4810208FC47091008B5002304E00021094AD1540133DBB2152BF8D900210420FFF7A8FB6F2204490A20FFF7C2
:403E400087FB07210220FFF79FFB08BDD481020838B50E4C1023A360142002F007FC00F0D9F808220A4B9A604023A3600425A5600A2002F0FBFB65600A2002F0F7FBA56064
:403E80000A2002F0F3FBFFF7BDFB38BD800232400006324038B5FFF793FFFFF7BFFF1E2002F0E4FB234C40256560322002F0DEFBA56000210F20FFF773FB10F0400F36D0ED
:403EC00000210B20FFF760FB01210320FFF75CFB03210520FFF758FB01210520FFF754FB322002F0C3FB80210420FFF74DFB00210520FFF749FB01210720FFF745FB1E2033
:403F000002F0B4FB00F094F8102363606560142002F0ACFB0822084B5A60042363602025A5601E2002F0A2FB6560002038BD042038BD00BF800232400006324010B5044677
:403F4000FFF746FB2046FFF7E9FB10BD08B510B1FFF77EFF01E0FFF79DFF08B9012008BD002008BDF8B507460E4614461D4613B10120FFF7EBFF24B931463846FFF70CFE6B
:403F800015E0631EDBB2012B11D800213846FFF7F1FB012C07D101213846FFF7EBFB02213046FFF7E7FB03213046FFF7E3FB15B10020FFF7CBFFF8BD08B50022024BC3F8C6
:403FC000082100F083F908BD00003840014BD3F808017047000038400122014B5A6070470000384010B5074C074A0849204601F017FE236843F0004323600822044B9A602B
:4040000010BD00BF000067401848040880480910000632400822044B9A60044A136843F000431360704700BF000632400000674008B50249024801F027FF08BD1848040834
:404040000000674008B50146154800F0C5FD144BD3F8C03F13F0040FF9D0114BD3F8042242F48032C3F80422D3F8042222F48032C3F80422D3F80422D3F8042342F4803203
:40408000C3F80423D3F8042322F48032C3F80423D3F804230422C3F8C02FD3F8C03F08BD0000674008B50146174800F095FD164BD3F8C03F13F0040FF9D0134BD3F840032F
:4040C000D3F8042242F48032C3F80422D3F8042222F48032C3F80422D3F80422D3F8042342F48032C3F80423D3F8042322F48032C3F80423D3F804230422C3F8C02FD3F896
:40410000C03FC0B208BD00BF0000674038B50C46054600B121B940F2E6511B4802F0CAFA22462946194800F09DFD184AD2F80832C3F30803D2F80822C2F3C032D342F4D1EE
:40414000124BD3F8042242F48032C3F80422D3F8042222F48032C3F80422D3F80422D3F8042342F48032C3F80423D3F8042322F48032C3F80423D3F804230422C3F8C02F83
:40418000D3F8C03F204638BD0848091000006740044B1B6913F0080F01D0012070470020704700BF8002324010B582B002AC012344F8043D00231A461449154807F08AFCAA
:4041C000214609F05CF909F0BBFD60B14FF48472B021002009F099FE4FF48472B021002009F0BFFE0BE0B0224FF48471002009F08CFEB0224FF48471002009F0B2FE0549F5
:40420000002009F099FE02B010BD00BF38B009106CB0091008620208012901D1002070474FF0FF30704700BF004870475482020810B504462146034800F0CEFC0028F9D0E4
:4042400010BD00BF00006640054BD3F80833C3F30803002BF8D0024BD3F84003704700BF0000664008B5012002F060FD014B186008BD00BF0499020808B500231A461946D0
:404280000248006802F07EFC08BD00BF0499020808B54FF0FF31024B186802F0CFFE08BD0499020808B503F0FDFB08BD704700BF08B54FF40041034806F03EFE024807F0AF
:4042C00081FA08BD08990208B0A8091008B5084B1B783BB9074A0021074802F05DFA0122034B1A70044B01229A609A6108BD00BF08190308B4480910000038401F4B9842DE
:404300002DD00CD840282ED003D8E8B1102828D02FE0802829D0B0F5807F28D029E0184B984228D006D8B0F1204F0DD0154B984212D01EE0144B98420AD00133984209D029
:40434000023B984215D101E0002070470F4870470F4870470F4870474FF4A0007047074870470D4870470D4870470D487047034870470C4870474FF4A40070470600520097
:40438000010000F0090000A0040000F0010052000200520003005200010050000200500005005200FF00520038B5124B1B6893F83130012B04D840F2C3110F4802F07AF9A5
:4043C0000C4B1D682A6AB5F8B03013442C46D5F8B420D358002B0BDB084B1868FFF78EFF6B6801229A6063689B68002BFBD138BD034838BD3C480408004909100C190308B8
:40440000020050001A4B186128B102230370FF23437000234380174B1B6893F850202AB300B583B0B3F93830ADF80030002301931149684602F0E0F8BDF90030002B08DB15
:40444000590903F01F03012202FA03F30B4A42F82130084B1B6893F8513023B102220849012000F0F3FA03B05DF804FB704700BF0C1903083C4804087963020800E100E0C3
:404480003164020808B50248FFF7BCFF08BD00BF201903082DE9F04104460D46174698469DF81860072903D9D921354802F002F937F00F0303D0DA21314802F0FBF8B8F133
:4044C000010F03D9DB212E4802F0F4F836F01F0303D0DC212A4802F0EDF822680123AB4022EA030308F0010808FA05F843EA08032360244B1B6893F87D100B59A8000F2272
:40450000824023EA020207F00F0303FA00F717430F51072D04D94FF422711B4802F0CAF836F01F0304D040F28921174802F0C2F8144B1B689A69A41AE4095B692401191945
:40454000032D0DD81959ED001F22AA4021EA020206F01F0606FA05F515431D51BDE8F081043D4A68ED001F23AB4022EA030306F01F0606FA05F51D434D60BDE8F08100BF86
:40458000404909103C4804088049091038B50B4B1B68D3F8B4301B58002B0DDA0D4604460B0C1B0423B140F2D521054802F082F8A9B26160002038BD024838BD3C48040865
:4045C000C049091001008A0038B50368002B01DA002300E0094B73B90D460446C2600B0C1B0423B140F2BB21054802F063F8A9B2A160002038BD014838BD00BF01008A00C3
:40460000C049091038B504460D4619B99921084802F050F8074B1B68D3F8B4301B59002B03DAE3682B60002038BD034838BD00BF004A09103C48040801008A00254B1B685D
:4046400093F8313083423AD900293AD00B6813F01F0F38D170B50D4604461E4B1B6893F83130984204D340F2C3111B4802F022F8184B1B68186AB3F8B03004FB0304174E78
:4046800034602A68D208002168680DF019F900212046FFF77BFF346825B940F293310E4802F008F82A4600212046FFF78DFF60B900210A4B1868FFF769FF40B970BD0848EF
:4046C00070470748704706487047064870BD054870BD00BF3C480408C04909102419030803018A0001018A0010B504461346B2B9A9B9124B1B6893F83130984204D340F24C
:40470000C3110F4801F0D6FF0C4B1B681A6AB3F8B03004FB03240B4B1C60002010BD43B149B1084A51609360111D2046FFF786FF10BD054810BD044810BD00BF3C48040878
:40474000C04909102419030803018A002DE9F0411B4B1B68DC68236883422CD90D464609A0EB4610012303FA00F819B902F00DF8074600E00027124B18680368002B01DA71
:40478000002300E00F4B83B9626852F8263018EA030F05D023EA080342F82630002400E0094C0021FFF7F2FE00E0084C25B9384601F0EFFF00E0064C2046BDE8F08100BF29
:4047C0002419030801008A00020188000301880004018A000B4B1B68DB681A6882420CD94109A0EB4110012202FA00F05B6853F82130184203D004487047044870470448E6
:40480000704700BF241903080101880004018A0000018800024B1B680BB9014B18607047301903082DE9F8430446884691461D46089F2C4B1B681BB9B5212B4801F03AFF2A
:40484000284B1B682C2000FB04F01C18EEB21E50C5F3072363602D0CA560244B1B6893F831309E4204D340F2C311214801F022FF1E4B1B68196AB3F8B02006FB0216266142
:40488000666893F832309E4204D340F2DF11184801F010FF154B1B681D6A803605EB46156561A668330C1B0423B14FF4FF71104801F000FF330C1B0423B140F2FF110C48D0
:4048C00001F0F8FEB3B243EA0646AE60C4F81C90C4F820800023A36117B1B7F90030A381BDE8F88330190308404A09103C480408C0490910F0B58FB0044618B95221274884
:4049000001F0D8FEA369072B03D95621234801F0D1FEE36A1BB95821204801F0CBFE236B1BB959211D4801F0C5FE07AD04F114060FCE0FC537682F6002AD26460FCE0FC5D5
:4049400033682B60164B1B68B3F93620079B1344ADF83030089B0D93A26AE16A0CAD00953B460A98FFF75EFF00210091069B0A460598FFF757FF216B284601F03DFEBDF967
:404980003030002B08DB590903F01F03012202FA03F3044A42F821300FB0F0BD404A09103C48040800E100E0F8B506460F461D4614461AB9FD211F4801F07CFE1E4B1B680A
:4049C0001BB9FE211B4801F075FE1B4B1B682C2101FB063001FB07314B68012202FA03F31B04466802FA06F60269EAB18F69EFB91268002A01DA002200E0104AC2B922882E
:404A0000134323600369DC6001238B614D620469330C1B0423B140F2BB21094801F04AFEB2B2A2600020F8BD0648F8BD0648F8BD0548F8BD404A09103019030801008A003A
:404A4000C049091004028A0007028A00F8B505460F4616460E4B1B6823B94FF4AF710D4801F028FE0A4B1B682C2404FB0534236A23B94FF4B171074801F01CFEE369B342F8
:404A800004D9236A43F826700020F8BD0248F8BD30190308404A09100A028A0070B582B000230193044620B940F2D111284801F001FE236923B94FF4E971254801F0FAFD5B
:404AC000636923B940F2D311214801F0F3FD236A23B94FF4EA711E4801F0ECFD6369DD682A0C20D012041A601B682069194B1B68D3F8B430C358002B15DA01A9FFF782FDAA
:404B000060B9019803681E0CDBB2E269934206D2226A52F8233013B1984700E0002631462069FFF733FDADB275B16369ADB21D601B68636A1BB198470023636202E0A36AB2
:404B400003B198470023A36163691B6802B070BD404A09103C48040810B50446074B1B6823B940F2B111064801F0A4FD034B1B682C2000FB0430FFF791FF10BD3019030893
:404B8000404A091010B4D0F8003303F00F03072B06D900230DE0D0F84043CC54013300E000239342F7D306E0D0F8404321F8134001339342F8D35DF8044B704710B5144641
:404BC000D0F80833C3F308039A4200D31C462246FFF7D8FF204610BD036813F4006F01D0802200E04022D0F80832C3F30803934203D0C0F84012012070470020704700BFFF
:404C000010B4D0F8003203F00F03072B06D900230DE0CC5CC0F84042013300E000239342F7D306E031F81340C0F8404201339342F8D35DF8044B704710B51446036813F4FC
:404C4000006F01D0802200E04022D0F80832C3F30803D31AA34200D81C462246FFF7D0FF204610BDF8B507460D461446D0F8006206F00F060BE0224629463846FFF7DCFFF4
:404C8000072E01D9430000E003461D44241A002CF1D1F8BD02E0C0F84012013A002AFAD1704700BF10B51446036813F4006F01D0802200E04022D0F80832C3F30803D31A40
:404CC000A34200D81C462246FFF7E4FF204610BD10B54A6841F201039A4231D1D0F80833C3F30803B3B10B6A43F040030B620B7873B1D0F8043343F48033C0F80433D0F8CE
:404D0000043323F48033C0F80433D0F8043301E0D0F840330B6A43F020030B620B6A23F010030B62036E23F4204303660023C0F8C83F0123C0F8C03FD0F8C03F202221E00D
:404D4000D0F80832C3F30802D0F80832C3F3C03313440A6BD21A4A630A6A12F0080F05D1CA6A1A44CA628A6AD31A8B620B6A43F004030B620B6A23F001030B620023C0F882
:404D8000883F1022D0F84C4F40F201131C420DD0036823F00043036000238366C366036843F000430360036842F040024FF080534B604B6C0BB11046984710BDD0F80C3F55
:404DC00013F0020F1DD00222C0F8002FD0F8002FD0F8002F12F0040F02D04FF4001001E04FF480108A6802438A604A68B2F5B81F07D00A7B12B14FF4C01201E04FF4B01260
:404E00004A6013F4807F03D08A6842F400028A6013F0010F03D08A6842F480028A6040F21112134202D04FF4C0134B60704700BF0023C0F8C83FC0F8883F836E23B140F256
:404E40001713C0F8083F704740F21313C0F8083F182383664FF4B8134B60704738B5D0F80C4F036E23F4807303660023C0F8C83FC0F8883FC0F8083F40F21713C0F8003FC0
:404E8000D0F8003F8B6823F480338B604B7B13B18B69CB610BE08D69D0F80822C2F30802D0F80832C3F3C0331344EB1ACB6140F201131C421BD0036E9B0F032B05D114F41E
:404EC000827F14BF0123002300E001235BB1036823F00043036000238366C366036843F00043036003684FF080534B601BE00B7893B1D0F8043343F48033C0F80433D0F860
:404F0000043323F48033C0F80433D0F804330123C0F8C03FD0F8C03F0B7B0BB10B4B01E04FF080534B604A6C72B14B7B13B14FF4802001E04FF400308B6813F0F87301D0DE
:404F40004FF400231843904738BD00BF0000101070B505460C4691F8243013F0FF0F0ED1CB6A63B94B6C0BB108209847E36AB3FA83F35B0984F824300123C5F8883F94F893
:404F8000243013F0FF0F16D063783BB12B6813F4006F01D0802202E0402200E00122FF212846FFF77FFE236B18442063236A43F00803236270BDE26A012A11D963780BB139
:404FC000013A00E00122A16A2846FFF735FE236B03442363E36A1B1AE362A36A1844A062D5F80832C3F30803802B23D0E36A012B20D101F0CAFBA36A1B78C5F84032402689
:40500000C5F8806FD5F8803F01F0C3FB236B013323630023E362A36A0133A362C5F8886F63783BB1236A43F002032362636C0BB10420984770BD00BF38B54B68B3F5A81F45
:4050400003D14FF4C0134B6038BD4B68B3F5A01F4DD10C4605464A69012A11D94B780BB1013A00E0012221692846FFF7E5FDA3690344A36163691B1A636123690344236109
:40508000D5F80832C3F30803802B14D06369012B11D101F07AFB23691B78C5F840324023C5F8803FD5F8803F01F073FBA3690133A361002363616369CBB9237B33B14023E1
:4050C000C5F8883F4FF4A813636005E00023C5F8883F4FF4B0136360637843B1A36843F40033A360636C13B14FF48030984738BD70B504460D468A6C82B3036813F4803F57
:4051000006D0D0F84C3F13F0400F03D0022002E0002000E00020236E13F4006F06D1D4F84C3F13F0800300D001231843C0B190470123C4F8C03FD4F8C03F024648B9102385
:40514000C4F8403FD4F8403F40F2D113C4F8483F07E040F2C113C4F8483F02E0002200E00022D4F8043243F48033C4F80432D4F8043223F48033C4F80432D4F804320AB9B9
:40518000012300E00223E366002A59D1666E06F010066B6C23B10EB1012000E0022098477EB141F202036B602B6A43F001032B626B6B2B63002385F824300123C4F8883F53
:4051C00070BD41F201036B602B6A43F010032B620123C4F8C83F2B78BBB1EB6BBBB1236E43F400532366ED6B802D05D9A5F18003802B0ED8813D0DE0013D236E43F400433B
:4052000023660023C4F8C83F04E0002502E0002500E03F25236813F4006F01D0802300E040239D4204D34FF42071064801F042FAD4F8043323F0FF03EDB21D43C4F80453C4
:4052400070BD00BF804A091038B54B68B3F5881F03D0B3F5901F1AD038BD0B69D0F840231A708B6901338B614B69013B4B612BB10B6901330B610423836638BD0B7B13B14F
:405280004FF4C01301E04FF4B0134B6038BD0C4605464A690969FFF791FCA3690344A36163691B1A6361226910442061012B24D82B6E23F480732B666369012B16D12B68C2
:4052C00013F4006F01D0802300E0402323B94FF42071184801F0EEF9D5F8043323F0FF03C5F804334FF48813636038BD0023C5F8C83F4FF4B013636038BD402B01D89C1E53
:4053000000E03F242B6813F4006F01D0802300E040239C4204D34FF42071064801F0CAF9D5F8043323F0FF02E3B21343C5F8043338BD00BF804A091038B5CB6B002B50D0E3
:405340000B78002B3FD00C460546D0F80423D2B20132896BFFF732FC236C03442364E36B1B1AE363A26B1044A063802B06D9A3F18002802A0FD8A3F181040DE02B6E43F484
:4053800000432B66E36B0BB15C1E00E000240023C5F8C83F00E03F242B6813F4006F01D0802300E040239C4204D34FF42071104801F080F9D5F8043323F0FF02E3B2134359
:4053C000C5F8043338BD0123C3668A6B0B6CD0F84003D0540B6C01330B64CB6B013BCB6338BD0223C3660023C0F8C83F38BD00BF804A0910F8B50B78012B03D00C7A1CB9DC
:40540000002702E0002700E00127002800F0A780002900F0A680002A00F0A58016460C460546013BDBB2022B03D94F214F4801F041F9637803B163791BB150214B4801F04E
:4054400039F994F90330002B03DA5121474801F031F9237913F0010F03D05221434801F029F92369102B03D95321404801F022F9E368102B03D954213C4801F01BF963799C
:4054800013B14FF4803100E00021E27912B14FF4807300E000230B4343F400632B60A37913B94FF4006300E000232269013A02F00F021A43E368013B1B01DBB21343227892
:4054C00043EA82732B6617B140F2073301E040F20713C5F800330FB1254B00E0254B2B6763780BB17F2300E00023C5F80433E3785B00DBB2227943EA0243C5F810331E4BAD
:40550000C5F80032A3780BB1402300E00123C5F804320023C5F8C83EC5F8883EC5F8C83FC5F8883FC5F8083F2378022B02D040F2D11300E00023C5F8483F63783370A37806
:4055400073704FF0805373600020B060B06130623064F0633063F0627064B064F8BD0748F8BD0648F8BD0548F8BD00BFC44A091003002A0013102A00070101000120AA00EA
:4055800038B505460C4621B940F2C321194801F091F82B6E9B0F012B17D1174B2344174A93421ED9A4F5BD13A3F5D66302F5611202F56162934216D9A4F57104A4F5334409
:4055C0000F4B9C4211D80F4838BD84B1286EC0F303102B6E03F00F0318440230B4FBF0F038BD094838BD094838BD002038BD002038BD00BFC44A091020AD88FF405B7300FF
:4056000040555C0440420F00801A0600A08601002DE9F84307468846914622B940F21221624801F047F808F1FF34614B9C4204D940F213215D4801F03DF83B6E9B0F012B7D
:405640000DD149463846FFF79BFF0546D7F8003323F40073C7F80033564B3B67A2E0544B9C421FD8544B984509D8A9F5BD13A3F5D663524A934218D90021012328E0504BC7
:40568000984507D84F4B4B444F4A934213D9002101231DE04D4B4B444D4A934212D90021012315E00021012312E0002141F288352E460B460CE000214FF461754FF4C8660D
:4056C0000B4605E001214FF4BE754FF41B760023002B66D13F4BB3FBF9F3B6FBF3F404FB03F2964200D90134102C00D910240F2C8CBF00220122B5FBF3F606FB03F39D426A
:4057000000D90136102E00D91026A519B9FBF5F50FE022B10F2C09D80134002206E00F2E04D801360F2C8CBF00220122A519B9FBF5F5454502D9A3191F2BEAD941B1D7F82F
:40574000003343F40073C7F80033234B3B6707E0D7F8003323F40073C7F80033154B3B67E31F092B04D940F283511C4800F0A2FF3B6E23F0F003013C2401E4B223433B6627
:40578000731F0B2B04D94FF4B461144800F092FF3B6E23F00F03013E06F00F061E433E6600E000252846BDE8F88300BFC44A09103F420F0013102A00A0860100502D1900DF
:4057C000801A060020AD88FFA0432100807E25FFC02BAF0000CA9A3B03002A00044B091070B5044615460E4621B940F2D341554800F060FF73680BB1B36823B940F2D441C2
:40580000504800F057FF96F90030002B04DA40F2D5414C4800F04EFF0023C4F8483F6B6813F0805F00F0888033785B00DBB243F001034FF48032AA6072682A61B2686A6183
:405840000022AA61EA61327B2A7301226A7340F21712C4F8002FD4F8002FD4F8042242F48032C4F80422D4F8042222F48032C4F80422D4F804226A68B2F1805F04D1C4F8F6
:4058800040320223A36609E0626E12F0200F01D0092200E00122A266C4F840322B7843B32B7B33BB6B69012B23D9236E43F4807323666E69802E01D8023E00E03F2623684E
:4058C00013F4006F01D0802300E040239E4204D34FF420711C4800F0EDFED4F8043323F0FF03F6B21E43C4F804634FF490136B6015E0236813F4006F01D0802300E040230F
:4059000023B94FF42071104800F0D4FED4F8043323F0FF03C4F804334FF488136B6000F034FF0123C4F8C83F40F21313C4F8083F00F02FFF002000E0044840F2D113C4F848
:40594000483F70BDC44A0910804A09100220AA00F8B5044615460E4621B940F2B7514B4800F0A8FEB36833B1736823B94FF4B761464800F09FFE96F90030002B04DA40F294
:40598000B951424800F096FE0023C4F8483F6B6813F0805F73D037787F00FFB24FF48033AB6073682B61B3686B610023AB61EB61327B2A736B7340F21713C4F8003FD4F87D
:4059C000003FD4F8043243F48033C4F80432D4F8043223F48033C4F80432D4F804326B68B3F1805F09D1C4F840724023C4F8803FD4F8803F0223A36617E0636E13F0200F9B
:405A000001D0092300E00123A3666B695BB900F0BCFEC4F840724023C4F8803FD4F8803F00F0B7FE01E0C4F840724FF4A0136B606B780BB1402500E00125236813F4006F33
:405A400001D0802300E040239D4204D34FF43A710F4800F02FFED4F8043223F0FF032B43C4F8043200F091FE0123C4F8883F40F21313C4F8083F00F08CFE002000E0054898
:405A800040F2D113C4F8483FF8BD00BFC44A0910804A09100220AA0070B504460E46D0F88C3E13F0010F07D04FF480534B600123C0F8803ED0F8803ED4F84C5F40F2011366
:405AC0001D420FD0336A15F4807F02D04FF4807200E08022134333620023C4F8C83F45F010050EE015F0100F0BD0D4F80833C3F3080333B1F36B23B10123C4F8C43FC4F8B5
:405B0000C83FD4F8CC3F13F0010F08D031462046FFF712FC0123C4F8C03FD4F8C03F15F0100F0AD031462046FFF7D2F81023C4F8403FD4F8403FD4F84C5F15F0C00F0DD095
:405B400031462046FFF7D4FA0123C4F8803ED4F8803EC023C4F8403FD4F8403FD4F88C3F13F0410F08D031462046FFF7F1F90123C4F8803FD4F8803F70BD00BF70B50646ED
:405B80000D46D0F8004E14F0020F0AD0836E2BB1002383668B6843F080738B604FF4C0136B6014F0010F05D029463046FFF706F924F0040414F0080F08D029463046FFF722
:405BC00043FB0123C6F8C03FD6F8C03F14F0040F08D029463046FFF72FFA0123C6F8803FD6F8803F6B68B3F5C01F03D129463046FFF734F96B68B3F5B01F03D1294630465F
:405C0000FFF716F970BD00BF08B54B6813F4801F02D0FFF7B3FF08BDFFF73EFF08BD00BF002800F02481F8B50546002900F0218117460C460B78012B03D93F218F4800F096
:405C400039FD6378012B07D9052B05D0022B03D040218A4800F02EFDA378032B03D94121864800F027FD2378012B07D16368023B0E2B03D94321814800F01CFDA36933F02A
:405C80000F0303D044217D4800F014FDA368043B0C2B03D94521794800F00CFDE368043B0C2B03D94621754800F004FD6378022B07D0A268E3689A4203D047216F4800F0B3
:405CC000F9FC636A33F06D0303D049216B4800F0F1FCE36A33F0730303D04A21674800F0E9FC236B33F4206303D04B21634800F0E1FC6378A678052B07D8DFE803F0060320
:405D000005060603022600E00026A368082B04D8E368082B03D9002302E0002300E0012313B14FF4006200E00022237F13B14FF4807300E000231A436368013B03F00F030E
:405D4000134343F080732B60226A2B6813F4006F01D0802300E040239A4203D35821474800F0A8FCA26A2B6813F4006F01D0802300E040239A4203D35921404800F09AFC7C
:405D8000237D0BB9012100E000216278052A01D1022300E000230B43E17C09B1102100E000210B43617C09B1202100E000210B432178012902D14FF0004100E000210B43E8
:405DC000B60006F00C063343A169090201F470610B43120602F0407213432B62237C13B14FF4807200E00022A37C13B14FF4007300E000231A43A368013B03F00F03134372
:405E0000C5F8003394F82030C5F80433237C13B14FF4807200E00022E368013B03F00F031343C5F8003294F82830C5F80432636A03F06D03C5F8C83FE36A03F07303C5F8F9
:405E4000883F236B03F40073C5F8003F236B03F40063C5F8403F0023C5F8C83E5FB118463B60BB61FB60FB61054B3B62F8BD054870470448F8BD0020F8BD00BF444B09109E
:405E8000EFCDAB000140AA00036823F00043036019B100220A60CA608A61036A002B04DB0023C0F8C83FC0F8883F70472DE9F84305460C46036813F4006F02D04FF080080A
:405EC00001E04FF04008D5F8007207F00F07A26A012A19D9D4F82490E262561EB9F1000F00D026B940F27351254800F0E3FB324649462846FEF7A0FEA36A1B1AA362072F6F
:405F000000D9400048446062D5F80832C3F30803984533D0A36A012B30D10023A362072F02D8636A1E7801E0636A1E8800F02DFCC5F840624FF40073C5F8803FD5F8803FF3
:405F400000F027FCD5F8883F23F4007222F0010242F4007623F4EE6323F0030323B140F22A41084800F0A6FBC5F8886F236843F002032360236B0BB101209847BDE8F883F9
:405F8000844B0910804A09102DE9F04105460C46036813F4006F01D0802600E040267608A769D4F81C8017B1B8F1000F04D14FF49961314800F07EFB424639462846FEF7C0
:405FC000FDFD236A03442362E3691B1AE36173BBA368FBB1E3689E4201D8013E00E05E1E2B6813F4006F01D0802300E040239E4204D34FF42071214800F05CFBD5F8043306
:4060000023F0FF03F6B21E43C5F804630123C5F8C83F02E00023C5F8C83F636823F001036360236B33B304209847BDE8F081A169D5F8002302F00F02072A00D940000844A8
:40604000A0619E4216D95C1E2B6813F4006F01D0802300E040239C4204D34FF42071074800F028FBD5F8043323F0FF02E3B21343C5F80433BDE8F081844B0910804A091053
:40608000002800F0A48170B50546002900F0A18116460C460B78022B03D93F21A24800F009FB637B023BDBB2062B03D940219E4800F000FBA37B3BB1022B05D0032B03D08C
:4060C0004121994800F0F6FA94F82130012B03D94221954800F0EEFA94F82830012B03D94321914800F0E6FA2378012B06D86368083B082B94BF0023012307E0A37F2BB122
:406100006368013B062B94BF002301231BB14521854800F0CFFAA368053B042B03D94621814800F0C7FA6369FF2B03D947217E4800F0C0FAA369FF2B03D948217A4800F0C7
:40614000B9FAA37C6BB1237833B9A368092B05D1A37B2BB1012304E0012302E0012300E000231BB14A21704800F0A4FA636B23F4366323F00D031BB14C216B4800F09AFAD8
:40618000E36B23F4EE6323F003031BB14D21664800F090FA2378022B01D1A37F13B16268013A00E00022237F13B14FF4803100E00021A368082B02D84FF4006300E000230B
:4061C0000B4302F00F02134343F000732B60226B2B6813F4006F01D0802300E040239A4203D36221504800F065FAA26B2B6813F4006F01D0802300E040239A4203D363215B
:40620000494800F057FA626A2B6813F4006F01D0802300E040239A4203D36421424800F049FA23781B0603F040732B64637F0BB1402200E00022A37C13B14FF4806300E030
:4062400000231343227C12B14FF4807200E000221343627C12B14FF4007200E000221A43E36A013B1B0403F470231343627B013A02F007021343A27B120102F03002134367
:40628000AB64237B13B14FF4807200E00022E37B23B92378022B03D1012302E0012300E0002313B14FF4007300E000231A43A368013B03F00F031343C5F80033227DA3691C
:4062C0001B0403F47F031343C5F81033E26AD5F8003303F00F0303339A4201D3102A03D97A21114800F0E6F9E37F23B12378012B03D0002302E0002300E0012313B14FF49D
:40630000807200E00022637B013B03F007031A43A37B1B0103F0300313436B64237B2BB14FF4807203E000BFC44B09100022A368013B03F00F0313432278012A02D14FF458
:40634000803200E000221343C5F8003294F83030C5F8043394F8203013B14FF0007200E0002294F82130012B02D14FF0807300E00023134394F82820012A02D14FF48032C3
:4063800000E00022134394F8242013432B6594F83830C5F80432636B23F4926323F002031B051B0DC5F8C83FE36B23F08C035B055B0DC5F8883F76B1002070603060B060F7
:4063C000F0603062F0623063044B736370BD04487047034870BD002070BD00BFEFCDAB000160AA000B694A69934202D34869181A7047CA694869101A184470472DE9F041B8
:4064000007460D46036813F4006F02D04FF0800801E04FF040084FEA5808D7F80863C6F308062C6926E00134EB689C4200D100246B699C420FD12B6B0BB1082098476B698B
:406440009C4208D10023C7F8C83F0CB1013C13E0EC68013C10E0D7F84023D7F8003303F00F03072B02D8AB681A5502E0AB6823F81420013E002ED6D12C61EC682946384621
:40648000FFF7B0FF201A804519D908B1441E00E000243B6813F4006F01D0802300E040239C4204D34FF42071064800F003F9D7F8040320F0FF03E0B21843C7F80403BDE854
:4064C000F08100BF804A091038B504460D46D0F8003E13F0080F35D0D0F8CC3F13F448730AD04A681A434A60C0F8C03FD0F8C03F0B6B0BB110209847D4F8CC3F13F4006FA6
:4065000009D06B6843F400636B604FF40063C4F8C03FD4F8C03FD4F8CC3F13F0010F11D0EB6923B129462046FFF72EFD05E0AB681BB129462046FFF761FF0123C4F8C03F67
:40654000D4F8C03FD4F8003E13F0040F2ED0D4F88C3F13F4A0630AD02A681A432A60C4F8803FD4F8803F2B6B0BB120209847D4F88C3F13F0010F08D029462046FFF796FCE8
:406580000123C4F8803FD4F8803FD4F88C3F13F4007F0BD00022C4F8882F2B6823F001032B60EA622B6B0BB10220984738BD00BF38B50D4B9A680D4B9A420FD10D460446A4
:4065C00021B940F237110A4800F074F804F11003064A52F8230042F8235038BD1030054B53F8200038BD00BF00ED00E000400208044C09100000081048B338B504460D4666
:406600004368072B03D93221134800F053F8B4F900306268002B08DB5201D2B203F1604303F5614383F8002305E003F00F035201D2B20A49CA540A4B9A680A4B9A4208D1C8
:406640002946B4F90000FFF7B3FF002038BD06487047002038BD00BF044C091014ED00E000ED00E0004002080100560010B5044605E0084B186800F07FF8A4F50044B4F5FC
:40668000004FF6D8044B186800FB04F000F074F810BD00BFF0610208EC61020808B5034B1B7800FB03F000F067F808BDE861020801BEFEE738B50D46044C18220146204657
:4066C0000BF01EFEA5610020FFF7F2FFA8680208FEE700BF08B50268254BDA6142681A6282685A62C2689A620269DA6242691A6382695A63C2699A631E4A916AD963D16A7B
:406700001964516A5964516B9964926BDA64F1EE103A13F0900F27D0026A154B1A65426A5A65826A9A65C26ADA65026B1A66426B5A66826B9A66C26BDA66026C1A67426C51
:406740005A67826C9A67C26CDA67026DC3F88020426DC3F88420826DC3F88820C26DC3F88C20026EC3F89020FFF7B2FF08BD00BFA868020800ED00E00230800803D001308F
:406780000238FCD100BF00BF7047EFF3108072B6704780F31088704700287DD00346002A7CD070B45068000280B29568AD0405F480252843D468240404F4403404431069FF
:4067C000000600F0E0602043147F0CB1012400E0002420430C1DA4011851D06828B903EB81100024C0F808410CE0012805D1146803EB8110C0F8084104E003EB81100124C1
:40680000C0F80841106938B9546903EB8110C0F80C419469C0F81041146803EB8110C0F81441906CB0F1FF3F17D0946A04F00F04166B360206F470663443956B2D0405F4AD
:4068400070252543146C2403A4B22C430001C0B2204303EB8114C4F82001506A00F00300D66A360106F030063043556B2D0205F440752843D46BA401E4B20443506C8000B1
:4068800000F00C00204303EB8113C3F82401126AC3F83821002003E0024870470148704770BC70470100B600014B1860704700BF3C48040800F1080343604FF0FF3282602E
:4068C000C360036100230360704700BF00230361704700BF43684B609A688A609A68516099600861036801330360704730B40D68B5F1FF3F01D1026907E000F1080200E0CC
:406900001A4653681C68A542FAD253684B6099608A605160086103680133036030BC704703694268816891608268416851605A68904201D182685A60002202611A68013A7D
:406940001A601868704700BF436A23B1036B1868C0F1070070470020704700BF10B5044601F0F8FBA26BE36B9A4201D1012400E0002401F011FC204610BD00BF10B504460F
:4069800001F0E8FBA36B0BB9012400E0002401F003FC204610BD00BF70B504461646856B026C3AB9036843BB406801F0E5F80023636029E06EB980680AF05CFFA268236C3F
:4069C0001344A3606268934219D32368A36000201AE0C0680AF04EFF236C5B42E2681A44E26021688A4202D262681344E360022E07D145B1013D002006E0002004E0002092
:406A000002E0002000E000200135A56370BD00BF026C72B110B50346C4681444C4604068844201D31868D8600846D9680AF022FF10BD704738B5054601F08CFB95F84540F9
:406A400064B20AE06B6A53B105F1240000F094FF08B101F01FF8013C64B2002CF2DCFF2385F8453001F098FB01F074FB95F8444064B20AE02B6953B105F1100000F07CFF80
:406A800008B101F007F8013C64B2002CF2DCFF2385F8443001F080FB38BD00BF38B540B94FF03F0383F31188BFF36F8FBFF34F8FFEE704460D4601F04DFB2168E26B236CD7
:406AC00003FB021060600020A063A160013A02FB0313E360FF2384F8443084F845307DB92369ABB104F1100000F046FF80B14FF08052094B1A60BFF34F8FBFF36F8F07E07F
:406B000004F11000FFF7D6FE04F12400FFF7D2FE01F042FB012038BD04ED00E010B5029B0C4609B91B6000E01A60D8631C6401211846FFF7B3FF10BD40B94FF03F0383F3A7
:406B40001188BFF36F8FBFF34F8FFEE7F0B583B0034611B101FB00F000E000201D4617460C46483001F090FC064638B100903B4600F1480221462846FFF7D0FF304603B03D
:406B8000F0BD00BFF0B585B0019240B94FF03F0383F31188BFF36F8FBFF34F8FFEE7044619B9026C1AB9012202E0012200E0002242B94FF03F0383F31188BFF36F8FBFF3DA
:406BC0004F8FFEE7022B03D1E26B012A02D102E0012200E0002242B94FF03F0383F31188BFF36F8FBFF34F8FFEE71D460E4600F05FFF18B9019B1BB9012302E0012300E07F
:406C0000002343B94FF03F0383F31188BFF36F8FBFF34F8FFEE7002701F09CFAA26BE36B9A4201D3022D21D12A4631462046FFF7B3FE636A6BB104F1240000F09DFE88B1EC
:406C40004FF08052324B1A60BFF34F8FBFF36F8F08E038B14FF080522D4B1A60BFF34F8FBFF36F8F01F098FA01204EE0019B1BB901F092FA002048E01FB902A800F0C0FE81
:406C8000012701F089FA00F0ADFC01F063FA94F844305BB2B3F1FF3F02D1002384F8443094F845305BB2B3F1FF3F02D1002384F8453001F071FA01A902A800F0ABFEF0B9B3
:406CC0002046FFF74BFEA0B1019904F1100000F01BFE2046FFF7AEFE00F012FD00289BD14FF080520A4B1A60BFF34F8FBFF36F8F92E72046FFF79EFE00F002FD8CE7204602
:406D0000FFF798FE00F0FCFC002005B0F0BD00BF04ED00E048B108B5002141600160C1600B460A46FFF72EFF08BD704710B5024600210120FFF700FF0446FFF7EBFF2046BF
:406D400010BD00BF2DE9F84340B94FF03F0383F31188BFF36F8FBFF34F8FFEE7044619B9006C18B9012002E0012000E0002040B94FF03F0383F31188BFF36F8FBFF34F8F42
:406D8000FEE7022B03D1E06B012802D102E0012000E0002040B94FF03F0383F31188BFF36F8FBFF34F8FFEE71F469046894601F0D5FAEFF311864FF03F0383F31188BFF370
:406DC0006F8FBFF34F8FA26BE36B9A4201D3022F1ED194F845506DB23A4649462046FFF7DBFDB5F1FF3F0DD1636A9BB104F1240000F0C2FD80B1B8F1000F0FD00120C8F80B
:406E000000000CE06B1C5BB284F84530012006E0002004E0012002E0012000E0012086F31188BDE8F88300BF40B94FF03F0383F31188BFF36F8FBFF34F8FFEE770B50446A3
:406E4000036C43B14FF03F0383F31188BFF36F8FBFF34F8FFEE703681BB943681BB9012302E0012300E0002343B94FF03F0383F31188BFF36F8FBFF34F8FFEE70E4601F019
:406E80006DFAEFF311854FF03F0383F31188BFF36F8FBFF34F8FA26BE36B9A4218D294F845305BB20132A263B3F1FF3F0AD1636A83B104F1240000F05FFD68B176B1012038
:406EC00030600CE001335BB284F84530012006E0002004E0012002E0012000E0012085F3118870BDF0B585B0019240B94FF03F0383F31188BFF36F8FBFF34F8FFEE7044611
:406F000019B9036C1BB9012302E0012300E0002343B94FF03F0383F31188BFF36F8FBFF34F8FFEE70E4600F0C3FD18B9019B1BB9012302E0012300E0002343B94FF03F036F
:406F400083F31188BFF36F8FBFF34F8FFEE7002701F000F9A56BC5B131462046FFF758FD013DA563236963B104F1100000F004FD38B14FF08052304B1A60BFF34F8FBFF311
:406F80006F8F01F009F9012053E0019B1BB901F003F900204DE01FB902A800F031FD012701F0FAF800F01EFB01F0D4F894F844305BB2B3F1FF3F02D1002384F8443094F810
:406FC00045305BB2B3F1FF3F02D1002384F8453001F0E2F801A902A800F01CFDF0B92046FFF7CCFCA0B1019904F1240000F08CFC2046FFF71FFD00F083FB0028A8D14FF00F
:4070000080520D4B1A60BFF34F8FBFF36F8F9FE72046FFF70FFD00F073FB99E72046FFF709FD00F06DFB2046FFF7A8FC00288FD0002005B0F0BD00BF04ED00E070B584B0F4
:40704000019140B94FF03F0383F31188BFF36F8FBFF34F8FFEE70446036C43B14FF03F0383F31188BFF36F8FBFF34F8FFEE700F01FFD18B9019B1BB9012302E0012300E017
:40708000002343B94FF03F0383F31188BFF36F8FBFF34F8FFEE700252E4601F05BF8A36BCBB1013BA363236813B900F005FE6060236963B104F1100000F05EFC38B14FF032
:4070C0008052414B1A60BFF34F8FBFF36F8F01F063F8012076E0019B6BB945B14FF03F0383F31188BFF36F8FBFF34F8FFEE701F053F8002066E01EB902A800F081FC012693
:4071000001F04AF800F06EFA01F024F894F844305BB2B3F1FF3F02D1002384F8443094F845305BB2B3F1FF3F02D1002384F8453001F032F801A902A800F06CFC40BB2046E3
:40714000FFF71CFCF0B123683BB901F003F8606800F0BEFC054601F01FF8019904F1240000F0D2FB2046FFF765FC00F0C9FA002893D14FF08052144B1A60BFF34F8FBFF398
:407180006F8F8AE72046FFF755FC00F0B9FA84E72046FFF74FFC00F0B3FA2046FFF7EEFB00283FF47AAF65B100F0D4FF2046FFF7CBFB0146606800F029FD00F0EDFF00207C
:4071C00000E0002004B070BD04ED00E000230BE0074A52F8332032B9054A42F8331002EBC303586070470133092BF1D9704700BF4048040870B504460D46164600F0AAFF15
:4072000094F844305BB2B3F1FF3F02D1002384F8443094F845305BB2B3F1FF3F02D1002384F8453000F0B8FFA36B2BB93246294604F1240000F082FB2046FFF7FBFB70BD1D
