:020000041008E2
:4000000000780408EB0208100D0000005103081051030810510308105103081000000000000000000000000000000000916E08104D03081000000000316F0810956F081027
:400040004D0308104D0308104D0308104D0308104D0308104D0308104D0308104D0308104D0308104D0308104D0308104D0308104D0308104D0308104D0308104D03081000
:400080004D0308104D0308104D0308104D0308104D0308104D0308104D0308104D0308104D0308104D0308104D0308104D0308104D0308104D0308104D0308104D030810C0
:4000C0004D0308104D0308104D0308104D0308104D0308104D0308104D0308104D0308104D0308104D0308104D0308104D0308104D0308104D0308104D0308104D03081080
:400100004D0308104D0308104D0308104D0308104D0308104D0308104D0308104D0308104D0308104D0308104D0308104D0308104D0308104D0308104D0308104D0308103F
:400140004D0308104D0308104D0308104D0308104D0308104D0308104D0308104D0308104D0308104D0308104D0308104D0308104D0308104D0308104D0308104D030810FF
:400180004D0308104D0308104D0308104D0308104D0308104D0308104D0308104D0308104D0308104D0308104D0308104D0308104D0308104D0308104D0308104D030810BF
:4001C0004D0308104D0308104D0308104D0308104D0308104D0308104D0308104D0308104D0308104D0308104D0308104D0308104D0308104D0308104D0308104D0308107F
:400200004D0308104D0308104D0308104D0308104D0308104D0308104D0308104D0308104D0308104D0308104D0308104D0308104D0308104D0308104D0308104D0308103E
:400240004D0308104D0308104D0308104D0308104D0308104D0308104D0308104D0308104D0308104D0308104D0308104D0308104D0308104D0308104D0308104D030810FE
:400280004D0308104D0308104D03081010B5054C237833B9044B13B10448AFF300800123237010BDD4490208000000002C0C0910084B10B51BB108490848AFF300800848F5
:4002C000036803B910BD074B002BFBD0BDE81040184700BF00000000D84902082C0C0910A0430208000000007047FFF7FDFF72B6104C114DAC4209DA21686268A368043B4D
:40030000A2BFC858D050FAE70C34F3E70B490C4A00209142BCBF41F8040BFAE709480A490860BFF34F8F00F0D9F900F0B3F900F06FF8FEE7300C0910480C0910D4490208C1
:40034000489303080040020808ED00E0FEE7FEE700B504207146084202D0EFF3098001E0EFF30880043005F069F8FEE710B500F073FC0F4B1B68002BFBD00E490E4800F049
:40038000DBFB002406E00C4B53F824100B480DF0D1FA0134B4F57A7FF5DB4FF47A7006F0DBF80222064B5A600822803B9A60E0E78C42020874340308D024030888F90810D7
:4003C00080003240F8B506460F4602F067FE0546064C3B4632460146204602F0FDFC41F2B062294620460CF005FEF8BDF049020808B5002007F00EFC6FF07F4007F000FC38
:4004000007F08CFC01210846FFF7DCFF08BD00BF10B582B062B62F4BB3F90030002B0DDB5A0903F01F03012101FA03F320322A4941F82230BFF34F8FBFF36F8F274B5A69B0
:4004400001225A615B69234BB3F90030002B09DB5A0903F01F03012101FA03F360321E4941F8223006F0D6FE04221D4B9A601D480DF0D2FA012408E021461B480DF05AFACA
:400480004FF47A7004F0B0FF0134052CF4DD07F077FC142002F08CFC012002F091FCFFF7A7FF012007F074FB002007F0B3FB6FF07F4007F0A5FB07F031FC002301930622DD
:4004C0000092802209490A4805F0D0FE05F000FFFEE700BFDCFA081000E100E08006324080043240B8F90810D0F90810D8F908106D03081008B5012003F0ECF908BD00BFD7
:40050000704700BF5C4AD2F8803303F00F0303F1D00152F8212002F00702032A04D0042A05D092B9554914E0554A116811E003F1C002514951F8222002F01F02112A06D0E9
:40054000132A04D04FF4FA4103E04E4901E04FF400418BBB484BD3F8902502F00100D3F88825C2F30172D3F8883513F0405F07D0414BD3F88835C3F30173012B02D102E001
:40058000012300E0002303B108B9032A46D13A48D0F88025C2F31103D0F88425C2F30C02D0F88005C0F300600130B1FBF2F202FB03F2B2FBF0F131E0012B2FD12E4BD3F84D
:4005C000402602F00100D3F80026C2F30172D3F8003613F0405F07D0274BD3F80036C3F30173012B02D102E0012300E0002303B108B9032A12D12048D0F8002602F07F021C
:40060000D0F80036C3F30423D0F80006C0F3044002FB01F2B2FBF3F2B2FBF0F1164BD3F88033C3F3011321FA03F215494A601648D0F89030C3F3072301330069000E0130A7
:40064000B2FBF0F08860B2FBF3F3CB600B6103F5742202F23F220D48A0FB0202C2F387420A7503F2E7330A4AA2FB03239B098B61DB03CB61704700BF0000264000127A00DF
:400680009042020800366E010000214083DE1B43D34D621008B50D4804F0BAFFFFF730FFFFF730FF00221146042002F0DBFE084802F06EFF074B1B6893F8513013B10648F4
:4006C00002F0D6FF02F018FE08BD00BF04FF0810A4600208B0900308E8F9081008B504F008FF074AD2F8883043F47003C2F88830BFF34F8FBFF36F8F04F0FFFE08BD00BFDE
:4007000000ED00E008B5C82004F06EFE0F480DF083F902220E4B9A600822803B5A6003F5D0635A6901225A615B690A4BB3F90030002B09DB5A0903F01F03012101FA03F3A6
:400740006032054941F8223008BD00BF2CFA081080003240DCFA081000E100E0F0B585B0064617461C460F4D284600F8011B1A4639460CF03FFC8DF800600195013402948C
:4007800000238DF80C30084A6946084803F09EFF04464FF0FF31064B186805F003FB204605B0F0BD24620208889103080000644070340308F0B587B0054617461E468DF8BB
:4007C00007108DF808000DF107030393012304938DF81430124A02A9124803F077FF124CE0604FF0FF31114B186805F0DBFAE3688BB98DF80850039704968DF81430084AFB
:4008000002A9084803F0AAFEE0604FF0FF31074B186805F0C7FA044BD86807B0F0BD00BF8891030800006440246202087034030800B583B010F4002F08D00F480DF0ECF807
:400840004FF481710D4804F0E9FD11E010F4C02F0ED001A90A4B186805F09AF9019B3BB14FF08052074B1A60BFF34F8FBFF36F8F03B05DF804FB00BF44FA081070FA081008
:400880007034030804ED00E000B583B010F4002F08D00F480DF0C0F84FF4BC710D4804F0BDFD11E010F4C02F0ED001A90A4B186805F06EF9019B3BB14FF08052074B1A6044
:4008C000BFF34F8FBFF36F8F03B05DF804FB00BF44FA081070FA0810CC24030804ED00E010B584B002228DF8042000218DF805109DF8063043F0010303F0FD0343F00C0396
:4009000061F304138DF80630BDF80630042161F34813ADF806309DF8083043F00F0362F305138DF8083001238DF809300B4901A801F014FD0A4C0B49204604F01BFDB4F911
:400940000030002B08DB590903F01F03012202FA03F3054A42F8213004B010BD14440308DCFA08100507081000E100E038B50F4C682363700025A5700D4BE3610D4B2362C3
:400980000D4B6362204601F081FC0C236371A3710223E371112222710D226273A573E37315232373204601F0B7FC38BD14440308B50708105D0708105965081070B586B0CD
:4009C0000E4615468DF8070057238DF808300DF107030393012304938DF81430134A02A9134803F073FE134C20614FF0FF31124B186805F0D7F923699BB957238DF8083094
:400A00000396049500238DF81430084A02A9084803F0A4FD20614FF0FF31074B186805F0C1F9044B186906B070BD00BF3C9103080000634024620208CC24030810B584B0D5
:400A40000B4B18750A785A750A4B0FCB8DE80F00094A6946094803F039FE04464FF0FF31074B186805F09EF9204604B010BD00BF246202081CFA08103C910308000063401C
:400A8000CC24030808B540210920FFF7D7FF08BD30B583B0002502AC04F8015DFFF7F2FF4FF47A7004F0A0FC012221462846FFF785FF012221461046FFF780FF40238DF8CB
:400AC000073021460220FFF7B9FF8DF8075021460320FFF7B3FF8DF8075021460420FFF7ADFF8DF8075021460520FFF7A7FF8DF8075021460620FFF7A1FF03238DF807308C
:400B000021460920FFF79AFF2B238DF8073021460A20FFF793FF10238DF8073021460C20FFF78CFF15238DF8073021460D20FFF785FF03B030BD00BFF0B583B006460F4696
:400B4000424BB3F90030002B08DB5A0903F01F000121814060323E4840F822103D4A5169012151615269002B08DB590903F01F03012202FA03F3364A42F82130002405E0A6
:400B8000062269460720FFF719FF01341F2CF7DD00242EE0A500002346F8243047F824302C4B1B6913F0800FFAD1062269460720FFF704FF9DF800207B5903EB02439DF816
:400BC000012003EB02229DF802301344C3F311037B519DF80320735903EB02439DF8042003EB02229DF805301344C3F3110373510134B4F57A7FCDDB144BB3F90030002BF8
:400C00000DDB5A0903F01F03012101FA03F320320F4941F82230BFF34F8FBFF36F8F0D4B5A6901225A615B69084BB3F90030002B09DB5A0903F01F03012101FA03F36032B4
:400C4000034941F8223003B0F0BD00BFDCFA081000E100E08006324008B50222104B5A6006F014FB0F4A104B5A6403220021012004F016FE0D4B186006F04EFB0C4A0D4B3E
:400C80005A6403220021012004F00AFE0A4B1860FFF76CFEFFF724FEFFF7FAFE08BD00BF80003240890808103C910308CC24030831080810889103087034030840B1C269AE
:400CC0004AB1026A52B1436A5BB94FF0FF3070474FF0FF3070474FF0FF3070474FF0FF3070470020704700BF0222C271082343711021017103218171C27343731423037318
:400D00000023837343688360C3680361704700BF4B790F2B0BD84A7A93420BD0027802F0F00203F00F0313430370002070476FF00300704700207047CB79022B08D8CA7A2A
:400D4000934208D0037803F08F030370002070476FF0030070470020704700BF8B790C2B0BD88A7A93420BD0027802F0F00203F00F0313430370002070476FF003007047DF
:400D8000002070474B7B0D2B0BD84A7C93420BD0027802F0F00203F00F0313430370002070476FF00300704700207047CB7B022B09D8027802F0CF021B0103F030031343E9
:400DC0000370002070476FF0030070478B7B042B0BD88A7C93420BD0027802F0F80203F0070313430370002070476FF0030070470020704738B593B11C46DD6995B19B789D
:400E0000012B01D140F0800013460A4601466078A8470546636A0120984745B105E04FF0FF3504E04FF0FF3501E06FF00105284638BD00BF38B504460D460B4602220146E2
:400E40004020FFF7D7FF034680B929462046FFF75FFF034650B929462046FFF76DFF034620B92946601CFFF779FF0346184638BD38B504460D460B46022201464220FFF75D
:400E8000B9FF034680B929462046FFF77BFF034650B929462046FFF789FF034620B92946601CFFF793FF0346184638BD00B583B002A9002301F8013D034601220220FFF76C
:400EC00099FF9DF80730C3F34303012B06D0022B07D0032B08D0072B0BD108E06FF0050007E06FF0060004E06FF0070001E06FF0080003B05DF804FB2DE9F843002B31D0CA
:400F00000546894690461E461C6A74B39B78012B01D100F07F05337A112B02D0337C152B19D143464A4629467078A0470746736A0120984714E0376A012309EB04022946F4
:400F40007078B84707460135EDB2736A012098470134E4B201E000242746A3B24345EAD347B105E04FF0FF3704E04FF0FF3701E06FF001073846BDE8F88300BF10B582B06D
:400F8000044602A8002320F8043D2146FFF752FF0346C8B92346012201A94020FFF7ACFF034688B963796372E379E372636A01209847234601220DF105014120FFF79CFFD7
:400FC000034608B9A279A272184602B010BD00BF10B582B0044602A8002320F8043D2146FFF746FF0346C8B92346012201A94220FFF782FF034688B9637B6374E37BE37446
:40100000636A01209847234601220DF105014320FFF772FF034608B9A27BA274184602B010BD00BF30B583B004460D4600238DF807300B46012201464020FFF7DBFE0346E9
:4010400028BB2A79122A14D1237863F07F0323702B46012221464020FFF74EFF0346B0B92B4602220DF107015820FFF745FF03460DE0227812F0800F09D002F07F022270EA
:401080002B46012221464020FFF736FF0346184603B030BD30B583B000238DF807300279A2F11003DBB2022B1AD8037A9A421AD0044601460DF10700FFF7B4FF054698B981
:4010C00023460122211D7E20FFF716FF0546237A102B02D1636A052098472379237203E06FF0030500E00025284603B030BD00BF38B5027BA2F11403DBB2012B01D9172A81
:401100001DD1037C9A421DD004460346012200F10C017E20FFF7F0FE0546237C142B03D1636A5120984707E0172B05D1237B152B02D1636A0A209847237B237403E06FF02C
:40114000030500E00025284638BD00BF30B583B005460C4602A9002301F8013D234601225020FFF747FE034660BB2B7813F0010F18D09DF8072002F0FE032978C1F3400207
:401180001A4302F0FD02C1F3800342EA430202F0FB02C1F3C00342EA83038DF807300023E37007E09DF8073023F007038DF80730FF23E370234601220DF107015020FFF7F6
:4011C0009BFE0346184603B030BD00BF30B583B005460C4602A9002301F8013D234601225320FFF707FE0346002844D12B78012B1CD19DF8072002F0F702A97801F001039D
:4012000042EAC30202F0FB02C1F3400342EA830303F0FD02C1F3800342EA430303F0FE03C1F3C0010B438DF807301CE09DF8072002F07F02A97801F0010342EAC31202F0E3
:40124000BF02C1F3400342EA831202F0DF02C1F3800342EA431202F0EF02C1F3C00342EA03138DF80730234601220DF107015320FFF742FE0346184603B030BD30B583B078
:4012800004460D4602A9002301F8013D2B4601225420FFF7AFFD034650BB2378012B0BD19DF8073003F0EF02A378C3F3001342EA03138DF807300AE09DF8073003F0DF02CF
:4012C000A378C3F3001342EA43138DF807309DF8073003F0F0026388C3F34313134302A901F8013D2B4601225420FFF705FE0346184603B030BD00BF38B504460D46FFF765
:4013000065FF034620B929462046FFF7B7FF0346184638BD10B582B0044602A9002301F8013D034601226220FFF764FD034678B99DF8072012F0020F0AD002F0FD0202A9C0
:4013400001F8012D234601226220FFF7D5FD0346184602B010BD00BF70B582B005460C4600238DF804308DF805308DF806300B46032201A95520FFF73DFD024698BB9DF851
:4013800004006B781949CE5CF3435BB218409DF806100B402D78032D1BD8DFE805F002070D138DF804008DF8063014E030438DF804008DF806300EE033438DF806308DF8E9
:4013C000040008E030438DF8040033438DF8063001E06FF0030232B92346032201A95520FFF78AFD0246104602B070BD80FA081030B583B005460C4602A9002301F8013DB1
:40140000234601225920FFF7F5FC034688B99DF8073003F07F022B78C3F3801342EAC31302A901F8013D234601225920FFF764FD0346184603B030BD30B583B005460C46CE
:4014400000238DF80730ADF804300B4601220DF107015F20FFF7CEFC034688B99DF8073003F0FC038DF807308DF804306B788DF805302346022201A95F20FFF73DFD034672
:40148000184603B030BD00BF70B505460E4614461146FFF731FF0346A8B92046FFF73AFF034680B921462846FFF756FF034650B921463046FFF79CFF034620B92146304634
:4014C000FFF7BAFF0346184670BD00BF70B505460C460846FFF7F2FB70B985B12E1D21463046FFF733FE034658B9224631462846FFF7CAFF034604E04FF0FF3301E04FF0E5
:40150000FF33184670BD00BF30B583B005460C4602A9002301F8013D234601225020FFF769FC0346F0B92B7813F0200F0AD09DF8073003F0F80343F007038DF807300123A6
:40154000E37007E09DF8073023F007038DF80730FF23E370234601220DF107015020FFF7CBFC0346184603B030BD00BF30B583B005460C4602A9002301F8013D234601220C
:401580005920FFF737FC034688B99DF8073003F07F022B78C3F3001342EAC31302A901F8013D234601225920FFF7A6FC0346184603B030BD30B583B005460C46437802A970
:4015C00001F8013D234601226020FFF795FC034630BB234601220DF107016220FFF70AFC0346E8B99DF8072002F0F302297801F0030342EA830202F0CF02C1F3810342EAE0
:40160000031303F0FD02C1F3401342EA430302A901F8013D234601226220FFF76DFC0346184603B030BD00BF70B505460E4614461146FFF761FE034680B921462846FFF7BD
:401640008BFE034650B921463046FFF78FFF034620B921463046FFF7ADFF0346184670BD70B505460C460846FFF728FB70B985B12E1D21463046FFF747FF034658B922460B
:4016800031462846FFF7D0FF034604E04FF0FF3301E04FF0FF33184670BD00BF30B583B004460D4602A9002301F8013D2B4601225220FFF79FFB034658BB237813F0010FEC
:4016C00007D09DF8073003F0FE0343F001038DF80730237813F0020F07D09DF8073003F0FD0343F002038DF80730237813F0040F07D09DF8073003F0FB0343F004038DF823
:4017000007302B4601220DF107015220FFF7F4FB0346184603B030BD30B583B005460C4602A9002301F8013D234601225920FFF761FB034688B99DF8073003F07F026B787C
:40174000C3F3800342EAC31302A901F8013D234601225920FFF7D0FB0346184603B030BD30B583B005460C4600238DF80730ADF804300B4601220DF107015F20FFF73AFBAE
:40178000034688BB9DF8073003F003022B88C3F3C50342EA830302A901F8013D234601225F20FFF7A9FB0346F0B9234601220DF107016220FFF71EFB0346A8B99DF80730E4
:4017C00003F0FE026B78C3F3400313438DF807308DF80530AB7802A901F8043D234602226120FFF789FB0346184603B030BD00BF70B505460E4614461146FFF77DFD03468A
:4018000080B921462846FFF7A7FD034650B921463046FFF781FF034620B921463046FFF79FFF0346184670BD70B505460C460846FFF744FA70B985B12E1D21463046FFF733
:401840002DFF034658B9224631462846FFF7D0FF034604E04FF0FF3301E04FF0FF33184670BD00BF70B582B005460E46144602A9002301F8013D134601225020FFF7BAFAAB
:40188000034608BB6B78042B0BD19DF8073003F0DF027378C3F3C00342EA43138DF807300AE09DF8073003F0EF027378C3F3C00342EA03138DF80730234601220DF107015E
:4018C0005020FFF719FB0346184602B070BD00BF30B583B005460C4602A9002301F8013D234601225820FFF785FA034688B99DF8073003F0F7026B78C3F3800342EAC303A6
:4019000002A901F8013D234601225820FFF7F4FA0346184603B030BD70B582B006460D46144602A9002321F8043D134602226320FFF760FA034650BB9DF804307278032A9A
:4019400006D12A88C2F3C21203F0F8031343DBB22A78C2F3401103F0BF0343EA8113C2F3801103F07F0343EAC1138DF804309DF80530C2F3040203F0E0031A438DF805208F
:401980002346022201A96320FFF7B6FA0346184602B070BD70B505460E4614461146FFF7ABFC034688B921462846FFF7D5FC034658B921463046FFF78BFF034628B92246C0
:4019C00031462846FFF7A8FF0346184670BD00BF70B504460D460846FFF770F9A8B9BCB1261D2A4631462046FFF73CFF034688B929462046FFF780FC034658B92A463146C2
:401A00002046FFF7C7FF034604E04FF0FF3301E04FF0FF33184670BD30B583B005460C4602A9002301F8013D234601225220FFF7E1F9034688B99DF8073003F0F7022B789C
:401A400003F0010342EAC30302A901F8013D234601225220FFF750FA0346184603B030BD30B583B00D460023ADF80430037813F0C00306D115238DF8043003238DF80530C6
:401A800032E00446402B03D12D238DF804302BE0802B06D11D238DF8043007238DF8053022E0C02B20D10B46022201A97A20FFF7A1F9C8B99DF8043003F0E7032278C2F37B
:401AC000410143EAC10303F0F803C2F3C20213438DF804309DF8053003F0F8026378C3F3020313438DF805302B46022201A97A20FFF702FA03B030BD70B505460C46084665
:401B0000FFF7DCF8C8B9DDB12E1D21463046FFF783FF0346B0B921462846FFF7EDFB034680B921462846FFF717FC034650B921463046FFF795FF034604E04FF0FF3301E02F
:401B40004FF0FF33184670BD30B583B005460C4602A9002301F8013D234601225020FFF749F9034688B99DF8073003F0BF02AB7803F0010342EA831302A901F8013D23464A
:401B800001225020FFF7B8F90346184603B030BD30B583B005460C4600238DF804308DF805300B46022201A96520FFF723F9034678BB9DF8042002F0FC032978C1F3010225
:401BC0001A4302F0F30201F00C031A4302F00F0201F0F00313438DF804309DF8052002F0C0036978C1F305021A4302F0BF02C1F3801342EA831202F07F0201F080031343EE
:401C00008DF805302346022201A96520FFF774F90346184603B030BD70B505460C460846FFF74CF8C8B9DDB12E1D21463046FFF78BFF0346B0B921462846FFF75DFB034665
:401C400080B921462846FFF787FB034650B921463046FFF79DFF034604E04FF0FF3301E04FF0FF33184670BD30B583B005460C4602A9002301F8013D234601225020FFF7F6
:401C8000B9F8034688B99DF8073003F07F026B78C3F3C00342EAC31302A901F8013D234601225020FFF728F90346184603B030BD30B583B005460C4600238DF804308DF8F9
:401CC00005300B46022201A96720FFF793F8034608BB9DF8043003F0C0022B78C3F3050313438DF804309DF8053003F0CF026B78C3F3410342EA031303F0F8032A88C2F38C
:401D0000821213438DF805302346022201A96720FFF7F2F80346184603B030BD70B505460C460846FEF7CAFFC8B9DDB12E1D21463046FFF799FF0346B0B921462846FFF70A
:401D4000DBFA034680B921462846FFF705FB034650B921463046FFF7ABFF034604E04FF0FF3301E04FF0FF33184670BD30B583B005460C4602A9002301F8013D23460122B1
:401D80005120FFF737F8034688B99DF8073003F0F702AB78C3F3001342EAC30302A901F8013D234601225120FFF7A6F80346184603B030BD30B583B005460C4602A9002330
:401DC00001F8013D234601225820FFF713F8034688B99DF8073003F07F02AB78C3F3C00342EAC31302A901F8013D234601225820FFF782F80346184603B030BD30B583B08A
:401E000005460C4600238DF804308DF8053002A901F8023D234601225C20FEF7EBFF0346E0B99DF8062002F0FC03A978C1F301021A4302F0FB02C1F3800342EA83038DF885
:401E400006306B788DF805302B7802A901F8043D234603225A20FFF74FF80346184603B030BD00BF70B505460C460846FEF726FFF8B90DB32E1D21463046FFF777FF034644
:401E8000E0B921462846FFF737FA0346B0B921462846FFF761FA034680B921463046FFF789FF034650B921463046FFF7A7FF034604E04FF0FF3301E04FF0FF33184670BD92
:401EC00030B583B005460C4602A9002301F8013D234601225120FEF78DFF0346E0B99DF8072002F0FE032978C1F300021A4302F0FD02C1F3400342EA430202F0FB02C1F369
:401F0000800342EA830302A901F8013D234601225120FEF7F1FF0346184603B030BD00BF30B583B005460C4602A9002301F8013D234601225820FEF75DFF034688B99DF874
:401F4000073003F07F022B78C3F3401342EAC31302A901F8013D234601225820FEF7CCFF0346184603B030BD30B583B005460C4600238DF804308DF805308DF806300B46C4
:401F8000012201A95C20FEF735FF0346B8B99DF8043003F03F022B78C3F3C10342EA83138DF80430AB788DF805306B788DF806302346032201A95C20FEF79EFF03461846F8
:401FC00003B030BD70B505460C460846FEF776FEF8B90DB32E1D21463046FFF771FF0346E0B921462846FFF787F90346B0B921462846FFF7B1F9034680B921463046FFF720
:402000008FFF034650B921463046FFF7ADFF034604E04FF0FF3301E04FF0FF33184670BD10B582B0044602A9002301F8013D034601225120FEF7DEFE034670B99DF8073094
:4020400003F0EF0343F0100302A901F8013D234601225120FEF750FF0346184602B010BD30B583B005460C4602A9002301F8013D234601225620FEF7BDFE024670BB6B782A
:402080001849C85C9DF8073023EA00035BB20101C9B223EA0103DBB22D78032D13D8DFE805F00205090D8DF807300EE00B438DF807300AE003438DF8073006E003430B43E4
:4020C0008DF8073001E06FF003023AB9234601220DF107015620FEF70FFF0246104603B030BD00BF80FA081038B505460C460846FEF7E4FD88B99DB12046FFF791FF0346E0
:4021000080B921462846FFF7F7F8034650B921462846FFF7A5FF034604E04FF0FF3301E04FF0FF33184638BD30B583B005460C4602A9002301F8013D234601225120FEF7FC
:4021400059FE034688B92B7A03F001029DF8073023F0200343EA421302A901F8013D234601225120FEF7C8FE0346184603B030BD38B599B14A6AA2B10C460546FFF7D4FFDA
:40218000034680B921462846FFF7B6F8034650B921462846FFF764FF034604E04FF0FF3301E04FF0FF33184638BD00BF30B583B005460C4602A9002301F8013D234601225C
:4021C0005120FEF717FE034688B92B7AC3F340029DF8073023F0400343EA821302A901F8013D234601225120FEF786FE0346184603B030BD38B599B14A6AA2B10C460546DF
:40220000FFF7D4FF034680B921462846FFF774F8034650B921462846FFF722FF034604E04FF0FF3301E04FF0FF33184638BD00BF30B583B0B6238DF80730F0B10446436A97
:40224000F3B1034601220DF107017E20FEF754FE0546636A0F20984755B9A378012B07D1234601220DF107017F20FEF7C3FD054645B92046FEF738FD04E04FF0FF3501E019
:402280004FF0FF35284603B030BD00BF10B582B00446FEF713FD034648B9A278012A06D123460DF107017F20FEF7A4FD0346C3B9234601220DF106010020FEF79BFD58B97A
:4022C0009DF80630D12B0AD12370FF23E3702046FFF7AEFF034604E06FF0020301E06FF00203184602B010BD60B1426A6AB110B50446FEF7CFFE034658B92046FEF7F8FE24
:40230000034606E04FF0FF3301E04FF0FF3318467047184610BD00BFB0B1426ABAB110B50446FEF72BFE0346A8B92046FEF750FE034680B92046FFF7D7FF034658B9204640
:40234000FEF7B4FD034606E04FF0FF3301E04FF0FF3318467047184610BD00BF08B543780C2B2CD8DFE803F0070A13101016191F1C0D22252800FFF7A9F808BDFFF770F974
:4023800008BDFFF751FA08BDFFF722FB08BDFFF7B3FB08BDFFF740FC08BDFFF7BFFC08BDFFF760FD08BDFFF70DFE08BDFFF79CFE08BDFFF7DDFE08BDFFF71CFF08BD0020E5
:4023C00008BD00BF2DE9F04180460E4617460A4C08256560702000F06FFD404600F06CFDA5606560722000F067FD3946304600F0C7FDA560BDE8F0810006324000B583B0B4
:4024000002AB03F8011D01221946FFF7DBFF03B05DF804FBF8B507460E46094C08256560702000F049FD384600F046FDA5606560732000F041FD304600F06EFDA560F8BD5B
:402440000006324038B50425084B5D60084C402363601023636000F0FFFC0822054B5A6065602023636000F0E1FC38BD00003240800232400006324010B5434C6F220021BE
:4024800020460AF0DDFD631C236704F14E03636704F12203A36700F0C9FC03E000F0D0FC032868D800F0AEFD0028F7D100F0CEFC00217220FFF7AEFF00F00F0002285CD1F5
:4024C0004021FFF79BFF00210F20FFF7A3FF10F0800F54D002210B20FFF790FF08222B490120FFF76FFFD1210720FFF787FF02210820FFF783FFC2210920FFF77FFF03215E
:402500000420FFF77BFF01210320FFF777FF00210320FFF773FF0A2002F066FF002400E01C4601210520FFF769FF642002F05CFF03210520FFF762FF322002F055FF0F21E5
:402540000520FFF75BFF322002F04EFF00210F20FFF760FF10F0400F05D040210220FFF74DFF234603E0631C9BB2042CD8D1032B07D9052010BD012010BD022010BD0320D6
:4025800010BD002010BD00BF4462020890FA081010F1090F0EDB10F1040F0EDB05280FDD0A2810DD0F2811DD142811DD282811DC5A2210E04FF496620DE04FF461720AE0F9
:4025C0004FF4167207E04FF4A57204E0DC2202E0B42200E03C22034BA3F87C20A3F87E20704700BF446202082DE9F84F06460D46047828B1CA4B984205D10127002403E0CE
:402600000127FF2400E0002700F010FC4FF00008D0E1C8EBC80AC8EB0A1ADFF80C930AEB090B6F22002158460AF00AFD0BF1010EBC4BC3F870E00AF1480048440630586747
:402640000AF1200AD14409F10209C3F878902022002397E10FB934780136032D00F29081DFE815F004006500C600270100EB030C14F0400F01D0C02100E080218CF8001066
:4026800049B214F0100F02D04FF0300A01E04FF0200A4AEA01018CF8001014F0040F02D04FF00C0A01E04FF0080A4AEA01018CF8001014F0010F02D04FF0030A01E04FF011
:4026C000020A4AEA01018CF800100EEB020C14F0800F01D0032100E002218CF8001049B214F0200F02D04FF00C0A01E04FF0080A4AEA01018CF8001014F0080F02D04FF061
:40270000300A01E04FF0200A4AEA01018CF80010013A92B214F0020F02D06FF03F0A01E06FF07F0A4AEA01018CF8001028E100EB030C14F0400F01D0802100E040218CF81D
:40274000001049B214F0100F02D04FF0200A01E04FF0100A4AEA01018CF8001014F0040F02D04FF0080A01E04FF0040A4AEA01018CF8001014F0010F02D04FF0020A01E0A8
:402780004FF0010A4AEA01018CF800100EEB020C14F0800F01D0022100E001218CF8001049B214F0200F02D04FF0080A01E04FF0040A4AEA01018CF8001014F0080F02D0AB
:4027C0004FF0200A01E04FF0100A4AEA01018CF80010013A92B214F0020F02D06FF07F0A01E04FF0400A4AEA01018CF80010C7E000EB030C14F0400F01D0C02100E0402103
:402800008CF8001049B214F0100F02D04FF0300A01E04FF0100A4AEA01018CF8001014F0040F02D04FF00C0A01E04FF0040A4AEA01018CF8001014F0010F02D04FF0030A2F
:4028400001E04FF0010A4AEA01018CF800100EEB020C14F0800F01D0032100E001218CF8001049B214F0200F02D04FF00C0A01E04FF0040A4AEA01018CF8001014F0080FD6
:4028800002D04FF0300A01E04FF0100A4AEA01018CF80010013A92B214F0020F02D06FF03F0A01E04FF0400A4AEA01018CF8001066E000EB030C14F0400F01D0802100E0A2
:4028C000C0218CF8001049B214F0100F02D04FF0200A01E04FF0300A4AEA01018CF8001014F0040F02D04FF0080A01E04FF00C0A4AEA01018CF8001014F0010F02D04FF087
:40290000020A01E04FF0030A4AEA01018CF800100EEB020C14F0800F08D0022107E000BFFFFF0F10446202083C44030803218CF8001049B214F0200F02D04FF0080A01E017
:402940004FF00C0A4AEA01018CF8001014F0080F02D04FF0200A01E04FF0300A4AEA01018CF80010013A92B214F0020F02D06FF07F0A01E06FF03F0A4AEA01018CF800101D
:4029800001339BB2202B7FF665AEC8F1AF031BB299101A4A134003D5013B63F003030133174A02FA83F31B7A09F8013008F101081FFA88F8B8F1AF0F7FF62BAE00240FE08D
:4029C000C4EBC403C4EB03136F220E4919440A20FFF7F8FC07210220FFF710FD0134A4B2AF2CEDD9084BB3F87C4000F029FA8442E4D800F02BFABDE8F88F00BF03000080F8
:402A000090FA08103C440308446202082DE9F04706460D4600F00AFAD2210920FFF7EEFC0024C6E0C4EBC407C4EB0717DFF8008207EB08096F22002148460AF001FB09F140
:402A4000010C784BC3F870C007F1480EC6440EF1060EC3F874E02037B84408F10208C3F87880202000218EE0771C32786E1C95F800900EEB010582EA090212F0400F04D0CA
:402A800019F0400F03D0802302E0402300E0C0232B705BB212F0100F05D019F0100F05D04FF0200A04E04FF0100A01E04FF0300A4AEA03032B7012F0040F05D019F0040FCA
:402AC00005D04FF0080A04E04FF0040A01E04FF00C0A4AEA03032B7012F0010F05D019F0010F05D04FF0020A04E04FF0010A01E04FF0030A4AEA03032B700CEB000512F026
:402B0000800F04D019F0800F03D0022302E0012300E003232B705BB212F0200F05D019F0200F05D04FF0080A04E04FF0040A01E04FF00C0A4AEA03032B7012F0080F05D060
:402B400019F0080F05D04FF0200A04E04FF0100A01E04FF0300A4AEA03032B70013880B212F0020F05D019F0020F04D06FF07F0203E0402201E06FF03F0213432B70013181
:402B800089B235463E4620297FF66EAFC4F1AF031BB29910244A134003D5013B63F003030133224A02FA83F31B7A08F801300134A4B2AF2C7FF636AF002421E0C4EBC405C0
:402BC000C4EB05151A4B1D446F2229460A20FFF7F9FB07210220FFF711FCC4F1AF0343F38D032B44002283F822206F2229460A20FFF7E8FB07210220FFF700FC0134A4B2A0
:402C0000AF2CDBD9074BB3F87E4000F019F98442D2D800F01BF9C2210920FFF7EFFBBDE8F08700BF446202080300008090FA08103C440308002307E01349086F5522C25443
:402C4000496FCA5401339BB2202BF5D970B5002416E0A6080C4DAA6F04F003030B490B441B7A93556F2229460A20FFF7ABFB07210220FFF7C3FBAB6F00229A550134A4B2F1
:402C8000AF2CE6D970BD00BF4462020890FA081008B5002304E00021094AD1540133DBB2152BF8D900210420FFF7A8FB6F2204490A20FFF787FB07210220FFF79FFB08BD10
:402CC0004462020838B50E4C1023A360142002F08BFB00F0D9F808220A4B9A604023A3600425A5600A2002F07FFB65600A2002F07BFBA5600A2002F077FBFFF7BDFB38BD0A
:402D0000800232400006324038B5FFF793FFFFF7BFFF1E2002F068FB234C40256560322002F062FBA56000210F20FFF773FB10F0400F36D000210B20FFF760FB0121032041
:402D4000FFF75CFB03210520FFF758FB01210520FFF754FB322002F047FB80210420FFF74DFB00210520FFF749FB01210720FFF745FB1E2002F038FB00F094F8102363608B
:402D80006560142002F030FB0822084B5A60042363602025A5601E2002F026FB6560002038BD042038BD00BF800232400006324010B50446FFF746FB2046FFF7E9FB10BDD0
:402DC00008B510B1FFF77EFF01E0FFF79DFF08B9012008BD002008BDF8B507460E4614461D4613B10120FFF7EBFF24B931463846FFF70CFE15E0631EDBB2012B11D8002108
:402E00003846FFF7F1FB012C07D101213846FFF7EBFB02213046FFF7E7FB03213046FFF7E3FB15B10020FFF7CBFFF8BD08B50022024BC3F8082100F083F908BD00003840BE
:402E4000014BD3F808017047000038400122014B5A6070470000384010B5074C074A0849204601F09BFD236843F0004323600822044B9A6010BD00BF000067408C900308B1
:402E800004FB0810000632400822044B9A60044A136843F000431360704700BF000632400000674008B50249024801F0ABFE08BD8C9003080000674008B50146154800F0F9
:402EC00049FD144BD3F8C03F13F0040FF9D0114BD3F8042242F48032C3F80422D3F8042222F48032C3F80422D3F80422D3F8042342F48032C3F80423D3F8042322F480326D
:402F0000C3F80423D3F804230422C3F8C02FD3F8C03F08BD0000674008B50146174800F019FD164BD3F8C03F13F0040FF9D0134BD3F84003D3F8042242F48032C3F804221E
:402F4000D3F8042222F48032C3F80422D3F80422D3F8042342F48032C3F80423D3F8042322F48032C3F80423D3F804230422C3F8C02FD3F8C03FC0B208BD00BF0000674045
:402F800038B50C46054600B121B940F2E6511B4802F044FA22462946194800F021FD184AD2F80832C3F30803D2F80822C2F3C032D342F4D1124BD3F8042242F48032C3F82D
:402FC0000422D3F8042222F48032C3F80422D3F80422D3F8042342F48032C3F80423D3F8042322F48032C3F80423D3F804230422C3F8C02FD3F8C03F204638BD9CFA081033
:4030000000006740044B1B6913F0080F01D0012070470020704700BF8002324010B582B002AC012344F8043D00231A461449154804F0C4FF214606F03EF806F067FC60B192
:403040004FF48472B021002006F045FD4FF48472B021002006F06BFD0BE0B0224FF48471002006F038FDB0224FF48471002006F05EFD0549002006F045FD02B010BD00BFC7
:40308000F407091028080910B0420208012901D1002070474FF0FF30704700BF00487047C462020810B504462146034800F052FC0028F9D010BD00BF00006640054BD3F894
:4030C0000833C3F30803002BF8D0024BD3F84003704700BF0000664008B5012002F0DAFC014B186008BD00BF7479020808B500231A4619460248006802F0F8FB08BD00BFCB
:403100007479020808B54FF0FF31024B186802F049FE08BD7479020808B503F077FB08BD704700BF08B54FF40041034804F03EFA024804F0BBFD08BD78790208B000091016
:4031400008B5084B1B783BB9074A0021074802F0D7F90122034B1A70044B01229A609A6108BD00BF78F9020838FB0810000038401F4B98422DD00CD840282ED003D8E8B112
:40318000102828D02FE0802829D0B0F5807F28D029E0184B984228D006D8B0F1204F0DD0154B984212D01EE0144B98420AD00133984209D0023B984215D101E000207047C1
:4031C0000F4870470F4870470F4870474FF4A0007047074870470D4870470D4870470D487047034870470C4870474FF4A400704706005200010000F0090000A0040000F050
:40320000010052000200520003005200010050000200500005005200FF00520038B5124B1B6893F83130012B04D840F2C3110F4802F0F4F80C4B1D682A6AB5F8B0301344F7
:403240002C46D5F8B420D358002B0BDB084B1868FFF78EFF6B6801229A6063689B68002BFBD138BD034838BDB090030884FB08107CF90208020050001A4B186128B1022330
:403280000370FF23437000234380174B1B6893F850202AB300B583B0B3F93830ADF80030002301931149684602F064F8BDF90030002B08DB590903F01F03012202FA03F3C5
:4032C0000B4A42F82130084B1B6893F8513023B102220849012000F077FA03B05DF804FB704700BF7CF90208B09003081144020800E100E0C944020808B50248FFF7BCFF0B
:4033000008BD00BF90F9020838B50B4B1B68D3F8B4301B58002B0DDA0D4604460B0C1B0423B140F2D521054802F078F8A9B26160002038BD024838BDB0900308C4FB08106C
:4033400001008A0038B50368002B01DA002300E0094B73B90D460446C2600B0C1B0423B140F2BB21054802F059F8A9B2A160002038BD014838BD00BF01008A00C4FB0810AA
:4033800038B504460D4619B99921084802F046F8074B1B68D3F8B4301B59002B03DAE3682B60002038BD034838BD00BF04FC0810B090030801008A00254B1B6893F83130C0
:4033C00083423AD900293AD00B6813F01F0F38D170B50D4604461E4B1B6893F83130984204D340F2C3111B4802F018F8184B1B68186AB3F8B03004FB0304174E34602A68DB
:40340000D2080021686809F01BFE00212046FFF77BFF346825B940F293310E4801F0FEFF2A4600212046FFF78DFF60B900210A4B1868FFF769FF40B970BD084870470748A2
:40344000704706487047064870BD054870BD00BFB0900308C4FB081094F9020803018A0001018A0010B504461346B2B9A9B9124B1B6893F83130984204D340F2C3110F48FA
:4034800001F0CCFF0C4B1B681A6AB3F8B03004FB03240B4B1C60002010BD43B149B1084A51609360111D2046FFF786FF10BD054810BD044810BD00BFB0900308C4FB0810AE
:4034C00094F9020803018A002DE9F0411B4B1B68DC68236883422CD90D464609A0EB4610012303FA00F819B902F003F8074600E00027124B18680368002B01DA002300E0DE
:403500000F4B83B9626852F8263018EA030F05D023EA080342F82630002400E0094C0021FFF7F2FE00E0084C25B9384601F0E5FF00E0064C2046BDE8F08100BF94F9020831
:4035400001008A00020188000301880004018A000B4B1B68DB681A6882420CD94109A0EB4110012202FA00F05B6853F82130184203D004487047044870470448704700BF4A
:4035800094F902080101880004018A0000018800024B1B680BB9014B18607047A0F902082DE9F8430446884691461D46089F2C4B1B681BB9B5212B4801F030FF284B1B68A9
:4035C0002C2000FB04F01C18EEB21E50C5F3072363602D0CA560244B1B6893F831309E4204D340F2C311214801F018FF1E4B1B68196AB3F8B02006FB02162661666893F87C
:4036000032309E4204D340F2DF11184801F006FF154B1B681D6A803605EB46156561A668330C1B0423B14FF4FF71104801F0F6FE330C1B0423B140F2FF110C4801F0EEFEF3
:40364000B3B243EA0646AE60C4F81C90C4F820800023A36117B1B7F90030A381BDE8F883A0F9020844FC0810B0900308C4FB0810F0B58FB0044618B95221274801F0CEFECC
:40368000A369072B03D95621234801F0C7FEE36A1BB95821204801F0C1FE236B1BB959211D4801F0BBFE07AD04F114060FCE0FC537682F6002AD26460FCE0FC533682B6027
:4036C000164B1B68B3F93620079B1344ADF83030089B0D93A26AE16A0CAD00953B460A98FFF75EFF00210091069B0A460598FFF757FF216B284601F03DFEBDF93030002B95
:4037000008DB590903F01F03012202FA03F3044A42F821300FB0F0BD44FC0810B090030800E100E0F8B506460F461D4614461AB9FD211F4801F072FE1E4B1B681BB9FE21CE
:403740001B4801F06BFE1B4B1B682C2101FB063001FB07314B68012202FA03F31B04466802FA06F60269EAB18F69EFB91268002A01DA002200E0104AC2B9228813432360E4
:403780000369DC6001238B614D620469330C1B0423B140F2BB21094801F040FEB2B2A2600020F8BD0648F8BD0648F8BD0548F8BD44FC0810A0F9020801008A00C4FB0810D5
:4037C00004028A0007028A00F8B505460F4616460E4B1B6823B94FF4AF710D4801F01EFE0A4B1B682C2404FB0534236A23B94FF4B171074801F012FEE369B34204D9236A57
:4038000043F826700020F8BD0248F8BDA0F9020844FC08100A028A0070B582B000230193044620B940F2D111284801F0F7FD236923B94FF4E971254801F0F0FD636923B9C0
:4038400040F2D311214801F0E9FD236A23B94FF4EA711E4801F0E2FD6369DD682A0C20D012041A601B682069194B1B68D3F8B430C358002B15DA01A9FFF782FD60B9019846
:4038800003681E0CDBB2E269934206D2226A52F8233013B1984700E0002631462069FFF733FDADB275B16369ADB21D601B68636A1BB198470023636202E0A36A03B1984764
:4038C0000023A36163691B6802B070BD44FC0810B090030810B50446074B1B6823B940F2B111064801F09AFD034B1B682C2000FB0430FFF791FF10BDA0F9020844FC0810AC
:4039000010B4D0F8003303F00F03072B06D900230DE0D0F84043CC54013300E000239342F7D306E0D0F8404321F8134001339342F8D35DF8044B704710B51446D0F8083373
:40394000C3F308039A4200D31C462246FFF7D8FF204610BD036813F4006F01D0802200E04022D0F80832C3F30803934203D0C0F84012012070470020704700BF10B4D0F808
:40398000003203F00F03072B06D900230DE0CC5CC0F84042013300E000239342F7D306E031F81340C0F8404201339342F8D35DF8044B704710B51446036813F4006F01D0DB
:4039C000802200E04022D0F80832C3F30803D31AA34200D81C462246FFF7D0FF204610BDF8B507460D461446D0F8006206F00F060BE0224629463846FFF7DCFF072E01D9B8
:403A0000430000E003461D44241A002CF1D1F8BD02E0C0F84012013A002AFAD1704700BF10B51446036813F4006F01D0802200E04022D0F80832C3F30803D31AA34200D824
:403A40001C462246FFF7E4FF204610BD10B54A6841F201039A4231D1D0F80833C3F30803B3B10B6A43F040030B620B7873B1D0F8043343F48033C0F80433D0F8043323F4CF
:403A80008033C0F80433D0F8043301E0D0F840330B6A43F020030B620B6A23F010030B62036E23F4204303660023C0F8C83F0123C0F8C03FD0F8C03F202221E0D0F80832EC
:403AC000C3F30802D0F80832C3F3C03313440A6BD21A4A630A6A12F0080F05D1CA6A1A44CA628A6AD31A8B620B6A43F004030B620B6A23F001030B620023C0F8883F10221E
:403B0000D0F84C4F40F201131C420DD0036823F00043036000238366C366036843F000430360036842F040024FF080534B604B6C0BB11046984710BDD0F80C3F13F0020FCC
:403B40001DD00222C0F8002FD0F8002FD0F8002F12F0040F02D04FF4001001E04FF480108A6802438A604A68B2F5B81F07D00A7B12B14FF4C01201E04FF4B0124A6013F455
:403B8000807F03D08A6842F400028A6013F0010F03D08A6842F480028A6040F21112134202D04FF4C0134B60704700BF0023C0F8C83FC0F8883F836E23B140F21713C0F8B8
:403BC000083F704740F21313C0F8083F182383664FF4B8134B60704738B5D0F80C4F036E23F4807303660023C0F8C83FC0F8883FC0F8083F40F21713C0F8003FD0F8003F2E
:403C00008B6823F480338B604B7B13B18B69CB610BE08D69D0F80822C2F30802D0F80832C3F3C0331344EB1ACB6140F201131C421BD0036E9B0F032B05D114F4827F14BFE3
:403C40000123002300E001235BB1036823F00043036000238366C366036843F00043036003684FF080534B601BE00B7893B1D0F8043343F48033C0F80433D0F8043323F478
:403C80008033C0F80433D0F804330123C0F8C03FD0F8C03F0B7B0BB10B4B01E04FF080534B604A6C72B14B7B13B14FF4802001E04FF400308B6813F0F87301D04FF4002359
:403CC0001843904738BD00BF0000101070B505460C4691F8243013F0FF0F0ED1CB6A63B94B6C0BB108209847E36AB3FA83F35B0984F824300123C5F8883F94F8243013F035
:403D0000FF0F16D063783BB12B6813F4006F01D0802202E0402200E00122FF212846FFF77FFE236B18442063236A43F00803236270BDE26A012A11D963780BB1013A00E007
:403D40000122A16A2846FFF735FE236B03442363E36A1B1AE362A36A1844A062D5F80832C3F30803802B23D0E36A012B20D101F0C0FBA36A1B78C5F840324026C5F8806F94
:403D8000D5F8803F01F0B9FB236B013323630023E362A36A0133A362C5F8886F63783BB1236A43F002032362636C0BB10420984770BD00BF38B54B68B3F5A81F03D14FF477
:403DC000C0134B6038BD4B68B3F5A01F4DD10C4605464A69012A11D94B780BB1013A00E0012221692846FFF7E5FDA3690344A36163691B1A6361236903442361D5F80832AC
:403E0000C3F30803802B14D06369012B11D101F070FB23691B78C5F840324023C5F8803FD5F8803F01F069FBA3690133A361002363616369CBB9237B33B14023C5F8883F0A
:403E40004FF4A813636005E00023C5F8883F4FF4B0136360637843B1A36843F40033A360636C13B14FF48030984738BD70B504460D468A6C82B3036813F4803F06D0D0F8CF
:403E80004C3F13F0400F03D0022002E0002000E00020236E13F4006F06D1D4F84C3F13F0800300D001231843C0B190470123C4F8C03FD4F8C03F024648B91023C4F8403F7B
:403EC000D4F8403F40F2D113C4F8483F07E040F2C113C4F8483F02E0002200E00022D4F8043243F48033C4F80432D4F8043223F48033C4F80432D4F804320AB9012300E083
:403F00000223E366002A59D1666E06F010066B6C23B10EB1012000E0022098477EB141F202036B602B6A43F001032B626B6B2B63002385F824300123C4F8883F70BD41F289
:403F400001036B602B6A43F010032B620123C4F8C83F2B78BBB1EB6BBBB1236E43F400532366ED6B802D05D9A5F18003802B0ED8813D0DE0013D236E43F400432366002381
:403F8000C4F8C83F04E0002502E0002500E03F25236813F4006F01D0802300E040239D4204D34FF42071064801F038FAD4F8043323F0FF03EDB21D43C4F8045370BD00BF21
:403FC00084FC081038B54B68B3F5881F03D0B3F5901F1AD038BD0B69D0F840231A708B6901338B614B69013B4B612BB10B6901330B610423836638BD0B7B13B14FF4C01303
:4040000001E04FF4B0134B6038BD0C4605464A690969FFF791FCA3690344A36163691B1A6361226910442061012B24D82B6E23F480732B666369012B16D12B6813F4006FF4
:4040400001D0802300E0402323B94FF42071184801F0E4F9D5F8043323F0FF03C5F804334FF48813636038BD0023C5F8C83F4FF4B013636038BD402B01D89C1E00E03F2422
:404080002B6813F4006F01D0802300E040239C4204D34FF42071064801F0C0F9D5F8043323F0FF02E3B21343C5F8043338BD00BF84FC081038B5CB6B002B50D00B78002B60
:4040C0003FD00C460546D0F80423D2B20132896BFFF732FC236C03442364E36B1B1AE363A26B1044A063802B06D9A3F18002802A0FD8A3F181040DE02B6E43F400432B66F1
:40410000E36B0BB15C1E00E000240023C5F8C83F00E03F242B6813F4006F01D0802300E040239C4204D34FF42071104801F076F9D5F8043323F0FF02E3B21343C5F80433D5
:4041400038BD0123C3668A6B0B6CD0F84003D0540B6C01330B64CB6B013BCB6338BD0223C3660023C0F8C83F38BD00BF84FC0810F8B50B78012B03D00C7A1CB9002702E0A4
:40418000002700E00127002800F0A780002900F0A680002A00F0A58016460C460546013BDBB2022B03D94F214F4801F037F9637803B163791BB150214B4801F02FF994F93F
:4041C0000330002B03DA5121474801F027F9237913F0010F03D05221434801F01FF92369102B03D95321404801F018F9E368102B03D954213C4801F011F9637913B14FF40F
:40420000803100E00021E27912B14FF4807300E000230B4343F400632B60A37913B94FF4006300E000232269013A02F00F021A43E368013B1B01DBB21343227843EA827309
:404240002B6617B140F2073301E040F20713C5F800330FB1254B00E0254B2B6763780BB17F2300E00023C5F80433E3785B00DBB2227943EA0243C5F810331E4BC5F8003272
:40428000A3780BB1402300E00123C5F804320023C5F8C83EC5F8883EC5F8C83FC5F8883FC5F8083F2378022B02D040F2D11300E00023C5F8483F63783370A37873704FF066
:4042C000805373600020B060B06130623064F0633063F0627064B064F8BD0748F8BD0648F8BD0548F8BD00BFC8FC081003002A0013102A00070101000120AA0038B50546B2
:404300000C4621B940F2C321194801F087F82B6E9B0F012B17D1174B2344174A93421ED9A4F5BD13A3F5D66302F5611202F56162934216D9A4F57104A4F533440F4B9C42A5
:4043400011D80F4838BD84B1286EC0F303102B6E03F00F0318440230B4FBF0F038BD094838BD094838BD002038BD002038BD00BFC8FC081020AD88FF405B730040555C041F
:4043800040420F00801A0600A08601002DE9F84307468846914622B940F21221624801F03DF808F1FF34614B9C4204D940F213215D4801F033F83B6E9B0F012B0DD14946AC
:4043C0003846FFF79BFF0546D7F8003323F40073C7F80033564B3B67A2E0544B9C421FD8544B984509D8A9F5BD13A3F5D663524A934218D90021012328E0504B984507D80B
:404400004F4B4B444F4A934213D9002101231DE04D4B4B444D4A934212D90021012315E00021012312E0002141F288352E460B460CE000214FF461754FF4C8660B4605E025
:4044400001214FF4BE754FF41B760023002B66D13F4BB3FBF9F3B6FBF3F404FB03F2964200D90134102C00D910240F2C8CBF00220122B5FBF3F606FB03F39D4200D9013622
:40448000102E00D91026A519B9FBF5F50FE022B10F2C09D80134002206E00F2E04D801360F2C8CBF00220122A519B9FBF5F5454502D9A3191F2BEAD941B1D7F8003343F468
:4044C0000073C7F80033234B3B6707E0D7F8003323F40073C7F80033154B3B67E31F092B04D940F283511C4800F098FF3B6E23F0F003013C2401E4B223433B66731F0B2B66
:4045000004D94FF4B461144800F088FF3B6E23F00F03013E06F00F061E433E6600E000252846BDE8F88300BFC8FC08103F420F0013102A00A0860100502D1900801A0600EE
:4045400020AD88FFA0432100807E25FFC02BAF0000CA9A3B03002A0008FD081070B5044615460E4621B940F2D341554800F056FF73680BB1B36823B940F2D441504800F0C1
:404580004DFF96F90030002B04DA40F2D5414C4800F044FF0023C4F8483F6B6813F0805F00F0888033785B00DBB243F001034FF48032AA6072682A61B2686A610022AA6185
:4045C000EA61327B2A7301226A7340F21712C4F8002FD4F8002FD4F8042242F48032C4F80422D4F8042222F48032C4F80422D4F804226A68B2F1805F04D1C4F8403202231F
:40460000A36609E0626E12F0200F01D0092200E00122A266C4F840322B7843B32B7B33BB6B69012B23D9236E43F4807323666E69802E01D8023E00E03F26236813F4006F01
:4046400001D0802300E040239E4204D34FF420711C4800F0E3FED4F8043323F0FF03F6B21E43C4F804634FF490136B6015E0236813F4006F01D0802300E0402323B94FF402
:404680002071104800F0CAFED4F8043323F0FF03C4F804334FF488136B6000F02AFF0123C4F8C83F40F21313C4F8083F00F025FF002000E0044840F2D113C4F8483F70BD64
:4046C000C8FC081084FC08100220AA00F8B5044615460E4621B940F2B7514B4800F09EFEB36833B1736823B94FF4B761464800F095FE96F90030002B04DA40F2B9514248F1
:4047000000F08CFE0023C4F8483F6B6813F0805F73D037787F00FFB24FF48033AB6073682B61B3686B610023AB61EB61327B2A736B7340F21713C4F8003FD4F8003FD4F8A2
:40474000043243F48033C4F80432D4F8043223F48033C4F80432D4F804326B68B3F1805F09D1C4F840724023C4F8803FD4F8803F0223A36617E0636E13F0200F01D009233B
:4047800000E00123A3666B695BB900F0B2FEC4F840724023C4F8803FD4F8803F00F0ADFE01E0C4F840724FF4A0136B606B780BB1402500E00125236813F4006F01D0802363
:4047C00000E040239D4204D34FF43A710F4800F025FED4F8043223F0FF032B43C4F8043200F087FE0123C4F8883F40F21313C4F8083F00F082FE002000E0054840F2D113A7
:40480000C4F8483FF8BD00BFC8FC081084FC08100220AA0070B504460E46D0F88C3E13F0010F07D04FF480534B600123C0F8803ED0F8803ED4F84C5F40F201131D420FD066
:40484000336A15F4807F02D04FF4807200E08022134333620023C4F8C83F45F010050EE015F0100F0BD0D4F80833C3F3080333B1F36B23B10123C4F8C43FC4F8C83FD4F8B2
:40488000CC3F13F0010F08D031462046FFF712FC0123C4F8C03FD4F8C03F15F0100F0AD031462046FFF7D2F81023C4F8403FD4F8403FD4F84C5F15F0C00F0DD0314620461E
:4048C000FFF7D4FA0123C4F8803ED4F8803EC023C4F8403FD4F8403FD4F88C3F13F0410F08D031462046FFF7F1F90123C4F8803FD4F8803F70BD00BF70B506460D46D0F842
:40490000004E14F0020F0AD0836E2BB1002383668B6843F080738B604FF4C0136B6014F0010F05D029463046FFF706F924F0040414F0080F08D029463046FFF743FB01236D
:40494000C6F8C03FD6F8C03F14F0040F08D029463046FFF72FFA0123C6F8803FD6F8803F6B68B3F5C01F03D129463046FFF734F96B68B3F5B01F03D129463046FFF716F94E
:4049800070BD00BF08B54B6813F4801F02D0FFF7B3FF08BDFFF73EFF08BD00BF002800F02481F8B50546002900F0218117460C460B78012B03D93F218F4800F02FFD637827
:4049C000012B07D9052B05D0022B03D040218A4800F024FDA378032B03D94121864800F01DFD2378012B07D16368023B0E2B03D94321814800F012FDA36933F00F0303D007
:404A000044217D4800F00AFDA368043B0C2B03D94521794800F002FDE368043B0C2B03D94621754800F0FAFC6378022B07D0A268E3689A4203D047216F4800F0EFFC636A91
:404A400033F06D0303D049216B4800F0E7FCE36A33F0730303D04A21674800F0DFFC236B33F4206303D04B21634800F0D7FC6378A678052B07D8DFE803F00603050606037E
:404A8000022600E00026A368082B04D8E368082B03D9002302E0002300E0012313B14FF4006200E00022237F13B14FF4807300E000231A436368013B03F00F03134343F02C
:404AC00080732B60226A2B6813F4006F01D0802300E040239A4203D35821474800F09EFCA26A2B6813F4006F01D0802300E040239A4203D35921404800F090FC237D0BB948
:404B0000012100E000216278052A01D1022300E000230B43E17C09B1102100E000210B43617C09B1202100E000210B432178012902D14FF0004100E000210B43B60006F032
:404B40000C063343A169090201F470610B43120602F0407213432B62237C13B14FF4807200E00022A37C13B14FF4007300E000231A43A368013B03F00F031343C5F80033C0
:404B800094F82030C5F80433237C13B14FF4807200E00022E368013B03F00F031343C5F8003294F82830C5F80432636A03F06D03C5F8C83FE36A03F07303C5F8883F236B27
:404BC00003F40073C5F8003F236B03F40063C5F8403F0023C5F8C83E5FB118463B60BB61FB60FB61054B3B62F8BD054870470448F8BD0020F8BD00BF48FD0810EFCDAB006A
:404C00000140AA00036823F00043036019B100220A60CA608A61036A002B04DB0023C0F8C83FC0F8883F70472DE9F84305460C46036813F4006F02D04FF0800801E04FF0E3
:404C40004008D5F8007207F00F07A26A012A19D9D4F82490E262561EB9F1000F00D026B940F27351254800F0D9FB324649462846FEF7A0FEA36A1B1AA362072F00D9400012
:404C800048446062D5F80832C3F30803984533D0A36A012B30D10023A362072F02D8636A1E7801E0636A1E8800F023FCC5F840624FF40073C5F8803FD5F8803F00F01DFCA0
:404CC000D5F8883F23F4007222F0010242F4007623F4EE6323F0030323B140F22A41084800F09CFBC5F8886F236843F002032360236B0BB101209847BDE8F88388FD08100C
:404D000084FC08102DE9F04105460C46036813F4006F01D0802600E040267608A769D4F81C8017B1B8F1000F04D14FF49961314800F074FB424639462846FEF7FDFD236A08
:404D400003442362E3691B1AE36173BBA368FBB1E3689E4201D8013E00E05E1E2B6813F4006F01D0802300E040239E4204D34FF42071214800F052FBD5F8043323F0FF0314
:404D8000F6B21E43C5F804630123C5F8C83F02E00023C5F8C83F636823F001036360236B33B304209847BDE8F081A169D5F8002302F00F02072A00D940000844A0619E426F
:404DC00016D95C1E2B6813F4006F01D0802300E040239C4204D34FF42071074800F01EFBD5F8043323F0FF02E3B21343C5F80433BDE8F08188FD081084FC0810002800F04F
:404E0000A48170B50546002900F0A18116460C460B78022B03D93F21A24800F0FFFA637B023BDBB2062B03D940219E4800F0F6FAA37B3BB1022B05D0032B03D04121994809
:404E400000F0ECFA94F82130012B03D94221954800F0E4FA94F82830012B03D94321914800F0DCFA2378012B06D86368083B082B94BF0023012307E0A37F2BB16368013B0E
:404E8000062B94BF002301231BB14521854800F0C5FAA368053B042B03D94621814800F0BDFA6369FF2B03D947217E4800F0B6FAA369FF2B03D948217A4800F0AFFAA37CB7
:404EC0006BB1237833B9A368092B05D1A37B2BB1012304E0012302E0012300E000231BB14A21704800F09AFA636B23F4366323F00D031BB14C216B4800F090FAE36B23F4EC
:404F0000EE6323F003031BB14D21664800F086FA2378022B01D1A37F13B16268013A00E00022237F13B14FF4803100E00021A368082B02D84FF4006300E000230B4302F0CC
:404F40000F02134343F000732B60226B2B6813F4006F01D0802300E040239A4203D36221504800F05BFAA26B2B6813F4006F01D0802300E040239A4203D36321494800F0B6
:404F80004DFA626A2B6813F4006F01D0802300E040239A4203D36421424800F03FFA23781B0603F040732B64637F0BB1402200E00022A37C13B14FF4806300E000231343DF
:404FC000227C12B14FF4807200E000221343627C12B14FF4007200E000221A43E36A013B1B0403F470231343627B013A02F007021343A27B120102F030021343AB64237BC6
:4050000013B14FF4807200E00022E37B23B92378022B03D1012302E0012300E0002313B14FF4007300E000231A43A368013B03F00F031343C5F80033227DA3691B0403F445
:405040007F031343C5F81033E26AD5F8003303F00F0303339A4201D3102A03D97A21114800F0DCF9E37F23B12378012B03D0002302E0002300E0012313B14FF4807200E07D
:405080000022637B013B03F007031A43A37B1B0103F0300313436B64237B2BB14FF4807203E000BFC8FD08100022A368013B03F00F0313432278012A02D14FF4803200E076
:4050C00000221343C5F8003294F83030C5F8043394F8203013B14FF0007200E0002294F82130012B02D14FF0807300E00023134394F82820012A02D14FF4803200E00022E6
:40510000134394F8242013432B6594F83830C5F80432636B23F4926323F002031B051B0DC5F8C83FE36B23F08C035B055B0DC5F8883F76B1002070603060B060F0603062A9
:40514000F0623063044B736370BD04487047034870BD002070BD00BFEFCDAB000160AA000B694A69934202D34869181A7047CA694869101A184470472DE9F04107460D468C
:40518000036813F4006F02D04FF0800801E04FF040084FEA5808D7F80863C6F308062C6926E00134EB689C4200D100246B699C420FD12B6B0BB1082098476B699C4208D107
:4051C0000023C7F8C83F0CB1013C13E0EC68013C10E0D7F84023D7F8003303F00F03072B02D8AB681A5502E0AB6823F81420013E002ED6D12C61EC6829463846FFF7B0FFC6
:40520000201A804519D908B1441E00E000243B6813F4006F01D0802300E040239C4204D34FF42071064800F0F9F8D7F8040320F0FF03E0B21843C7F80403BDE8F08100BF66
:4052400084FC081038B504460D46D0F8003E13F0080F35D0D0F8CC3F13F448730AD04A681A434A60C0F8C03FD0F8C03F0B6B0BB110209847D4F8CC3F13F4006F09D06B6807
:4052800043F400636B604FF40063C4F8C03FD4F8C03FD4F8CC3F13F0010F11D0EB6923B129462046FFF72EFD05E0AB681BB129462046FFF761FF0123C4F8C03FD4F8C03FDB
:4052C000D4F8003E13F0040F2ED0D4F88C3F13F4A0630AD02A681A432A60C4F8803FD4F8803F2B6B0BB120209847D4F88C3F13F0010F08D029462046FFF796FC0123C4F866
:40530000803FD4F8803FD4F88C3F13F4007F0BD00022C4F8882F2B6823F001032B60EA622B6B0BB10220984738BD00BF38B50D4B9A680D4B9A420FD10D46044621B940F20A
:4053400037110A4800F06AF804F11003064A52F8230042F8235038BD1030054B53F8200038BD00BF00ED00E00040020808FE08100000081048B338B504460D464368072B7C
:4053800003D93221134800F049F8B4F900306268002B08DB5201D2B203F1604303F5614383F8002305E003F00F035201D2B20A49CA540A4B9A680A4B9A4208D12946B4F926
:4053C0000000FFF7B3FF002038BD06487047002038BD00BF08FE081014ED00E000ED00E0004002080100560010B5044605E0084B186800F075F8A4F50044B4F5004FF6D8E3
:40540000044B186800FB04F000F06AF810BD00BFAC420208A842020801BEFEE738B50D46044C18220146204608F006FBA5610020FFF7F2FF40490208FEE700BF08B5026865
:40544000254BDA6142681A6282685A62C2689A620269DA6242691A6382695A63C2699A631E4A916AD963D16A1964516A5964516B9964926BDA64F1EE103A13F0900F27D06B
:40548000026A154B1A65426A5A65826A9A65C26ADA65026B1A66426B5A66826B9A66C26BDA66026C1A67426C5A67826C9A67C26CDA67026DC3F88020426DC3F88420826DA9
:4054C000C3F88820C26DC3F88C20026EC3F89020FFF7B2FF08BD00BF4049020800ED00E00230800803D001300238FCD100BF00BF7047EFF3108072B6704780F31088704740
:4055000000287DD00346002A7CD070B45068000280B29568AD0405F480252843D468240404F4403404431069000600F0E0602043147F0CB1012400E0002420430C1DA4019D
:405540001851D06828B903EB81100024C0F808410CE0012805D1146803EB8110C0F8084104E003EB81100124C0F80841106938B9546903EB8110C0F80C419469C0F81041E4
:40558000146803EB8110C0F81441906CB0F1FF3F17D0946A04F00F04166B360206F470663443956B2D0405F470252543146C2403A4B22C430001C0B2204303EB8114C4F874
:4055C0002001506A00F00300D66A360106F030063043556B2D0205F440752843D46BA401E4B20443506C800000F00C00204303EB8113C3F82401126AC3F83821002003E06E
:40560000024870470148704770BC70470100B600014B1860704700BFB090030800F1080343604FF0FF328260C360036100230360704700BF00230361704700BF43684B6083
:405640009A688A609A68516099600861036801330360704730B40D68B5F1FF3F01D1026907E000F1080200E01A4653681C68A542FAD253684B6099608A6051600861036814
:405680000133036030BC704703694268816891608268416851605A68904201D182685A60002202611A68013A1A601868704700BF436A23B1036B1868C0F1070070470020C2
:4056C000704700BF10B5044601F0F4FBA26BE36B9A4201D1012400E0002401F00DFC204610BD00BF10B5044601F0E4FBA36B0BB9012400E0002401F0FFFB204610BD00BF70
:4057000070B504461646856B026C3AB9036843BB406801F0E5F80023636029E06EB9806807F068FCA268236C1344A3606268934219D32368A36000201AE0C06807F05AFC7A
:40574000236C5B42E2681A44E26021688A4202D262681344E360022E07D145B1013D002006E0002004E0002002E0002000E000200135A56370BD00BF026C72B110B5034655
:40578000C4681444C4604068844201D31868D8600846D96807F02EFC10BD704738B5054601F088FB95F8454064B20AE06B6A53B105F1240000F094FF08B101F01FF8013CE1
:4057C00064B2002CF2DCFF2385F8453001F094FB01F070FB95F8444064B20AE02B6953B105F1100000F07CFF08B101F007F8013C64B2002CF2DCFF2385F8443001F07CFB1E
:4058000038BD00BF38B540B94FF03F0383F31188BFF36F8FBFF34F8FFEE704460D4601F049FB2168E26B236C03FB021060600020A063A160013A02FB0313E360FF2384F8BF
:40584000443084F845307DB92369ABB104F1100000F046FF80B14FF08052094B1A60BFF34F8FBFF36F8F07E004F11000FFF7D6FE04F12400FFF7D2FE01F03EFB012038BD46
:4058800004ED00E010B5029B0C4609B91B6000E01A60D8631C6401211846FFF7B3FF10BD40B94FF03F0383F31188BFF36F8FBFF34F8FFEE7F0B583B0034611B101FB00F09F
:4058C00000E000201D4617460C46483001F034FC064638B100903B4600F1480221462846FFF7D0FF304603B0F0BD00BFF0B585B0019240B94FF03F0383F31188BFF36F8FA7
:40590000BFF34F8FFEE7044619B9026C1AB9012202E0012200E0002242B94FF03F0383F31188BFF36F8FBFF34F8FFEE7022B03D1E26B012A02D102E0012200E0002242B96D
:405940004FF03F0383F31188BFF36F8FBFF34F8FFEE71D460E4600F05FFF18B9019B1BB9012302E0012300E0002343B94FF03F0383F31188BFF36F8FBFF34F8FFEE7002727
:4059800001F098FAA26BE36B9A4201D3022D21D12A4631462046FFF7B3FE636A6BB104F1240000F09DFE88B14FF08052324B1A60BFF34F8FBFF36F8F08E038B14FF0805254
:4059C0002D4B1A60BFF34F8FBFF36F8F01F094FA01204EE0019B1BB901F08EFA002048E01FB902A800F0C0FE012701F085FA00F0ADFC01F05FFA94F844305BB2B3F1FF3FDC
:405A000002D1002384F8443094F845305BB2B3F1FF3F02D1002384F8453001F06DFA01A902A800F0ABFEF0B92046FFF74BFEA0B1019904F1100000F01BFE2046FFF7AEFE15
:405A400000F012FD00289BD14FF080520A4B1A60BFF34F8FBFF36F8F92E72046FFF79EFE00F002FD8CE72046FFF798FE00F0FCFC002005B0F0BD00BF04ED00E048B108B5FE
:405A8000002141600160C1600B460A46FFF72EFF08BD704710B5024600210120FFF700FF0446FFF7EBFF204610BD00BF2DE9F84340B94FF03F0383F31188BFF36F8FBFF3C6
:405AC0004F8FFEE7044619B9006C18B9012002E0012000E0002040B94FF03F0383F31188BFF36F8FBFF34F8FFEE7022B03D1E06B012802D102E0012000E0002040B94FF035
:405B00003F0383F31188BFF36F8FBFF34F8FFEE71F469046894601F0D1FAEFF311864FF03F0383F31188BFF36F8FBFF34F8FA26BE36B9A4201D3022F1ED194F845506DB275
:405B40003A4649462046FFF7DBFDB5F1FF3F0DD1636A9BB104F1240000F0C2FD80B1B8F1000F0FD00120C8F800000CE06B1C5BB284F84530012006E0002004E0012002E017
:405B8000012000E0012086F31188BDE8F88300BF40B94FF03F0383F31188BFF36F8FBFF34F8FFEE770B50446036C43B14FF03F0383F31188BFF36F8FBFF34F8FFEE7036832
:405BC0001BB943681BB9012302E0012300E0002343B94FF03F0383F31188BFF36F8FBFF34F8FFEE70E4601F069FAEFF311854FF03F0383F31188BFF36F8FBFF34F8FA26B77
:405C0000E36B9A4218D294F845305BB20132A263B3F1FF3F0AD1636A83B104F1240000F05FFD68B176B1012030600CE001335BB284F84530012006E0002004E0012002E0CA
:405C4000012000E0012085F3118870BDF0B585B0019240B94FF03F0383F31188BFF36F8FBFF34F8FFEE7044619B9036C1BB9012302E0012300E0002343B94FF03F0383F32A
:405C80001188BFF36F8FBFF34F8FFEE70E4600F0C3FD18B9019B1BB9012302E0012300E0002343B94FF03F0383F31188BFF36F8FBFF34F8FFEE7002701F0FCF8A56BC5B171
:405CC00031462046FFF758FD013DA563236963B104F1100000F004FD38B14FF08052304B1A60BFF34F8FBFF36F8F01F005F9012053E0019B1BB901F0FFF800204DE01FB9B1
:405D000002A800F031FD012701F0F6F800F01EFB01F0D0F894F844305BB2B3F1FF3F02D1002384F8443094F845305BB2B3F1FF3F02D1002384F8453001F0DEF801A902A80B
:405D400000F01CFDF0B92046FFF7CCFCA0B1019904F1240000F08CFC2046FFF71FFD00F083FB0028A8D14FF080520D4B1A60BFF34F8FBFF36F8F9FE72046FFF70FFD00F049
:405D800073FB99E72046FFF709FD00F06DFB2046FFF7A8FC00288FD0002005B0F0BD00BF04ED00E070B584B0019140B94FF03F0383F31188BFF36F8FBFF34F8FFEE70446BF
:405DC000036C43B14FF03F0383F31188BFF36F8FBFF34F8FFEE700F01FFD18B9019B1BB9012302E0012300E0002343B94FF03F0383F31188BFF36F8FBFF34F8FFEE700253B
:405E00002E4601F057F8A36BCBB1013BA363236813B900F005FE6060236963B104F1100000F05EFC38B14FF08052414B1A60BFF34F8FBFF36F8F01F05FF8012076E0019B4E
:405E40006BB945B14FF03F0383F31188BFF36F8FBFF34F8FFEE701F04FF8002066E01EB902A800F081FC012601F046F800F06EFA01F020F894F844305BB2B3F1FF3F02D14E
:405E8000002384F8443094F845305BB2B3F1FF3F02D1002384F8453001F02EF801A902A800F06CFC40BB2046FFF71CFCF0B123683BB900F0FFFF606800F0BEFC054601F00A
:405EC0001BF8019904F1240000F0D2FB2046FFF765FC00F0C9FA002893D14FF08052144B1A60BFF34F8FBFF36F8F8AE72046FFF755FC00F0B9FA84E72046FFF74FFC00F036
:405F0000B3FA2046FFF7EEFB00283FF47AAF65B100F0D0FF2046FFF7CBFB0146606800F029FD00F0E9FF002000E0002004B070BD04ED00E000230BE0074A52F8332032B93E
:405F4000054A42F8331002EBC303586070470133092BF1D9704700BFB490030870B504460D46164600F0A6FF94F844305BB2B3F1FF3F02D1002384F8443094F845305BB2A6
:405F8000B3F1FF3F02D1002384F8453000F0B4FFA36B2BB93246294604F1240000F082FB2046FFF7FBFB70BD094B9B6A1B680BB9012300E0002323B14FF0FF32044BDA6201
:405FC0007047034B9A6AD268D2685268DA627047E0F9020810B50446006B01F0DDF8204601F0DAF810BD00BF2DE9F04780460D4616469946DDF820A0099F0A9C9200A521C3
:40600000206B07F01DF8236B06F18042013A03EB820626F00706002306E0E95CE21882F83410EA5C12B101330F2BF6D9002384F84330BAF1060F01D94FF0060AC4F82CA0DF
:40604000C4F844A00025A564201DFFF7F3FA04F11800FFF7EFFA2461CAF10703A36164622B4606E003F1120204EB8202002151600133042BF6D90023236684F864304A4610
:406080004146304600F0EEFE206007B13C60BDE8F08700BF70B5002407E004EB8402930010481844FFF7BAFA0134062CF5D90E4C04F1BC063046FFF7B1FA04F1D00528462D
:4060C000FFF7ACFA04F11400FFF7A8FA04F1E400FFF7A4FA2046FFF7A1FAA662C4F8F85070BD00BF10FA0208E0F9020838B5044600F0E0FE264BD3F8FC200132C3F8FC20A9
:40610000D3F800314BB9224BC3F80041D3F8FC30012B10D1FFF7BEFF0DE01D4BD3F804314BB91B4BD3F80031DA6AE36A9A4202D8174BC3F80041164AD2F808310133C2F88E
:406140000831E36AD2F80C21934202D9104AC2F80C310F4D05F1300003EB83039A00211D1044FFF76BFA00F0C7FED5F804316BB1D5F80031DA6AE36A9A4207D24FF08052FC
:40618000044B1A60BFF34F8FBFF36F8F38BD00BFE0F9020804ED00E038B517E000F08AFE0D4CD4F8F030DD68281DFFF76DFAD4F8FC30013BC4F8FC30D4F81031013BC4F8C5
:4061C000103100F099FE2846FFF704FF024BD3F81031002BE2D138BDE0F9020808B5FFF7DBFF064B1B6B012BF9D94FF08052044B1A60BFF34F8FBFF36F8FF0E7E0F902082B
:4062000004ED00E070B504460E46174BD3F81451D3F800010430FFF737FAB4F1FF3F07D136B11148D0F800110431FFF707FA70BD2C440D4BD3F800315C60A54208D90A4B47
:40624000D3F8F800D3F800110431FFF703FA70BD054DA86AD5F800110431FFF7FBF9EB6A9C4200D2EC6270BDE0F902082DE9F04385B006460F4615469846900000F05CFF33
:4062800060B18146682000F057FF044610B1C0F8309004E0484600F07FFF00E000248CB10023039302940D9B01930C9B009343462A4639463046FFF797FE2046FFF716FFE5
:4062C000012001E04FF0FF3005B0BDE8F08300BF00B583B0194B019300230093802218491848FFF7C3FF012801D100F0FFFB012814D14FF03F0383F31188BFF36F8FBFF30C
:406300004F8F114B4FF0FF32DA620122C3F804210022C3F8142100F06FFE0BE0B0F1FF3F08D14FF03F0383F31188BFF36F8FBFF34F8FFEE703B05DF804FB00BFFCFA0208E7
:40634000BCFF0810DD610810E0F90208034AD2F818310133C2F81831704700BFE0F90208014BD3F814017047E0F902082DE9F0413C4BD3F81831002B65D13A4BD3F8144173
:406380000134C3F81441CCB99B6A1B6843B14FF03F0383F31188BFF36F8FBFF34F8FFEE7304B9A6AD3F8F8109962C3F8F820D3F820210132C3F82021FFF7F6FD294BDB6AE5
:4063C0009C4203D2002645E0012600E00026254B9B6A1B680BB9012300E0002323B14FF0FF32204BDA6235E01E4B9B6ADB68DD686B689C4202D21B4AD3622BE005F104086D
:406400004046FFF741F9AB6A1BB105F11800FFF73BF9EB6A134AD2F80C21934202D9114AC2F80C310F4F07F1300003EB83039A0041461044FFF702F9EA6AD7F80031DB6AE9
:406440009A42C1D2C3E7074AD2F824310133C2F824310026034BD3F8283103B101263046BDE8F081E0F90208394BD3F8183143B94FF03F0383F31188BFF36F8FBFF34F8F0A
:40648000FEE770B500F016FD314BD3F81821013AC3F81821D3F81831002B52D12C4BD3F8FC303BBB00244FE0294D2B6ADC6804F11800FFF7E9F8261D3046FFF7E5F8E36AFB
:4064C000D5F80C21934201D9C5F80C31204D05F1300003EB83039A0031461044FFF7AEF8E26AD5F80031DB6A9A4204D30122C5F8282100E00024164B5B69002BD4D10CB1D0
:40650000FFF752FD124BD3F8244164B1FFF72EFF18B101220E4BC3F82821013CF6D100220B4BC3F824210A4BD3F828315BB14FF08052084B1A60BFF34F8FBFF36F8F0124C4
:4065400002E0002400E0002400F0D6FC204670BDE0F9020804ED00E010B5B0B10446104BD3F8183143B14FF03F0383F31188BFF36F8FBFF34F8FFEE7FFF7E8FE002120461D
:40658000FFF740FEFFF770FF00E0002038B94FF08052044B1A60BFF34F8FBFF36F8F10BDE0F9020804ED00E0304BD3F8183123B101222E4BC3F82821704710B52B4B00229F
:4065C000C3F82821D3F800311B6B1A68B2F1A53F0BD15A68B2F1A53F07D19A68B2F1A53F03D1DB68B3F1A53F07D0204BD3F80001D3F80011343100F08DFD1C4BD3F80C31AF
:406600000AE043B94FF03F0383F31188BFF36F8FBFF34F8FFEE7013B03EB83018A0013490A44126B002AECD008469900CC18A2000244546B64685463303019448A00083204
:406640000244944206D1606803EB83018A0007490A445063054903EB830082000A44526BD268C1F80021C1F80C3110BDE0F9020840B94FF03F0383F31188BFF36F8FBFF321
:406680004F8FFEE710B50C46054BD3F800111831FEF7E0FF01212046FFF7B4FD10BD00BFE0F9020838B540B94FF03F0383F31188BFF36F8FBFF34F8FFEE70C461546074A80
:4066C000D2F800111831FEF7B9FF0DB14FF0FF3429462046FFF796FD38BD00BFE0F9020838B5C368DC6844B94FF03F0383F31188BFF36F8FBFF34F8FFEE704F11805284616
:40670000FEF7C2FF154BD3F81831ABB9251D2846FEF7BAFFE36A114AD2F80C21934202D90E4AC2F80C3103EB83039A0029460C481044FEF783FF03E029460A48FEF77EFF1D
:40674000E26A064BD3F80031DB6A9A4204D90120024BC3F8280138BD002038BDE0F9020810FA0208F4F90208034BD3F820210260D3F8143143607047E0F90208F8B540B989
:406780004FF03F0383F31188BFF36F8FBFF34F8FFEE7054641B94FF03F0383F31188BFF36F8FBFF34F8FFEE70C4600F083FB124BD3F814016968421A2368B3F1FF3F14D0AF
:4067C0002F680D4ED6F82061B74201D088420ED29A4206D29B1A23602846FFF7C5FF002406E000232360012402E0002400E0012400F082FB2046F8BDE0F902080122024B15
:40680000C3F82821704700BFE0F90208014BD3F800017047E0F90208064BD3F804312BB1044BD3F818311BB9022070470120704700207047E0F90208002849D038B5034603
:40684000C26A2549D1F80011C96A8A4237D28169002906DB2049D1F80011C96AC1F107018161586902EB820291001C4A1144884201D1012200E00022D2B11D461C1D2046D2
:40688000FEF702FF144AD2F80031DB6AEB62D2F80C21934202D9104AC2F80C3103EB83039A0021460D481044FEF7C8FE012038BD094AD2F80021D26ADA62012038BD426C96
:4068C000054BD3F80031DB6A9A4203D3002038BD00207047012038BDE0F9020810FA020800283DD038B50346204AD2F80021904208D04FF03F0383F31188BFF36F8FBFF300
:406900004F8FFEE7826C42B94FF03F0383F31188BFF36F8FBFF34F8FFEE7013A8264C06A596C88421ED0FAB91C461D1D2846FEF7ABFE636CE362C3F10702A2610B4AD2F8E0
:406940000C21934202D9094AC2F80C3103EB83039A00294606481044FEF770FE012038BD00207047002038BD002038BDE0F9020810FA020800284DD038B50346806C40B900
:406980004FF03F0383F31188BFF36F8FBFF34F8FFEE75A6C8A4200D20A46D96A8A4238D0012836D11C48D0F80001834208D14FF03F0383F31188BFF36F8FBFF34F8FFEE7A7
:4069C000DA629869002802DBC2F107029A61586901EB81018A0011490A44904201D1012200E00022AAB11C461D1D2846FEF74CFEE36A094AD2F80C21934202D9064AC2F87F
:406A00000C3103EB83039A00294604481044FEF715FE38BD704700BFE0F9020810FA0208064BD3F800312BB1044BD3F80021936C01339364014BD3F800017047E0F9020852
:406A4000064B1A681368B3FA83F35B09036013B9D368186870470020704700BF0CFB020808B54160006191420AD8D21A83699A4211D2011D0A4B5868FEF7ECFD002008BDF8
:406A80009A4201D2994208D2011D054B1868FEF7E1FD002008BD012008BD012008BD00BF0CFB020870B500F005FA0E4B9B68B3B90C4C04F10C063046FEF7B0FD04F12005C3
:406AC0002846FEF7ABFD2660656000220C210A20FEF7E6FEA06010B10349FFF72BFA00F00BFA70BD0CFB0208C4FF081000B583B0FFF7D8FF0D4B9B6853B10D4B0193032392
:406B00000093002380220B490B48FFF7AFFB00E0002040B94FF03F0383F31188BFF36F8FBFF34F8FFEE703B05DF804FB0CFB020840FB0208CCFF0810D16D081040B94FF03A
:406B40003F0383F31188BFF36F8FBFF34F8FFEE730B585B015460446124A9068F0B11A46019102950394052913DCFFF755FE022807D10023089A01A90A488068FEF7B6FE11
:406B80000DE000231A4601A906488068FEF7AEFE05E0002301A9FEF789FF00E0002005B030BD00BF0CFB020870B582B029E0DB681E68DC68251D2846FEF766FD636A20469B
:406BC0009847E369012B1CD1A36933449E4207D2636024612946104B1868FEF73BFD10E0002100910B4632462046FFF7A7FF40B94FF03F0383F31188BFF36F8FBFF34F8F20
:406C0000FEE7054B1B681A68002AD0D1024A51681160536002B070BD0CFB020838B50546FFF79EFB0446074B9B6B984204D2FFF7BBFF01232B6001E000232B60014B9C63E4
:406C4000204638BD0CFB020870B582B005460E46134B1B68DB68DC68201DFEF715FDE369012B18D1A1692B46324629442046FFF7F7FE80B1002100910B462A462046FFF7F4
:406C80005DFF40B94FF03F0383F31188BFF36F8FBFF34F8FFEE7636A2046984702B070BD0CFB020870B582B006460C46FFF74EFB01A8FFF7B3FF019B1BBB054644B9B04297
:406CC00006D3FFF7D1FB29463046FFF7BDFF1AE02CB10E4B5B681C68B4FA84F464092246711B0A4B9868FFF739F9FFF7BDFB50B94FF08052064B1A60BFF34F8FBFF36F8F14
:406D000001E0FFF7B1FB02B070BD00BF0CFB020804ED00E030B587B04DE0039B002B4ADB059C636913B1201DFEF7AEFC02A8FFF775FF039B092B3ED8DFE803F00505053D0A
:406D4000273A05053D270499A5690B46024629442046FFF785FE70B3636A20469847E369012B28D1A269002100910B46049802442046FFF7E3FEF0B94FF03F0383F31188A8
:406D8000BFF36F8FBFF34F8FFEE70499A16141B94FF03F0383F31188BFF36F8FBFF34F8FFEE70346024601442046FFF759FE02E0204600F0F1F9002203A9044B9868FEF7A3
:406DC00045FF0028A9D107B030BD00BF0CFB020800B583B001A8FFF733FE0199FFF762FFFFF798FFF6E700BF82B0002301930D4B1B68B3F1FF3F08D04FF03F0383F3118859
:406E0000BFF36F8FBFF34F8FFEE74FF03F0383F31188BFF36F8FBFF34F8F019B002BFCD002B07047D042020808480068006880F308884FF0000080F3148862B661B6BFF3F3
:406E40004F8FBFF36F8F00DF00BF000008ED00E0DFF80C00016841F4700101607047000088ED00E04FF0807340F8043C21F0010140F8081C054B40F80C3C40F8202C6FF0E6
:406E8000020340F8243C4438704700BFE96D0810074B19680868B0E8F04F80F30988BFF36F8F4FF0000080F311887047AFF30080E0FA02084FF03F0383F31188BFF36F8FBF
:406EC000BFF34F8F0A4A136801331360012B0DD1084B1B6813F0FF0F08D04FF03F0383F31188BFF36F8FBFF34F8FFEE7704700BFD042020804ED00E0094B1B6843B94FF099
:406F00003F0383F31188BFF36F8FBFF34F8FFEE7013B034A13600BB983F31188704700BFD0420208000000000000000000000000EFF30980BFF36F8F154B1A681EF0100F50
:406F400008BF20ED108A20E9F04F10602DE909004FF03F0080F31188BFF34F8FBFF36F8FFFF722FB4FF0000080F3118809BC19680868B0E8F04F1EF0100F08BFB0EC108AED
:406F800080F30988BFF36F8F704700BFAFF30080E0FA020808B54FF03F0383F31188BFF36F8FBFF34F8FFFF7E1F918B14FF08052024B1A60002383F3118808BD04ED00E0DB
:406FC000084A0023136008490B60084B1B680849A1FB03139B09013B06490B6007231360704700BF10E000E018E000E09C420208D34D621014E000E010B582B02A4B1A7873
:40700000D2B20192FF221A701B78DBB28DF803309DF80330254A03F03F0313700723536009E0224A5368013B53609DF803305B00DBB28DF803309DF8033013F0800FF0D168
:407040001A4B5B68042B08D04FF03F0383F31188BFF36F8FBFF34F8FFEE71B0203F4E063124A5360019BDBB20F4A1370104B1A6842F47F021A601A6842F07F421A60FFF7CE
:407080009FFF00240B4B1C60FFF7E2FE0A4A136843F040431360FFF7C7FEFFF785FAFFF7A3FE204602B010BD00E400E048FB020820ED00E0D042020834EF00E0EFF305833B
:4070C0000F2B0FD9104A9B5CDBB2104A1278934208D24FF03F0383F31188BFF36F8FBFF34F8FFEE70A4B1B6803F4E063074A5268934208D94FF03F0383F31188BFF36F8F35
:40710000BFF34F8FFEE77047F0E300E048FB02080CED00E008B54FF03F0383F31188BFF36F8FBFF34F8F4FF441710248FEF776F9FEE700BFD4FF081038B5044610F0070F3E
:4071400002D020F007040834FFF700F9104B1B682BB90F4A02F10C0323F0070313600D4BD3F814361C4442F2F772944208D8A34208D2074A15681D44064BC3F8144602E0F4
:40718000002500E00025FFF76FF9284638BD00BF50FB0208401D030840B14FF03F0383F31188BFF36F8FBFF34F8FFEE7704700BF70B539B900240AE015F8010BFBF772FFAB
:4071C000013402E016460D460024B442F4DB204670BD00BF70B561B900240FE0FBF76EFFC0B2287001340A2808D00D2806D0013502E016460D460024B442EFDB204670BD4B
:4072000008B502490248FEF71DF808BD049103080000664008B5114B1B785BB9104A11491148FDF7EBFD11491148FEF7A3F801220A4B1A700E4BB3F90030002B08DB590954
