:020000041000EA
:4000000000400208230100100D00000085010010000000000000000000000000000000000000000000000000000000008101001000000000000000008101001081010010E9
:400040008101001081010010810100108101001081010010810100108101001081010010810100108101001081010010810100108101001081010010810100108101001060
:400080008101001081010010810100108101001081010010810100108101001081010010810100108101001081010010810100108101001081010010810100108101001020
:4000C00010B5064C2378002B07D1054B002B02D0044800E000BF0123237010BD3C0600080000000044310010084B10B5002B03D00749084800E000BF07480368002B00D1B5
:4001000010BD064B002BFBD09847F9E7000000004006000844310010E8000008000000007047FFF7FDFF72B60F4C104DAC4209DA21686268A368043B02DBC858D050FAE734
:400140000C34F3E70A490B4A0020521A02DD043A8850FCDC084809490860BFF34F8F00F007F900F01DF8FEE748310010603100103C0600084C0800080000000808ED00E043
:40018000FEE7FEE700B504207146084202D0EFF3098001E0EFF30880043001F0E1FAFEE710B5034800F06AF9002001F093FEFBE70000081010B5002001F04EF810BDC04640
:4001C00070B56249E0239B00CB580F2213401A00D0329200525807210A40032A05D0042A06D0002A12D15A4814E05A4A106811E01A00C0329200554952581F210A40112ABF
:4002000006D0132A04D0FA20C00103E0524801E080200002002B36D14C4BB222D2009A5801211140B125ED005A59120F032422405B591B0F1C4207D0444C63591B0F032458
:400240002340012B02D102E0012300E00023002B01D0002901D1032A4BD13C4BB022D2009D58AD03AD0B3D495958C904C90C9C58240E01231C40013401F0DEFE68432100FE
:4002800001F0DAFE35E0012B33D1304BC822D2009A5801251540C024E4001A59120F03210A401B591B0F194207D028490B591B0F03210B40012B02D102E0012300E000237C
:4002C000002B01D0002D01D1032A12D11F4DC022D200AB587F210B40A958090A1F263140AC58240C3440584301F0A6FE210001F0A3FEE0239B00154AD3581B0903221340CC
:40030000D840144C6060164B1D692D0AFC32154001351969090E013101F08EFEA060290001F08AFE0500E06020610E4BC0180E4901F082FE20750D4BE818FA21890001F083
:400340007BFEA061C003E06170BDC0460000264000127A00C000000800366E0184050000000021403F420F0040420F00E703000010B5284801F05AFE274CB022D200A358E8
:400380005B005B08A350E0218900635830208343635080235B04A350204A214BE250A02292010433E250FF221E4BE25001F02CFEC0225200A35801218B43A35000F05CFA94
:4003C000FFF7FEFEB0235B055B78002B04D0B0235B055B78DBB200E02123212B03D1124B0022DA605A60114C22008021042000F0D9FC2000103000F06DFD0D4B1A685123AB
:40040000D35C002B02D00B4800F0DAFD00F0A2FB10BDC0468C3000100000264001000200840500008C050000E00023405806000848080008C02100108023024AD358032098
:40044000184070470000214010B501F01AFA084980228C58074B2340074C23438B508823034AD358DB06FAD501F00FFA10BDC04600002140FCFF00000100FA0570B50500FC
:40048000830504D0E821FF310F4801F03BF901F0F8F90400FFF7D0FF032801D1FFF7D4FF0A4AB0239B00D55080215058084B03400848034353508823044AD358DB06FAD5E7
:4004C000200001F0E2F970BDF421001000002140FCFF00000300FA05FEE7C046F0B50025002711E0BB00C658F3B2FF22964308E06A008A181478A419527822700135013B10
:40050000DBB2002BF4D10137002FEBD0F0BDC04610B50A00002101F024FE10BD10B501F017FE10BDF0B55F4656464D464446F0B487B0BD49A022D2008B58032083438B50E2
:40054000BA490B681A6885301B58D2181068B84B184010600A68106884241259801802681202120A0260086805680259AA181068034080204000034313600B683E229A5C86
:40058000002A06D0A848E02189004258753CA24342503E229A5C002A06D0A348E021890042583024A24342503E229B5C002B07D09D49E02292008B588020000603438B5052
:4005C0000021012000F07AFE0021022000F076FE0021032000F072FE0021042000F06EFE0021002000F06AFE01A8924903000A0032CA32C312CA12C300F08EFE002802D023
:400600000420FFF769FF88498B4A8B588020000603438B50894800F03BFF002802D00420FFF75AFF804C864BE158864A0A40E250E158854A0A40E250E25880252D062A435B
:40064000E250043BE158814A0A40E250E158804A0A40802189010A43E250E258802109020A43E2507B4A11687B4B0B40802149000B431360002001F0A9FC784BE258154328
:40068000E550E158012291430A43E2506421002001F07EF8654B1B683F229A5C052A06D970229A5C01210A406D49986842509A6874215B5AD21851685D4B0B408E21C9011B
:4006C0000B435360594B1B6873229A5C0321914070229A5C7220185C140084402143012002400A43802109060A438021C900986842509A6852583F229A5C062A03D90021AF
:40070000584A986881509A6874215B5AD3181968474A0A401A60454B1B687322995C703A8A40110070229A5C7220185C82400A43802109060A438021C900986842509A687F
:4007400052583F229A5C132A0AD97122985C703A82401100032282400A404349986842509A6876215B5AD2181168404B0B4040490B4313602D48056873239C46EA5C703BE9
:40078000190091407027EC5D7222AA5C944021430C0071229346AA5C012191401E00964032000A4022438024240622438021C900AE687250AA6856587A26AD5BA8469044B8
:4007C00042461268FF252A402A4D2A4345462A6002689568A846925B42441568A846F825A94645464E46B543156000686246825C1D009540AC46C25D7225465DB240160072
:40080000624616435A46825C93401A003300134323438268535083685B5807B03CBC90469946A246AB46F0BD0000264048080008FF00FFFF0C220010087F0000400D030078
:4008400004050000FEFCFFFFFFFF00FFFFF0FFFFFF8FFFFF00002740FFFCFFFF0C050000140C0000180C00004C0C0000FF0000FF004FC300003F420F70B58AB0962100201E
:4008800000F086FF00F05CFF002814D100F048FFC0235B00494AD358DB0705D41100484A8B585B005B088B504449454A8B588020000603438B50012001F026FA414A516C1E
:4008C000414B0B40E82189010B435364536C1B0AFF2213403A2B07D13A4A516C3B4B0B40E82189010B435364FFF71CFE384A394B1A6000240CE0620012195300364AD3185F
:40090000198B9A8AD88A00041043FFF701FE01340B2CF0D900240AE06200121993002E4AD3185A6E196ED86DFFF7F8FD0134112CF2D92A4D2900343128003830FFF7CEFD69
:40094000274A1368832149000B43136001AC22002B003C3343CB43C243CB43C243CB43C22100204800F0FEF822002B00603323CB23C223CB23C223CB23C221001A4800F000
:40098000F1F81A4D22002B1D43CB43C243CB43C243CB43C22100164800F0E4F822002B00283323CB23C223CB23C223CB23C22100104800F0D7F80AB070BDC046000026404D
:4009C0000C05000000002740FF00FFFFFFC5FFDF0300FA05F00121400C2200100C2300100079344000003240800232408C2300100003324000063240214B984230D00ED8E4
:400A0000402831D004D800281FD010282AD031E080282BD080235B00984229D02AE0194B984229D007D8A0231B0698420DD0164B984212D01EE0154B98420AD0144B984280
:400A400009D0144B984215D101E0002016E0124814E0124812E0124810E0A020C0030DE007480BE00F4809E00F4807E00F4805E0034803E00E4801E0A420C0037047C04696
:400A800006005200010000F0090000A0040000F0050000F0030000F0010052000200520003005200010050000200500005005200FF00520070B5124B1A683123D35C002B6F
:400AC00004D1C421FF310F4800F01CFE0C4B1D682C00B423EB582A6A944663441B68002B0BDB094B1868FFF787FF6B6801229A6063689B68002BFBD100E0044870BDC0467C
:400B000048080008082D0010E80700080200500010B50D4B1861002805D002230370FD33437000234380094B1B6850229A5C002A08D051229B5C002B04D04F3A044900203B
:400B400000F0F8FA10BDC046E8070008480800086101000810B502481430FFF7D9FF10BDE807000870B505000C0000285DD000295DD0FF230A689A4303D099212D4800F0DE
:400B8000C1FDFF2322699A4303D09A21294800F0B9FDA3685B0D03D09B21264800F0B2FD63685B0A03D09C21224800F0ABFDE3695B0F03D09D211F4800F0A4FD236A5B0F41
:400BC00003D09E211B4800F09DFD1B4A11688B69EB1ADB0949691B01CB18216829607D211068415C6918E06808607E211068415C6918206908607F211068415C69186069EF
:400C000008607C211068415C6918A06808606168A961116880228A5CAD18A2692A60E2691A60226A5A60002002E0044800E0034870BDC046482D00104808000801005A008C
:400C400070B504000D000A4B1A68B423D3581B181B68002B0ADA0B0C03D00649064800F051FD2D042D0C6560002000E0034870BD48080008D5020000C82D001001008A0075
:400C800070B505000C000368002B01DA002300E0084B002B0BD1EA60230C03D00649074800F030FD2404240CAC60002000E0014870BDC04601008A00BB020000C82D0010FC
:400CC00070B505000C1E03D19921084800F01AFD074B1A68B423D3585B191B68002B03DAEB682360002000E0024870BD082E00104808000801008A0070B504000D00234BCC
:400D00001A683123D35C834236D9002936D00B68DB0635D13123D35C984204D3C421FF311B4800F0EFFC194B1B681A6AB0215B5A5C431419174E34602B68DA0800216868AE
:400D400001F00FFA00212000FFF77AFF3468002D03D111490E4800F0D5FC2A0000212000FFF78EFF00280DD10A4B18680021FFF767FF002808D108E0084806E0074804E023
:400D8000064802E0064800E0054870BD48080008C82D0010000800089303000003018A0001018A0010B50400002A17D1002915D1124B1A683123D35C984204D3C421FF312C
:400DC0000F4800F09FFC0D4B1B681A6AB0215B5A5C4314190B4B1C6000200EE0002A09D0002909D0074B59609A60191D2000FFF783FF02E0044800E0034810BD480800082A
:400E0000C82D00100008000803018A00F0B583B00D001C4B1B68DC68236883422DD947097B01C01A012383401E00002903D100F028FD019001E000230193124B1868036878
:400E4000002B01DA002300E00F4B002B0ED16368BF00DF193B68334203D0B3433B60002400E00A4C0021FFF7EBFE00E0084C002D04D1019800F009FD00E0064C200003B0E3
:400E8000F0BDC0460008000801008A00020188000301880004018A000A4B1B68DA68136883420BD943095901401A0121814052689B009B580B4203D0034802E0034800E05D
:400EC00003487047000800080101880004018A0000018800034B1B68002B01D1014B18607047C0460C080008F0B5474680B404000F0090461E002D4B1B68002B03D1B52196
:400F00002B4800F0FFFB294B1B682C2060431C18FF22150035402560330A13406360360CA660244B1A683123D35C9D4204D3C421FF31214800F0E6FB1E4B1A68B023D35A0B
:400F40006B43116A8C466344236166683223D35C9E4204D3E021FF31174800F0D3FB154B1B681D6A80367601AD196561A668330C04D0FF214900104800F0C4FB330C03D02E
:400F80000E490D4800F0BEFB3604330C1E43AE604346E36127620023A361069B002B02D000229B5EA38104BC9046F0BD0C080008482E001048080008C82D0010FF01000058
:400FC000F0B58FB0041E03D15221294800F09AFB6368032B03D95421254800F093FBE36A002B03D15821224800F08CFB236B002B03D159211E4800F085FB07AA1300210011
:4010000061C961C321C921C302AD290023001433C1CBC1C141CB41C10821535E0CAE3380144B1B6836215B5E07998C466344B370089B0D930B9B0A980096A26AE16AFFF753
:4010400053FF2B69E868002200920021FFF74CFF216B300000F0E8FA0023F25E002A05DB1F231A401E3B9340034A13600FB0F0BD482E00104808000800E100E0F8B50500D4
:401080000F0016001C00002A03D1FD21224800F039FB224B1B68002B03D1FE211E4800F031FB1E4B1B682C2128004843181879435918012213004D68AB401B044568AA40E0
:4010C00015000269002A20D08F69002F1FD11268002A01DA002200E0114A002A19D132681204120C134333600369DE6001238B614C6204692B0C03D00A490B4800F002FB26
:401100002A04120CA260002004E0084802E0084800E00748F8BDC046482E00100C08000801008A00BB020000C82D001004028A0007028A0070B504000D0016000F4B1B68B6
:40114000002B04D1AF2149000D4800F0DBFA0B4B1B682C2060431C18236A002B04D1B1214900074800F0CEFAE369B34204D9236AB6009D51002000E0024870BD0C080008AF
:40118000482E00100A028A0070B582B0040000230193002804D1D221FF312D4800F0B2FA2369002B04D1E9214900294800F0AAFA6369002B04D1D421FF31254800F0A2FA02
:4011C000236A002B04D1EA214900214800F09AFA6269D5682B0C24D01B041360136820691C4B1A68B423D358C3181B68002B18DA01A9FFF765FD00280ED1019803681E0CBB
:40120000FF221340E269934207D29B00226AD358002B02D0984700E0002631002069FFF70FFD2D042D0C0FD063691D601B68636A002B03D098470023636203E0A36A002B8F
:4012400000D098470023A36163691B6802B070BD482E00104808000810B50400084B1B68002B04D1B221FF31064800F04BFA044B1B682C2060431818FFF786FF10BDC04628
:401280000C080008482E001010B50400094B1B689B6CC340DB0703D4BE21074800F032FA044B1B681B691034A402E3580F20184010BDC04648080008882E0010134B1A680C
:4012C0003C23D35C83421DD9042904D94B1EFF3B9BB2132B18D8FF290CD91F2319400C4A0300C0339B009950D03080000423835000200AE007231940D0308000044BC1501E
:40130000002002E0034800E002487047480800080000264001004A0070B5041E03D14A494A4800F0EFF9B023DB00494AD358002B00DA87E0474B22689A4203D94649434898
:4013400000F0E0F923689B039B0BE279002A02D08022520400E000221343B022D2003C498B50A2883D4B9A4204D98C218900374800F0C8F922893A4B9A4203D93949334874
:4013800000F0C0F9A388DB04D90C23891B04364A13400B43354A2E498B50A37A0F2B04D98E218900294800F0ADF9E37A0F2B03D92F49264800F0A6F9A289284B9A4203D927
:4013C0002C49224800F09EF9A37A0F211940E27A1201FF2313400B43A289120226490A401343A27B1207C02189050A401343B122D20017498B50A379042B03D91F49134852
:4014000000F080F9228A164B9A4204D9912189000E4800F077F90E4819494558194B1D40A3791B02E022D20013402B4343504558154B1D40238A1B040B4A13402B43435046
:40144000002000E0114870BD1F020000C82E001000002640FFFF030029020000FF1F0000FF010000310200000000FF0184050000390200003A02000000FF1F004302000079
:401480008C050000FFF8FFFFFFFF00FE03004A0070B505003149324A8B588020000603438B502C0003E0012000F020F9013CB223DB002A4AD3585B0701D4002CF3D1274937
:4014C000B122D2008858274B03408020800503438B50002D01D0002C0CD02049B022D2008B588020000603438B5003E0012000F0FDF8013CB223DB00184AD358DB0701D495
:40150000002CF3D1002D01D0002C08D01349B122D2008B58C020800503438B5013E00F4BB121C90058580F4A02408020800502435A5008395A58520052085A5008495A58BC
:40154000520052085A50002D03D0002C03D0002002E0002000E0044870BDC046000026408C050000FFFFFFCF02004A0070B505000C001A4B1B6828229A5C012A15D182088D
:4015800007211000884327D19200AD1AED00FF20A8401B6820339A181168AC4023004B40184004004C40146016E03A229B5EDBB2994203D176210A4800F0A4F8074B1B681B
:4015C0001B68072215408022120615438022920194466444A400E55070BDC04648080008502F001070B504000D000B4B9A680B4B9A420CD1002904D13821FF31084800F0CA
:4016000081F81034054BA400E058E55003E01034A400044BE05870BD00ED00E000000008502F001000000010F0B5474680B482B0061E01914AD04368032B03D932212648BB
:4016400000F060F80023F05E002804DBB178FFF78DFF002400E0214C0023F15E7368002912DB88081E4FC0308000C55903221140C900FC3290468A4095439A014346134044
:401680008B402B43C35116E089B20F220A40083A92080632920013481018476803221140C900FF252A008A4097439A012B0013408B403B4343600B4B9A680B4B9A4206D1C2
:4016C0000023F05E0199FFF78DFF00E0034C200002B004BC9046F0BD502F00100100560000E100E000ED00E00000000810B5034B1B78584300F0BCF810BDC046D400000809
:4017000001BEFEE770B50D00044C18220100200000F02FFDA5610020FFF7F2FF00060008054B802212069A649B6C002B01DB002000E002487047C046000027400300460024
:40174000054B8022120198585B68FF221A4202D08023DB021843704700002640FEE7C04610B50A4B0268DA6142681A6282685A62C2689A620269DA6242691A6382695A6357
:40178000C2699A63FFF7EAFF10BDC04600060008F0B5474680B4002801D0192300E064238B429B415B42304D2C682268A826A45BA41822680327BA433B401A4322602C6836
:4017C0002268A45BA2181668284CA046264016602C682668AA229446A25A96193268BA43134333602A6813686546525BD3181A68444614401C60002805D010291BD921295F
:401800001BD8012024E0184B1B6855229A5C914215D956229A5C914213D957229A5C914211D958229A5C91420FD959229B5C99420DD804200CE000200AE0022008E0002082
:4018400006E0012004E0022002E0032000E00520054A1268526813680F218B430343136004BC9046F0BDC04648080008FFFCFFFF0230800803D001300238FCD1C046C04631
:401880007047EFF3108072B6704780F31088704710B5B0235B059B899BB2002B04D0B0235B059B899BB201E080235B0080225200934215D1184C23681968683A9B58C918DE
:4018C0000B680F208343963A13430B6021680C689C23CB58E318196881430A431A6019E00D4C2368196898229B58C918B02040050A4BC2580A4B13400A681343C0229200B5
:4019000013430B60226811689C23D358CB18054A82581A6010BDC0464808000848180000FFFCFFFF4418000030B5B0235B059B899BB2002B04D0B0235B059B899BB201E086
:4019400080235B0080225200934215D1184C23681968683A9B58C9180B680F208343953A13430B6021680C689C23CB58E318196881430A431A6019E00D4D2B6819689822D5
:401980009B58C918B0246405C12040012258094B13400A681343C022920013430B602A6811689C23D358CB1822581A6030BDC04648080008FFFCFFFFB0235B059B899BB222
:4019C000002B04D0B0235B059B899BB201E080235B008022520093420DD1104B1B681A6898215B58D21811680D4B0B40C021C9010B43136011E0094B1B68196898229B588A
:401A0000C918084BB0225205D258074B13400A681343C022920013430B60704748080008FF8FFFFF18180000FFFCFFFF30B5B0235B059B899BB2002B04D0B0235B059B89DA
:401A40009BB201E080235B008022520093420DD1134B1B681A6898215B58D2181168114B0B408021C9010B43136018E00C4D2B68196898229B58C918B02464050A48225892
:401A80000A4B13400A681343C022920013430B602A6811689C23D358CB1822581A6030BD48080008FF8FFFFF4C180000FFFCFFFF10B5B0235B059B899BB2002B04D0B0234C
:401AC0005B059B899BB201E080235B0080225200934217D10020FFF7D7FBB0235B055B78002B04D0B0235B055B78DBB200E02123222B03D8002803D1013004E0012002E0A5
:401B0000002000E0012010BD30B585B004000D00022807D9042805D0032803D02A492B48FFF7F0FD6B1EDBB2012B07D9042D05D0082D03D026492548FFF7E4FDA400254BC3
:401B4000E458042D13D0012D1CD112E0A3682B420BD1E3681A6802925B6801930393290002A8236898471B4B5C61646902E0002000E00020002C24D0174B9842E6D1012DF6
:401B8000E4D11EE0022D01D104E01C006369002BFBD104E00F4B5C69002C00D0246900200DE0A3682B4209D1E3681A6802925B6801930393290002A8236898472469002C7F
:401BC000EFD105B030BDC046B2090000942F0010B309000010080008FF004200F8B50700012803D93D493E48FFF78CFDB0235B055B78002B04D0B0235B055B78DBB200E016
:401C000021239DB2B0235B059B899BB2002B04D0B0235B059E89B6B201E0802676000020FFF732FB002814D180235B009E4212D1222D12D82B4B1B685C682B4821582B4B46
:401C400019403B068022520413400B432350002404E0274C02E0264C00E0254C80235B009E4201D1222D03D880235B009E4232D01C4B1A683123D35C002B04D1C421FF3163
:401C80001C48FFF73FFD174B1B681D6A80235B009E4203D1002F05D0174A06E0002F03D0164A02E0164A00E0164A01212800FEF7E7FF00280FD10B4B1A68B423D3585B19C6
:401CC0001B68002BF7DBEB681B0E1B06A0221206934200D100242000F8BDC0464C0A0000942F00104808000818F00000FFFFFFFE04004200082D0010010100300300000CF8
:401D0000010000300100000CF8B50500012804D9822109012948FFF7F5FCFFF7C9FE002849D0FFF7AEFD0700002D11D10021244B244AD150E823DB00B0225205D65CF6B2EB
:401D40000120FFF74BFF041E19D1FFF7A1FD16E0B02252051C4BD0581A4B194958501B49565CF6B21A481A581F218A4314390A431A500320FFF7BAFCFFF758FE0024002C37
:401D800015D11049124A8B581F20834306401E438E50002D02D1FFF70FFE08E00720FFF7A5FCFFF7C1FD0020FFF718FF04003800FFF76BFD00E0074C2000F8BD942F00101C
:401DC000307F00000000264010180000410700001CFF00000300420010B5041E03D115491548FFF78FFC154B1A68D168F222D2018A5822601B68F022D201D9688A58626054
:401E00000F4AD9688A58A2600E4AD9688A58E2600D4AD9688A5822610C4AD9688A5862610B4AD9688A58A261DA680A4BD358E36110BDC046A10A0000942F00104808000804
:401E400004780000087800000C78000010780000147800001878000010B5041E03D114491448FFF74FFC144B1B68F022D201D96860688850114AD968A0688850104AD968CA
:401E8000E06888500F4AD968206988500E4AD968606988500D4AD968A06988500C4AD968E0698850DA682168F223DB01D15010BDC90A0000942F0010480800080478000078
:401EC000087800000C78000010780000147800001878000070B50500012804D9A62189003548FFF70FFC354B5B68002B05D001210120FFF709FE040000E00024002C53D161
:401F0000FFF7BFFC06002D4B5B68002B03D004210120FFF7F9FD2A4B1B6843229A5C002A08D09A68E023D358DB0603D523481830FFF752FFB0235B059B899BB2002B04D0A4
:401F4000B0235B059B899BB201E080235B0080225200934203D1280000F02AF909E0194A116904230B431361012D01D030BF00E020BF134B1B6843229A5C002A08D09A686A
:401F8000E023D358DB0603D50C481830FFF764FF3000FFF77AFC094B5B68002B09D008210120FFF7B1FD04E002210120FFF7ACFD054C200070BDC046942F00101008000842
:401FC0004808000800ED00E0FF004200042805D10B4A116804230B4313600FE0094B1A681168A023D358CB180006C022920410401860034A136804218B4313607047C04683
:4020000010E000E0480800080749C02252008B589B009B088020C00503438B508B588020000603438B50704700002640014B18607047C04648080008002243088B4274D32C
:4020400003098B425FD3030A8B4244D3030B8B4228D3030C8B420DD3FF22090212BA030C8B4202D31212090265D0030B8B4219D300E0090AC30B8B4201D3CB03C01A524161
:40208000830B8B4201D38B03C01A5241430B8B4201D34B03C01A5241030B8B4201D30B03C01A5241C30A8B4201D3CB02C01A5241830A8B4201D38B02C01A5241430A8B4238
:4020C00001D34B02C01A5241030A8B4201D30B02C01A5241CDD2C3098B4201D3CB01C01A524183098B4201D38B01C01A524143098B4201D34B01C01A524103098B4201D36C
:402100000B01C01A5241C3088B4201D3CB00C01A524183088B4201D38B00C01A524143088B4201D34B00C01A5241411A00D20146524110467047FFE701B5002000F006F8FC
:4021400002BDC0460029F7D076E770477047C046002310B59A4203D0CC5CC4540133F9E710BD03008218934202D019700133FAE77047030030B5002A0DD00C7801335D1E66
:40218000013A2C700131002CF5D19A189A4202D01C700133FAE730BDF8B5C046F8BC08BC9E467047F8B5C046F8BC08BC9E46704701B40248844601BC604700BF350300087E
:4021C0000300000001000000010000000000000005036000040000000100000000000000010000000604600008000000C8070008B501001073797374656D5F70736F63366E
:402200005F636D30706C75732E630000F4010000140004010A0009050800000063010000002034407400802034407400002234407400802234407400002434407400802484
:4022400034407400002634407400802634407400002834407400802834407400002A34407400802A3440740000213440D823001090000000002334406824001090000000A3
:4022800000253440F824001090000000002734408825001090000000002934401826001090000000002B3440A82600109000000000603440382700107C0000008060344046
:4022C000B42700107C00000000613440302800107C00000080613440AC2800107C00000000623440282900107C00000080623440A42900107C00000000633440202A001076
:402300007C000000806334409C2A00107C00000000643440182B00107C00000080643440942B00107C00000000653440102C00107C000000806534408C2C00107C000000F0
:40234000DF04E3010220344010000000000000000000000000060A000000000000000000000000000000000000000000030000000000000000000000688666060000000083
:4023800000000000000000001212000000000000000000000000000000000000000000BA0000000000000000000000000000000000001D1D070000000000000000000000FE
:4023C000866600000000000000000000000000001414140000000000000008000000000000000000FFFFFFFFFFFFFFFFFFFFFFFFFFFFFFFFFFFFFF7FFF000000FFFFFFFF46
:40240000FFFFFFFFFFFFFFFFFFFFFFF0FFFFFFFFFF00000000001F1F0000000000000000000000000000000000000000FFFFFFFFFFFFFFFFFFFFFFFF111111111111111102
:40244000111011111111111111111111111111111111111111111111111111111111111118011111111111110002800A00000000000000025FFFFFFFFFFFFFFFFFFFFF4F8C
:40248000FFFFFFFFFFFFFFFFFF000000FFFFFFFFFFFFFFFFFFFFFFFFFFFFFFFFFFFFFFFFFF000000001F000000000E1F1F1F001F0206000000000000F0000000FFFFFBFFA1
:4024C000FFFFFFFFFFDFF7FF111111111111111111111111151111111111111111111111011111111111111101111111111111111111111111111111000002920000000064
:4025000000000000FFFFFFFFFFFFFFFFFFFFFFFFFFFFFFFFFFFFFFFFF6000000FFFFFFFFFFFFFFFFFFFFFFFFFFFFFFFFFFFFFFF2FF0000001F1F0000001F1F001F1F000021
:402540001F00001F00000F00F000000FFFFFFFFFFFFFFFFFFDFFFFFF111111C111111111111111111111111111111111111D11110181111111111111111111111111111159
:402580001111111011111111000014020000000000000000FFFFFFF7FFFFFFFFFFFFFFFFFFFFFF3FFFFFFFFFFF000000FFFFFFFFFFFFFFFFFFFFFFFFFFFFFFFFFFFFFFFF6F
:4025C000FF0000001F001F001F000000001F0C00081F000000F00000F400000FFFFFFFFFFFFFFDFFFFFFBFFF111111111111111111111111111111111111111110111111F1
:40260000111111111111116111111111111111110111111111111111000032808000000000000000FFFFFFFFF1FFFFFFFFFFFF2FFFFFFFFFFFFFFFFFFF000000FFFFFFFF87
:40264000FFFFFFFFFFFFFFFFFFFFFFFFFFFFFFFFFF000000001F00001F1F00001F0D001F0000001F000F000000000000FFFFFFFFFFFEFFFFFFFFFDFF11111111111111111C
:40268000111111D1121111111111111111111111611111111111111111111111111111111111111111111111000090010000000000000040F3FFFF7F76FFFF4FFFFFFFFF61
:4026C000FFF7FFFFF6FFFF6FFF000000FFFFFFFFFFFFFFFFFFFFFFFFFFFFFFFFFFFFFFFFFF000000000000001F001F1F1F1F000700000607000006F000000000FFFFFFFFF8
:40270000FFFFFFFFFFFFFFBF111111111111111111111111111114111111111111111111F1111111111111111111111111E112731EB81111111111110000000000000000E7
:402740001F1F1F1F1F1F1F1F1F1F1F1F1F1F1F1F1F1F1F1F1F1F1F1F1F1F1F1F1F1F1F1F00000C1F0007000000000000000000000000000000000000FFFFFFFFFFFFFEFF50
:40278000EFFFFFFF11111111111111111111111111111111111111111111111111111111111111111111111111111111111111111111111100000000000000011F1F1F1F80
:4027C0001F1F1F1F1F1F1F1F1F1F1F1F1F071F1F1F1F1F1F1F1F1F1F1F1F1F1F000500000000001F0F000500001F000000000000F0000000FFFFFFFFFFFFFFFFFFEFFFFD64
:40280000111111111111111111111111111111111111111111111111E011111111119111111110111111111111111111111111D100000000000000001F1F1F1F1F1F1F1F62
:402840001F1F1F1F1F1F1F1F1F1F1F1F1F1F171F1F1F1F1F1F1F1F1F041F0604000F040E091F00001F00001F0000060070000007FFFFEFFFFFFFEFFFFFF7EBFF111111114B
:402880001111111111111111111111111111111111111111101111A11111111111111111111110111111111101111EFE00000000000010201F1F1F1F1F1F1F1F1F1F1F0D22
:4028C0001F1F1F1F1F1F1F1F171F1F1F171F1F1F1F1F1F1F0F00000000000607001F00001F050000007000005F000001FFFFFFFFFFFFFFFFFEFFFFFD1111111111111111D4
:402900001191101111111111111111111111111111611111111111711111111F110E1111D11110F11F1111E100002000000000001F1F1F1F1F1F011F1F1F1F1F1F1F1F1F46
:402940001F1F1F1F1F1F1F1F1F1F1F1F1F1F1F1F001F00001F1F0000071F00050000001F0026000000040000FFFFFFFFFFFFFFFFFFFFFFFD11111111E11111111111111108
:402980001111111141111111111111111101111111111111D111111E11111111111D11E11F11111E00009000000000801F1F1F071F1F1F1F061F1F1F1F1F1F1F1F1F1F1F84
:4029C0001F1F1F1F1F1F1F1F1F1F1F1F000000001F00071F1F0700000005001F0000005400000400FFFFFFFFFFFFFFFFFFFFFF7D11111111111111111111111111111111FA
:402A0000111111111111111117111111141111111D1111D111111111111E11111EE1111100000000000000041F1F1F1F1F1F1F1F1F1F1F1F1F1F1F1F1F1F1F1F1F1F1F1FCB
:402A40001F1F1F1F1F1F1F1F00001F060000000000000000000000000000000000000000FFFFFFFFFFFFFFFFFFFFFBFF1111111111111111111111111111111111111111F5
:402A80001111111111111111111111111111111111111111111111111111111100000000000000A01F1F1F1F1F1F1F1F1F061F1F1F1F1F1F1F1F1F1F1F1F1F1F1F1F1F1F4F
:402AC0001F1F1F1F071F0000001F1F071F070000000000000000000050000000FFFFFFFFFFFFFFFFFFFFFF3D1111119101111111111111111111111111111111111111113F
:402B0000111111111111110111111111111111E111111111110E111100000000000000381F1F1F1F1F1F1F1F1F1F1F1F1F1F1F1F1F1F1F1F1F1F1F1F1F1F1F1F1F1F1F1F28
:402B40001F07000005001F001F070F060800000E00000F000000000FFFFDFFFFFFFFFF7FFFFFF7F41111111111111111111111111111111111111111111111111111111161
:402B80001111D1111111D11111111111111111111111111100000000000000001F1F1F061F071F1F1F1F1F1F1F1F1F1F1F1F1F1F1F1F1F1F1F1F1F1F1F1F1F1F1F0006006D
:402BC0000400000000071F00001F000000F00000F000000FFFFFFFFFFFFFFFFFFFFFFFFF11111111111111111111111111111111111111D111111111111411111111F111E6
:402C0000111111111111D1E1111111E411111ED100000000000000401F1F1F1F1F1F1F1F1F1F1F1F1F1F1F1F1F1F1F1F1F1F1F1F1F1F1F1F1F1F1F1F000B00000F0F00000B
:402C40000000000000000D070000000000000000FFFFFFFFFFFFFFFFFFFFFFBF11111111111111111111111111111111111111111111111111111111111111111111111128
:402C800011111111111111111111111100000000000000001F1F1F1F071F1F1F1F1F1F1F1F1F1F1F1F1F1F1F1F0F161F1F1F1F1F1F1F1F1F00000000070000070700001F65
:402CC0000600000000000FF060000000FFFFFFFFFFFFFFFFFFFFFFFF11111111111111111111111111111111111111111111111111111111111111111111111111111E11C6
:402D000017191111D1D5E1D147656E6572617465645F536F757263655C50536F43365C70646C5C647269766572732F7065726970686572616C2F6970632F63795F69706340
:402D40005F6472762E68000047656E6572617465645F536F757263655C50536F43365C70646C5C647269766572735C7065726970686572616C5C6770696F5C63795F6770D4
:402D8000696F2E630000000047656E6572617465645F536F757263655C50536F43365C70646C5C647269766572735C7065726970686572616C5C6770696F5C63795F67706C
:402DC000696F2E680000000047656E6572617465645F536F757263655C50536F43365C70646C5C647269766572735C7065726970686572616C5C6970635C63795F69706335
:402E00005F6472762E68000047656E6572617465645F536F757263655C50536F43365C70646C5C647269766572735C7065726970686572616C5C6970635C63795F69706321
:402E40005F6472762E63000047656E6572617465645F536F757263655C50536F43365C70646C5C647269766572735C7065726970686572616C5C6970635C63795F697063E6
:402E80005F706970652E630047656E6572617465645F536F757263655C50536F43365C70646C5C647269766572735C7065726970686572616C5C70726F745C63795F707215
:402EC0006F742E630000000047656E6572617465645F536F757263655C50536F43365C70646C5C647269766572735C7065726970686572616C5C737973636C6B5C63795F0D
:402F0000737973636C6B2E630000000047656E6572617465645F536F757263655C50536F43365C70646C5C647269766572735C7065726970686572616C5C737973636C6BAD
:402F40005C63795F737973636C6B2E680000000047656E6572617465645F536F757263655C50536F43365C70646C5C647269766572735C7065726970686572616C5C73797E
:402F800073696E745C63795F737973696E742E630000000047656E6572617465645F536F757263655C50536F43365C70646C5C647269766572735C70657269706865726128
:402FC0006C5C737973706D5C63795F737973706D2E6300000000204000002440000000400000000000002340000030400000314000009F4000002240000010400202020288
:40300000020202020210101D800017007500FF030602063604102000000000007FC0000000040000000000000019324B647D00804000080B100000000000FF012002001FE5
:4030400000800004FF081018001000140018001C4044484C50000000081000000800000004000000041000000012000004210000002100000016000040114002C4130013BA
:403080008013A013200000001C0000000000214000002540000001400000344000002440000031400000324000001F4100002340000011400101010101010101011010107F
:4030C000800019005500F0000501053B04101C01010000000FC000000004000001010101011D3A57789600082000101208000000001F00000010000F002000023F06080ED9
:4031000000080009000A000B24282C3034000000100000009000000088000000080000008000000004F0000000F00000400200002005A000D00100018001A00120000000DE
:4031400010000000000000000000001000000008C000000068310010C0000008400500003C060008100200000048E80100127A0000093D0000093D0000093D0004000000C2
:40318000A00F00000000D007E9000010C10000100000000010B50004400B27D0144B1A68146AB023D15ACA00531AE3181B68002BF4DA3E220F4B1A600F4A104B1A60104BEC
:4031C0000621A322D20099500E4A98509B58084B1A68106AB023D15ACA00531AC31800225A60084B064AD358002BFADA10BDC04648080008040126401E1F000008012640AB
:40320000000026401C05000010B54378FF2B20D100F03AFA04000F4B1A683123D35C042B04D8C421FF310C4800F0F6F9094B1A68116AB023D35A9B00CB18DB685A68116845
:4032400001230B4313601368DB07FCD4200000F0FBF910BD48080008082D0010F0B585B001900291544B1A683123D35C002B04D1C421FF31514800F0CFF94F4B1B681E6A21
:40328000B4229A58971950229B5C002B77D000F003FA050003283CD1474B1A683123D35C062B04D8C421FF31444800F0B5F9424B1968B023CB5A5A00D21853000A6A9446C3
:4032C0006344B4228A58D3181B68002B23DB002000F0B2F93A4B98421FD03A4B1A6900230021012000F0B8F9002803D0364C17E0013400E00024002000F09EF9304B984218
:4033000002D0324B9C42F3D9304B9C4207D92E4C06E0002404E02C4C02E02B4C00E00024002C46D100F0B0F90390294B294AD358002B13DA234A0121300000F075F9002840
:403340000ED10298FFF726FF019B002B0AD03B68002BFCDB00F090F9040004E01A4C02E0194C00E01C4C032D05D10121002000F07BF90028F9D1039800F066F919E000F0AC
:4033800083F905000F4A0121300000F04DF9002809D1019B002B08D03B68002BFCDB00F06BF9040002E0084C00E00B4C280000F04BF9200005B0F0BD48080008082D001025
:4033C00001018800E807000805005200EF4902001C0500000000264001005000F0B54F464646C0B4824B1A685468B0235B055B78002B04D0B0235B055B78DBB200E02123E2
:40340000212B67D1B023D15ACB005B1A116A8C46634419680029F5DADD6802212943D960B023D15ACB005B1A116A8C466344D968C9073ED5D9680904090C8C4684271168A1
:40344000D559A84641440968090A0904FF26360431400D0088261168894691598846C14449460968090A0906294365462943D9601168D359C9180A685E4B98461A4090251E
:403480002D012A430A605A4B99461A6813689C46925962441368414619400B002B4313604B461A681568D15969180B689359EB181B684F4B1A68B021555AEB005B1B156A30
:4034C000AC46634400255D60156A515ACA00531AEB185B68484A116904230B431361012801D030BF00E020BF414B1A68B023D15ACB005B1A116A8C46634419680029F3DAD6
:40350000B02149054978002904D0B02149054978C9B200E02121212932D1D968C90722D510688421525880180468324A1440DB681B0C1B02FF2109020B40234303602C4B04
:4035400019688823C8580B689C46604403681A400D6AB023CC5AE1000B1BEB18DB681B0E1B021A430260224B1A68106AB023D15ACA00531AC318DA6802218A43DA6028E092
:4035800086235B00E358002B23D11C4807681C4BA321C9005E581B4A904615681A4A0260062058503E21424611600631174A9950164B134AD358002BFADA154A86235B00C0
:4035C000E2500E4B1F60A323DB000D4AD6500D4B1D60074B1A68106AB023D15ACA00531AC31800225A600CBC90469946F0BDC04648080008FF00FFFF00ED00E008012640D3
:4036000000002640040126401E1F00001C050000AAAAAAAA0000000001B40248844601BC604700BF0517001001B40248844601BC604700BF810C001001B40248844601BC8C
:40364000604700BF990E001001B40248844601BC604700BF8B18001001B40248844601BC604700BF7D10001001B40248844601BC604700BF0D0E001001B40248844601BC68
:40368000604700BFB50A001001B40248844601BC604700BF8318001001B40248844601BC604700BF3904001000000000000000000000000000000000000000000000000005
:4036C00000000000000000000000000000000000000000000000000000000000000000000000000000000000000000000000000000000000000000000000000000000000CA
:403700000000000000000000000000000000000000000000000000000000000000000000000000000000000000000000000000000000000000000000000000000000000089
:403740000000000000000000000000000000000000000000000000000000000000000000000000000000000000000000000000000000000000000000000000000000000049
:403780000000000000000000000000000000000000000000000000000000000000000000000000000000000000000000000000000000000000000000000000000000000009
:4037C00000000000000000000000000000000000000000000000000000000000000000000000000000000000000000000000000000000000000000000000000000000000C9
:020000041008E2
:4000000000780408EB0208100D0000005103081051030810510308105103081000000000000000000000000000000000C11B08104D03081000000000F11B0810551C081071
:400040004D0308104D0308104D0308104D0308104D0308104D0308104D0308104D0308104D0308104D0308104D0308104D0308104D0308104D0308104D0308104D03081000
:400080004D0308104D0308104D0308104D0308104D0308104D0308104D0308104D0308104D0308104D0308104D0308104D0308104D0308104D0308104D0308104D030810C0
:4000C0004D0308104D0308104D0308104D0308104D0308104D0308104D0308104D0308104D0308104D0308104D0308104D0308104D0308104D0308104D0308104D03081080
:400100004D0308104D0308104D0308104D0308104D0308104D0308104D0308104D0308104D0308104D0308104D0308104D0308104D0308104D0308104D0308104D0308103F
:400140004D0308104D0308104D0308104D0308104D0308104D0308104D0308104D0308104D0308104D0308104D0308104D0308104D0308104D0308104D0308104D030810FF
:400180004D0308104D0308104D0308104D0308104D0308104D0308104D0308104D0308104D0308104D0308104D0308104D0308104D0308104D0308104D0308104D030810BF
:4001C0004D0308104D0308104D0308104D0308104D0308104D0308104D0308104D0308104D0308104D0308104D0308104D0308104D0308104D0308104D0308104D0308107F
:400200004D0308104D0308104D0308104D0308104D0308104D0308104D0308104D0308104D0308104D0308104D0308104D0308104D0308104D0308104D0308104D0308103E
:400240004D0308104D0308104D0308104D0308104D0308104D0308104D0308104D0308104D0308104D0308104D0308104D0308104D0308104D0308104D0308104D030810FE
:400280004D0308104D0308104D03081010B5054C237833B9044B13B10448AFF300800123237010BD844902080000000004990810084B10B51BB108490848AFF300800848E1
:4002C000036803B910BD074B002BFBD0BDE81040184700BF00000000884902080499081050430208000000007047FFF7FDFF72B6104C114DAC4209DA21686268A368043B89
:40030000A2BFC858D050FAE70C34F3E70B490C4A00209142BCBF41F8040BFAE709480A490860BFF34F8F00F04BF900F025F900F01DF8FEE7089908102099081084490208B7
:40034000144D02080040020808ED00E0FEE7FEE700B504207146084202D0EFF3098001E0EFF30880043001F0A3FAFEE710B5ADF51C4D90B062B601F09FFC4FF4FA54224673
:4003800011490DF5FA4002F0AFFF22460F490DF5BB40403002F0A8FF0DEB04030DF57A520DF5BB4140310DF5FA4000F01DF969460DEB040000F036F9054B064A69460DEBB2
:4003C000040000F09BF9FEE784540810C4730810284B02082C4B020808B5012000F0ECFD08BD00BF704700BF5C4AD2F8803303F00F0303F1D00152F8212002F00702032A02
:4004000004D0042A05D092B9554914E0554A116811E003F1C002514951F8222002F01F02112A06D0132A04D04FF4FA4103E04E4901E04FF400418BBB484BD3F8902502F047
:400440000100D3F88825C2F30172D3F8883513F0405F07D0414BD3F88835C3F30173012B02D102E0012300E0002303B108B9032A46D13A48D0F88025C2F31103D0F88425B2
:40048000C2F30C02D0F88005C0F300600130B1FBF2F202FB03F2B2FBF0F131E0012B2FD12E4BD3F8402602F00100D3F80026C2F30172D3F8003613F0405F07D0274BD3F82E
:4004C0000036C3F30173012B02D102E0012300E0002303B108B9032A12D12048D0F8002602F07F02D0F80036C3F30423D0F80006C0F3044002FB01F2B2FBF3F2B2FBF0F196
:40050000164BD3F88033C3F3011321FA03F215494A601648D0F89030C3F3072301330069000E0130B2FBF0F08860B2FBF3F3CB600B6103F5742202F23F220D48A0FB0202E2
:40054000C2F387420A7503F2E7330A4AA2FB03239B098B61DB03CB61704700BF0000264000127A008C42020800366E010000214083DE1B43D34D621008B50D4801F0FCF92F
:40058000FFF730FFFFF730FF00221146042000F0DBFA084800F06EFB074B1B6893F8513013B1064800F0D6FB00F018FA08BD00BF60960810A0490208D44C020804930810D2
:4005C00008B501F0D2F9074AD2F8883043F47003C2F88830BFF34F8FBFF36F8F01F0C9F908BD00BF00ED00E0F0B4002414E0A500561950F8247007EE907AF8EE677AC6ED2A
:40060000007A1D4451F8246007EE906AF8EE677AC5ED007A0134A4B2B4F5FA6FE7D3F0BC704700BF70B5ADF5005D82B006460D4650222D490DF5FD50183002F055FE4FF4BB
:40064000FA6400941EAB0DF5FD52183214211BA801F064FB23462A4631461BA801F070FB0023DFED227A07E005EB830292ED007A77EE877A01339BB2B3F5FA6FF4D3DFED02
:400680001C6A87EEA67A002309E005EB8302D2ED007A77EEC77AC2ED007A01339BB2B3F5FA6FF2D3002417E0002102A840F8041B602202F03FFE05EB8403186802F0B2F8BE
:4006C00002460B460B4902A803F0AEFA02A90A4800F0E4FC0134A4B2B4F5FA6FE4D30DF5005D02B070BD00BF38930810000000000000FA4488930810000066402DE9F04F5B
:4007000086469B46002406EE104A06EE904A07EE104A264620464FF6C477BC4679E0A5000EEB0508D8ED007AB8EE477A37EE277ABCEEC77AA0460CF13C090D44D5ED007A19
:40074000DFED425AF4EEE57AF1EE10FACCBF012500254C45B4BF4FF0000905F0010904F18045013D01EB850595ED005AF4EEC57AF1EE10FACCBF4FF0010A4FF0000A651CD3
:4007800001EB8505D5ED005AF4EEE57AF1EE10FACCBF0125002519EA0A0F09D045B10130C0B2F8EE666A76EEA76AFCEEE66AA44607F13C05F9EE044AF4EEE47AF1EE10FA33
:4007C0004CBF4FF001094FF00009A845B4BF002509F00105F4EEC57AF1EE10FA4CBF4FF001084FF00008F4EEE57AF1EE10FA4CBF0123002315EA080F09D043B10136F6B2F7
:40080000B8EEC66A76EE277ABDEEE76A27460134A4B240F2CE75AC4281D90D4C17EE103AA4FB033417EE103A191B04EB5101890ACBF8001016EE903AB3FBF0F316EE101AF7
:4008400091FBF6F69B1B1360BDE8F08F00000C426B6F46061F4B98422DD00CD840282ED003D8E8B1102828D02FE0802829D0B0F5807F28D029E0184B984228D006D8B0F107
:40088000204F0DD0154B984212D01EE0144B98420AD00133984209D0023B984215D101E0002070470F4870470F4870470F4870474FF4A0007047074870470D4870470D48F8
:4008C00070470D487047034870470C4870474FF4A400704706005200010000F0090000A0040000F0010052000200520003005200010050000200500005005200FF0052005D
:4009000038B5124B1B6893F83130012B04D840F2C3110F4800F0BCFF0C4B1D682A6AB5F8B03013442C46D5F8B420D358002B0BDB084B1868FFF78EFF6B6801229A6063683A
:400940009B68002BFBD138BD034838BDD44C0208A0930810344B0208020050001A4B186128B102230370FF23437000234380174B1B6893F850202AB300B583B0B3F9383035
:40098000ADF80030002301931149684600F044FFBDF90030002B08DB590903F01F03012202FA03F30B4A42F82130084B1B6893F8513023B102220849012000F077FA03B0B0
:4009C0005DF804FB704700BF344B0208D44C0208C143020800E100E07944020808B50248FFF7BCFF08BD00BF484B020838B50B4B1B68D3F8B4301B58002B0DDA0D46044674
:400A00000B0C1B0423B140F2D521054800F040FFA9B26160002038BD024838BDD44C0208E093081001008A0038B50368002B01DA002300E0094B73B90D460446C2600B0CA1
:400A40001B0423B140F2BB21054800F021FFA9B2A160002038BD014838BD00BF01008A00E093081038B504460D4619B99921084800F00EFF074B1B68D3F8B4301B59002B0E
:400A800003DAE3682B60002038BD034838BD00BF20940810D44C020801008A00254B1B6893F8313083423AD900293AD00B6813F01F0F38D170B50D4604461E4B1B6893F81E
:400AC0003130984204D340F2C3111B4800F0E0FE184B1B68186AB3F8B03004FB0304174E34602A68D2080021686802F023FC00212046FFF77BFF346825B940F293310E4890
:400B000000F0C6FE2A4600212046FFF78DFF60B900210A4B1868FFF769FF40B970BD084870470748704706487047064870BD054870BD00BFD44C0208E09308104C4B0208D9
:400B400003018A0001018A0010B504461346B2B9A9B9124B1B6893F83130984204D340F2C3110F4800F094FE0C4B1B681A6AB3F8B03004FB03240B4B1C60002010BD43B108
:400B800049B1084A51609360111D2046FFF786FF10BD054810BD044810BD00BFD44C0208E09308104C4B020803018A002DE9F0411B4B1B68DC68236883422CD90D46460928
:400BC000A0EB4610012303FA00F819B900F0CDFE074600E00027124B18680368002B01DA002300E00F4B83B9626852F8263018EA030F05D023EA080342F82630002400E034
:400C0000094C0021FFF7F2FE00E0084C25B9384600F0AFFE00E0064C2046BDE8F08100BF4C4B020801008A00020188000301880004018A000B4B1B68DB681A6882420CD9A5
:400C40004109A0EB4110012202FA00F05B6853F82130184203D004487047044870470448704700BF4C4B02080101880004018A0000018800024B1B680BB9014B1860704799
:400C8000584B02082DE9F8430446884691461D46089F2C4B1B681BB9B5212B4800F0F8FD284B1B682C2000FB04F01C18EEB21E50C5F3072363602D0CA560244B1B6893F86E
:400CC00031309E4204D340F2C311214800F0E0FD1E4B1B68196AB3F8B02006FB02162661666893F832309E4204D340F2DF11184800F0CEFD154B1B681D6A803605EB4615FC
:400D00006561A668330C1B0423B14FF4FF71104800F0BEFD330C1B0423B140F2FF110C4800F0B6FDB3B243EA0646AE60C4F81C90C4F820800023A36117B1B7F90030A381E9
:400D4000BDE8F883584B020860940810D44C0208E0930810F0B58FB0044618B95221274800F096FDA369072B03D95621234800F08FFDE36A1BB95821204800F089FD236B03
:400D80001BB959211D4800F083FD07AD04F114060FCE0FC537682F6002AD26460FCE0FC533682B60164B1B68B3F93620079B1344ADF83030089B0D93A26AE16A0CAD0095B0
:400DC0003B460A98FFF75EFF00210091069B0A460598FFF757FF216B284600F01DFDBDF93030002B08DB590903F01F03012202FA03F3044A42F821300FB0F0BD60940810EC
:400E0000D44C020800E100E0F8B506460F461D4614461AB9FD211F4800F03AFD1E4B1B681BB9FE211B4800F033FD1B4B1B682C2101FB063001FB07314B68012202FA03F377
:400E40001B04466802FA06F60269EAB18F69EFB91268002A01DA002200E0104AC2B92288134323600369DC6001238B614D620469330C1B0423B140F2BB21094800F008FDD4
:400E8000B2B2A2600020F8BD0648F8BD0648F8BD0548F8BD60940810584B020801008A00E093081004028A0007028A00F8B505460F4616460E4B1B6823B94FF4AF710D48E4
:400EC00000F0E6FC0A4B1B682C2404FB0534236A23B94FF4B171074800F0DAFCE369B34204D9236A43F826700020F8BD0248F8BD584B0208609408100A028A0070B582B0E7
:400F000000230193044620B940F2D111284800F0BFFC236923B94FF4E971254800F0B8FC636923B940F2D311214800F0B1FC236A23B94FF4EA711E4800F0AAFC6369DD68BA
:400F40002A0C20D012041A601B682069194B1B68D3F8B430C358002B15DA01A9FFF782FD60B9019803681E0CDBB2E269934206D2226A52F8233013B1984700E000263146B0
:400F80002069FFF733FDADB275B16369ADB21D601B68636A1BB198470023636202E0A36A03B198470023A36163691B6802B070BD60940810D44C020810B50446074B1B6881
:400FC00023B940F2B111064800F062FC034B1B682C2000FB0430FFF791FF10BD584B02086094081010B4D0F8003303F00F03072B06D900230DE0D0F84043CC54013300E0C9
:4010000000239342F7D306E0D0F8404321F8134001339342F8D35DF8044B704710B51446D0F80833C3F308039A4200D31C462246FFF7D8FF204610BD10B4D0F8003203F015
:401040000F03072B06D900230DE0CC5CC0F84042013300E000239342F7D306E031F81340C0F8404201339342F8D35DF8044B704710B51446036813F4006F01D0802200E0E7
:401080004022D0F80832C3F30803D31AA34200D81C462246FFF7D0FF204610BD30B4036813F4006F01D0802200E04022002408E0D0F80832C3F308039A42F9D0C0F8405267
:4010C00001340D5D002DF3D130BC70472DE9F84305460C46036813F4006F02D04FF0800801E04FF04008D5F8007207F00F07A26A012A19D9D4F82490E262561EB9F1000F87
:4011000000D026B940F27351254800F0C1FB324649462846FFF7ACFFA36A1B1AA362072F00D9400048446062D5F80832C3F30803984533D0A36A012B30D10023A362072FB7
:4011400002D8636A1E7801E0636A1E8800F00DFCC5F840624FF40073C5F8803FD5F8803F00F007FCD5F8883F23F4007222F0010242F4007623F4EE6323F0030323B140F270
:401180002A41084800F084FBC5F8886F236843F002032360236B0BB101209847BDE8F883A0940810E09408102DE9F04105460C46036813F4006F01D0802600E040267608C9
:4011C000A769D4F81C8017B1B8F1000F04D14FF49961314800F05CFB424639462846FFF71DFF236A03442362E3691B1AE36173BBA368FBB1E3689E4201D8013E00E05E1EFC
:401200002B6813F4006F01D0802300E040239E4204D34FF42071214800F03AFBD5F8043323F0FF03F6B21E43C5F804630123C5F8C83F02E00023C5F8C83F636823F00103FC
:401240006360236B33B304209847BDE8F081A169D5F8002302F00F02072A00D940000844A0619E4216D95C1E2B6813F4006F01D0802300E040239C4204D34FF420710748A9
:4012800000F006FBD5F8043323F0FF02E3B21343C5F80433BDE8F081A0940810E0940810002800F0A48170B50546002900F0A18116460C460B78022B03D93F21A24800F0FC
:4012C000E7FA637B023BDBB2062B03D940219E4800F0DEFAA37B3BB1022B05D0032B03D04121994800F0D4FA94F82130012B03D94221954800F0CCFA94F82830012B03D974
:401300004321914800F0C4FA2378012B06D86368083B082B94BF0023012307E0A37F2BB16368013B062B94BF002301231BB14521854800F0ADFAA368053B042B03D9462138
:40134000814800F0A5FA6369FF2B03D947217E4800F09EFAA369FF2B03D948217A4800F097FAA37C6BB1237833B9A368092B05D1A37B2BB1012304E0012302E0012300E0EC
:4013800000231BB14A21704800F082FA636B23F4366323F00D031BB14C216B4800F078FAE36B23F4EE6323F003031BB14D21664800F06EFA2378022B01D1A37F13B1626867
:4013C000013A00E00022237F13B14FF4803100E00021A368082B02D84FF4006300E000230B4302F00F02134343F000732B60226B2B6813F4006F01D0802300E040239A4293
:4014000003D36221504800F043FAA26B2B6813F4006F01D0802300E040239A4203D36321494800F035FA626A2B6813F4006F01D0802300E040239A4203D36421424800F09E
:4014400027FA23781B0603F040732B64637F0BB1402200E00022A37C13B14FF4806300E000231343227C12B14FF4807200E000221343627C12B14FF4007200E000221A4353
:40148000E36A013B1B0403F470231343627B013A02F007021343A27B120102F030021343AB64237B13B14FF4807200E00022E37B23B92378022B03D1012302E0012300E009
:4014C000002313B14FF4007300E000231A43A368013B03F00F031343C5F80033227DA3691B0403F47F031343C5F81033E26AD5F8003303F00F0303339A4201D3102A03D977
:401500007A21114800F0C4F9E37F23B12378012B03D0002302E0002300E0012313B14FF4807200E00022637B013B03F007031A43A37B1B0103F0300313436B64237B2BB1A0
:401540004FF4807203E000BF249508100022A368013B03F00F0313432278012A02D14FF4803200E000221343C5F8003294F83030C5F8043394F8203013B14FF0007200E01A
:40158000002294F82130012B02D14FF0807300E00023134394F82820012A02D14FF4803200E00022134394F8242013432B6594F83830C5F80432636B23F4926323F00203F4
:4015C0001B051B0DC5F8C83FE36B23F08C035B055B0DC5F8883F76B1002070603060B060F0603062F0623063044B736370BD04487047034870BD002070BD00BFEFCDAB00E5
:401600000160AA000B694A69934202D34869181A7047CA694869101A184470472DE9F04107460D46036813F4006F02D04FF0800801E04FF040084FEA5808D7F80863C6F3BE
:4016400008062C6926E00134EB689C4200D100246B699C420FD12B6B0BB1082098476B699C4208D10023C7F8C83F0CB1013C13E0EC68013C10E0D7F84023D7F8003303F072
:401680000F03072B02D8AB681A5502E0AB6823F81420013E002ED6D12C61EC6829463846FFF7B0FF201A804519D908B1441E00E000243B6813F4006F01D0802300E04023DF
:4016C0009C4204D34FF42071064800F0E1F8D7F8040320F0FF03E0B21843C7F80403BDE8F08100BFE094081038B504460D46D0F8003E13F0080F35D0D0F8CC3F13F448730A
:401700000AD04A681A434A60C0F8C03FD0F8C03F0B6B0BB110209847D4F8CC3F13F4006F09D06B6843F400636B604FF40063C4F8C03FD4F8C03FD4F8CC3F13F0010F11D002
:40174000EB6923B129462046FFF72EFD05E0AB681BB129462046FFF761FF0123C4F8C03FD4F8C03FD4F8003E13F0040F2ED0D4F88C3F13F4A0630AD02A681A432A60C4F8E4
:40178000803FD4F8803F2B6B0BB120209847D4F88C3F13F0010F08D029462046FFF796FC0123C4F8803FD4F8803FD4F88C3F13F4007F0BD00022C4F8882F2B6823F001032E
:4017C0002B60EA622B6B0BB10220984738BD00BF38B50D4B9A680D4B9A420FD10D46044621B940F237110A4800F052F804F11003064A52F8230042F8235038BD1030054B3C
:4018000053F8200038BD00BF00ED00E000400208649508100000081048B338B504460D464368072B03D93221134800F031F8B4F900306268002B08DB5201D2B203F1604321
:4018400003F5614383F8002305E003F00F035201D2B20A49CA540A4B9A680A4B9A4208D12946B4F90000FFF7B3FF002038BD06487047002038BD00BF6495081014ED00E0F7
:4018800000ED00E0004002080100560001BEFEE738B50D46044C18220146204602F0F0F9A5610020FFF7F2FFF0480208FEE700BF08B50268254BDA6142681A6282685A6233
:4018C000C2689A620269DA6242691A6382695A63C2699A631E4A916AD963D16A1964516A5964516B9964926BDA64F1EE103A13F0900F27D0026A154B1A65426A5A65826AFC
:401900009A65C26ADA65026B1A66426B5A66826B9A66C26BDA66026C1A67426C5A67826C9A67C26CDA67026DC3F88020426DC3F88420826DC3F88820C26DC3F88C20026E9D
:40194000C3F89020FFF7B2FF08BD00BFF048020800ED00E0000000000230800803D001300238FCD100BF00BF7047EFF3108072B6704780F310887047014B1860704700BF7B
:40198000D44C020843684B609A688A609A68516099600861036801330360704703694268816891608268416851605A68904201D182685A60002202611A68013A1A60186873
:4019C000704700BF094B9B6A1B680BB9012300E0002323B14FF0FF32044BDA627047034B9A6AD268D2685268DA627047984B02082DE9F0413C4BD3F81831002B65D13A4BFC
:401A0000D3F814410134C3F81441CCB99B6A1B6843B14FF03F0383F31188BFF36F8FBFF34F8FFEE7304B9A6AD3F8F8109962C3F8F820D3F820210132C3F82021FFF7C2FF79
:401A4000294BDB6A9C4203D2002645E0012600E00026254B9B6A1B680BB9012300E0002323B14FF0FF32204BDA6235E01E4B9B6ADB68DD686B689C4202D21B4AD3622BE07F
:401A800005F104084046FFF789FFAB6A1BB105F11800FFF783FFEB6A134AD2F80C21934202D9114AC2F80C310F4F07F1300003EB83039A0041461044FFF764FFEA6AD7F823
:401AC0000031DB6A9A42C1D2C3E7074AD2F824310133C2F824310026034BD3F8283103B101263046BDE8F081984B0208304BD3F8183123B101222E4BC3F82821704710B539
:401B00002B4B0022C3F82821D3F800311B6B1A68B2F1A53F0BD15A68B2F1A53F07D19A68B2F1A53F03D1DB68B3F1A53F07D0204BD3F80001D3F80011343100F0A1F81C4B1A
:401B4000D3F80C310AE043B94FF03F0383F31188BFF36F8FBFF34F8FFEE7013B03EB83018A0013490A44126B002AECD008469900CC18A2000244546B6468546330301944CB
:401B80008A0008320244944206D1606803EB83018A0007490A445063054903EB830082000A44526BD268C1F80021C1F80C3110BD984B020800000000000000000000000049
:401BC000074B19680868B0E8F04F80F30988BFF36F8F4FF0000080F311887047AFF30080984C0208000000000000000000000000EFF30980BFF36F8F154B1A681EF0100FDB
:401C000008BF20ED108A20E9F04F10602DE909004FF03F0080F31188BFF34F8FBFF36F8FFFF764FF4FF0000080F3118809BC19680868B0E8F04F1EF0100F08BFB0EC108A3A
:401C400080F30988BFF36F8F704700BFAFF30080984C020808B54FF03F0383F31188BFF36F8FBFF34F8FFFF7C3FE18B14FF08052024B1A60002383F3118808BD04ED00E07D
:401C800008B54FF03F0383F31188BFF36F8FBFF34F8F4FF441710248FFF7FAFDFEE700BF1897081008B502490248FFF71DFD08BDD84C02080000664008B5114B1B785BB945
:401CC000104A11491148FFF7EBFA11491148FFF7A3FD01220A4B1A700E4BB3F90030002B08DB590903F01F03012202FA03F30A4A42F82130054A136843F00043136008BD8B
:401D0000C44C0208D84C02086897081000006640A51C08109893081000E100E070B5049C826004F18044013C05460C4401801E46A2001846002101F0FDFA6E6070BD00BFE1
:401D40002DE9F04F0546A1B06C681E9000881A94264600F18048AC681F9308F1FF3827461494DB0806EB8804159011911C921B941D9300F0838396461A46C30825461693C5
:401D800004465B0138461844043B199304F00703179305F120030F930B462033109306F120030E9373462033189013931292109A0F9C52F8203C44F8203C52F81C3C44F8E4
:401DC0001C3C11460A4651F8183C44F8183C51F8143C44F8143C51F8103C44F8103C51F80C3C44F80C3C52F8083C44F8083C52F8043C0E9A44F8043C52F8203C0093134612
:401E000052F81C2C03921A46194653F8183C049352F8143C059351F80C3C52F8102C079351F8083C0692089316980B1F002800F08A83149B0B900022203301F11C04019381
:401E4000164617460A92914692469346904615460294019B029A53F8204C52F8201C09912046009901F0F0F8414600F0E5FF03990D90204601F0E8F8594600F0DDFF049904
:401E80008346204601F0E0F8514600F0D5FF05998246204601F0D8F8494600F0CDFF06998146204601F0D0F80A9900F0C5FF07998046204601F0C8F8394600F0BDFF0899D2
:401EC0000746204601F0C0F8314600F0B5FF09990646204601F0B8F8029B019C53F81CEC294654F81C5CCDF800E000F0A5FF03990C90284601F0A8F80D9B0146184600F009
:401F00009BFF04990A90284601F09EF8594600F093FF05998346284601F096F8514600F08BFF06998246284601F08EF8494600F083FF07998146284601F086F8414600F04D
:401F40007BFF029B089953F818CCCDF80CC080462846019401F078F8394600F06DFF29460746099854F8184C01F06EF8314600F063FF00990646284601F066F80C9A114618
:401F800000F05AFF04990546204601F05DF80A9B0146184600F050FF05990A90204601F053F8594600F048FF06998346204601F04BF8514600F040FF07998246204601F084
:401FC00043F8494600F038FF08998146204601F03BF8414600F030FF21468046099801F033F8394600F028FF21460746009801F02BF8314600F020FF03990646204601F0B3
:4020000023F8029A019C52F814ECCDF810E029460B9D013D0B9500F00FFF54F8145C05990C90284601F010F80A9B0146184600F003FF0A900699284601F006F8594600F09C
:40204000FBFE07998346284600F0FEFF514600F0F3FE029B089953F810CCCDF814C082462846019400F0F0FF494600F0E5FE29468146099854F8104C00F0E6FF414600F056
:40208000DBFE29468046009800F0DEFF394600F0D3FE29460746039800F0D6FF314600F0CBFE04990646284600F0CEFF0C9A114600F0C2FE06990546204600F0C5FF0A9BB7
:4020C0000146184600F0B8FE07990D90204600F0BBFF594600F0B0FE08998346204600F0B3FF514600F0A8FE21468246099800F0ABFF494600F0A0FE21468146009800F02F
:40210000A3FF414600F098FE21460A90039800F09BFF394600F090FE21460746049800F093FF314600F088FE05990646204600F08BFF029B019C53F80C8CCDF8188029465B
:4021400000F07AFE54F80C5C07990C90284600F07BFF0D9B0146184600F06EFE029A019B52F808EC089953F8084CCDF81CE08046284600F069FF594600F05EFE2946834660
:40218000099800F061FF514600F056FE29468246009800F059FF494600F04EFE29468146039800F051FF0A9900F046FE29460A90049800F049FF394600F03EFE2946074645
:4021C000059800F041FF314600F036FE06990646284600F039FF0C9A114600F02DFE08990546204600F030FF0146404600F024FE21468046099800F027FF594600F01CFE01
:4022000021468346009800F01FFF514600F014FE21468246039800F017FF494600F00CFE21468146049800F00FFF0A9B194600F003FE21460A90059800F006FF394600F017
:40224000FBFD21460746069800F0FEFE314600F0F3FD029B019A53F804CC0799CDF820C00646204652F8044C00F0EEFE294600F0E3FD21460546099800F0E6FE414600F034
:40228000DBFD21468046009800F0DEFE594600F0D3FD21468346039800F0D6FE514600F0CBFD21468246049800F0CEFE494600F0C3FD21468146059800F0C6FE0A9B19462F
:4022C00000F0BAFD21460A90069800F0BDFE394600F0B2FD21460746079800F0B5FE314600F0AAFD08990646204600F0ADFE029B019A294602F1200403F1200201940292E0
:4023000000F09AFD0B9B0546002B7FF4A2AD199B0E990196189E02460B44179900297BD0CDF80880DDF81480CDF814B0DDF820B0CDF820A0DDF81CA0CDF81C90DDF81890ED
:402340000697049F04933346039E099153F8044B0393049B009953F8045B049320460B9200F072FE0146029800F066FD31460290204600F069FE0146059800F05DFD39461F
:402380000590204600F060FE0146089800F054FD41460890204600F057FE0146079800F04BFD49460790204600F04EFE01460A9800F042FD51460A90204600F045FE0146D3
:4023C000069800F039FD59460690204600F03CFE0146019800F030FD29460190204600F033FE0B9A00960146104600F025FD099B013B3E46099347460246C846039BD1464E
:40240000DA46AB46A2D1DDF80880DDF814B0DDF820A0DDF81C90069F13990A9841F8208C0B4641F81CBC41F818AC41F8149C41F8100C41F80C7C43F8042C0F9A019943F8ED
:40244000081C20320F92109A20332032109213930E9A129B2032013B0E9212937FF4A7AC1D9B1B9A5B011A441B92119A1A4411921A9A1A441A921C9A1A441C921F9B13F003
:4024800007092CD01B9B1A9EDDF870A0CDF80090A3F104084F46119A159C52F8043B48F8043FDDF8509011920025B34659F8041B5BF8040B00F0C8FD0146284600F0BCFC71
:4024C000013C0546F2D1013F4AF8040B06F10406E1D11A9BDDF8009003EB89031A93159B591E1E9B8E085C681FD01A9B04F110021033304653F8105C42F8105C53F80C5C5E
:4025000042F80C5C53F8085C42F8085C53F8045C42F8045C013803F1100302F11002E9D11A9A33011A441C441A9211F0030307D01A99221F51F8040B42F8040F013BF9D199
:4025400021B0BDE8F08F0022149E019217460A929146924693469046DFE600BF81F0004102E000BF83F0004330B54FEA41044FEA430594EA050F08BF90EA020F1FBF54EA37
:40258000000C55EA020C7FEA645C7FEA655C00F0E2804FEA5454D4EB5555B8BF6D420CDD2C4480EA020281EA030382EA000083EA010180EA020281EA0303362D88BF30BD24
:4025C00011F0004F4FEA01314FF4801C4CEA113102D0404261EB410113F0004F4FEA03334CEA133302D0524263EB430394EA050F00F0A780A4F10104D5F1200E0DDB02FA95
:402600000EFC22FA05F2801841F1000103FA0EF2801843FA05F359410EE0A5F120050EF1200E012A03FA0EFC28BF4CF0020C43FA05F3C01851EBE37101F0004507D54FF027
:40264000000EDCF1000C7EEB00006EEB0101B1F5801F1BD3B1F5001F0CD349085FEA30004FEA3C0C04F101044FEA445212F5800F80F09A80BCF1004F08BF5FEA500C50F1FB
:40268000000041EB045141EA050130BD5FEA4C0C404141EB010111F4801FA4F10104E9D191F0000F04BF01460020B1FA81F308BF2033A3F10B03B3F120020CDA0C3208DDCF
:4026C00002F1140CC2F10C0201FA0CF021FA02F10CE002F11402D8BFC2F1200C01FA02F120FA0CFCDCBF41EA0C019040E41AA2BF01EB0451294330BD6FEA04041F3C1CDA38
:402700000C340EDC04F11404C4F1200220FA04F001FA02F340EA030021FA04F345EA030130BDC4F10C04C4F1200220FA02F001FA04F340EA0300294630BD21FA04F029468D
:4027400030BD94F0000F83F4801306BF81F480110134013D4EE77FEA645C18BF7FEA655C29D094EA050F08BF90EA020F05D054EA000C04BF1946104630BD91EA030F1EBF67
:402780000021002030BD5FEA545C05D14000494128BF41F0004130BD14F580043CBF01F5801130BD01F0004545F0FE4141F470014FF0000030BD7FEA645C1ABF19461046DD
:4027C0007FEA655C1CBF0B46024650EA013406BF52EA033591EA030F41F4002130BD00BF90F0000F04BF0021704730B54FF4806404F132044FF000054FF0000150E700BF29
:4028000090F0000F04BF0021704730B54FF4806404F1320410F0004548BF40424FF000013EE700BF42004FEAE2014FEA31014FEA02701FBF12F07F4393F07F4F81F06051BC
:40284000704792F0000F14BF93F07F4F704730B54FF4607401F0004521F0004120E700BF50EA010208BF704730B54FF000050AE050EA010208BF704730B511F0004502D560
:40288000404261EB41014FF4806404F132045FEA915C3FF4DCAE4FF003025FEADC0C18BF03325FEADC0C18BF033202EBDC02C2F1200300FA03FC20FA02F001FA03FE40EA39
:4028C0000E0021FA02F11444C1E600BF70B54FF0FF0C4CF4E06C1CEA11541DBF1CEA135594EA0C0F95EA0C0F00F0DEF82C4481EA030621EA4C5123EA4C5350EA013518BFD6
:4029000052EA033541F4801143F4801338D0A0FB02CE4FF00005E1FB02E506F00042E0FB03E54FF00006E1FB03569CF0000F18BF4EF0010EA4F1FF04B6F5007F64F5407416
:4029400004D25FEA4E0E6D4146EB060642EAC62141EA55514FEAC52040EA5E504FEACE2EB4F1FD0C88BFBCF5E06F1ED8BEF1004F08BF5FEA500E50F1000041EB045170BD9C
:4029800006F0004646EA010140EA020081EA0301B4EB5C04C2BFD4EB0C0541EA045170BD41F480114FF0000E013C00F3AB8014F1360FDEBF002001F0004170BDC4F1000484
:4029C000203C35DA0C341BDC04F11404C4F1200500FA05F320FA04F001FA05F240EA020001F0004221F0004110EBD37021FA04F642EB06015EEA430E08BF20EAD37070BD4A
:402A0000C4F10C04C4F1200500FA04F320FA05F001FA04F240EA020001F0004110EBD37041F100015EEA430E08BF20EAD37070BDC4F1200500FA05F24EEA020E20FA04F339
:402A400001FA05F243EA020321FA04F001F0004121FA04F220EA020000EBD3705EEA430E08BF20EAD37070BD94F0000F0FD101F00046400041EB010111F4801F08BF013C0C
:402A8000F7D041EA060195F0000F18BF704703F00046520043EB030313F4801F08BF013DF7D043EA0603704794EA0C0F0CEA135518BF95EA0C0F0CD050EA410618BF52EA05
:402AC0004306D1D181EA030101F000414FF0000070BD50EA410606BF1046194652EA430619D094EA0C0F02D150EA013613D195EA0C0F05D152EA03361CBF104619460AD164
:402B000081EA030101F0004141F0FE4141F470014FF0000070BD41F0FE4141F4780170BD70B54FF0FF0C4CF4E06C1CEA11541DBF1CEA135594EA0C0F95EA0C0F00F0A7F8B5
:402B4000A4EB050481EA030E52EA03354FEA013100F088804FEA03334FF0805545EA131343EA12634FEA022245EA111545EA10654FEA00260EF000419D4208BF964244F149
:402B8000FD0404F5407402D25B084FEA3202B61A65EB03055B084FEA32024FF480104FF4002CB6EB020E75EB030E22BFB61A754640EA0C005B084FEA3202B6EB020E75EBE4
:402BC000030E22BFB61A754640EA5C005B084FEA3202B6EB020E75EB030E22BFB61A754640EA9C005B084FEA3202B6EB020E75EB030E22BFB61A754640EADC0055EA060EF7
:402C000018D04FEA051545EA16754FEA06164FEAC30343EA52734FEAC2025FEA1C1CC0D111F4801F0BD141EA00014FF000004FF0004CB6E711F4801F04BF01430020B4F1C7
:402C4000FD0C88BFBCF5E06F3FF6AFAEB5EB030C04BFB6EB020C5FEA500C50F1000041EB045170BD0EF0004E4EEA113114EB5C04C2BFD4EB0C0541EA045170BD41F48011D4
:402C80004FF0000E013C90E645EA060E8DE60CEA135594EA0C0F08BF95EA0C0F3FF43BAF94EA0C0F0AD150EA01347FF434AF95EA0C0F7FF425AF104619462CE795EA0C0F6D
:402CC00006D152EA03353FF4FDAE1046194622E750EA410618BF52EA43067FF4C5AE50EA41047FF40DAF52EA43057FF4EBAE12E74FF0FF3C06E000BF4FF0010C02E000BFE7
:402D00004FF0010C4DF804CD4FEA410C7FEA6C5C4FEA430C18BF7FEA6C5C1BD001B050EA410C0CBF52EA430C91EA030F02BF90EA020F0020704710F1000F91EA030F58BF0D
:402D4000994208BF90422CBFD8176FEAE37040F0010070474FEA410C7FEA6C5C02D150EA013C07D14FEA430C7FEA6C5CD6D152EA033CD3D05DF8040B704700BF8446104620
:402D800062468C461946634600E000BF01B5FFF7B7FF002848BF10F1000F01BD4DF808EDFFF7F4FF0CBF012000205DF808FB00BF4DF808EDFFF7EAFF34BF012000205DF8AB
:402DC00008FB00BF4DF808EDFFF7E0FF94BF012000205DF808FB00BF4DF808EDFFF7CEFF94BF012000205DF808FB00BF4DF808EDFFF7C4FF34BF012000205DF808FB00BF71
:402E00004FEA410C7FEA6C5C02D150EA013C0AD14FEA430C7FEA6C5C02D152EA033C02D14FF0000070474FF00100704780F0004002E000BF81F0004142001FBF5FEA41033F
:402E400092EA030F7FEA226C7FEA236C6AD04FEA1262D2EB1363C1BFD218414048404140B8BF5B42192B88BF704710F0004F40F4000020F07F4018BF404211F0004F41F441
:402E8000000121F07F4118BF494292EA030F3FD0A2F1010241FA03FC10EB0C00C3F1200301FA03F100F0004302D5494260EB4000B0F5000F13D3B0F1807F06D340084FEAF0
:402EC000310102F10102FE2A51D2B1F1004F40EBC25008BF20F0010040EA03007047490040EB000010F4000FA2F10102EDD1B0FA80FCACF1080CB2EB0C0200FA0CF0AABFB9
:402F000000EBC25052421843BCBFD0401843704792F0000F81F4000106BF80F400000132013BB5E74FEA41037FEA226C18BF7FEA236C21D092EA030F04D092F0000F08BFCF
:402F40000846704790EA010F1CBF0020704712F07F4F04D1400028BF40F00040704712F100723CBF00F50000704700F0004343F0FE4040F4000070477FEA226216BF084662
:402F80007FEA23630146420206BF5FEA412390EA010F40F4800070474FF0000304E000BF10F0004348BF40425FEA000C08BF704743F0964301464FF000001CE050EA0102E1
:402FC00008BF70474FF000030AE000BF50EA010208BF704711F0004302D5404261EB41015FEA010C02BF84460146002043F0B64308BFA3F18053A3F50003BCFA8CF2083ACF
:40300000A3EBC25310DB01FA02FC634400FA02FCC2F12002BCF1004F20FA02F243EB020008BF20F00100704702F1200201FA02FCC2F1200250EA4C0021FA02F243EB020024
:4030400008BF20EADC7070474FF0FF0C1CEAD0521EBF1CEAD15392EA0C0F93EA0C0F6FD01A4480EA010C400218BF5FEA41211ED04FF0006343EA501043EA5111A0FB013183
:403080000CF00040B1F5000F3EBF490041EAD3715B0040EA010062F17F02FD2A1DD8B3F1004F40EBC25008BF20F00100704790F0000F0CF0004C08BF49024CEA502040EA7C
:4030C00051207F3AC2BFD2F1FF0340EAC250704740F400004FF00003013A5DDC12F1190FDCBF00F000407047C2F10002410021FA02F1C2F1200200FA02FC5FEA310040F15A
:40310000000053EA4C0308BF20EADC70704792F0000F00F0004C02BF400010F4000F013AF9D040EA0C0093F0000F01F0004C02BF490011F4000F013BF9D041EA0C018FE774
:403140000CEAD15392EA0C0F18BF93EA0C0F0AD030F0004C18BF31F0004CD8D180EA010000F00040704790F0000F17BF90F0004F084691F0000F91F0004F14D092EA0C0F4D
:4031800001D142020FD193EA0C0F03D14B0218BF084608D180EA010000F0004040F0FE4040F40000704740F0FE4040F4400070474FF0FF0C1CEAD0521EBF1CEAD15392EAE0
:4031C0000C0F93EA0C0F69D0A2EB030280EA010C49024FEA402037D04FF0805343EA111143EA10130CF000408B4238BF5B0042F17D024FF4000C8B4224BF5B1A40EA0C0087
:40320000B3EB510F24BFA3EB510340EA5C00B3EB910F24BFA3EB910340EA9C00B3EBD10F24BFA3EBD10340EADC001B0118BF5FEA1C1CE0D1FD2A3FF650AF8B4240EBC250E9
:4032400008BF20F0010070470CF0004C4CEA50207F32C2BFD2F1FF0340EAC250704740F400004FF00003013A37E792F0000F00F0004C02BF400010F4000F013AF9D040EA09
:403280000C0093F0000F01F0004C02BF490011F4000F013BF9D041EA0C0195E70CEAD15392EA0C0F08D142027FF47DAF93EA0C0F7FF470AF084676E793EA0C0F04D14B0260
:4032C0003FF44CAF08466EE730F0004C18BF31F0004CCAD130F000427FF45CAF31F000437FF43CAF5FE700BF10B5431E0A44914204D011F8014B03F8014FF8E710BD8842DA
:4033000010B501EB020301D8421E0BE09842FBD28118D21AD34204D013F8014D01F8014DF8E710BD994204D011F8014B02F8014FF8E710BD02440346934202D003F8011B0B
:40334000FAE770472DE9F04788B0002B149F1299109EDDF84CA01D4627F02007BBBF03F100431D4600232D231446B8BF1446462F0B7003D0452F03D1013601E0032300E0BC
:40338000022307AA049206AA03928DE8480422462B4600F019FD472F804602D1119BDB0728D5462F08EB060911D198F80030302B0AD10022002320462946FFF7EFFC18B907
:4033C000C6F10106CAF80060DAF8003099440022002320462946FFF7E1FC08B9302202E0CDF81C9006E0079B994503D9591C07911A70F8E7079B159AC8EB03034046136000
:4034000008B0BDE8F08773B503460029B8BF494203F8022BB4BF2D222B220929427019DD0DF1070216460A2591FBF5F405FB14113031092C02F8011D2146F5DC3031541E26
:4034400002F8011CB4421A460AD214F8012B03F8012BF7E730241A46214402F8024B5970101A02B070BD00002DE9F04F91B00C46DDF8688016461F46054601F041FA03684C
:403480000893184600F0F4FB00230E93D8F800300990073323F0070303F1080294F818A0D4F800B0C8F80020D3E90023C4E91223D4E9128929F000430B93CDF828804FF023
:4034C000FF32A74BDDE90A01FFF79AFCA0B94FF0FF32A34BDDE90A01FFF774FC60B90022002340464946FFF763FC10B12D2384F843309C4B9C4A0AE042464B4640464946B1
:40350000FFF77EFC002800F09281984B984ABAF1470F8CBF90469846032323612BF0040323604FF000093DE0BAF1670F00F08A81BAF1470F00F08681236000210DF133028C
:403540000193636805900292009342464B460691CDF810A0CDF80CE02846FFF7F3FE0AF0DF03472B804600F08481BAF1650F0D9900F28D810139524604F150000D91FFF78C
:4035800042FF0E9A8318012A8146236100F37C812268D10700F178819DF8333013B12D2384F84330009733460FAA2146284600F09FF9013002D14FF0FF3096E123685A05E1
:4035C00001D4236965E0BAF1650F40F2D58000220023D4E91201FFF7E1FB78B30123654A31462846B8470130E5D00E9B0D9A9A420BDB2368D80708D423689B0740F1118188
:403600004FF0000804F1190906E1099B089A31462846B8470130CED04FF0000804F11A090E9B013B9845E7DA01234A4631462846B8470130BFD008F10108F1E70D9B002B65
:4036400029DC01234B4A31462846B8470130B2D00D9B23B90E9B13B92368D907CCD5099B089A31462846B8470130A4D04FF0000904F11A0A0D9B5B42994509DA01235246FE
:4036800031462846B847013095D009F10109F1E70E9B4246A7E00E9AA36D9A42A8BF1A46002A914606DC4FF0000A29EAE97904F11A0B11E01346314642462846B8470130FF
:4036C000F1D178E701235A4631462846B84701303FF471AF0AF1010AA36DC9EB03029245F0DB08EB03090D9A0E9B9A420FDB2368DA070CD40E9B0D9A9844C9EB08089B1A06
:403700009845A8BF9846B8F1000F08DC0FE0099B089A31462846B8470130EBD14BE743464A4631462846B84701303FF444AF4FF0000928EAE87804F11A0A09E001235246C7
:4037400031462846B84701303FF435AF09F101090D9A0E9B9B1AC8EB03039945EEDB4BE7FFFFEF7FAA970810AE970810B2970810B6970810BA9708100E9A012A01DCDB079F
:4037800038D50123424631462846B84701303FF412AF099B089A31462846B84701303FF40AAF00220023D4E91201FFF7F7FA20B14FF0000804F11A0A0EE00E9B08F1010240
:4037C000013B19E00123524631462846B84701303FF4F1AE08F101080E9B013B9845F1DB4B4604F1500231462846B84701307FF403AFE0E60123424631462846B8470130C8
:40380000EED1D8E601234A4631462846B84701303FF4D1AE08F10108E3680F9A9B1A9845F0DBE0680F9B9842B8BF18465DE06268531C0EA84BF480630DF1340E7FF474AE79
:40384000062201E012B90122626075E6002106910DF133018DE80C00236005904246CDF810A0CDF80CE002914B462846FFF76AFD80460D9BD81C02DB626893421DDDAAF1A1
:40388000020A5FFA8AFA70E60133236184E6BAF1660F14D10029636807DD216113B92268D2071DD501330B4419E013B92268D00701D5023313E0012311E04FF0670A0D9B13
:4038C0000E9A934205DB22682361D10708D5013305E0002BD4BFC3F102030123134423610D9BA3654FF0000956E611B0BDE8F08F2DE9F04791461F460A698B68DDF820809C
:403900009342B8BF1346C9F8003091F8432006460C4612B10133C9F800302368990642BFD9F800300233C9F80030256815F0060510D104F1190A07E00123524639463046FF
:40394000C04701301AD00135E368D9F800209B1A9D42F1DB94F843302268003318BF012392060FD5E1185A1C302081F84300224494F8451082F84310023303E04FF0FF300B
:40398000BDE8F08704F1430239463046C0470130F4D02268D9F80050E36802F00602042A08BF5D1B2269A3680CBF25EAE57500259342C4BF9B1AED184FF000091A344D453A
:4039C00009D00123224639463046C0470130D5D009F10109F3E70020BDE8F0872DE9F04317460A7E85B06E2A984606460C460C9B01F1430E00F0AE8011D8632A22D009D8AE
