:020000041008E2
:4000000000780408EB0208100D0000005103081051030810510308105103081000000000000000000000000000000000411A08104D03081000000000711A0810D51A0810F5
:400040004D0308104D0308104D0308104D0308104D0308104D0308104D0308104D0308104D0308104D0308104D0308104D0308104D0308104D0308104D0308104D03081000
:400080004D0308104D0308104D0308104D0308104D0308104D0308104D0308104D0308104D0308104D0308104D0308104D0308104D0308104D0308104D0308104D030810C0
:4000C0004D0308104D0308104D0308104D0308104D0308104D0308104D0308104D0308104D0308104D0308104D0308104D0308104D0308104D0308104D0308104D03081080
:400100004D0308104D0308104D0308104D0308104D0308104D0308104D0308104D0308104D0308104D0308104D0308104D0308104D0308104D0308104D0308104D0308103F
:400140004D0308104D0308104D0308104D0308104D0308104D0308104D0308104D0308104D0308104D0308104D0308104D0308104D0308104D0308104D0308104D030810FF
:400180004D0308104D0308104D0308104D0308104D0308104D0308104D0308104D0308104D0308104D0308104D0308104D0308104D0308104D0308104D0308104D030810BF
:4001C0004D0308104D0308104D0308104D0308104D0308104D0308104D0308104D0308104D0308104D0308104D0308104D0308104D0308104D0308104D0308104D0308107F
:400200004D0308104D0308104D0308104D0308104D0308104D0308104D0308104D0308104D0308104D0308104D0308104D0308104D0308104D0308104D0308104D0308103E
:400240004D0308104D0308104D0308104D0308104D0308104D0308104D0308104D0308104D0308104D0308104D0308104D0308104D0308104D0308104D0308104D030810FE
:400280004D0308104D0308104D03081010B5054C237833B9044B13B10448AFF300800123237010BD8449020800000000BC7B0810084B10B51BB108490848AFF30080084847
:4002C000036803B910BD074B002BFBD0BDE81040184700BF0000000088490208BC7B081050430208000000007047FFF7FDFF72B6104C114DAC4209DA21686268A368043BEF
:40030000A2BFC858D050FAE70C34F3E70B490C4A00209142BCBF41F8040BFAE709480A490860BFF34F8F00F06DF900F047F900F01DF8FEE7C07B0810D87B0810844902083F
:400340001C4D02080040020808ED00E0FEE7FEE700B504207146084202D0EFF3098001E0EFF30880043001F0E7F9FEE710B5ADF57B5D8AB062B601F0DFFB4FF4FA521F4982
:400380000DF5FD50083002F0EFFE1AA90DF5FD50083000F04BF91A491A4800F0C3FD002417E000210191602202A802F003FF1AAB03EB8403186802F075F902460B461249E8
:4003C00001A803F071FB01A90E4800F0ABFD0134A4B2022CE5D90B4C0C49204600F0A2FD0B4B0C4A1AA90DF5FD50083000F072F90949204600F096FDFEE700BF04530810A6
:4004000044720810000066406872081070720810244B0208284B02089472081008B5012000F00EFD08BD00BF704700BF5C4AD2F8803303F00F0303F1D00152F8212002F00B
:400440000702032A04D0042A05D092B9554914E0554A116811E003F1C002514951F8222002F01F02112A06D0132A04D04FF4FA4103E04E4901E04FF400418BBB484BD3F878
:40048000902502F00100D3F88825C2F30172D3F8883513F0405F07D0414BD3F88835C3F30173012B02D102E0012300E0002303B108B9032A46D13A48D0F88025C2F311033C
:4004C000D0F88425C2F30C02D0F88005C0F300600130B1FBF2F202FB03F2B2FBF0F131E0012B2FD12E4BD3F8402602F00100D3F80026C2F30172D3F8003613F0405F07D0BA
:40050000274BD3F80036C3F30173012B02D102E0012300E0002303B108B9032A12D12048D0F8002602F07F02D0F80036C3F30423D0F80006C0F3044002FB01F2B2FBF3F2A6
:40054000B2FBF0F1164BD3F88033C3F3011321FA03F215494A601648D0F89030C3F3072301330069000E0130B2FBF0F08860B2FBF3F3CB600B6103F5742202F23F220D48B3
:40058000A0FB0202C2F387420A7503F2E7330A4AA2FB03239B098B61DB03CB61704700BF0000264000127A008C42020800366E010000214083DE1B43D34D621008B50D4836
:4005C00001F01EF9FFF730FFFFF730FF00221146042000F0FDF9084800F090FA074B1B6893F8513013B1064800F0F8FA00F03AF908BD00BF18790810A0490208DC4C020812
:40060000A472081008B501F0F4F8074AD2F8883043F47003C2F88830BFF34F8FBFF36F8F01F0EBF808BD00BF00ED00E070B5ADF50B5D8AB006460D464FF44B721F490DF52C
:40064000FD501C3002F090FD4FF4FA6400941FAB0DF5FD521C32CB211CA801F09FFA23462A4631461CA801F0ABFA154B6B601549154800F057FC002416E000210391602266
:4006800004A802F097FD05EB8403186802F00AF802460B460D4903A803F006FA03A90A4800F040FC0134A4B2022CE6D90849064800F038FC0DF50B5D0AB070BDD872081078
:4006C00000005E430476081000006640687208102476081000201860106070471F4B98422DD00CD840282ED003D8E8B1102828D02FE0802829D0B0F5807F28D029E0184BD7
:40070000984228D006D8B0F1204F0DD0154B984212D01EE0144B98420AD00133984209D0023B984215D101E0002070470F4870470F4870470F4870474FF4A0007047074840
:4007400070470D4870470D4870470D487047034870470C4870474FF4A400704706005200010000F0090000A0040000F001005200020052000300520001005000020050006E
:4007800005005200FF00520038B5124B1B6893F83130012B04D840F2C3110F4800F0BCFF0C4B1D682A6AB5F8B03013442C46D5F8B420D358002B0BDB084B1868FFF78EFFCF
:4007C0006B6801229A6063689B68002BFBD138BD034838BDDC4C0208587608103C4B0208020050001A4B186128B102230370FF23437000234380174B1B6893F850202AB34D
:4008000000B583B0B3F93830ADF80030002301931149684600F044FFBDF90030002B08DB590903F01F03012202FA03F30B4A42F82130084B1B6893F8513023B1022208496A
:40084000012000F077FA03B05DF804FB704700BF3C4B0208DC4C0208C143020800E100E07944020808B50248FFF7BCFF08BD00BF504B020838B50B4B1B68D3F8B4301B5857
:40088000002B0DDA0D4604460B0C1B0423B140F2D521054800F040FFA9B26160002038BD024838BDDC4C02089876081001008A0038B50368002B01DA002300E0094B73B9A7
:4008C0000D460446C2600B0C1B0423B140F2BB21054800F021FFA9B2A160002038BD014838BD00BF01008A009876081038B504460D4619B99921084800F00EFF074B1B686D
:40090000D3F8B4301B59002B03DAE3682B60002038BD034838BD00BFD8760810DC4C020801008A00254B1B6893F8313083423AD900293AD00B6813F01F0F38D170B50D4670
:4009400004461E4B1B6893F83130984204D340F2C3111B4800F0E0FE184B1B68186AB3F8B03004FB0304174E34602A68D2080021686802F01FFC00212046FFF77BFF34687E
:4009800025B940F293310E4800F0C6FE2A4600212046FFF78DFF60B900210A4B1868FFF769FF40B970BD084870470748704706487047064870BD054870BD00BFDC4C020855
:4009C00098760810544B020803018A0001018A0010B504461346B2B9A9B9124B1B6893F83130984204D340F2C3110F4800F094FE0C4B1B681A6AB3F8B03004FB03240B4B18
:400A00001C60002010BD43B149B1084A51609360111D2046FFF786FF10BD054810BD044810BD00BFDC4C020898760810544B020803018A002DE9F0411B4B1B68DC6823680D
:400A400083422CD90D464609A0EB4610012303FA00F819B900F0CDFE074600E00027124B18680368002B01DA002300E00F4B83B9626852F8263018EA030F05D023EA0803DD
:400A800042F82630002400E0094C0021FFF7F2FE00E0084C25B9384600F0AFFE00E0064C2046BDE8F08100BF544B020801008A00020188000301880004018A000B4B1B68F9
:400AC000DB681A6882420CD94109A0EB4110012202FA00F05B6853F82130184203D004487047044870470448704700BF544B02080101880004018A0000018800024B1B68E4
:400B00000BB9014B18607047604B02082DE9F8430446884691461D46089F2C4B1B681BB9B5212B4800F0F8FD284B1B682C2000FB04F01C18EEB21E50C5F3072363602D0C2A
:400B4000A560244B1B6893F831309E4204D340F2C311214800F0E0FD1E4B1B68196AB3F8B02006FB02162661666893F832309E4204D340F2DF11184800F0CEFD154B1B6883
:400B80001D6A803605EB46156561A668330C1B0423B14FF4FF71104800F0BEFD330C1B0423B140F2FF110C4800F0B6FDB3B243EA0646AE60C4F81C90C4F820800023A361AF
:400BC00017B1B7F90030A381BDE8F883604B020818770810DC4C020898760810F0B58FB0044618B95221274800F096FDA369072B03D95621234800F08FFDE36A1BB95821DF
:400C0000204800F089FD236B1BB959211D4800F083FD07AD04F114060FCE0FC537682F6002AD26460FCE0FC533682B60164B1B68B3F93620079B1344ADF83030089B0D936A
:400C4000A26AE16A0CAD00953B460A98FFF75EFF00210091069B0A460598FFF757FF216B284600F01DFDBDF93030002B08DB590903F01F03012202FA03F3044A42F8213040
:400C80000FB0F0BD18770810DC4C020800E100E0F8B506460F461D4614461AB9FD211F4800F03AFD1E4B1B681BB9FE211B4800F033FD1B4B1B682C2101FB063001FB0731A6
:400CC0004B68012202FA03F31B04466802FA06F60269EAB18F69EFB91268002A01DA002200E0104AC2B92288134323600369DC6001238B614D620469330C1B0423B140F2B0
:400D0000BB21094800F008FDB2B2A2600020F8BD0648F8BD0648F8BD0548F8BD18770810604B020801008A009876081004028A0007028A00F8B505460F4616460E4B1B6899
:400D400023B94FF4AF710D4800F0E6FC0A4B1B682C2404FB0534236A23B94FF4B171074800F0DAFCE369B34204D9236A43F826700020F8BD0248F8BD604B0208187708101E
:400D80000A028A0070B582B000230193044620B940F2D111284800F0BFFC236923B94FF4E971254800F0B8FC636923B940F2D311214800F0B1FC236A23B94FF4EA711E48F6
:400DC00000F0AAFC6369DD682A0C20D012041A601B682069194B1B68D3F8B430C358002B15DA01A9FFF782FD60B9019803681E0CDBB2E269934206D2226A52F8233013B1E7
:400E0000984700E0002631462069FFF733FDADB275B16369ADB21D601B68636A1BB198470023636202E0A36A03B198470023A36163691B6802B070BD18770810DC4C0208E7
:400E400010B50446074B1B6823B940F2B111064800F062FC034B1B682C2000FB0430FFF791FF10BD604B02081877081010B4D0F8003303F00F03072B06D900230DE0D0F87A
:400E80004043CC54013300E000239342F7D306E0D0F8404321F8134001339342F8D35DF8044B704710B51446D0F80833C3F308039A4200D31C462246FFF7D8FF204610BD91
:400EC00010B4D0F8003203F00F03072B06D900230DE0CC5CC0F84042013300E000239342F7D306E031F81340C0F8404201339342F8D35DF8044B704710B51446036813F47A
:400F0000006F01D0802200E04022D0F80832C3F30803D31AA34200D81C462246FFF7D0FF204610BD30B4036813F4006F01D0802200E04022002408E0D0F80832C3F3080315
:400F40009A42F9D0C0F8405201340D5D002DF3D130BC70472DE9F84305460C46036813F4006F02D04FF0800801E04FF04008D5F8007207F00F07A26A012A19D9D4F824908A
:400F8000E262561EB9F1000F00D026B940F27351254800F0C1FB324649462846FFF7ACFFA36A1B1AA362072F00D9400048446062D5F80832C3F30803984533D0A36A012B27
:400FC00030D10023A362072F02D8636A1E7801E0636A1E8800F00DFCC5F840624FF40073C5F8803FD5F8803F00F007FCD5F8883F23F4007222F0010242F4007623F4EE63B2
:4010000023F0030323B140F22A41084800F084FBC5F8886F236843F002032360236B0BB101209847BDE8F88358770810987708102DE9F04105460C46036813F4006F01D05F
:40104000802600E040267608A769D4F81C8017B1B8F1000F04D14FF49961314800F05CFB424639462846FFF71DFF236A03442362E3691B1AE36173BBA368FBB1E3689E4287
:4010800001D8013E00E05E1E2B6813F4006F01D0802300E040239E4204D34FF42071214800F03AFBD5F8043323F0FF03F6B21E43C5F804630123C5F8C83F02E00023C5F8F3
:4010C000C83F636823F001036360236B33B304209847BDE8F081A169D5F8002302F00F02072A00D940000844A0619E4216D95C1E2B6813F4006F01D0802300E040239C423C
:4011000004D34FF42071074800F006FBD5F8043323F0FF02E3B21343C5F80433BDE8F0815877081098770810002800F0A48170B50546002900F0A18116460C460B78022B63
:4011400003D93F21A24800F0E7FA637B023BDBB2062B03D940219E4800F0DEFAA37B3BB1022B05D0032B03D04121994800F0D4FA94F82130012B03D94221954800F0CCFACB
:4011800094F82830012B03D94321914800F0C4FA2378012B06D86368083B082B94BF0023012307E0A37F2BB16368013B062B94BF002301231BB14521854800F0ADFAA36880
:4011C000053B042B03D94621814800F0A5FA6369FF2B03D947217E4800F09EFAA369FF2B03D948217A4800F097FAA37C6BB1237833B9A368092B05D1A37B2BB1012304E0C6
:40120000012302E0012300E000231BB14A21704800F082FA636B23F4366323F00D031BB14C216B4800F078FAE36B23F4EE6323F003031BB14D21664800F06EFA2378022B60
:4012400001D1A37F13B16268013A00E00022237F13B14FF4803100E00021A368082B02D84FF4006300E000230B4302F00F02134343F000732B60226B2B6813F4006F01D054
:40128000802300E040239A4203D36221504800F043FAA26B2B6813F4006F01D0802300E040239A4203D36321494800F035FA626A2B6813F4006F01D0802300E040239A4233
:4012C00003D36421424800F027FA23781B0603F040732B64637F0BB1402200E00022A37C13B14FF4806300E000231343227C12B14FF4807200E000221343627C12B14FF4D1
:40130000007200E000221A43E36A013B1B0403F470231343627B013A02F007021343A27B120102F030021343AB64237B13B14FF4807200E00022E37B23B92378022B03D1C3
:40134000012302E0012300E0002313B14FF4007300E000231A43A368013B03F00F031343C5F80033227DA3691B0403F47F031343C5F81033E26AD5F8003303F00F030333B4
:401380009A4201D3102A03D97A21114800F0C4F9E37F23B12378012B03D0002302E0002300E0012313B14FF4807200E00022637B013B03F007031A43A37B1B0103F03003FB
:4013C00013436B64237B2BB14FF4807203E000BFDC7708100022A368013B03F00F0313432278012A02D14FF4803200E000221343C5F8003294F83030C5F8043394F82030B8
:4014000013B14FF0007200E0002294F82130012B02D14FF0807300E00023134394F82820012A02D14FF4803200E00022134394F8242013432B6594F83830C5F80432636B44
:4014400023F4926323F002031B051B0DC5F8C83FE36B23F08C035B055B0DC5F8883F76B1002070603060B060F0603062F0623063044B736370BD04487047034870BD002095
:4014800070BD00BFEFCDAB000160AA000B694A69934202D34869181A7047CA694869101A184470472DE9F04107460D46036813F4006F02D04FF0800801E04FF040084FEA40
:4014C0005808D7F80863C6F308062C6926E00134EB689C4200D100246B699C420FD12B6B0BB1082098476B699C4208D10023C7F8C83F0CB1013C13E0EC68013C10E0D7F8F9
:401500004023D7F8003303F00F03072B02D8AB681A5502E0AB6823F81420013E002ED6D12C61EC6829463846FFF7B0FF201A804519D908B1441E00E000243B6813F4006FBF
:4015400001D0802300E040239C4204D34FF42071064800F0E1F8D7F8040320F0FF03E0B21843C7F80403BDE8F08100BF9877081038B504460D46D0F8003E13F0080F35D0CE
:40158000D0F8CC3F13F448730AD04A681A434A60C0F8C03FD0F8C03F0B6B0BB110209847D4F8CC3F13F4006F09D06B6843F400636B604FF40063C4F8C03FD4F8C03FD4F8EE
:4015C000CC3F13F0010F11D0EB6923B129462046FFF72EFD05E0AB681BB129462046FFF761FF0123C4F8C03FD4F8C03FD4F8003E13F0040F2ED0D4F88C3F13F4A0630AD09C
:401600002A681A432A60C4F8803FD4F8803F2B6B0BB120209847D4F88C3F13F0010F08D029462046FFF796FC0123C4F8803FD4F8803FD4F88C3F13F4007F0BD00022C4F8DB
:40164000882F2B6823F001032B60EA622B6B0BB10220984738BD00BF38B50D4B9A680D4B9A420FD10D46044621B940F237110A4800F052F804F11003064A52F8230042F854
:40168000235038BD1030054B53F8200038BD00BF00ED00E0004002081C7808100000081048B338B504460D464368072B03D93221134800F031F8B4F900306268002B08DB7E
:4016C0005201D2B203F1604303F5614383F8002305E003F00F035201D2B20A49CA540A4B9A680A4B9A4208D12946B4F90000FFF7B3FF002038BD06487047002038BD00BFFD
:401700001C78081014ED00E000ED00E0004002080100560001BEFEE738B50D46044C18220146204602F0ECF9A5610020FFF7F2FFF0480208FEE700BF08B50268254BDA61F7
:4017400042681A6282685A62C2689A620269DA6242691A6382695A63C2699A631E4A916AD963D16A1964516A5964516B9964926BDA64F1EE103A13F0900F27D0026A154B87
:401780001A65426A5A65826A9A65C26ADA65026B1A66426B5A66826B9A66C26BDA66026C1A67426C5A67826C9A67C26CDA67026DC3F88020426DC3F88420826DC3F888204F
:4017C000C26DC3F88C20026EC3F89020FFF7B2FF08BD00BFF048020800ED00E0000000000230800803D001300238FCD100BF00BF7047EFF3108072B6704780F31088704731
:40180000014B1860704700BFDC4C020843684B609A688A609A68516099600861036801330360704703694268816891608268416851605A68904201D182685A600022026169
:401840001A68013A1A601868704700BF094B9B6A1B680BB9012300E0002323B14FF0FF32044BDA627047034B9A6AD268D2685268DA627047A04B02082DE9F0413C4BD3F8ED
:401880001831002B65D13A4BD3F814410134C3F81441CCB99B6A1B6843B14FF03F0383F31188BFF36F8FBFF34F8FFEE7304B9A6AD3F8F8109962C3F8F820D3F8202101327F
:4018C000C3F82021FFF7C2FF294BDB6A9C4203D2002645E0012600E00026254B9B6A1B680BB9012300E0002323B14FF0FF32204BDA6235E01E4B9B6ADB68DD686B689C42C7
:4019000002D21B4AD3622BE005F104084046FFF789FFAB6A1BB105F11800FFF783FFEB6A134AD2F80C21934202D9114AC2F80C310F4F07F1300003EB83039A0041461044A7
:40194000FFF764FFEA6AD7F80031DB6A9A42C1D2C3E7074AD2F824310133C2F824310026034BD3F8283103B101263046BDE8F081A04B0208304BD3F8183123B101222E4BB6
:40198000C3F82821704710B52B4B0022C3F82821D3F800311B6B1A68B2F1A53F0BD15A68B2F1A53F07D19A68B2F1A53F03D1DB68B3F1A53F07D0204BD3F80001D3F8001171
:4019C000343100F09DF81C4BD3F80C310AE043B94FF03F0383F31188BFF36F8FBFF34F8FFEE7013B03EB83018A0013490A44126B002AECD008469900CC18A2000244546B3C
:401A000064685463303019448A0008320244944206D1606803EB83018A0007490A445063054903EB830082000A44526BD268C1F80021C1F80C3110BDA04B02080000000082
:401A4000074B19680868B0E8F04F80F30988BFF36F8F4FF0000080F311887047AFF30080A04C0208000000000000000000000000EFF30980BFF36F8F154B1A681EF0100F54
:401A800008BF20ED108A20E9F04F10602DE909004FF03F0080F31188BFF34F8FBFF36F8FFFF768FF4FF0000080F3118809BC19680868B0E8F04F1EF0100F08BFB0EC108AB8
:401AC00080F30988BFF36F8F704700BFAFF30080A04C020808B54FF03F0383F31188BFF36F8FBFF34F8FFFF7C7FE18B14FF08052024B1A60002383F3118808BD04ED00E0F3
:401B000008B54FF03F0383F31188BFF36F8FBFF34F8F4FF441710248FFF7FEFDFEE700BFD079081008B502490248FFF721FD08BDE04C02080000664008B5114B1B785BB91C
:401B4000104A11491148FFF7EFFA11491148FFF7A7FD01220A4B1A700E4BB3F90030002B08DB590903F01F03012202FA03F30A4A42F82130054A136843F00043136008BD04
:401B8000CC4C0208E04C0208207A081000006640251B08105076081000E100E070B5049C826004F18044013C05460C4401801E46A2001846002101F0FDFA6E6070BD00BF9E
:401BC0002DE9F04F0546A1B06C681E9000881A94264600F18048AC681F9308F1FF3827461494DB0806EB8804159011911C921B941D9300F0838396461A46C3082546169347
:401C000004465B0138461844043B199304F00703179305F120030F930B462033109306F120030E9373462033189013931292109A0F9C52F8203C44F8203C52F81C3C44F865
:401C40001C3C11460A4651F8183C44F8183C51F8143C44F8143C51F8103C44F8103C51F80C3C44F80C3C52F8083C44F8083C52F8043C0E9A44F8043C52F8203C0093134693
:401C800052F81C2C03921A46194653F8183C049352F8143C059351F80C3C52F8102C079351F8083C0692089316980B1F002800F08A83149B0B900022203301F11C04019303
:401CC000164617460A92914692469346904615460294019B029A53F8204C52F8201C09912046009901F0F0F8414600F0E5FF03990D90204601F0E8F8594600F0DDFF049986
:401D00008346204601F0E0F8514600F0D5FF05998246204601F0D8F8494600F0CDFF06998146204601F0D0F80A9900F0C5FF07998046204601F0C8F8394600F0BDFF089953
:401D40000746204601F0C0F8314600F0B5FF09990646204601F0B8F8029B019C53F81CEC294654F81C5CCDF800E000F0A5FF03990C90284601F0A8F80D9B0146184600F08A
:401D80009BFF04990A90284601F09EF8594600F093FF05998346284601F096F8514600F08BFF06998246284601F08EF8494600F083FF07998146284601F086F8414600F0CF
:401DC0007BFF029B089953F818CCCDF80CC080462846019401F078F8394600F06DFF29460746099854F8184C01F06EF8314600F063FF00990646284601F066F80C9A11469A
:401E000000F05AFF04990546204601F05DF80A9B0146184600F050FF05990A90204601F053F8594600F048FF06998346204601F04BF8514600F040FF07998246204601F005
:401E400043F8494600F038FF08998146204601F03BF8414600F030FF21468046099801F033F8394600F028FF21460746009801F02BF8314600F020FF03990646204601F034
:401E800023F8029A019C52F814ECCDF810E029460B9D013D0B9500F00FFF54F8145C05990C90284601F010F80A9B0146184600F003FF0A900699284601F006F8594600F01E
:401EC000FBFE07998346284600F0FEFF514600F0F3FE029B089953F810CCCDF814C082462846019400F0F0FF494600F0E5FE29468146099854F8104C00F0E6FF414600F0D8
:401F0000DBFE29468046009800F0DEFF394600F0D3FE29460746039800F0D6FF314600F0CBFE04990646284600F0CEFF0C9A114600F0C2FE06990546204600F0C5FF0A9B38
:401F40000146184600F0B8FE07990D90204600F0BBFF594600F0B0FE08998346204600F0B3FF514600F0A8FE21468246099800F0ABFF494600F0A0FE21468146009800F0B0
:401F8000A3FF414600F098FE21460A90039800F09BFF394600F090FE21460746049800F093FF314600F088FE05990646204600F08BFF029B019C53F80C8CCDF818802946DD
:401FC00000F07AFE54F80C5C07990C90284600F07BFF0D9B0146184600F06EFE029A019B52F808EC089953F8084CCDF81CE08046284600F069FF594600F05EFE29468346E2
:40200000099800F061FF514600F056FE29468246009800F059FF494600F04EFE29468146039800F051FF0A9900F046FE29460A90049800F049FF394600F03EFE29460746C6
:40204000059800F041FF314600F036FE06990646284600F039FF0C9A114600F02DFE08990546204600F030FF0146404600F024FE21468046099800F027FF594600F01CFE82
:4020800021468346009800F01FFF514600F014FE21468246039800F017FF494600F00CFE21468146049800F00FFF0A9B194600F003FE21460A90059800F006FF394600F099
:4020C000FBFD21460746069800F0FEFE314600F0F3FD029B019A53F804CC0799CDF820C00646204652F8044C00F0EEFE294600F0E3FD21460546099800F0E6FE414600F0B6
:40210000DBFD21468046009800F0DEFE594600F0D3FD21468346039800F0D6FE514600F0CBFD21468246049800F0CEFE494600F0C3FD21468146059800F0C6FE0A9B1946B0
:4021400000F0BAFD21460A90069800F0BDFE394600F0B2FD21460746079800F0B5FE314600F0AAFD08990646204600F0ADFE029B019A294602F1200403F120020194029261
:4021800000F09AFD0B9B0546002B7FF4A2AD199B0E990196189E02460B44179900297BD0CDF80880DDF81480CDF814B0DDF820B0CDF820A0DDF81CA0CDF81C90DDF818906F
:4021C0000697049F04933346039E099153F8044B0393049B009953F8045B049320460B9200F072FE0146029800F066FD31460290204600F069FE0146059800F05DFD3946A1
:402200000590204600F060FE0146089800F054FD41460890204600F057FE0146079800F04BFD49460790204600F04EFE01460A9800F042FD51460A90204600F045FE014654
:40224000069800F039FD59460690204600F03CFE0146019800F030FD29460190204600F033FE0B9A00960146104600F025FD099B013B3E46099347460246C846039BD146CF
:40228000DA46AB46A2D1DDF80880DDF814B0DDF820A0DDF81C90069F13990A9841F8208C0B4641F81CBC41F818AC41F8149C41F8100C41F80C7C43F8042C0F9A019943F86F
:4022C000081C20320F92109A20332032109213930E9A129B2032013B0E9212937FF4A7AC1D9B1B9A5B011A441B92119A1A4411921A9A1A441A921C9A1A441C921F9B13F085
:4023000007092CD01B9B1A9EDDF870A0CDF80090A3F104084F46119A159C52F8043B48F8043FDDF8509011920025B34659F8041B5BF8040B00F0C8FD0146284600F0BCFCF2
:40234000013C0546F2D1013F4AF8040B06F10406E1D11A9BDDF8009003EB89031A93159B591E1E9B8E085C681FD01A9B04F110021033304653F8105C42F8105C53F80C5CDF
:4023800042F80C5C53F8085C42F8085C53F8045C42F8045C013803F1100302F11002E9D11A9A33011A441C441A9211F0030307D01A99221F51F8040B42F8040F013BF9D11B
:4023C00021B0BDE8F08F0022149E019217460A929146924693469046DFE600BF81F0004102E000BF83F0004330B54FEA41044FEA430594EA050F08BF90EA020F1FBF54EAB9
:40240000000C55EA020C7FEA645C7FEA655C00F0E2804FEA5454D4EB5555B8BF6D420CDD2C4480EA020281EA030382EA000083EA010180EA020281EA0303362D88BF30BDA5
:4024400011F0004F4FEA01314FF4801C4CEA113102D0404261EB410113F0004F4FEA03334CEA133302D0524263EB430394EA050F00F0A780A4F10104D5F1200E0DDB02FA16
:402480000EFC22FA05F2801841F1000103FA0EF2801843FA05F359410EE0A5F120050EF1200E012A03FA0EFC28BF4CF0020C43FA05F3C01851EBE37101F0004507D54FF0A9
:4024C000000EDCF1000C7EEB00006EEB0101B1F5801F1BD3B1F5001F0CD349085FEA30004FEA3C0C04F101044FEA445212F5800F80F09A80BCF1004F08BF5FEA500C50F17D
:40250000000041EB045141EA050130BD5FEA4C0C404141EB010111F4801FA4F10104E9D191F0000F04BF01460020B1FA81F308BF2033A3F10B03B3F120020CDA0C3208DD50
:4025400002F1140CC2F10C0201FA0CF021FA02F10CE002F11402D8BFC2F1200C01FA02F120FA0CFCDCBF41EA0C019040E41AA2BF01EB0451294330BD6FEA04041F3C1CDAB9
:402580000C340EDC04F11404C4F1200220FA04F001FA02F340EA030021FA04F345EA030130BDC4F10C04C4F1200220FA02F001FA04F340EA0300294630BD21FA04F029460F
:4025C00030BD94F0000F83F4801306BF81F480110134013D4EE77FEA645C18BF7FEA655C29D094EA050F08BF90EA020F05D054EA000C04BF1946104630BD91EA030F1EBFE9
:402600000021002030BD5FEA545C05D14000494128BF41F0004130BD14F580043CBF01F5801130BD01F0004545F0FE4141F470014FF0000030BD7FEA645C1ABF194610465E
:402640007FEA655C1CBF0B46024650EA013406BF52EA033591EA030F41F4002130BD00BF90F0000F04BF0021704730B54FF4806404F132044FF000054FF0000150E700BFAA
:4026800090F0000F04BF0021704730B54FF4806404F1320410F0004548BF40424FF000013EE700BF42004FEAE2014FEA31014FEA02701FBF12F07F4393F07F4F81F060513E
:4026C000704792F0000F14BF93F07F4F704730B54FF4607401F0004521F0004120E700BF50EA010208BF704730B54FF000050AE050EA010208BF704730B511F0004502D5E2
:40270000404261EB41014FF4806404F132045FEA915C3FF4DCAE4FF003025FEADC0C18BF03325FEADC0C18BF033202EBDC02C2F1200300FA03FC20FA02F001FA03FE40EABA
:402740000E0021FA02F11444C1E600BF70B54FF0FF0C4CF4E06C1CEA11541DBF1CEA135594EA0C0F95EA0C0F00F0DEF82C4481EA030621EA4C5123EA4C5350EA013518BF57
:4027800052EA033541F4801143F4801338D0A0FB02CE4FF00005E1FB02E506F00042E0FB03E54FF00006E1FB03569CF0000F18BF4EF0010EA4F1FF04B6F5007F64F5407498
:4027C00004D25FEA4E0E6D4146EB060642EAC62141EA55514FEAC52040EA5E504FEACE2EB4F1FD0C88BFBCF5E06F1ED8BEF1004F08BF5FEA500E50F1000041EB045170BD1E
:4028000006F0004646EA010140EA020081EA0301B4EB5C04C2BFD4EB0C0541EA045170BD41F480114FF0000E013C00F3AB8014F1360FDEBF002001F0004170BDC4F1000405
:40284000203C35DA0C341BDC04F11404C4F1200500FA05F320FA04F001FA05F240EA020001F0004221F0004110EBD37021FA04F642EB06015EEA430E08BF20EAD37070BDCB
:40288000C4F10C04C4F1200500FA04F320FA05F001FA04F240EA020001F0004110EBD37041F100015EEA430E08BF20EAD37070BDC4F1200500FA05F24EEA020E20FA04F3BB
:4028C00001FA05F243EA020321FA04F001F0004121FA04F220EA020000EBD3705EEA430E08BF20EAD37070BD94F0000F0FD101F00046400041EB010111F4801F08BF013C8E
:40290000F7D041EA060195F0000F18BF704703F00046520043EB030313F4801F08BF013DF7D043EA0603704794EA0C0F0CEA135518BF95EA0C0F0CD050EA410618BF52EA86
:402940004306D1D181EA030101F000414FF0000070BD50EA410606BF1046194652EA430619D094EA0C0F02D150EA013613D195EA0C0F05D152EA03361CBF104619460AD1E5
:4029800081EA030101F0004141F0FE4141F470014FF0000070BD41F0FE4141F4780170BD70B54FF0FF0C4CF4E06C1CEA11541DBF1CEA135594EA0C0F95EA0C0F00F0A7F837
:4029C000A4EB050481EA030E52EA03354FEA013100F088804FEA03334FF0805545EA131343EA12634FEA022245EA111545EA10654FEA00260EF000419D4208BF964244F1CB
:402A0000FD0404F5407402D25B084FEA3202B61A65EB03055B084FEA32024FF480104FF4002CB6EB020E75EB030E22BFB61A754640EA0C005B084FEA3202B6EB020E75EB65
:402A4000030E22BFB61A754640EA5C005B084FEA3202B6EB020E75EB030E22BFB61A754640EA9C005B084FEA3202B6EB020E75EB030E22BFB61A754640EADC0055EA060E78
:402A800018D04FEA051545EA16754FEA06164FEAC30343EA52734FEAC2025FEA1C1CC0D111F4801F0BD141EA00014FF000004FF0004CB6E711F4801F04BF01430020B4F149
:402AC000FD0C88BFBCF5E06F3FF6AFAEB5EB030C04BFB6EB020C5FEA500C50F1000041EB045170BD0EF0004E4EEA113114EB5C04C2BFD4EB0C0541EA045170BD41F4801156
:402B00004FF0000E013C90E645EA060E8DE60CEA135594EA0C0F08BF95EA0C0F3FF43BAF94EA0C0F0AD150EA01347FF434AF95EA0C0F7FF425AF104619462CE795EA0C0FEE
:402B400006D152EA03353FF4FDAE1046194622E750EA410618BF52EA43067FF4C5AE50EA41047FF40DAF52EA43057FF4EBAE12E74FF0FF3C06E000BF4FF0010C02E000BF68
:402B80004FF0010C4DF804CD4FEA410C7FEA6C5C4FEA430C18BF7FEA6C5C1BD001B050EA410C0CBF52EA430C91EA030F02BF90EA020F0020704710F1000F91EA030F58BF8F
:402BC000994208BF90422CBFD8176FEAE37040F0010070474FEA410C7FEA6C5C02D150EA013C07D14FEA430C7FEA6C5CD6D152EA033CD3D05DF8040B704700BF84461046A2
:402C000062468C461946634600E000BF01B5FFF7B7FF002848BF10F1000F01BD4DF808EDFFF7F4FF0CBF012000205DF808FB00BF4DF808EDFFF7EAFF34BF012000205DF82C
:402C400008FB00BF4DF808EDFFF7E0FF94BF012000205DF808FB00BF4DF808EDFFF7CEFF94BF012000205DF808FB00BF4DF808EDFFF7C4FF34BF012000205DF808FB00BFF2
:402C80004FEA410C7FEA6C5C02D150EA013C0AD14FEA430C7FEA6C5C02D152EA033C02D14FF0000070474FF00100704780F0004002E000BF81F0004142001FBF5FEA4103C1
:402CC00092EA030F7FEA226C7FEA236C6AD04FEA1262D2EB1363C1BFD218414048404140B8BF5B42192B88BF704710F0004F40F4000020F07F4018BF404211F0004F41F4C3
:402D0000000121F07F4118BF494292EA030F3FD0A2F1010241FA03FC10EB0C00C3F1200301FA03F100F0004302D5494260EB4000B0F5000F13D3B0F1807F06D340084FEA71
:402D4000310102F10102FE2A51D2B1F1004F40EBC25008BF20F0010040EA03007047490040EB000010F4000FA2F10102EDD1B0FA80FCACF1080CB2EB0C0200FA0CF0AABF3A
:402D800000EBC25052421843BCBFD0401843704792F0000F81F4000106BF80F400000132013BB5E74FEA41037FEA226C18BF7FEA236C21D092EA030F04D092F0000F08BF51
:402DC0000846704790EA010F1CBF0020704712F07F4F04D1400028BF40F00040704712F100723CBF00F50000704700F0004343F0FE4040F4000070477FEA226216BF0846E4
:402E00007FEA23630146420206BF5FEA412390EA010F40F4800070474FF0000304E000BF10F0004348BF40425FEA000C08BF704743F0964301464FF000001CE050EA010262
:402E400008BF70474FF000030AE000BF50EA010208BF704711F0004302D5404261EB41015FEA010C02BF84460146002043F0B64308BFA3F18053A3F50003BCFA8CF2083A50
:402E8000A3EBC25310DB01FA02FC634400FA02FCC2F12002BCF1004F20FA02F243EB020008BF20F00100704702F1200201FA02FCC2F1200250EA4C0021FA02F243EB0200A6
:402EC00008BF20EADC7070474FF0FF0C1CEAD0521EBF1CEAD15392EA0C0F93EA0C0F6FD01A4480EA010C400218BF5FEA41211ED04FF0006343EA501043EA5111A0FB013105
:402F00000CF00040B1F5000F3EBF490041EAD3715B0040EA010062F17F02FD2A1DD8B3F1004F40EBC25008BF20F00100704790F0000F0CF0004C08BF49024CEA502040EAFD
:402F400051207F3AC2BFD2F1FF0340EAC250704740F400004FF00003013A5DDC12F1190FDCBF00F000407047C2F10002410021FA02F1C2F1200200FA02FC5FEA310040F1DB
:402F8000000053EA4C0308BF20EADC70704792F0000F00F0004C02BF400010F4000F013AF9D040EA0C0093F0000F01F0004C02BF490011F4000F013BF9D041EA0C018FE7F6
:402FC0000CEAD15392EA0C0F18BF93EA0C0F0AD030F0004C18BF31F0004CD8D180EA010000F00040704790F0000F17BF90F0004F084691F0000F91F0004F14D092EA0C0FCF
:4030000001D142020FD193EA0C0F03D14B0218BF084608D180EA010000F0004040F0FE4040F40000704740F0FE4040F4400070474FF0FF0C1CEAD0521EBF1CEAD15392EA61
:403040000C0F93EA0C0F69D0A2EB030280EA010C49024FEA402037D04FF0805343EA111143EA10130CF000408B4238BF5B0042F17D024FF4000C8B4224BF5B1A40EA0C0008
:40308000B3EB510F24BFA3EB510340EA5C00B3EB910F24BFA3EB910340EA9C00B3EBD10F24BFA3EBD10340EADC001B0118BF5FEA1C1CE0D1FD2A3FF650AF8B4240EBC2506B
:4030C00008BF20F0010070470CF0004C4CEA50207F32C2BFD2F1FF0340EAC250704740F400004FF00003013A37E792F0000F00F0004C02BF400010F4000F013AF9D040EA8B
:403100000C0093F0000F01F0004C02BF490011F4000F013BF9D041EA0C0195E70CEAD15392EA0C0F08D142027FF47DAF93EA0C0F7FF470AF084676E793EA0C0F04D14B02E1
:403140003FF44CAF08466EE730F0004C18BF31F0004CCAD130F000427FF45CAF31F000437FF43CAF5FE700BF10B5431E0A44914204D011F8014B03F8014FF8E710BD88425B
:4031800010B501EB020301D8421E0BE09842FBD28118D21AD34204D013F8014D01F8014DF8E710BD994204D011F8014B02F8014FF8E710BD02440346934202D003F8011B8D
:4031C000FAE770472DE9F04788B0002B149F1299109EDDF84CA01D4627F02007BBBF03F100431D4600232D231446B8BF1446462F0B7003D0452F03D1013601E0032300E03E
:40320000022307AA049206AA03928DE8480422462B4600F019FD472F804602D1119BDB0728D5462F08EB060911D198F80030302B0AD10022002320462946FFF7EFFC18B988
:40324000C6F10106CAF80060DAF8003099440022002320462946FFF7E1FC08B9302202E0CDF81C9006E0079B994503D9591C07911A70F8E7079B159AC8EB03034046136081
:4032800008B0BDE8F08773B503460029B8BF494203F8022BB4BF2D222B220929427019DD0DF1070216460A2591FBF5F405FB14113031092C02F8011D2146F5DC3031541EA8
:4032C00002F8011CB4421A460AD214F8012B03F8012BF7E730241A46214402F8024B5970101A02B070BD00002DE9F04F91B00C46DDF8688016461F46054601F041FA0368CE
:403300000893184600F0F4FB00230E93D8F800300990073323F0070303F1080294F818A0D4F800B0C8F80020D3E90023C4E91223D4E9128929F000430B93CDF828804FF0A4
:40334000FF32A74BDDE90A01FFF79AFCA0B94FF0FF32A34BDDE90A01FFF774FC60B90022002340464946FFF763FC10B12D2384F843309C4B9C4A0AE042464B464046494632
:40338000FFF77EFC002800F09281984B984ABAF1470F8CBF90469846032323612BF0040323604FF000093DE0BAF1670F00F08A81BAF1470F00F08681236000210DF133020E
:4033C0000193636805900292009342464B460691CDF810A0CDF80CE02846FFF7F3FE0AF0DF03472B804600F08481BAF1650F0D9900F28D810139524604F150000D91FFF70E
:4034000042FF0E9A8318012A8146236100F37C812268D10700F178819DF8333013B12D2384F84330009733460FAA2146284600F09FF9013002D14FF0FF3096E123685A0562
:4034400001D4236965E0BAF1650F40F2D58000220023D4E91201FFF7E1FB78B30123654A31462846B8470130E5D00E9B0D9A9A420BDB2368D80708D423689B0740F1118109
:403480004FF0000804F1190906E1099B089A31462846B8470130CED04FF0000804F11A090E9B013B9845E7DA01234A4631462846B8470130BFD008F10108F1E70D9B002BE7
:4034C00029DC01234B4A31462846B8470130B2D00D9B23B90E9B13B92368D907CCD5099B089A31462846B8470130A4D04FF0000904F11A0A0D9B5B42994509DA0123524680
:4035000031462846B847013095D009F10109F1E70E9B4246A7E00E9AA36D9A42A8BF1A46002A914606DC4FF0000A29EAE97904F11A0B11E01346314642462846B847013080
:40354000F1D178E701235A4631462846B84701303FF471AF0AF1010AA36DC9EB03029245F0DB08EB03090D9A0E9B9A420FDB2368DA070CD40E9B0D9A9844C9EB08089B1A87
:403580009845A8BF9846B8F1000F08DC0FE0099B089A31462846B8470130EBD14BE743464A4631462846B84701303FF444AF4FF0000928EAE87804F11A0A09E00123524649
:4035C00031462846B84701303FF435AF09F101090D9A0E9B9B1AC8EB03039945EEDB4BE7FFFFEF7F627A0810667A08106A7A08106E7A0810727A08100E9A012A01DCDB071A
:4036000038D50123424631462846B84701303FF412AF099B089A31462846B84701303FF40AAF00220023D4E91201FFF7F7FA20B14FF0000804F11A0A0EE00E9B08F10102C1
:40364000013B19E00123524631462846B84701303FF4F1AE08F101080E9B013B9845F1DB4B4604F1500231462846B84701307FF403AFE0E60123424631462846B847013049
:40368000EED1D8E601234A4631462846B84701303FF4D1AE08F10108E3680F9A9B1A9845F0DBE0680F9B9842B8BF18465DE06268531C0EA84BF480630DF1340E7FF474AEFB
:4036C000062201E012B90122626075E6002106910DF133018DE80C00236005904246CDF810A0CDF80CE002914B462846FFF76AFD80460D9BD81C02DB626893421DDDAAF123
:40370000020A5FFA8AFA70E60133236184E6BAF1660F14D10029636807DD216113B92268D2071DD501330B4419E013B92268D00701D5023313E0012311E04FF0670A0D9B94
:403740000E9A934205DB22682361D10708D5013305E0002BD4BFC3F102030123134423610D9BA3654FF0000956E611B0BDE8F08F2DE9F04791461F460A698B68DDF820801D
:403780009342B8BF1346C9F8003091F8432006460C4612B10133C9F800302368990642BFD9F800300233C9F80030256815F0060510D104F1190A07E0012352463946304681
:4037C000C04701301AD00135E368D9F800209B1A9D42F1DB94F843302268003318BF012392060FD5E1185A1C302081F84300224494F8451082F84310023303E04FF0FF308D
:40380000BDE8F08704F1430239463046C0470130F4D02268D9F80050E36802F00602042A08BF5D1B2269A3680CBF25EAE57500259342C4BF9B1AED184FF000091A344D45BB
:4038400009D00123224639463046C0470130D5D009F10109F3E70020BDE8F0872DE9F04317460A7E85B06E2A984606460C460C9B01F1430E00F0AE8011D8632A22D009D82F
:40388000002A00F0BB80582A40F0CA8081F84520834955E0642A1ED0692A1CD0C0E0732A00F0B08009D86F2A2ED0702A40F0B8800A6842F020020A603EE0752A24D0782A83
:4038C0003AD0ADE01A6801F14205111D1960136884F84230A8E021681A6811F0800F02D0111D196008E011F0400F02F10401196002D0B2F9003000E01368002B3CDA2D2289
:403900005B4284F8432037E021681A6811F0800F02D0111D196007E011F0400F02F10401196001D0138800E01368227E5C496F2A14BF0A2208221BE078225A4984F8452051
:403940002268186812F0800F00F104051D6003D1550601D5038800E00368D00744BF42F0200222601BB9226822F0200222601022002084F8430001E049490A226568A56014
:40398000002D08DB206820F0040020602BB9002D7DD175460CE0002B79D07546B3FBF2F002FB1033CB5C05F8013D03460028F5D1082A0BD12368DA0708D5236962689A42B4
:4039C000DEBF302305F8013C05F1FF35C5EB0E0323612EE008681A68496910F0800F03D0101D1860136808E010F0400F02F104001860136801D0198000E01960002323616F
:403A0000754616E01A68111D1960156862680021284600F0C5FE08B1401B6060636804E004F1420584F8422001232361002384F84330CDF800803B4603AA21463046FFF786
:403A400097FE013002D14FF0FF3026E023692A4639463046C0470130F5D023689B0710D5002504F1190907E001234A4639463046C0470130E7D00135E368039A9B1A9D42CC
:403A8000F2DBE068039B9842B8BF184605E00B7884F8423004F142058AE705B0BDE8F083747A0810857A08100EB400B59CB04FF402711DABADF81410029006906FF00041E5
:403AC0000A48049107914FF6FF7153F8042BADF816100068019302A901F09CFA029B00221A701CB05DF804EB03B070470C430208034613F8012B002AFBD1181A013870476B
:403B000010B5034642B111F8014B03F8014B013A002CF7D11A4400E010BD934202D003F8014BFAE710BD2DE9F74F03690C699C42804600F38380013C01F114074FEA840E26
:403B400000F1140657F8245006EB0E030193013556F82430B3FBF5F507EB0E09002D39D04FF0000A3846B446D34650F8042B93B205FB03A34FEA134A9BB2C3EB0B03120C39
:403B8000BCF800B005FB02A213FA8BF34FEA124A1FFA82FBDCF80020CBEB124202EB23429BB243EA024381454FEA224B4CF8043BDBD256F80E306BB9019B043B9E421A46D1
:403BC00002D3C8F8104005E01268043B002AF8D1013CF3E7404601F040F800282CDB013530464FF0000E57F8041BD0F800C08AB2C2EB0E03090C13FA8CF3C1EB1C4202EBD9
:403C000023429BB243EA0243B9454FEA224E40F8043BE8D256F8242006EB840362B9043B9E421A4602D3C8F8104005E01268043B002AF8D1013CF3E7284600E0002003B036
:403C4000BDE8F08F000000002DE9F04F456A97B08246239CCDE9022345B9102000F094FDCAF82400456085600560C560DAF82430196859B15A684A60012393408B60504635
:403C800000F013FEDAF8243000221A60039BA04A002BBFBF01232360039B23F00043B8BF0393DDF80C80A4BF0023236028F000431B0D1B0593421DD1229A42F20F731360B3
:403CC000029B43B9934A944BC8F31300002814BF1846104600E09048249B002B00F04A85C37813B100F1080300E0C31C249A136000F040BDDDE90245002200232046294692
:403D0000FEF78CFF074658B1229A01231360249B002B00F0228581481860013800F02ABD14AB019315AB009322462B46504601F00FF8C8F30A56059056B1C5F3130343F0C3
:403D40007F51204641F44011A6F2FF3611971DE0159B149E1E4406F23243202B0ADD029A06F21240C3F1400322FA00F008FA03F3184304E0C3F12000029B03FA00F0FEF73F
:403D80006FFC0123A1F1F871013E11930022644BFEF728FB58A3D3E90023FEF7D7FC58A3D3E90023FEF720FB044630460D46FEF767FC55A3D3E90023FEF7C8FC02460B468D
:403DC00020462946FEF710FB04460D4601F058FA00228346002320462946FEF729FF58B15846FEF74DFC02460B4620462946FEF715FF08B90BF1FF3BBBF1160F0DD8494973
:403E000001EBCB01DDE90223D1E90001FEF72EFF30B10BF1FF3B002300E00123109300E01090149B9E1B731E089343BFC3F10009002308934FF00009BBF1000F07DB089B08
:403E4000CDF834B05B4408930023099306E0CBF1000309930023CBEB09090D93209B092B27D8052BC4BF043B2093209BA3F10203CCBF00250125032B20D8DFE803F0060E23
:403E80000204012302E0012308E000230C93219B002B1CDD069398461EE000230C93219B5B4403F1010806934346012BB8BF012312E00125002320930C9501E001230C939D
:403EC0004FF0FF33069398460022122303E00123069398461A462192DAF8244000226260042101F114029A421ED86268013262604900F6E7AFF3008061436F63A787D23F1D
:403F0000B3C8608B288AC63FFB799F501344D33F0000F07F967A08109F7A0810737A08100000F83FE07A08106168504600F088FCDAF8243020601B680793B8F10E0F00F2D4
:403F40005D81002D00F05A819DED027BBBF1000F8DED0E7B31DDA04A0BF00F0302EBC30393ED007B4FEA2B14E2068DED0A7B0CD59A4BDDE90E01D3E90823FEF711FD04F01B
:403F80000F04CDE90201032600E00226934D6CB1E30708D5DDE90A01D5E90023FEF7D6FBCDE90A01013664100835F0E7DDE90A23DDE90201FEF7F4FC20E0CBF1000404B330
:403FC000854B864D04F00F0203EBC203D3E90023DDE90E01FEF7BAFBCDE9020124110023022654B1E70705D5D5E90023FEF7AEFB0136012364100835F3E71BB1CDE9020118
:4040000000E00226109BEBB1DDE902450022744B20462946FEF70CFEA0B1B8F1000F11D0069B002B40F3E6800BF1FF330A9300226C4B20462946FEF789FB0136CDE902013E
:40404000069F02E0CDF828B047463046FEF718FBDDE90223FEF77AFB0022634BFEF7C4F90446A1F15075CFB90022604BDDE90201FEF7B8F922462B46CDE90201FEF7F6FD5B
:40408000002840F04182224605F10043DDE90201FEF7CEFD002840F02E82ABE00C9A4E4B791E002A4AD003EBC103D3E9002300204F49FEF775FC22462B46FEF793F9079C62
:4040C00005460E46DDE9020101F0DAF81290FEF7D7FA02460B46DDE90201FEF783F9129B303304F8013B2A463346CDE90201FEF79FFD002840F02183DDE902230020384957
:40410000FEF770F92A463346FEF792FD002840F0D280079BE31ABB426CDA0022314B28463146FEF713FB002205460E462D4BDDE90201FEF70BFBCDE90201C3E703EBC10192
:4041400022462B46D1E90001FEF700FB079BCDE91201DC191D46DDE9020101F091F80646FEF78EFA303602460B46DDE90201FEF739F905F8016BAC42CDE902014FF00002AC
:4041800023D11B4BDDE91201FEF72EF902460B46DDE90201FEF76AFD002840F08C80DDE9122300201249FEF71DF902460B46DDE90201FEF73DFDE8B114F8013C302B04F14A
:4041C000FF3240F0BA821446F6E7064BFEF7BEFACDE90201BFE700BFE07A0810B87A08100000F03F0000244000001C40000014400000E03FDDE90E34CDE90234159B002BE2
:404200007CDBBBF10E0F79DC8F4B03EBCB03D3E90067219B002B14DAB8F1000F11DC40F06C810022894B30463946FEF78FFADDE90223FEF711FD45464646002840F05F8113
:4042400066E1079C32463B46DDE90201FEF7A8FB01F016F80546FEF713FA32463B46FEF775FA0B460246DDE90201FEF7BBF805F1300E04F801EB079BC3EB040EF045CDE9DE
:4042800002012ED102460B46FEF7AEF88046894602460B4630463946FEF7CAFC78B942464B4630463946FEF7B9FC002800F04782E90704D443E2DDF828B000E01C4614F838
:4042C000012C392A04F1FF3307D1079A9A42F5D1079930220BF1010B0A701A7801321A702DE200225A4BFEF731FA00220023CDE90201FEF793FC0028A4D020E20C9A002A43
:404300002DD0209A012A0ADC119A12B103F2334302E0149BC3F13603099D4C4615E0099B08F1FF35AB42BFBF099B0995EA1A0D9BB7BF9B185D1B0D930025B8F1000FB9BF71
:40434000C8EB090400234C464346089A01211A4450469944089200F047FB064602E0099D0C9E4C465CB1089B002B08DDA342089AA8BF2346C3EB0909E41AD31A0893099BCD
:40438000002B1DDD0C9BABB185B131462A46504600F0C4FB059A01460646504600F02DFB05990746504600F080FA0597099B5A1B06D000E0099A0599504600F0AFFB059037
:4043C0000121504600F010FB0D9B05465BB31A460146504600F0A2FB209B012B054618DC029B83B9039BC3F3130373B9039B23F000473F0D3F054FB1089B013309F1010947
:404400000893012702E0002700E0029F0D9B73B100E000272B6905EB8303186900F097FAC0F1200004E0209B012BD9DD0D9F0120089B184410F01F000ED0C0F12003042B32
:4044400008DDC0F11C0008E0E07A0810000014400000244006D018461C30089B0344814404440893B9F1000F05DD4A460599504600F0A2FB0590089B002B05DD29461A4666
:40448000504600F099FB0546109BEBB12946059800F0E3FB002817DA00230A220599504600F01AFA0C9B05900BF1FF3B002B00F05881002331460A22504600F00DFA069B7C
:4044C000002B064637DC33E0B8F1000F2ADC209B022B27DDCDF81880069B83B929460522504600F0F9F901460546059800F0B5FB00280DDC03E03D4600E000252E46219BB2
:40450000079C6FEA030B0AE0DDF828B03D463E46079B079A5C1C312313700BF1010BB0460026F7E00C9BCDF8188023B9079CB1E0209B022BD0DC002C05DD3146224650461B
:4045400000F03AFB06469FB17168504600F078F9326902320446920006F10C010C30FEF703FE01222146504600F026FB804600E0B046029BDDF81C9003F0010308932946DD
:404580000598FFF7D0FA3146044600F13007059800F063FB424602902946504600F079FBC36802463BB901460990059800F055FB099A034600E0012311465046099300F0BA
:4045C00074F9099B4BB9209A3AB9089A2AB9392F28D0029B002B1ADC1BE0029A002A04DB1AD1209AC2B9089AB2B9002B11DD01220599504600F0E0FA2946059000F02DFB33
:40460000002802DC05D1FA0703D5392F0AD004F1310709F101040CE0002B09F101040BDD392F05D1392389F8003009F1010954E0013789F800706DE0079B069A04F8017CA5
:40464000E31A9342A1463AD000230A220599504600F042F9464505904FF000034FF00A023146504604D100F037F90646804686E700F032F94146064600230A22504600F0D8
:404680002BF980467BE700230A220599504600F023F9059029460598FFF745FA00F1300704F8017B079B069AE31A9342EBDB079B012AACBF9B180133B04699460026012292
:4046C0000599504600F078FA2946059000F0C5FA002802DC15D1FB0713D54C4614F8013C392B04F1FF3209D1079B934204D10BF1010B3123079A02E01446EFE7013313704A
:4047000008E04C4614F8013C302B04F1FF3201D11446F7E72946504600F0C7F8B8F1000F0DD02EB1464503D03146504600F0BDF84146504600F0B9F801E0DDF828B0059909
:40474000504600F0B2F80023229A23700BF101031360249B1BB11C6001E008480AE0079808E0069B002B3FF7E1AE209B022B7FF7DDAEB1E617B0BDE8F08F00BF727A0810BC
:404780000048704710430208024B0146186800F089BB00BF0C430208000000000000000001F0FF01102A2BDB10F0070F08D010F8013B013A8B422DD010F0070F42B3F6D103
:4047C000F0B441EA012141EA014122F007047FF000070023F0E80256083C85EA010586EA010685FA47F5A3FA87F586FA47F6A5FA87F68EB9EED1F0BC01F0FF0102F00702FA
:4048000032B110F8013B013A83EA010313B1F8D10020704701387047002D06BF35460338073815F0010F07D1013015F4807F02BF013015F4C03F0130F0BC0138704700BFBE
:4048400070B5456A04460E463DB91020FFF79CFF6062456085600560C560656AEB6843B1636ADB6853F8260078B1026843F8262017E021220421204600F0B8FA636AE86012
:40488000DB68002BECD1002070BD012101FA06F56A1D9200204600F0A9FA0028F3D04660856000230361C36070BD70B5446A06460D463CB91020FFF767FF706244608460BC
:4048C0000460C4603DB1736A6A68DB6853F82210296043F8225070BD2DE9F0410D691F4606460C4601F1140E0023DEF8000081B202FB01710F0C000C02FB007089B20133FE
:4049000001EB00419D424FEA10474EF8041BECDCD7B1A3689D4212DB616830460131FFF78FFF2269023204F10C01804692000C30FEF71AFC21463046FFF7B7FF444604EBF8
:40494000850301355F6125612046BDE8F081030C1B0413B90004102300E0002310F07F4F04BF0002083310F0704F04BF0001043310F0404F04BF80000233002803DB4200AC
:4049800003D5581C70471846704720207047036813F007020BD0D90722D49A074BBF5B089B08036003604CBF01200220704799B209B91B0C102213F0FF0F04BF1B0A0832AB
:4049C000190704BF1B090432990704BF9B080232D90702D45B0805D00132036010467047002070472020704710B50C460121FFF727FF01224461026110BD2DE9F74F1446DE
:404A00000A6923699A42B8BF0B468846BCBFA0461C46D8F81070D4F81090D8F80830D8F8041007EB09069E42C8BF0131FFF708FF00F1140505EB860C2B460022634502D268
:404A400043F8042BFAE704F1140208F1140102EB890301EB87070093009B0192934257D9B2F800B0BBF1000F23D08946AE464FF0000859F8044BBEF800A0A3B20BFB03A310
:404A80004FEA144ADEF8004043444FEA14480BFB0A8404EB1344F2469BB243EA04434F454FEA14484AF8043B01D9D646E1E7CEF80480019BB3F802A00432BAF1000F21D0DE
:404AC0002B682C4689464FF00008B9F800E0B4F802B00AFB0EBEF044A3469BB243EA08434BF8043B59F8043BB4F804E01B0C0AFB03E303EB18434F454FEA134801D95C4658
:404B0000E3E763600435A7E75CF8043D13B9013E002EF9DC066103B0BDE8F08F2DE9F843154612F0030206460F4607D0013A214C002354F82220FFF7CFFE0746AD1036D0E9
:404B4000746A3CB91020FFF71FFE7062446084600460C460D6F82480D8F808404CB940F271213046FFF740FF0023C8F80800044603604FF00008EB070AD539462246304632
:404B8000FFF73BFF394681463046FFF78EFE4F466D100CD0206808B10446ECE7224621463046FFF72AFF2060C0F80080F4E73846BDE8F883AC7A08102DE9F0470C464FEA90
:404BC000621A26694968A368564407469146751CAB4202DA01315B00FAE73846FFF730FE0023804600F114011A46534503DA41F823200133F9E72AEAEA73206901EB830306
:404C000019F01F0904F1140101EB800E14D0C9F1200C0022086800FA09F002439A4643F8042B51F8042B8E4522FA0CF2F2D8CAF8042042B1B51C06E0043B51F8042B43F830
:404C4000042F8E45F9D8013D3846C8F810502146FFF72BFE4046BDE8F08703690A699B1A10B511D192001430143183180A4453F8044D52F8041D8C4202D007D3012010BDAB
:404C80009842F4D3002010BD184610BD4FF0FF3010BD2DE9F8430C460746114620461546FFF7DBFF061E08D131463846FFF7C8FD012303614661BDE8F883BCBF23462C46D6
:404CC00038466168BABF1D4601260026FFF7B8FD2B69C660266905F11409143404EB860709EB830800F114054FF0000C54F8043B59F8042B1CFA83F11FFA82FE120CCEEBA0
:404D00000101C2EB134303EB214389B24FEA234CC84541EA0343A64645F8043BE6D8BE450ED25EF8041B1CFA81F2131403EB114392B242EA03424FEA234C45F8042BEEE7AD
:404D400055F8043D0BB9013EFAE70661BDE8F8832DE9F34101211C46089E099D9046FFF76FFDC4F31303C4F30A5407460CB143F480130193B8F1000F19D002A840F8088D86
:404D8000FFF705FE009B48B1019AC0F1200102FA01F10B43C2407B61019200E07B61019BBB61002B14BF02210121396107E001A8FFF7EDFD019B7B6101213961203034B122
:404DC000A4F2334404443460C0F1350009E007EB8103A0F2324030601869FFF7B8FDC0EB41102860384602B0BDE8F08138B502FB01F4214600F056F8054618B122460021DA
:404E0000FEF7D8F9284638BD38B50546002946D051F8043C0C1F002BB8BFE41800F0FEF91F4A1368114613B96360146032E0A3420ED92268A018834204BF18685B686360AD
:404E400004BF121822600C6024E0A24203D813465A68002AF9D118681918A1420BD12168014458188242196014D1106852685A60014419600EE002D90C232B600AE0216815
:404E80006018824204BF10685268626004BF091821605C602846BDE8384000F0C0B938BDD44C020870B5CD1C25F0030508350C2D38BF0C25002D064601DBA94202D90C23B8
:404EC000336046E000F0AAF9234B1C681A462146A1B10B685B1B0ED40B2B03D90B60CC18CD501EE08C420DBF63684B686360136018BF0C4615E00C464968E9E7174C2368E7
:404F00001BB9304600F07AF920602946304600F075F9431C18D0C41C24F00304A0420DD12560304600F07BF904F10B00231D20F00700C31A0ED05A42E25070BD211A3046E2
:404F400000F05CF90130EBD10C233360304600F066F9002070BD00BFD44C0208D04C02082DE9F0478E689E4282460C46914698463ED88A8912F4906F3AD0256809696F1A6A
:404F80006569022305EB450595FBF3F57B1C43449D4238BF1D4653050FD52946FFF782FF064698B13A462169FEF7DEF8A38923F4906343F08003A38113E02A4600F030F9DD
:404FC000064670B921695046FFF71EFF0C23CAF80030A38943F04003A3814FF0FF30BDE8F087266165613E44ED1B2660A5604646464528BF4646324649462068FEF7BFF871
:40500000A3689B1BA36023681E4426600020BDE8F08700002DE9F04F9DB0804603938B891C060D4616460DD50B695BB94021FFF739FF2860286118B90C23C8F80030CDE073
:4050400040236B610023099320238DF82930DFF89CB130238DF82A3037463C4614F8013B1BB9B7EB060910D003E0252BF9D02746F3E74B46324629464046FFF771FF013047
:4050800000F0A780099B4B4409933B78002B00F0A08000234FF0FF3204930793059206938DF853301A930126052221784E48FFF777FB671C049B38B14B4A801A06FA00F064
:4050C000184304903C46EFE7D90644BF20228DF853201A0744BF2B228DF8532022782A2A03D0079A00210A200BE0039A111D12680391002A10DA524243F002000792049069
:405100000BE0274601343B78303B092B03D800FB02320121F5E701B107923B782E2B1ED17B782A2B0AD1039B1A1D1B680392002BB8BF4FF0FF330237059310E000230593A3
:40514000781C19460A24074601303A78303A092A03D804FB01210123F5E703B10591032239782248FFF71CFB40B14023CBEB000003FA00F0049B18430490013739781C48DC
:405180008DF8281006227E1CFFF70AFB88B1194B33B9039B073323F007030833039314E003AB00932A46144B04A94046FEF79CF807E003AB00932A460F4B04A94046FEF74C
:4051C0004DFBB0F1FF3F824603D0099B5344099342E7AB895B0601D4099801E04FF0FF301DB0BDE8F08F00BFA87B0810AE7B0810B27B0810E9320810614F081038B5064CE8
:40520000002305460846236000F062F8431C02D1236803B12B6038BD184D020870477047F8B5074615460E4621B91146BDE8F840FFF738BE1AB9FFF7E7FD2846F8BD00F0B4
:4052400015F885420ED929463846FFF72BFE044650B131462A46FDF787FF31463846FFF7D3FD01E03046F8BD2046F8BD51F8040C0028BEBF091851F8043CC0180438704766
:405280004FEA410212F5001215D211D56FF47873B3EB625212D94FEAC12343F0004343EA505311F0004F23FA02F018BF404270474FF00000704750EA013005D111F00040B7
:4052C00008BF6FF0004070474FF00000704700BF044A05491368002B08BF0B461844106018467047D84C0208204D0208F8B500BFF8BC08BC9E467047F8B500BFF8BC08BC99
:405300009E46704780FCAC4700F8AC470003AD4700FDAC4780FCAC470003AD4700FAAC478001AD4780EAAC4700EEAC4700EFAC4700DBAC4700E0AC4780CFAC4780C5AC478E
:4053400000D3AC4700C5AC4700C4AC4700BAAC4700C0AC4780BFAC4700B3AC4700BDAC4700B9AC4700BEAC4780CFAC4780C5AC4780CCAC4780CAAC4700CEAC4700DFAC472A
:4053800000D5AC4700E8AC4700E4AC4700EEAC4700FEAC4700F1AC470004AD478001AD478008AD470018AD470013AD470016AD478014AD478025AD478034AD47802EAD474C
:4053C0000033AD47803CAD478040AD47004FAD478041AD470050AD47804CAD470059AD47805AAD47005BAD478064AD478058AD478063AD470071AD478068AD470070AD479C
:405400000071AD470078AD47007DAD478076AD478085AD47807FAD47808FAD47808AAD470091AD47809FAD470094AD47009AAD4780A6AD4780AFAD4780B1AD4700B2AD479D
:4054400080B8AD4700BFAD4700BEAD4700CCAD4700C8AD4700CCAD4700D8AD4780D2AD4700CEAD4700C8AD4780B9AD470099AD478079AD470055AD478015AD4700E9AC477A
:4054800080BAAC470083AC47806CAC470044AC478029AC47800EAC47000BAC478009AC4700EFAB4780F1AB4780EBAB4700F2AB4780FCAB4780F4AB4780FDAB4780FCAB4766
:4054C0008009AC470018AC47801CAC47801BAC47002BAC470034AC47803CAC470041AC47004CAC470049AC47005DAC470062AC470066AC470068AC47006CAC478071AC47C9
:40550000007CAC47007AAC470083AC470083AC47808EAC4780A7AC47009BAC4700AAAC4700A7AC4780AAAC4700C2AC4780C1AC4700C9AC4780C4AC4780C6AC4700CFAC47CF
:4055400000C1AC4780CFAC4700C7AC4780C5AC4700C6AC4700B3AC4780B5AC4780ACAC4700A6AC4700A1AC47009FAC478095AC470094AC47008CAC47808BAC47807FAC47E0
:40558000007FAC470077AC47007FAC470089AC478071AC478071AC478070AC47006FAC470074AC470074AC470083AC470090AC47009FAC4700B3AC4700A9AC4780C8AC473E
:4055C00000D8AC4780F8AC47001BAD470027AD478046AD47804FAD47006BAD47808DAD478085AD47809EAD4780B7AD4700B4AD4780D0AD4780D1AD4700E1AD4780E7AD47D7
:4056000000F2AD470002AE4700FDAD47000DAE470015AE47001DAE470023AE478024AE470036AE470035AE478039AE47004DAE478086AE47807BAE470088AE478086AE4725
:405640008083AE470096AE470094AE47009CAE4780A0AE4700A8AE4700B1AE4700AAAE4700BBAE4700B9AE4700BFAE4780D4AE4700CBAE4700D3AE4700D2AE4780D6AE47A1
:4056800000E2AE4780D1AE4780D2AE4700B8AE478099AE47007DAE47003FAE478002AE4780B6AD470075AD470035AD4780FAAC4780CEAC4700A7AC478098AC470081AC472B
:4056C0008070AC47806EAC470068AC478060AC47006BAC478067AC47006BAC470069AC47807CAC478081AC478086AC47808FAC470093AC478099AC4780ACAC4700AFAC4795
:4057000000C4AC4780C0AC4780D0AC4700D4AC4780E4AC4780E6AC4700E7AC4700F4AC4700F7AC4700F7AC470007AD47000CAD470020AD470025AD47802CAD478042AD47B2
:40574000004DAD470058AD470064AD478072AD478087AD470086AD470090AD478093AD478098AD4700A8AD47009AAD4700A5AD47009CAD4700A4AD4700A4AD470097AD4744
:40578000809BAD47808AAD47808AAD47008FAD47007EAD470078AD47006FAD47806FAD470075AD478068AD470065AD478061AD478067AD47006FAD470066AD47006DAD47CB
:4057C000006BAD470075AD470076AD47807AAD470090AD470089AD47808DAD4700A1AD47809EAD4780A9AD4780A9AD4700BAAD4700CAAD4700C9AD4700DEAD4780D8AD475F
:4058000000EBAD4780F6AD4780FBAD478007AE470009AE478011AE47801CAE470015AE478025AE47002CAE470035AE470041AE47803CAE47804CAE47004FAE47004EAE4701
:405840000063AE47805EAE47806BAE470064AE478072AE478082AE478081AE470084AE47807CAE47008FAE478090AE470091AE47008DAE47808EAE470095AE4780A4AE474F
:4058800080A2AE47809BAE47009FAE4780A6AE4780ABAE4780A5AE4700AFAE4780ACAE4780A6AE4700BCAE4780BCAE4700C5AE4700B8AE4780C4AE4780C9AE4700C9AE477A
:4058C00000CCAE4700C5AE4700D2AE4700DBAE4780D8AE4780E1AE4700DAAE4780E3AE4780EDAE4780ECAE4700EEAE4780EAAE4700F1AE4700F5AE4700F1AE4780F2AE47AA
:4059000000E4AE4780E2AE4780CFAE4780ABAE47007DAE470044AE478007AE4780BEAD47806BAD470023AD4780E1AC4780B8AC470090AC470069AC47005CAC47804EAC4716
:405940008044AC478049AC478043AC47804EAC478050AC470061AC470066AC47006CAC47007AAC47007EAC478093AC478097AC4700ADAC4780ADAC4700BEAC4780CFAC47CD
:4059800080DDAC4700E3AC4700F6AC4780FDAC470009AD47000BAD470017AD470025AD478024AD470032AD47803FAD470050AD47005EAD47006CAD470076AD47807FAD4784
:4059C000008CAD47009EAD4780A2AD4780B4AD4700B6AD4700BEAD4700C7AD4780C4AD4780C6AD4700BDAD4780CAAD4780C1AD4700B7AD4700BDAD4780AFAD4780A7AD4710
:405A000000AEAD4780A2AD47009FAD470088AD47008EAD470088AD47807BAD478082AD470078AD47007CAD47807DAD478070AD47007DAD470073AD478080AD47808AAD4741
:405A4000007FAD47008EAD470093AD47809AAD4700A5AD47809FAD4700ACAD4700B8AD4780BBAD4780CFAD4700CDAD4780D7AD4700DCAD4780DDAD4780EAAD4780F1AD4742
:405A800080F2AD4700F6AD478001AE47801AAE478015AE470013AE47801DAE470025AE47002EAE47802CAE470034AE470031AE47003CAE478045AE47004CAE478057AE4748
:405AC000004EAE470056AE478064AE470064AE470070AE478069AE47806DAE47007AAE470075AE478078AE470078AE47007EAE47808CAE47007CAE47808AAE478083AE47B2
:405B0000808EAE470092AE470094AE478092AE470097AE47009DAE4700A7AE47009AAE4780A0AE4780A1AE4700A7AE4700B1AE4700B6AE4700B4AE4780AFAE4700B5AE4773
:405B400080C2AE4700BDAE4700CAAE4780C7AE4780CAAE4780D8AE4780D6AE4780DDAE4780D3AE4700DBAE4700ECAE4780E5AE4780EAAE4700EBAE4700F1AE4780FDAE472E
:405B800000F6AE4700F7AE4780F2AE4700F4AE4780EBAE4700C7AE4780BAAE470086AE478058AE47001FAE4780CDAD47008CAD478037AD4700FBAC4700D1AC47008EAC4778
:405BC0000076AC478056AC47804DAC47004FAC478042AC47804AAC478041AC47804CAC47804FAC478059AC478065AC478069AC47007BAC470089AC47008EAC4700A0AC474C
:405C000080A2AC4780AAAC4700BBAC4700C4AC4700CFAC4700D1AC4780DFAC4780EBAC4700EDAC4700FEAC4780FDAC470008AD478014AD470019AD47002AAD470030AD4783
:405C40000038AD478044AD478051AD470066AD478063AD47807BAD47007DAD470089AD470094AD478091AD478097AD470097AD470098AD4700A2AD47008FAD470091AD4720
:405C8000808CAD470085AD47008CAD470078AD478075AD478069AD470066AD478067AD478057AD478056AD478045AD47804CAD47804FAD47003CAD478045AD47804AAD470C
:405CC0000057AD47005EAD478056AD478065AD478068AD470074AD47807BAD470087AD47008FAD478096AD4700A6AD4700B7AD4780B9AD4780C0AD4700C7AD4780D1AD4783
:405D000000D7AD4780DEAD4700ECAD4700EFAD478002AE470015AE47000DAE470017AE470026AE478020AE470038AE478036AE47803BAE47003FAE478043AE470053AE4788
:405D40008051AE470056AE470059AE47005DAE47806FAE470068AE478073AE47806CAE478072AE47007DAE47807CAE47807CAE47807CAE478080AE47808AAE478084AE474F
:405D8000808FAE478095AE478094AE47809CAE47008FAE478099AE478097AE478099AE4780A7AE47009DAE4700A5AE4780A1AE47009FAE4780B0AE4700A9AE4780AFAE4736
:405DC00080A4AE4700AFAE4700B4AE4700AEAE4780ADAE4780A9AE4780ABAE4780C2AE4780B0AE4780B8AE4700ABAE4700AEAE4780B6AE4700A7AE4700B0AE4780A5AE47E8
:405E000000AFAE4700BAAE4700AAAE4700B7AE4700ACAE4780B0AE4780BFAE4700BBAE4700BCAE4780B6AE4700B6AE4780B0AE478087AE47806CAE470039AE470001AE476D
:405E400000C5AD47806AAD478030AD4780E2AC4780B1AC478089AC470062AC478049AC478038AC47802DAC478030AC47801FAC478029AC47002BAC47002FAC47803BAC4757
:405E8000803AAC470041AC470049AC47005AAC470065AC470068AC470075AC47807EAC47008CAC4700A3AC4780A2AC4700ACAC4780B2AC4700B7AC4780C2AC4780C5AC4767
:405EC00080D7AC4700D5AC4700E4AC4700EFAC4780F7AC478002AD478004AD478014AD47001EAD47802BAD470040AD47003DAD478047AD470054AD478051AD470060AD47C5
:405F00008055AD47006CAD478062AD47005DAD478066AD478059AD470055AD47804BAD47004BAD47804AAD47003CAD47802FAD470027AD47801DAD47001DAD47800EAD4753
:405F40008010AD470009AD47000AAD47800FAD470001AD470008AD47800AAD47000BAD47800FAD47800EAD47001DAD470012AD47001CAD470022AD478027AD470033AD47AD
:405F80000033AD478039AD478053AD47805BAD47005BAD470061AD47006AAD47807EAD478074AD470086AD470089AD47808FAD4780A1AD4780A1AD4780AFAD4700B4AD47AC
:405FC00080B7AD4780CDAD4780C7AD4700D4AD4780D5AD4700E0AD4700EDAD4780E2AD4700FBAD4780F6AD4700FCAD470005AE47000EAE478018AE470017AE47001BAE47EF
:40600000802BAE470023AE47802CAE470028AE470031AE478038AE478038AE478046AE47003FAE470040AE47804DAE47004FAE470048AE47004EAE470057AE47005CAE4723
:406040000057AE478067AE470064AE470065AE470072AE47805EAE470079AE478071AE470075AE47808DAE478089AE470094AE470093AE47009BAE4780B0AE4700A7AE47EB
:4060800080AFAE4700B2AE4780BBAE4780D0AE4780C9AE4780CDAE4700DAAE4780D3AE4780E4AE4780DCAE4780EDAE4700ECAE4780F7AE4780FDAE4780F3AE4780F5AE476C
:4060C00000E3AE4780D3AE4780BCAE47808AAE470052AE478017AE4780CEAD47808BAD470041AD470010AD4700DCAC4780C2AC4780ADAC478092AC47808CAC478087AC47E1
:406100008089AC47008DAC47808EAC470093AC47009AAC47809FAC4780BEAC4780B8AC4700C9AC4780CCAC4780E9AC478003AD470000AD470021AD47001EAD478032AD47D2
:406140000044AD47804CAD47805FAD47006BAD47807CAD47008AAD478087AD47009BAD4700ABAD4700B2AD4780CDAD4700D7AD4700E0AD4780F0AD4780FCAD4780FDAD4793
:406180000000AE470012AE478013AE47801BAE478027AE47001CAE47001FAE478010AE470015AE478019AE470001AE478003AE4700F6AD4780F5AD4700F1AD4780E1AD47F2
:4061C00080D6AD4780CFAD4780CBAD4700C7AD4780B6AD4780BDAD4780B1AD4780ACAD4700B8AD4780B1AD4700BEAD4700B6AD4700B9AD4700BFAD4700C7AD4780C9AD47F3
:4062000000CFAD4780DAAD4700E2AD4700E2AD4700F3AD4700EEAD4780F9AD478004AE47000AAE478018AE478018AE478026AE47802CAE47802FAE470048AE478044AE4703
:406240000044AE470050AE478055AE478064AE47805EAE470071AE47006FAE47806EAE47007DAE470077AE47807AAE47007CAE470084AE478095AE470091AE47009CAE47A5
:406280008093AE47009EAE4780A5AE47809CAE4700ACAE4780A8AE4780A5AE4700B1AE4700A9AE47806AAD470076AD478096AD470091AD470080AD47004FAD470062AD4718
:4062C000008DAD47006FAD470063AD47001AAD470052AD478047AD470043AD470040AD470035AD478039AD47003BAD478033AD47003DAD478038AD47803BAD470042AD477B
:40630000003AAD47004BAD47004CAD470052AD470053AD47805FAD47006DAD478074AD470076AD47807BAD47008BAD478099AD470092AD4780A1AD4700AEAD4700BEAD4733
:4063400080C2AD4780BFAD4700CEAD4780D2AD4700D3AD4780E9AD4700E5AD4700F4AD4700F7AD4780FCAD478003AE4700F7AD47000AAE470013AE478011AE47801BAE47EC
:406380000017AE47801DAE47001FAE470027AE470032AE470029AE47802FAE47002CAE478036AE47803AAE470039AE470042AE478042AE470044AE47004CAE47804AAE4756
:4063C0000053AE478052AE478058AE47805BAE47005FAE47006FAE47805FAE470063AE478074AE478075AE47807FAE478078AE47007EAE470088AE47807FAE478086AE477A
:406400008082AE478083AE470077AE470055AE470031AE47000BAE4780C8AD47008DAD47003AAD470005AD4780CAAC4780A3AC470087AC47005EAC470054AC478045AC4790
:406440008033AC47803DAC47002EAC478038AC470034AC478040AC47004CAC47003CAC478051AC478059AC470066AC470079AC470079AC47808FAC47808FAC47009AAC4760
:4064800080AEAC4700B0AC4780B7AC4700B4AC4780C8AC4780CFAC4780CDAC4700D3AC4780CAAC4700D2AC4780E2AC4780D6AC4700F3AC4780E7AC4780E6AC4780FCAC471C
:4064C0008003AD478004AD478013AD470020AD47802EAD47002DAD470034AD470039AD470037AD47003BAD470038AD478034AD47002BAD478032AD478031AD478014AD47DA
:40650000001EAD470010AD47000CAD478020AD478006AD478009AD4700FDAC47800CAD470017AD47000BAD470014AD47800FAD478016AD478023AD478020AD478025AD4767
:406540000024AD47002BAD478035AD47003DAD470048AD478045AD470058AD47006DAD47006AAD478075AD470075AD470089AD47009FAD478093AD4700ABAD4780A4AD47EA
:4065800080ADAD4700C2AD4780C9AD4780D2AD4780D9AD4700E9AD4780FAAD4780F0AD4700FAAD4780FEAD470007AE478017AE470010AE470018AE478018AE470013AE47F6
:4065C000802AAE470026AE470022AE47001EAE47002AAE470023AE47802CAE47002DAE470027AE47802AAE478030AE47802EAE478038AE470035AE470040AE478042AE47F7
:406600000041AE470050AE478049AE470054AE47005FAE478055AE470066AE47005BAE470068AE470071AE47806EAE478078AE478072AE47007EAE47807CAE47008BAE47B1
:406640000092AE478092AE478097AE470097AE470093AE470097AE478079AE47005FAE47003BAE478012AE4700CFAD478083AD478044AD470006AD4700CAAC4700A9AC4722
:406680000082AC47806FAC470055AC478049AC470045AC47803CAC47003FAC478041AC47004BAC478053AC470051AC47005EAC47006FAC478072AC47808CAC47008AAC4756
:4066C000809AAC4780A1AC4700A6AC4700B7AC4780B8AC4700C1AC4700D2AC4780D3AC4700DFAC4700DDAC4780F1AC4780EDAC4780F7AC478001AD470003AD47000CAD4710
:406700008014AD470027AD478034AD478033AD478041AD47804CAD478050AD47805FAD478064AD478067AD478064AD478065AD47806DAD47005BAD47005DAD47804FAD47B3
:40674000804EAD478055AD470044AD470046AD478039AD470032AD470034AD47801DAD47801FAD47801BAD478019AD47001BAD478018AD47001BAD478018AD478018AD471F
:406780000027AD47801DAD470028AD478029AD47802DAD470039AD470033AD478045AD478048AD47804EAD470061AD478061AD47806CAD470073AD478079AD478088AD47EE
:4067C0008087AD478098AD47009EAD4780A9AD4700BAAD4780B3AD4700C1AD4700C1AD4700C9AD4780DEAD4700DAAD4780E0AD4700E0AD4700F5AD4700FBAD4780F0AD4763
:406800008002AE470002AE478009AE478013AE470007AE47001BAE47800FAE47801AAE470025AE470022AE478024AE470020AE470025AE470033AE47002AAE478034AE47DC
:406840000031AE47003BAE47004CAE478038AE47003FAE470045AE470052AE478051AE478053AE478056AE470055AE47805FAE478072AE478062AE47006FAE470071AE4720
:40688000007BAE478089AE478083AE47808EAE47808EAE470090AE4780A5AE478099AE4700A7AE47009DAE47009AAE47009BAE47007CAE47805EAE470031AE4780F9AD479B
:4068C00000BCAD470070AD470027AD4780EAAC4700BFAC47809BAC470071AC470055AC470046AC47803FAC470041AC470033AC47003AAC478035AC47803EAC470048AC479A
:40690000804EAC478057AC470057AC47806BAC478075AC478072AC470085AC478089AC47809DAC4780A1AC4700AAAC4780B7AC4700BEAC4780CFAC4780D7AC4700CFAC4779
:4069400000E2AC4780E5AC4780F3AC4700F9AC4700FDAC47800BAD478007AD47801BAD47802CAD47002EAD47803CAD478038AD478043AD470047AD470049AD470055AD4789
:406980000052AD470058AD47005CAD470054AD478051AD47803FAD478040AD47803BAD478030AD47002AAD470021AD478018AD470019AD47800DAD470012AD47000CAD47DB
:4069C000000BAD47000EAD470002AD478011AD47000CAD478015AD47801DAD478022AD478025AD470028AD47803BAD478040AD478045AD470058AD478053AD470066AD472D
:406A00000067AD47007DAD47807EAD478082AD47008EAD478095AD47009CAD4700A7AD4700A7AD4700B8AD4780B7AD4780BDAD4780CBAD4780D0AD4700DAAD4700E3AD4721
:406A400000EEAD4700F1AD4700F7AD470001AE478000AE470007AE478015AE47000DAE470025AE478018AE478025AE47802DAE470021AE470032AE47802AAE478031AE470C
:406A80000043AE478032AE470043AE470045AE470041AE478052AE470045AE47804EAE47004EAE478053AE47805CAE470048AE478060AE47005CAE470064AE478073AE470B
:406AC0008062AE470068AE478068AE478073AE47807AAE47807BAE470083AE470080AE478087AE478092AE47008DAE470096AE478095AE4780A0AE4780B0AE4780B1AE4757
:406B000080B6AE4700B1AE4780B5AE4700C4AE4700BBAE4700B5AE4700AAAE47809CAE470090AE478059AE47803BAE4700EBAD4700ACAD470064AD47001BAD4780E1AC475A
:406B400080B1AC470094AC470081AC47805DAC478058AC47004EAC470045AC47804EAC470043AC478050AC47804FAC470061AC47006DAC470076AC478085AC47807FAC475F
:406B80000090AC4700A6AC4780A4AC4780B2AC4780B6AC4700C4AC4780D0AC4780D6AC4780E4AC4780E3AC4700EAAC4780FFAC470002AD4780FBAC478006AD478013AD47B0
:406BC0000023AD47001FAD47002BAD478038AD47803BAD470051AD47804DAD470064AD470064AD470069AD470083AD470075AD478071AD47006FAD478070AD47007DAD4761
:406C0000806DAD470067AD47005BAD47805AAD47005AAD47004EAD47004AAD470038AD470038AD47003BAD478030AD478034AD478029AD47802BAD478039AD47002BAD4752
:406C4000802EAD47002CAD47002DAD478044AD478047AD47004CAD47004BAD47005FAD47006AAD47005BAD47006AAD470070AD47807BAD478095AD478090AD4700A1AD47EC
:406C800000A1AD4700B7AD4780C0AD4700C7AD4700CEAD4780CEAD4700DEAD4700EDAD4780E7AD4700EFAD4780EEAD4700F9AD478010AE478002AE470011AE470018AE4752
:406CC0008016AE47802BAE470021AE47802DAE470030AE478038AE47804BAE470042AE47804CAE47004DAE470051AE47005BAE47805BAE47005AAE47005CAE470068AE4782
:406D0000806FAE470062AE478071AE47006DAE470074AE47007DAE470075AE478076AE470077AE47807DAE478088AE47007DAE470084AE478087AE47008DAE47809AAE47CD
:406D40000091AE478098AE47009BAE4700A1AE4780A6AE4700A6AE4700AFAE4780A9AE4700B0AE4780BAAE4700B9AE4700C1AE4700C5AE4780CDAE4700CFAE4700D6AE471F
:406D800080DEAE4780DBAE4780E8AE4700E6AE4700F1AE4780EEAE4780E2AE4780EAAE4780DFAE4700BAAE47809FAE470067AE478032AE4700EDAD47009BAD47805EAD479D
:406DC0008009AD4700E1AC4780ADAC470091AC470080AC47006DAC47806AAC470061AC470068AC470065AC47806BAC47806FAC478075AC47807FAC470098AC478097AC47B8
:406E000000AEAC4780B3AC4780BFAC4700D8AC4780C8AC4780EAAC4780E4AC4700F5AC478009AD47000AAD47001AAD47801CAD478026AD470036AD478032AD470043AD47FD
:406E40008048AD470057AD470063AD478067AD47807CAD47807DAD478085AD47009EAD47009DAD4700B4AD4700A4AD4700BBAD4700BFAD4780BCAD4700BFAD4700AFAD47B4
:406E800080C1AD4700BAAD4700B5AD4700B5AD4700A1AD4780A2AD4700A7AD470096AD47808BAD478085AD470087AD478088AD470078AD47007DAD478079AD478079AD47A7
:406EC0008083AD47007FAD478086AD470080AD478086AD470098AD470097AD47009BAD47809FAD4780A5AD4780BBAD4780B3AD4700C9AD4780CFAD4780E2AD4700EFAD475F
:406F000080EFAD4700FDAD4700FFAD478012AE47001FAE470024AE470035AE47802CAE47803EAE470054AE47004FAE470061AE478058AE478062AE478074AE47007BAE47F8
:406F40000089AE470085AE47008CAE4780A3AE47809AAE4780AFAE4780AAAE4700B5AE4700BEAE4700C2AE4700C9AE4780C3AE4700D0AE4700E0AE4780D8AE4700E1AE4767
:406F800000EAAE4780ECAE4780FEAE4780F3AE4700FEAE470001AF478004AF478011AF470010AF470018AF478015AF47801AAF47802EAF478025AF47802AAF47802CAF471B
:406FC000802CAF470037AF470039AF47003BAF478038AF478042AF47004CAF478048AF470055AF478054AF47005CAF470065AF47805EAF478066AF470068AF470070AF47C6
:407000008075AF478074AF470079AF470073AF47007AAF470087AF478079AF47007DAF47006FAF478062AF470050AF478027AF4700FAAE4780B6AE47807EAE47004AAE47E8
:4070400080F8AD4700C3AD470080AD478048AD47002DAD47000CAD4780F7AC4700DFAC4780DDAC4700E6AC4780DFAC4780E6AC4700F3AC478000AD47800CAD47800EAD4730
:40708000802FAD47002AAD470047AD478056AD470060AD478072AD47807CAD470088AD47809DAD4700A2AD4780A7AD4780B7AD4700C9AD4780CFAD4700D2AD4780E6AD4757
:4070C00000EEAD4780F6AD478000AE470002AE470015AE47001FAE470029AE470033AE470042AE47804AAE470051AE470050AE47805AAE470060AE478066AE47005CAE47A3
:407100000060AE478061AE478059AE47005DAE470055AE470058AE47004EAE470049AE470049AE47003DAE47003CAE478031AE47003BAE47803EAE478032AE470039AE47ED
:40714000003AAE47803AAE470047AE47003EAE470048AE478049AE478054AE47005EAE47005EAE470073AE47806BAE478073AE470084AE478083AE470089AE47008DAE47B7
:4071800080A1AE4780ADAE4700A7AE4700B8AE4780B4AE4780C4AE4780CBAE4700CAAE4780DCAE4700D3AE4700DAAE4700F2AE4700EBAE4700FAAE4700F2AE4780F8AE47FB
:4071C0008006AF4780FEAE470009AF470004AF47800EAF47001DAF47801BAF478017AF470020AF478020AF478025AF478022AF47802EAF47002BAF47802EAF478035AF47FF
:407200000032AF47003CAF478037AF470040AF470048AF470042AF470045AF470046AF47004BAF470058AF47804DAF47005AAF478048AF47005AAF470062AF47005CAF47CA
