:020000041008E2
:4000000000780408EB0208100D0000005103081051030810510308105103081000000000000000000000000000000000915308104D03081000000000315408109554081078
:400040004D0308104D0308104D0308104D0308104D0308104D0308104D0308104D0308104D0308104D0308104D0308104D0308104D0308104D0308104D0308104D03081000
:400080004D0308104D0308104D0308104D0308104D0308104D0308104D0308104D0308104D0308104D0308104D0308104D0308104D0308104D0308104D0308104D030810C0
:4000C0004D0308104D0308104D0308104D0308104D0308104D0308104D0308104D0308104D0308104D0308104D0308104D0308104D0308104D0308104D0308104D03081080
:400100004D0308104D0308104D0308104D0308104D0308104D0308104D0308104D0308104D0308104D0308104D0308104D0308104D0308104D0308104D0308104D0308103F
:400140004D0308104D0308104D0308104D0308104D0308104D0308104D0308104D0308104D0308104D0308104D0308104D0308104D0308104D0308104D0308104D030810FF
:400180004D0308104D0308104D0308104D0308104D0308104D0308104D0308104D0308104D0308104D0308104D0308104D0308104D0308104D0308104D0308104D030810BF
:4001C0004D0308104D0308104D0308104D0308104D0308104D0308104D0308104D0308104D0308104D0308104D0308104D0308104D0308104D0308104D0308104D0308107F
:400200004D0308104D0308104D0308104D0308104D0308104D0308104D0308104D0308104D0308104D0308104D0308104D0308104D0308104D0308104D0308104D0308103E
:400240004D0308104D0308104D0308104D0308104D0308104D0308104D0308104D0308104D0308104D0308104D0308104D0308104D0308104D0308104D0308104D030810FE
:400280004D0308104D0308104D03081010B5054C237833B9044B13B10448AFF300800123237010BDCC49020800000000FCF00810084B10B51BB108490848AFF3008008484A
:4002C000036803B910BD074B002BFBD0BDE81040184700BF00000000D0490208FCF008109C430208000000007047FFF7FDFF72B6104C114DAC4209DA21686268A368043BA6
:40030000A2BFC858D050FAE70C34F3E70B490C4A00209142BCBF41F8040BFAE709480A490860BFF34F8F00F0B7FA00F091FA00F089F9FEE700F1081018F10810CC49020888
:40034000747303080040020808ED00E0FEE7FEE700B504207146084202D0EFF3098001E0EFF30880043003F0E7FAFEE700B583B010F4002F07D00E480BF088FD67210D48AE
:4003800003F0CAFA11E010F4C02F0ED001A90A4B186803F07DFE019B3BB14FF08052074B1A60BFF34F8FBFF36F8F03B05DF804FB08DE081034DE0810B024030804ED00E053
:4003C00030B587B00D468DF8070057238DF808300DF107030393012304938DF81430144A02A9144802F0F0FB134C20604FF0FF31124B186803F056FF2368A3B957238DF80E
:40040000083003950123049300238DF81430084A02A9084802F020FB20604FF0FF31074B186803F03FFF044B186807B030BD00BFB471030800006340E8490208B0240308DA
:4004400010B584B00B4B18710A785A710A4B0FCB8DE80F00094A6946094802F0B5FB04464FF0FF31074B186803F01CFF204604B010BD00BFE8490208F8DD0810B471030818
:4004800000006340B024030808B540210920FFF7D7FF08BD30B583B0002502AC04F8015D21460220FFF7CCFF8DF8075021460320FFF7C6FF8DF8075021460420FFF7C0FF16
:4004C0008DF8075021460520FFF7BAFF8DF8075021460620FFF7B4FF0F238DF8073021460820FFF7ADFF03238DF8073021460920FFF7A6FF27238DF8073021460A20FFF71A
:400500009FFF24258DF8075021460C20FFF798FF8DF8075021460D20FFF792FF03B030BD00B583B005F032F92B4A2C4B5A6403220021012003F034FC294B186000238DF871
:400540000730284B1B6813F0040F02D126480BF09DFCFFF799FF4FF4FA7004F07DFA0DF107010D20FFF72CFF9DF807101F480BF01BFC0DF107010020FFF722FF0DF1070101
:400580000120FFF71DFFFFF785FF0DF107010D20FFF716FF9DF8071015480BF005FC00238DF806308DF805300DF106010420FFF707FF0DF105010620FFF702FF9DF80610C2
:4005C0009DF80530C91A0B480BF0EEFB4FF47A7004F042FAE8E700BF6D030810B4710308B02403088004324040DE081064DE0810A4DE0810E4DE0810F8B506460F4600F05D
:40060000CBFF0546064C3B4632460146204600F061FE41F2B062294620460AF025FFF8BDF849020808B5002005F02EFD6FF07F4005F020FD05F0ACFD01210846FFF7DCFF1A
:4006400008BD00BF00B583B062B605F063F80422134B9A6013480BF019FC05F0CBFD142000F024FE012000F029FEFFF7DBFF012005F0C8FC002005F007FD6FF07F4005F0AC
:40068000F9FC05F085FD002301930622009280220549064804F06AF804F09AF8FEE700BF8004324028DF081040DF08102105081008B5012001F08CFB08BD00BF704700BFC5
:4006C0005C4AD2F8803303F00F0303F1D00152F8212002F00702032A04D0042A05D092B9554914E0554A116811E003F1C002514951F8222002F01F02112A06D0132A04D08D
:400700004FF4FA4103E04E4901E04FF400418BBB484BD3F8902502F00100D3F88825C2F30172D3F8883513F0405F07D0414BD3F88835C3F30173012B02D102E0012300E04C
:40074000002303B108B9032A46D13A48D0F88025C2F31103D0F88425C2F30C02D0F88005C0F300600130B1FBF2F202FB03F2B2FBF0F131E0012B2FD12E4BD3F8402602F037
:400780000100D3F80026C2F30172D3F8003613F0405F07D0274BD3F80036C3F30173012B02D102E0012300E0002303B108B9032A12D12048D0F8002602F07F02D0F80036B4
:4007C000C3F30423D0F80006C0F3044002FB01F2B2FBF3F2B2FBF0F1164BD3F88033C3F3011321FA03F215494A601648D0F89030C3F3072301330069000E0130B2FBF0F057
:400800008860B2FBF3F3CB600B6103F5742202F23F220D48A0FB0202C2F387420A7503F2E7330A4AA2FB03239B098B61DB03CB61704700BF0000264000127A008C420208D2
:4008400000366E010000214083DE1B43D34D621008B50D4803F05CF9FFF730FFFFF730FF00221146042001F07BF8084801F00EF9074B1B6893F8513013B1064801F076F9E1
:4008800000F0B8FF08BD00BFE4E30810A8600208287103084CDF081008B503F0AAF8074AD2F8883043F47003C2F88830BFF34F8FBFF36F8F03F0A1F808BD00BF00ED00E0D7
:4008C0002DE9F04180460E4617460A4C08256560702000F06FFD404600F06CFDA5606560722000F067FD3946304600F0C7FDA560BDE8F0810006324000B583B002AB03F8AB
:40090000011D01221946FFF7DBFF03B05DF804FBF8B507460E46094C08256560702000F049FD384600F046FDA5606560732000F041FD304600F06EFDA560F8BD00063240A6
:4009400038B50425084B5D60084C402363601023636000F0FFFC0822054B5A6065602023636000F0E1FC38BD00003240800232400006324010B5434C6F22002120460AF0F1
:4009800099FD631C236704F14E03636704F12203A36700F0C9FC03E000F0D0FC032868D800F0AEFD0028F7D100F0CEFC00217220FFF7AEFF00F00F0002285CD14021FFF75D
:4009C0009BFF00210F20FFF7A3FF10F0800F54D002210B20FFF790FF08222B490120FFF76FFFD1210720FFF787FF02210820FFF783FFC2210920FFF77FFF03210420FFF7B6
:400A00007BFF01210320FFF777FF00210320FFF773FF0A2002F066FF002400E01C4601210520FFF769FF642002F05CFF03210520FFF762FF322002F055FF0F210520FFF7FF
:400A40005BFF322002F04EFF00210F20FFF760FF10F0400F05D040210220FFF74DFF234603E0631C9BB2042CD8D1032B07D9052010BD012010BD022010BD032010BD00201F
:400A800010BD00BF2862020880DF081010F1090F0EDB10F1040F0EDB05280FDD0A2810DD0F2811DD142811DD282811DC5A2210E04FF496620DE04FF461720AE04FF416727D
:400AC00007E04FF4A57204E0DC2202E0B42200E03C22034BA3F87C20A3F87E20704700BF286202082DE9F84F06460D46047828B1CA4B984205D10127002403E00127FF2485
:400B000000E0002700F010FC4FF00008D0E1C8EBC80AC8EB0A1ADFF80C930AEB090B6F22002158460AF0C6FC0BF1010EBC4BC3F870E00AF148004844063058670AF1200ACD
:400B4000D14409F10209C3F878902022002397E10FB934780136032D00F29081DFE815F004006500C600270100EB030C14F0400F01D0C02100E080218CF8001049B214F0A7
:400B8000100F02D04FF0300A01E04FF0200A4AEA01018CF8001014F0040F02D04FF00C0A01E04FF0080A4AEA01018CF8001014F0010F02D04FF0030A01E04FF0020A4AEAEB
:400BC00001018CF800100EEB020C14F0800F01D0032100E002218CF8001049B214F0200F02D04FF00C0A01E04FF0080A4AEA01018CF8001014F0080F02D04FF0300A01E0A1
:400C00004FF0200A4AEA01018CF80010013A92B214F0020F02D06FF03F0A01E06FF07F0A4AEA01018CF8001028E100EB030C14F0400F01D0802100E040218CF8001049B248
:400C400014F0100F02D04FF0200A01E04FF0100A4AEA01018CF8001014F0040F02D04FF0080A01E04FF0040A4AEA01018CF8001014F0010F02D04FF0020A01E04FF0010A84
:400C80004AEA01018CF800100EEB020C14F0800F01D0022100E001218CF8001049B214F0200F02D04FF0080A01E04FF0040A4AEA01018CF8001014F0080F02D04FF0200AA7
:400CC00001E04FF0100A4AEA01018CF80010013A92B214F0020F02D06FF07F0A01E04FF0400A4AEA01018CF80010C7E000EB030C14F0400F01D0C02100E040218CF80010F3
:400D000049B214F0100F02D04FF0300A01E04FF0100A4AEA01018CF8001014F0040F02D04FF00C0A01E04FF0040A4AEA01018CF8001014F0010F02D04FF0030A01E04FF0BE
:400D4000010A4AEA01018CF800100EEB020C14F0800F01D0032100E001218CF8001049B214F0200F02D04FF00C0A01E04FF0040A4AEA01018CF8001014F0080F02D04FF000
:400D8000300A01E04FF0100A4AEA01018CF80010013A92B214F0020F02D06FF03F0A01E04FF0400A4AEA01018CF8001066E000EB030C14F0400F01D0802100E0C0218CF869
:400DC000001049B214F0100F02D04FF0200A01E04FF0300A4AEA01018CF8001014F0040F02D04FF0080A01E04FF00C0A4AEA01018CF8001014F0010F02D04FF0020A01E01A
:400E00004FF0030A4AEA01018CF800100EEB020C14F0800F08D0022107E000BFFFFF0F1028620208B424030803218CF8001049B214F0200F02D04FF0080A01E04FF00C0A8E
:400E40004AEA01018CF8001014F0080F02D04FF0200A01E04FF0300A4AEA01018CF80010013A92B214F0020F02D06FF07F0A01E06FF03F0A4AEA01018CF8001001339BB20C
:400E8000202B7FF665AEC8F1AF031BB299101A4A134003D5013B63F003030133174A02FA83F31B7A09F8013008F101081FFA88F8B8F1AF0F7FF62BAE00240FE0C4EBC403B3
:400EC000C4EB03136F220E4919440A20FFF7F8FC07210220FFF710FD0134A4B2AF2CEDD9084BB3F87C4000F029FA8442E4D800F02BFABDE8F88F00BF0300008080DF081012
:400F0000B4240308286202082DE9F04706460D4600F00AFAD2210920FFF7EEFC0024C6E0C4EBC407C4EB0717DFF8008207EB08096F22002148460AF0BDFA09F1010C784B36
:400F4000C3F870C007F1480EC6440EF1060EC3F874E02037B84408F10208C3F87880202000218EE0771C32786E1C95F800900EEB010582EA090212F0400F04D019F0400F5D
:400F800003D0802302E0402300E0C0232B705BB212F0100F05D019F0100F05D04FF0200A04E04FF0100A01E04FF0300A4AEA03032B7012F0040F05D019F0040F05D04FF029
:400FC000080A04E04FF0040A01E04FF00C0A4AEA03032B7012F0010F05D019F0010F05D04FF0020A04E04FF0010A01E04FF0030A4AEA03032B700CEB000512F0800F04D0F2
:4010000019F0800F03D0022302E0012300E003232B705BB212F0200F05D019F0200F05D04FF0080A04E04FF0040A01E04FF00C0A4AEA03032B7012F0080F05D019F0080FBE
:4010400005D04FF0200A04E04FF0100A01E04FF0300A4AEA03032B70013880B212F0020F05D019F0020F04D06FF07F0203E0402201E06FF03F0213432B70013189B2354606
:401080003E4620297FF66EAFC4F1AF031BB29910244A134003D5013B63F003030133224A02FA83F31B7A08F801300134A4B2AF2C7FF636AF002421E0C4EBC405C4EB0515C8
:4010C0001A4B1D446F2229460A20FFF7F9FB07210220FFF711FCC4F1AF0343F38D032B44002283F822206F2229460A20FFF7E8FB07210220FFF700FC0134A4B2AF2CDBD9F5
:40110000074BB3F87E4000F019F98442D2D800F01BF9C2210920FFF7EFFBBDE8F08700BF286202080300008080DF0810B4240308002307E01349086F5522C254496FCA5406
:4011400001339BB2202BF5D970B5002416E0A6080C4DAA6F04F003030B490B441B7A93556F2229460A20FFF7ABFB07210220FFF7C3FBAB6F00229A550134A4B2AF2CE6D948
:4011800070BD00BF2862020880DF081008B5002304E00021094AD1540133DBB2152BF8D900210420FFF7A8FB6F2204490A20FFF787FB07210220FFF79FFB08BD2862020878
:4011C00038B50E4C1023A360142002F08BFB00F0D9F808220A4B9A604023A3600425A5600A2002F07FFB65600A2002F07BFBA5600A2002F077FBFFF7BDFB38BD80023240E1
:401200000006324038B5FFF793FFFFF7BFFF1E2002F068FB234C40256560322002F062FBA56000210F20FFF773FB10F0400F36D000210B20FFF760FB01210320FFF75CFB03
:4012400003210520FFF758FB01210520FFF754FB322002F047FB80210420FFF74DFB00210520FFF749FB01210720FFF745FB1E2002F038FB00F094F81023636065601420FA
:4012800002F030FB0822084B5A60042363602025A5601E2002F026FB6560002038BD042038BD00BF800232400006324010B50446FFF746FB2046FFF7E9FB10BD08B510B166
:4012C000FFF77EFF01E0FFF79DFF08B9012008BD002008BDF8B507460E4614461D4613B10120FFF7EBFF24B931463846FFF70CFE15E0631EDBB2012B11D800213846FFF72D
:40130000F1FB012C07D101213846FFF7EBFB02213046FFF7E7FB03213046FFF7E3FB15B10020FFF7CBFFF8BD08B50022024BC3F8082100F083F908BD00003840014BD3F836
:4013400008017047000038400122014B5A6070470000384010B5074C074A0849204601F09BFD236843F0004323600822044B9A6010BD00BF0000674004710308E4DF0810AF
:40138000000632400822044B9A60044A136843F000431360704700BF000632400000674008B50249024801F0ABFE08BD047103080000674008B50146154800F049FD144B2D
:4013C000D3F8C03F13F0040FF9D0114BD3F8042242F48032C3F80422D3F8042222F48032C3F80422D3F80422D3F8042342F48032C3F80423D3F8042322F48032C3F804234B
:40140000D3F804230422C3F8C02FD3F8C03F08BD0000674008B50146174800F019FD164BD3F8C03F13F0040FF9D0134BD3F84003D3F8042242F48032C3F80422D3F804222A
:4014400022F48032C3F80422D3F80422D3F8042342F48032C3F80423D3F8042322F48032C3F80423D3F804230422C3F8C02FD3F8C03FC0B208BD00BF0000674038B50C4612
:40148000054600B121B940F2E6511B4802F044FA22462946194800F021FD184AD2F80832C3F30803D2F80822C2F3C032D342F4D1124BD3F8042242F48032C3F80422D3F896
:4014C000042222F48032C3F80422D3F80422D3F8042342F48032C3F80423D3F8042322F48032C3F80423D3F804230422C3F8C02FD3F8C03F204638BD8CDF081000006740C3
:40150000044B1B6913F0080F01D0012070470020704700BF8002324010B582B002AC012344F8043D00231A461449154804F080FF214605F0FAFF06F023FC60B14FF48472E1
:40154000B021002006F001FD4FF48472B021002006F027FD0BE0B0224FF48471002006F0F4FCB0224FF48471002006F01AFD0549002006F001FD02B010BD00BFC0EC0810AC
:40158000F4EC0810AC420208012901D1002070474FF0FF30704700BF00487047A862020810B504462146034800F052FC0028F9D010BD00BF00006640054BD3F80833C3F343
:4015C0000803002BF8D0024BD3F84003704700BF0000664008B5012002F0DCFC014B186008BD00BF5879020808B500231A4619460248006802F0FAFB08BD00BF5879020814
:4016000008B54FF0FF31024B186802F04BFE08BD5879020808B503F079FB08BD704700BF08B54FF40041034804F0FAF9024804F077FD08BD5C7902087CE5081008B5084B25
:401640001B783BB9074A0021074802F0D9F90122034B1A70044B01229A609A6108BD00BF5CF9020818E00810000038401F4B98422DD00CD840282ED003D8E8B1102828D062
:401680002FE0802829D0B0F5807F28D029E0184B984228D006D8B0F1204F0DD0154B984212D01EE0144B98420AD00133984209D0023B984215D101E0002070470F487047FE
:4016C0000F4870470F4870474FF4A0007047074870470D4870470D4870470D487047034870470C4870474FF4A400704706005200010000F0090000A0040000F00100520026
:401700000200520003005200010050000200500005005200FF00520038B5124B1B6893F83130012B04D840F2C3110F4802F0F4F80C4B1D682A6AB5F8B03013442C46D5F826
:40174000B420D358002B0BDB084B1868FFF78EFF6B6801229A6063689B68002BFBD138BD034838BD2871030864E0081060F90208020050001A4B186128B102230370FF23F3
:40178000437000234380174B1B6893F850202AB300B583B0B3F93830ADF80030002301931149684602F064F8BDF90030002B08DB590903F01F03012202FA03F30B4A42F8E6
:4017C0002130084B1B6893F8513023B102220849012000F077FA03B05DF804FB704700BF60F90208287103080D44020800E100E0C544020808B50248FFF7BCFF08BD00BFFC
:4018000074F9020838B50B4B1B68D3F8B4301B58002B0DDA0D4604460B0C1B0423B140F2D521054802F078F8A9B26160002038BD024838BD28710308A4E0081001008A007E
:4018400038B50368002B01DA002300E0094B73B90D460446C2600B0C1B0423B140F2BB21054802F059F8A9B2A160002038BD014838BD00BF01008A00A4E0081038B5044654
:401880000D4619B99921084802F046F8074B1B68D3F8B4301B59002B03DAE3682B60002038BD034838BD00BFE4E008102871030801008A00254B1B6893F8313083423AD91D
:4018C00000293AD00B6813F01F0F38D170B50D4604461E4B1B6893F83130984204D340F2C3111B4802F018F8184B1B68186AB3F8B03004FB0304174E34602A68D2080021D3
:40190000686809F0D7FD00212046FFF77BFF346825B940F293310E4801F0FEFF2A4600212046FFF78DFF60B900210A4B1868FFF769FF40B970BD08487047074870470648F8
:401940007047064870BD054870BD00BF28710308A4E0081078F9020803018A0001018A0010B504461346B2B9A9B9124B1B6893F83130984204D340F2C3110F4801F0CCFF5C
:401980000C4B1B681A6AB3F8B03004FB03240B4B1C60002010BD43B149B1084A51609360111D2046FFF786FF10BD054810BD044810BD00BF28710308A4E0081078F90208EC
:4019C00003018A002DE9F0411B4B1B68DC68236883422CD90D464609A0EB4610012303FA00F819B902F005F8074600E00027124B18680368002B01DA002300E00F4B83B9F8
:401A0000626852F8263018EA030F05D023EA080342F82630002400E0094C0021FFF7F2FE00E0084C25B9384601F0E7FF00E0064C2046BDE8F08100BF78F9020801008A0071
:401A4000020188000301880004018A000B4B1B68DB681A6882420CD94109A0EB4110012202FA00F05B6853F82130184203D004487047044870470448704700BF78F9020875
:401A80000101880004018A0000018800024B1B680BB9014B1860704784F902082DE9F8430446884691461D46089F2C4B1B681BB9B5212B4801F030FF284B1B682C2000FB30
:401AC00004F01C18EEB21E50C5F3072363602D0CA560244B1B6893F831309E4204D340F2C311214801F018FF1E4B1B68196AB3F8B02006FB02162661666893F832309E429C
:401B000004D340F2DF11184801F006FF154B1B681D6A803605EB46156561A668330C1B0423B14FF4FF71104801F0F6FE330C1B0423B140F2FF110C4801F0EEFEB3B243EABE
:401B40000646AE60C4F81C90C4F820800023A36117B1B7F90030A381BDE8F88384F9020824E1081028710308A4E00810F0B58FB0044618B95221274801F0CEFEA369072B74
:401B800003D95621234801F0C7FEE36A1BB95821204801F0C1FE236B1BB959211D4801F0BBFE07AD04F114060FCE0FC537682F6002AD26460FCE0FC533682B60164B1B689C
:401BC000B3F93620079B1344ADF83030089B0D93A26AE16A0CAD00953B460A98FFF75EFF00210091069B0A460598FFF757FF216B284601F03DFEBDF93030002B08DB59094F
:401C000003F01F03012202FA03F3044A42F821300FB0F0BD24E108102871030800E100E0F8B506460F461D4614461AB9FD211F4801F072FE1E4B1B681BB9FE211B4801F0BC
:401C40006BFE1B4B1B682C2101FB063001FB07314B68012202FA03F31B04466802FA06F60269EAB18F69EFB91268002A01DA002200E0104AC2B92288134323600369DC60AB
:401C800001238B614D620469330C1B0423B140F2BB21094801F040FEB2B2A2600020F8BD0648F8BD0648F8BD0548F8BD24E1081084F9020801008A00A4E0081004028A009A
:401CC00007028A00F8B505460F4616460E4B1B6823B94FF4AF710D4801F01EFE0A4B1B682C2404FB0534236A23B94FF4B171074801F012FEE369B34204D9236A43F8267031
:401D00000020F8BD0248F8BD84F9020824E108100A028A0070B582B000230193044620B940F2D111284801F0F7FD236923B94FF4E971254801F0F0FD636923B940F2D311ED
:401D4000214801F0E9FD236A23B94FF4EA711E4801F0E2FD6369DD682A0C20D012041A601B682069194B1B68D3F8B430C358002B15DA01A9FFF782FD60B9019803681E0CE2
:401D8000DBB2E269934206D2226A52F8233013B1984700E0002631462069FFF733FDADB275B16369ADB21D601B68636A1BB198470023636202E0A36A03B198470023A361ED
:401DC00063691B6802B070BD24E108102871030810B50446074B1B6823B940F2B111064801F09AFD034B1B682C2000FB0430FFF791FF10BD84F9020824E1081010B4D0F89B
:401E0000003303F00F03072B06D900230DE0D0F84043CC54013300E000239342F7D306E0D0F8404321F8134001339342F8D35DF8044B704710B51446D0F80833C3F3080359
:401E40009A4200D31C462246FFF7D8FF204610BD036813F4006F01D0802200E04022D0F80832C3F30803934203D0C0F84012012070470020704700BF10B4D0F8003203F0BF
:401E80000F03072B06D900230DE0CC5CC0F84042013300E000239342F7D306E031F81340C0F8404201339342F8D35DF8044B704710B51446036813F4006F01D0802200E099
:401EC0004022D0F80832C3F30803D31AA34200D81C462246FFF7D0FF204610BDF8B507460D461446D0F8006206F00F060BE0224629463846FFF7DCFF072E01D9430000E032
:401F000003461D44241A002CF1D1F8BD02E0C0F84012013A002AFAD1704700BF10B51446036813F4006F01D0802200E04022D0F80832C3F30803D31AA34200D81C46224698
:401F4000FFF7E4FF204610BD10B54A6841F201039A4231D1D0F80833C3F30803B3B10B6A43F040030B620B7873B1D0F8043343F48033C0F80433D0F8043323F48033C0F849
:401F80000433D0F8043301E0D0F840330B6A43F020030B620B6A23F010030B62036E23F4204303660023C0F8C83F0123C0F8C03FD0F8C03F202221E0D0F80832C3F30802B2
:401FC000D0F80832C3F3C03313440A6BD21A4A630A6A12F0080F05D1CA6A1A44CA628A6AD31A8B620B6A43F004030B620B6A23F001030B620023C0F8883F1022D0F84C4F96
:4020000040F201131C420DD0036823F00043036000238366C366036843F000430360036842F040024FF080534B604B6C0BB11046984710BDD0F80C3F13F0020F1DD0022239
:40204000C0F8002FD0F8002FD0F8002F12F0040F02D04FF4001001E04FF480108A6802438A604A68B2F5B81F07D00A7B12B14FF4C01201E04FF4B0124A6013F4807F03D0AF
:402080008A6842F400028A6013F0010F03D08A6842F480028A6040F21112134202D04FF4C0134B60704700BF0023C0F8C83FC0F8883F836E23B140F21713C0F8083F7047A7
:4020C00040F21313C0F8083F182383664FF4B8134B60704738B5D0F80C4F036E23F4807303660023C0F8C83FC0F8883FC0F8083F40F21713C0F8003FD0F8003F8B6823F43D
:4021000080338B604B7B13B18B69CB610BE08D69D0F80822C2F30802D0F80832C3F3C0331344EB1ACB6140F201131C421BD0036E9B0F032B05D114F4827F14BF01230023C1
:4021400000E001235BB1036823F00043036000238366C366036843F00043036003684FF080534B601BE00B7893B1D0F8043343F48033C0F80433D0F8043323F48033C0F86F
:402180000433D0F804330123C0F8C03FD0F8C03F0B7B0BB10B4B01E04FF080534B604A6C72B14B7B13B14FF4802001E04FF400308B6813F0F87301D04FF4002318439047AD
:4021C00038BD00BF0000101070B505460C4691F8243013F0FF0F0ED1CB6A63B94B6C0BB108209847E36AB3FA83F35B0984F824300123C5F8883F94F8243013F0FF0F16D08E
:4022000063783BB12B6813F4006F01D0802202E0402200E00122FF212846FFF77FFE236B18442063236A43F00803236270BDE26A012A11D963780BB1013A00E00122A16AE8
:402240002846FFF735FE236B03442363E36A1B1AE362A36A1844A062D5F80832C3F30803802B23D0E36A012B20D101F0C2FBA36A1B78C5F840324026C5F8806FD5F8803F4F
:4022800001F0BBFB236B013323630023E362A36A0133A362C5F8886F63783BB1236A43F002032362636C0BB10420984770BD00BF38B54B68B3F5A81F03D14FF4C0134B609E
:4022C00038BD4B68B3F5A01F4DD10C4605464A69012A11D94B780BB1013A00E0012221692846FFF7E5FDA3690344A36163691B1A6361236903442361D5F80832C3F3080384
:40230000802B14D06369012B11D101F072FB23691B78C5F840324023C5F8803FD5F8803F01F06BFBA3690133A361002363616369CBB9237B33B14023C5F8883F4FF4A813E4
:40234000636005E00023C5F8883F4FF4B0136360637843B1A36843F40033A360636C13B14FF48030984738BD70B504460D468A6C82B3036813F4803F06D0D0F84C3F13F05A
:40238000400F03D0022002E0002000E00020236E13F4006F06D1D4F84C3F13F0800300D001231843C0B190470123C4F8C03FD4F8C03F024648B91023C4F8403FD4F8403FD9
:4023C00040F2D113C4F8483F07E040F2C113C4F8483F02E0002200E00022D4F8043243F48033C4F80432D4F8043223F48033C4F80432D4F804320AB9012300E00223E3667B
:40240000002A59D1666E06F010066B6C23B10EB1012000E0022098477EB141F202036B602B6A43F001032B626B6B2B63002385F824300123C4F8883F70BD41F201036B6043
:402440002B6A43F010032B620123C4F8C83F2B78BBB1EB6BBBB1236E43F400532366ED6B802D05D9A5F18003802B0ED8813D0DE0013D236E43F4004323660023C4F8C83FA8
:4024800004E0002502E0002500E03F25236813F4006F01D0802300E040239D4204D34FF42071064801F038FAD4F8043323F0FF03EDB21D43C4F8045370BD00BF64E10810A2
:4024C00038B54B68B3F5881F03D0B3F5901F1AD038BD0B69D0F840231A708B6901338B614B69013B4B612BB10B6901330B610423836638BD0B7B13B14FF4C01301E04FF492
:40250000B0134B6038BD0C4605464A690969FFF791FCA3690344A36163691B1A6361226910442061012B24D82B6E23F480732B666369012B16D12B6813F4006F01D08023BF
:4025400000E0402323B94FF42071184801F0E4F9D5F8043323F0FF03C5F804334FF48813636038BD0023C5F8C83F4FF4B013636038BD402B01D89C1E00E03F242B6813F417
:40258000006F01D0802300E040239C4204D34FF42071064801F0C0F9D5F8043323F0FF02E3B21343C5F8043338BD00BF64E1081038B5CB6B002B50D00B78002B3FD00C46EF
:4025C0000546D0F80423D2B20132896BFFF732FC236C03442364E36B1B1AE363A26B1044A063802B06D9A3F18002802A0FD8A3F181040DE02B6E43F400432B66E36B0BB163
:402600005C1E00E000240023C5F8C83F00E03F242B6813F4006F01D0802300E040239C4204D34FF42071104801F076F9D5F8043323F0FF02E3B21343C5F8043338BD0123E1
:40264000C3668A6B0B6CD0F84003D0540B6C01330B64CB6B013BCB6338BD0223C3660023C0F8C83F38BD00BF64E10810F8B50B78012B03D00C7A1CB9002702E0002700E00C
:402680000127002800F0A780002900F0A680002A00F0A58016460C460546013BDBB2022B03D94F214F4801F037F9637803B163791BB150214B4801F02FF994F90330002B03
:4026C00003DA5121474801F027F9237913F0010F03D05221434801F01FF92369102B03D95321404801F018F9E368102B03D954213C4801F011F9637913B14FF4803100E0F7
:402700000021E27912B14FF4807300E000230B4343F400632B60A37913B94FF4006300E000232269013A02F00F021A43E368013B1B01DBB21343227843EA82732B6617B15C
:4027400040F2073301E040F20713C5F800330FB1254B00E0254B2B6763780BB17F2300E00023C5F80433E3785B00DBB2227943EA0243C5F810331E4BC5F80032A3780BB10F
:40278000402300E00123C5F804320023C5F8C83EC5F8883EC5F8C83FC5F8883FC5F8083F2378022B02D040F2D11300E00023C5F8483F63783370A37873704FF080537360B2
:4027C0000020B060B06130623064F0633063F0627064B064F8BD0748F8BD0648F8BD0548F8BD00BFA8E1081003002A0013102A00070101000120AA0038B505460C4621B982
:4028000040F2C321194801F087F82B6E9B0F012B17D1174B2344174A93421ED9A4F5BD13A3F5D66302F5611202F56162934216D9A4F57104A4F533440F4B9C4211D80F48AC
:4028400038BD84B1286EC0F303102B6E03F00F0318440230B4FBF0F038BD094838BD094838BD002038BD002038BD00BFA8E1081020AD88FF405B730040555C0440420F0024
:40288000801A0600A08601002DE9F84307468846914622B940F21221624801F03DF808F1FF34614B9C4204D940F213215D4801F033F83B6E9B0F012B0DD149463846FFF7E4
:4028C0009BFF0546D7F8003323F40073C7F80033564B3B67A2E0544B9C421FD8544B984509D8A9F5BD13A3F5D663524A934218D90021012328E0504B984507D84F4B4B4471
:402900004F4A934213D9002101231DE04D4B4B444D4A934212D90021012315E00021012312E0002141F288352E460B460CE000214FF461754FF4C8660B4605E001214FF404
:40294000BE754FF41B760023002B66D13F4BB3FBF9F3B6FBF3F404FB03F2964200D90134102C00D910240F2C8CBF00220122B5FBF3F606FB03F39D4200D90136102E00D98B
:402980001026A519B9FBF5F50FE022B10F2C09D80134002206E00F2E04D801360F2C8CBF00220122A519B9FBF5F5454502D9A3191F2BEAD941B1D7F8003343F40073C7F868
:4029C0000033234B3B6707E0D7F8003323F40073C7F80033154B3B67E31F092B04D940F283511C4800F098FF3B6E23F0F003013C2401E4B223433B66731F0B2B04D94FF493
:402A0000B461144800F088FF3B6E23F00F03013E06F00F061E433E6600E000252846BDE8F88300BFA8E108103F420F0013102A00A0860100502D1900801A060020AD88FF10
:402A4000A0432100807E25FFC02BAF0000CA9A3B03002A00E8E1081070B5044615460E4621B940F2D341554800F056FF73680BB1B36823B940F2D441504800F04DFF96F991
:402A80000030002B04DA40F2D5414C4800F044FF0023C4F8483F6B6813F0805F00F0888033785B00DBB243F001034FF48032AA6072682A61B2686A610022AA61EA61327B83
:402AC0002A7301226A7340F21712C4F8002FD4F8002FD4F8042242F48032C4F80422D4F8042222F48032C4F80422D4F804226A68B2F1805F04D1C4F840320223A36609E040
:402B0000626E12F0200F01D0092200E00122A266C4F840322B7843B32B7B33BB6B69012B23D9236E43F4807323666E69802E01D8023E00E03F26236813F4006F01D080239A
:402B400000E040239E4204D34FF420711C4800F0E3FED4F8043323F0FF03F6B21E43C4F804634FF490136B6015E0236813F4006F01D0802300E0402323B94FF420711048A8
:402B800000F0CAFED4F8043323F0FF03C4F804334FF488136B6000F02CFF0123C4F8C83F40F21313C4F8083F00F027FF002000E0044840F2D113C4F8483F70BDA8E10810C3
:402BC00064E108100220AA00F8B5044615460E4621B940F2B7514B4800F09EFEB36833B1736823B94FF4B761464800F095FE96F90030002B04DA40F2B951424800F08CFEA9
:402C00000023C4F8483F6B6813F0805F73D037787F00FFB24FF48033AB6073682B61B3686B610023AB61EB61327B2A736B7340F21713C4F8003FD4F8003FD4F8043243F4CA
:402C40008033C4F80432D4F8043223F48033C4F80432D4F804326B68B3F1805F09D1C4F840724023C4F8803FD4F8803F0223A36617E0636E13F0200F01D0092300E00123BF
:402C8000A3666B695BB900F0B4FEC4F840724023C4F8803FD4F8803F00F0AFFE01E0C4F840724FF4A0136B606B780BB1402500E00125236813F4006F01D0802300E040233B
:402CC0009D4204D34FF43A710F4800F025FED4F8043223F0FF032B43C4F8043200F089FE0123C4F8883F40F21313C4F8083F00F084FE002000E0054840F2D113C4F8483FBE
:402D0000F8BD00BFA8E1081064E108100220AA0070B504460E46D0F88C3E13F0010F07D04FF480534B600123C0F8803ED0F8803ED4F84C5F40F201131D420FD0336A15F494
:402D4000807F02D04FF4807200E08022134333620023C4F8C83F45F010050EE015F0100F0BD0D4F80833C3F3080333B1F36B23B10123C4F8C43FC4F8C83FD4F8CC3F13F065
:402D8000010F08D031462046FFF712FC0123C4F8C03FD4F8C03F15F0100F0AD031462046FFF7D2F81023C4F8403FD4F8403FD4F84C5F15F0C00F0DD031462046FFF7D4FA83
:402DC0000123C4F8803ED4F8803EC023C4F8403FD4F8403FD4F88C3F13F0410F08D031462046FFF7F1F90123C4F8803FD4F8803F70BD00BF70B506460D46D0F8004E14F0CF
:402E0000020F0AD0836E2BB1002383668B6843F080738B604FF4C0136B6014F0010F05D029463046FFF706F924F0040414F0080F08D029463046FFF743FB0123C6F8C03F1D
:402E4000D6F8C03F14F0040F08D029463046FFF72FFA0123C6F8803FD6F8803F6B68B3F5C01F03D129463046FFF734F96B68B3F5B01F03D129463046FFF716F970BD00BF3A
:402E800008B54B6813F4801F02D0FFF7B3FF08BDFFF73EFF08BD00BF002800F02481F8B50546002900F0218117460C460B78012B03D93F218F4800F02FFD6378012B07D922
:402EC000052B05D0022B03D040218A4800F024FDA378032B03D94121864800F01DFD2378012B07D16368023B0E2B03D94321814800F012FDA36933F00F0303D044217D4804
:402F000000F00AFDA368043B0C2B03D94521794800F002FDE368043B0C2B03D94621754800F0FAFC6378022B07D0A268E3689A4203D047216F4800F0EFFC636A33F06D0343
:402F400003D049216B4800F0E7FCE36A33F0730303D04A21674800F0DFFC236B33F4206303D04B21634800F0D7FC6378A678052B07D8DFE803F0060305060603022600E024
:402F80000026A368082B04D8E368082B03D9002302E0002300E0012313B14FF4006200E00022237F13B14FF4807300E000231A436368013B03F00F03134343F080732B60D1
:402FC000226A2B6813F4006F01D0802300E040239A4203D35821474800F09EFCA26A2B6813F4006F01D0802300E040239A4203D35921404800F090FC237D0BB9012100E0DF
:4030000000216278052A01D1022300E000230B43E17C09B1102100E000210B43617C09B1202100E000210B432178012902D14FF0004100E000210B43B60006F00C063343C7
:40304000A169090201F470610B43120602F0407213432B62237C13B14FF4807200E00022A37C13B14FF4007300E000231A43A368013B03F00F031343C5F8003394F8203087
:40308000C5F80433237C13B14FF4807200E00022E368013B03F00F031343C5F8003294F82830C5F80432636A03F06D03C5F8C83FE36A03F07303C5F8883F236B03F40073B4
:4030C000C5F8003F236B03F40063C5F8403F0023C5F8C83E5FB118463B60BB61FB60FB61054B3B62F8BD054870470448F8BD0020F8BD00BF28E20810EFCDAB000140AA003F
:40310000036823F00043036019B100220A60CA608A61036A002B04DB0023C0F8C83FC0F8883F70472DE9F84305460C46036813F4006F02D04FF0800801E04FF04008D5F8D4
:40314000007207F00F07A26A012A19D9D4F82490E262561EB9F1000F00D026B940F27351254800F0D9FB324649462846FEF7A0FEA36A1B1AA362072F00D9400048446062F4
:40318000D5F80832C3F30803984533D0A36A012B30D10023A362072F02D8636A1E7801E0636A1E8800F025FCC5F840624FF40073C5F8803FD5F8803F00F01FFCD5F8883F71
:4031C00023F4007222F0010242F4007623F4EE6323F0030323B140F22A41084800F09CFBC5F8886F236843F002032360236B0BB101209847BDE8F88368E2081064E1081099
:403200002DE9F04105460C46036813F4006F01D0802600E040267608A769D4F81C8017B1B8F1000F04D14FF49961314800F074FB424639462846FEF7FDFD236A03442362EF
:40324000E3691B1AE36173BBA368FBB1E3689E4201D8013E00E05E1E2B6813F4006F01D0802300E040239E4204D34FF42071214800F052FBD5F8043323F0FF03F6B21E43F2
:40328000C5F804630123C5F8C83F02E00023C5F8C83F636823F001036360236B33B304209847BDE8F081A169D5F8002302F00F02072A00D940000844A0619E4216D95C1E2A
:4032C0002B6813F4006F01D0802300E040239C4204D34FF42071074800F01EFBD5F8043323F0FF02E3B21343C5F80433BDE8F08168E2081064E10810002800F0A48170B5FF
:403300000546002900F0A18116460C460B78022B03D93F21A24800F0FFFA637B023BDBB2062B03D940219E4800F0F6FAA37B3BB1022B05D0032B03D04121994800F0ECFA98
:4033400094F82130012B03D94221954800F0E4FA94F82830012B03D94321914800F0DCFA2378012B06D86368083B082B94BF0023012307E0A37F2BB16368013B062B94BF7B
:40338000002301231BB14521854800F0C5FAA368053B042B03D94621814800F0BDFA6369FF2B03D947217E4800F0B6FAA369FF2B03D948217A4800F0AFFAA37C6BB123789F
:4033C00033B9A368092B05D1A37B2BB1012304E0012302E0012300E000231BB14A21704800F09AFA636B23F4366323F00D031BB14C216B4800F090FAE36B23F4EE6323F05A
:4034000003031BB14D21664800F086FA2378022B01D1A37F13B16268013A00E00022237F13B14FF4803100E00021A368082B02D84FF4006300E000230B4302F00F021343E4
:4034400043F000732B60226B2B6813F4006F01D0802300E040239A4203D36221504800F05BFAA26B2B6813F4006F01D0802300E040239A4203D36321494800F04DFA626A25
:403480002B6813F4006F01D0802300E040239A4203D36421424800F03FFA23781B0603F040732B64637F0BB1402200E00022A37C13B14FF4806300E000231343227C12B1AC
:4034C0004FF4807200E000221343627C12B14FF4007200E000221A43E36A013B1B0403F470231343627B013A02F007021343A27B120102F030021343AB64237B13B14FF43B
:40350000807200E00022E37B23B92378022B03D1012302E0012300E0002313B14FF4007300E000231A43A368013B03F00F031343C5F80033227DA3691B0403F47F0313438F
:40354000C5F81033E26AD5F8003303F00F0303339A4201D3102A03D97A21114800F0DCF9E37F23B12378012B03D0002302E0002300E0012313B14FF4807200E00022637B70
:40358000013B03F007031A43A37B1B0103F0300313436B64237B2BB14FF4807203E000BFA8E208100022A368013B03F00F0313432278012A02D14FF4803200E00022134354
:4035C000C5F8003294F83030C5F8043394F8203013B14FF0007200E0002294F82130012B02D14FF0807300E00023134394F82820012A02D14FF4803200E00022134394F897
:40360000242013432B6594F83830C5F80432636B23F4926323F002031B051B0DC5F8C83FE36B23F08C035B055B0DC5F8883F76B1002070603060B060F0603062F0623063C1
:40364000044B736370BD04487047034870BD002070BD00BFEFCDAB000160AA000B694A69934202D34869181A7047CA694869101A184470472DE9F04107460D46036813F41A
:40368000006F02D04FF0800801E04FF040084FEA5808D7F80863C6F308062C6926E00134EB689C4200D100246B699C420FD12B6B0BB1082098476B699C4208D10023C7F8B2
:4036C000C83F0CB1013C13E0EC68013C10E0D7F84023D7F8003303F00F03072B02D8AB681A5502E0AB6823F81420013E002ED6D12C61EC6829463846FFF7B0FF201A8045C4
:4037000019D908B1441E00E000243B6813F4006F01D0802300E040239C4204D34FF42071064800F0F9F8D7F8040320F0FF03E0B21843C7F80403BDE8F08100BF64E1081023
:4037400038B504460D46D0F8003E13F0080F35D0D0F8CC3F13F448730AD04A681A434A60C0F8C03FD0F8C03F0B6B0BB110209847D4F8CC3F13F4006F09D06B6843F4006320
:403780006B604FF40063C4F8C03FD4F8C03FD4F8CC3F13F0010F11D0EB6923B129462046FFF72EFD05E0AB681BB129462046FFF761FF0123C4F8C03FD4F8C03FD4F8003E86
:4037C00013F0040F2ED0D4F88C3F13F4A0630AD02A681A432A60C4F8803FD4F8803F2B6B0BB120209847D4F88C3F13F0010F08D029462046FFF796FC0123C4F8803FD4F800
:40380000803FD4F88C3F13F4007F0BD00022C4F8882F2B6823F001032B60EA622B6B0BB10220984738BD00BF38B50D4B9A680D4B9A420FD10D46044621B940F237110A4816
:4038400000F06AF804F11003064A52F8230042F8235038BD1030054B53F8200038BD00BF00ED00E000400208E8E208100000081048B338B504460D464368072B03D932213E
:40388000134800F049F8B4F900306268002B08DB5201D2B203F1604303F5614383F8002305E003F00F035201D2B20A49CA540A4B9A680A4B9A4208D12946B4F90000FFF77A
:4038C000B3FF002038BD06487047002038BD00BFE8E2081014ED00E000ED00E0004002080100560010B5044605E0084B186800F077F8A4F50044B4F5004FF6D8044B18685F
:4039000000FB04F000F06CF810BD00BFA8420208A442020801BEFEE738B50D46044C18220146204608F0C2FAA5610020FFF7F2FF38490208FEE700BF08B50268254BDA61F7
:4039400042681A6282685A62C2689A620269DA6242691A6382695A63C2699A631E4A916AD963D16A1964516A5964516B9964926BDA64F1EE103A13F0900F27D0026A154B65
:403980001A65426A5A65826A9A65C26ADA65026B1A66426B5A66826B9A66C26BDA66026C1A67426C5A67826C9A67C26CDA67026DC3F88020426DC3F88420826DC3F888202D
:4039C000C26DC3F88C20026EC3F89020FFF7B2FF08BD00BF3849020800ED00E0000000000230800803D001300238FCD100BF00BF7047EFF3108072B6704780F310887047C6
:403A000000287DD00346002A7CD070B45068000280B29568AD0405F480252843D468240404F4403404431069000600F0E0602043147F0CB1012400E0002420430C1DA401B8
:403A40001851D06828B903EB81100024C0F808410CE0012805D1146803EB8110C0F8084104E003EB81100124C0F80841106938B9546903EB8110C0F80C419469C0F81041FF
:403A8000146803EB8110C0F81441906CB0F1FF3F17D0946A04F00F04166B360206F470663443956B2D0405F470252543146C2403A4B22C430001C0B2204303EB8114C4F88F
:403AC0002001506A00F00300D66A360106F030063043556B2D0205F440752843D46BA401E4B20443506C800000F00C00204303EB8113C3F82401126AC3F83821002003E089
:403B0000024870470148704770BC70470100B600014B1860704700BF2871030800F1080343604FF0FF328260C360036100230360704700BF00230361704700BF43684B6045
:403B40009A688A609A68516099600861036801330360704730B40D68B5F1FF3F01D1026907E000F1080200E01A4653681C68A542FAD253684B6099608A605160086103682F
:403B80000133036030BC704703694268816891608268416851605A68904201D182685A60002202611A68013A1A601868704700BF436A23B1036B1868C0F1070070470020DD
:403BC000704700BF10B5044601F0F4FBA26BE36B9A4201D1012400E0002401F00DFC204610BD00BF10B5044601F0E4FBA36B0BB9012400E0002401F0FFFB204610BD00BF8B
:403C000070B504461646856B026C3AB9036843BB406801F0E5F80023636029E06EB9806807F022FCA268236C1344A3606268934219D32368A36000201AE0C06807F014FC21
:403C4000236C5B42E2681A44E26021688A4202D262681344E360022E07D145B1013D002006E0002004E0002002E0002000E000200135A56370BD00BF026C72B110B5034670
:403C8000C4681444C4604068844201D31868D8600846D96807F0E8FB10BD704738B5054601F088FB95F8454064B20AE06B6A53B105F1240000F094FF08B101F01FF8013C43
:403CC00064B2002CF2DCFF2385F8453001F094FB01F070FB95F8444064B20AE02B6953B105F1100000F07CFF08B101F007F8013C64B2002CF2DCFF2385F8443001F07CFB39
:403D000038BD00BF38B540B94FF03F0383F31188BFF36F8FBFF34F8FFEE704460D4601F049FB2168E26B236C03FB021060600020A063A160013A02FB0313E360FF2384F8DA
:403D4000443084F845307DB92369ABB104F1100000F046FF80B14FF08052094B1A60BFF34F8FBFF36F8F07E004F11000FFF7D6FE04F12400FFF7D2FE01F03EFB012038BD61
:403D800004ED00E010B5029B0C4609B91B6000E01A60D8631C6401211846FFF7B3FF10BD40B94FF03F0383F31188BFF36F8FBFF34F8FFEE7F0B583B0034611B101FB00F0BA
:403DC00000E000201D4617460C46483001F034FC064638B100903B4600F1480221462846FFF7D0FF304603B0F0BD00BFF0B585B0019240B94FF03F0383F31188BFF36F8FC2
:403E0000BFF34F8FFEE7044619B9026C1AB9012202E0012200E0002242B94FF03F0383F31188BFF36F8FBFF34F8FFEE7022B03D1E26B012A02D102E0012200E0002242B988
:403E40004FF03F0383F31188BFF36F8FBFF34F8FFEE71D460E4600F05FFF18B9019B1BB9012302E0012300E0002343B94FF03F0383F31188BFF36F8FBFF34F8FFEE7002742
:403E800001F098FAA26BE36B9A4201D3022D21D12A4631462046FFF7B3FE636A6BB104F1240000F09DFE88B14FF08052324B1A60BFF34F8FBFF36F8F08E038B14FF080526F
:403EC0002D4B1A60BFF34F8FBFF36F8F01F094FA01204EE0019B1BB901F08EFA002048E01FB902A800F0C0FE012701F085FA00F0ADFC01F05FFA94F844305BB2B3F1FF3FF7
:403F000002D1002384F8443094F845305BB2B3F1FF3F02D1002384F8453001F06DFA01A902A800F0ABFEF0B92046FFF74BFEA0B1019904F1100000F01BFE2046FFF7AEFE30
:403F400000F012FD00289BD14FF080520A4B1A60BFF34F8FBFF36F8F92E72046FFF79EFE00F002FD8CE72046FFF798FE00F0FCFC002005B0F0BD00BF04ED00E048B108B519
:403F8000002141600160C1600B460A46FFF72EFF08BD704710B5024600210120FFF700FF0446FFF7EBFF204610BD00BF2DE9F84340B94FF03F0383F31188BFF36F8FBFF3E1
:403FC0004F8FFEE7044619B9006C18B9012002E0012000E0002040B94FF03F0383F31188BFF36F8FBFF34F8FFEE7022B03D1E06B012802D102E0012000E0002040B94FF050
:404000003F0383F31188BFF36F8FBFF34F8FFEE71F469046894601F0D1FAEFF311864FF03F0383F31188BFF36F8FBFF34F8FA26BE36B9A4201D3022F1ED194F845506DB290
:404040003A4649462046FFF7DBFDB5F1FF3F0DD1636A9BB104F1240000F0C2FD80B1B8F1000F0FD00120C8F800000CE06B1C5BB284F84530012006E0002004E0012002E032
:40408000012000E0012086F31188BDE8F88300BF40B94FF03F0383F31188BFF36F8FBFF34F8FFEE770B50446036C43B14FF03F0383F31188BFF36F8FBFF34F8FFEE703684D
:4040C0001BB943681BB9012302E0012300E0002343B94FF03F0383F31188BFF36F8FBFF34F8FFEE70E4601F069FAEFF311854FF03F0383F31188BFF36F8FBFF34F8FA26B92
:40410000E36B9A4218D294F845305BB20132A263B3F1FF3F0AD1636A83B104F1240000F05FFD68B176B1012030600CE001335BB284F84530012006E0002004E0012002E0E5
:40414000012000E0012085F3118870BDF0B585B0019240B94FF03F0383F31188BFF36F8FBFF34F8FFEE7044619B9036C1BB9012302E0012300E0002343B94FF03F0383F345
:404180001188BFF36F8FBFF34F8FFEE70E4600F0C3FD18B9019B1BB9012302E0012300E0002343B94FF03F0383F31188BFF36F8FBFF34F8FFEE7002701F0FCF8A56BC5B18C
:4041C00031462046FFF758FD013DA563236963B104F1100000F004FD38B14FF08052304B1A60BFF34F8FBFF36F8F01F005F9012053E0019B1BB901F0FFF800204DE01FB9CC
:4042000002A800F031FD012701F0F6F800F01EFB01F0D0F894F844305BB2B3F1FF3F02D1002384F8443094F845305BB2B3F1FF3F02D1002384F8453001F0DEF801A902A826
:4042400000F01CFDF0B92046FFF7CCFCA0B1019904F1240000F08CFC2046FFF71FFD00F083FB0028A8D14FF080520D4B1A60BFF34F8FBFF36F8F9FE72046FFF70FFD00F064
:4042800073FB99E72046FFF709FD00F06DFB2046FFF7A8FC00288FD0002005B0F0BD00BF04ED00E070B584B0019140B94FF03F0383F31188BFF36F8FBFF34F8FFEE70446DA
:4042C000036C43B14FF03F0383F31188BFF36F8FBFF34F8FFEE700F01FFD18B9019B1BB9012302E0012300E0002343B94FF03F0383F31188BFF36F8FBFF34F8FFEE7002556
:404300002E4601F057F8A36BCBB1013BA363236813B900F005FE6060236963B104F1100000F05EFC38B14FF08052414B1A60BFF34F8FBFF36F8F01F05FF8012076E0019B69
:404340006BB945B14FF03F0383F31188BFF36F8FBFF34F8FFEE701F04FF8002066E01EB902A800F081FC012601F046F800F06EFA01F020F894F844305BB2B3F1FF3F02D169
:40438000002384F8443094F845305BB2B3F1FF3F02D1002384F8453001F02EF801A902A800F06CFC40BB2046FFF71CFCF0B123683BB900F0FFFF606800F0BEFC054601F025
:4043C0001BF8019904F1240000F0D2FB2046FFF765FC00F0C9FA002893D14FF08052144B1A60BFF34F8FBFF36F8F8AE72046FFF755FC00F0B9FA84E72046FFF74FFC00F051
:40440000B3FA2046FFF7EEFB00283FF47AAF65B100F0D0FF2046FFF7CBFB0146606800F029FD00F0E9FF002000E0002004B070BD04ED00E000230BE0074A52F8332032B959
:40444000054A42F8331002EBC303586070470133092BF1D9704700BF2C71030870B504460D46164600F0A6FF94F844305BB2B3F1FF3F02D1002384F8443094F845305BB268
:40448000B3F1FF3F02D1002384F8453000F0B4FFA36B2BB93246294604F1240000F082FB2046FFF7FBFB70BD094B9B6A1B680BB9012300E0002323B14FF0FF32044BDA621C
:4044C0007047034B9A6AD268D2685268DA627047C4F9020810B50446006B01F0DDF8204601F0DAF810BD00BF2DE9F04780460D4616469946DDF820A0099F0A9C9200A521FA
:40450000206B06F0D7FF236B06F18042013A03EB820626F00706002306E0E95CE21882F83410EA5C12B101330F2BF6D9002384F84330BAF1060F01D94FF0060AC4F82CA03A
:40454000C4F844A00025A564201DFFF7F3FA04F11800FFF7EFFA2461CAF10703A36164622B4606E003F1120204EB8202002151600133042BF6D90023236684F864304A462B
:404580004146304600F0EEFE206007B13C60BDE8F08700BF70B5002407E004EB8402930010481844FFF7BAFA0134062CF5D90E4C04F1BC063046FFF7B1FA04F1D005284648
:4045C000FFF7ACFA04F11400FFF7A8FA04F1E400FFF7A4FA2046FFF7A1FAA662C4F8F85070BD00BFF4F90208C4F9020838B5044600F0E0FE264BD3F8FC200132C3F8FC20FD
:40460000D3F800314BB9224BC3F80041D3F8FC30012B10D1FFF7BEFF0DE01D4BD3F804314BB91B4BD3F80031DA6AE36A9A4202D8174BC3F80041164AD2F808310133C2F8A9
:404640000831E36AD2F80C21934202D9104AC2F80C310F4D05F1300003EB83039A00211D1044FFF76BFA00F0C7FED5F804316BB1D5F80031DA6AE36A9A4207D24FF0805217
:40468000044B1A60BFF34F8FBFF36F8F38BD00BFC4F9020804ED00E038B517E000F08AFE0D4CD4F8F030DD68281DFFF76DFAD4F8FC30013BC4F8FC30D4F81031013BC4F8FC
:4046C000103100F099FE2846FFF704FF024BD3F81031002BE2D138BDC4F9020808B5FFF7DBFF064B1B6B012BF9D94FF08052044B1A60BFF34F8FBFF36F8FF0E7C4F902087E
:4047000004ED00E070B504460E46174BD3F81451D3F800010430FFF737FAB4F1FF3F07D136B11148D0F800110431FFF707FA70BD2C440D4BD3F800315C60A54208D90A4B62
:40474000D3F8F800D3F800110431FFF703FA70BD054DA86AD5F800110431FFF7FBF9EB6A9C4200D2EC6270BDC4F902082DE9F04385B006460F4615469846900000F05CFF6A
:4047800060B18146682000F057FF044610B1C0F8309004E0484600F07FFF00E000248CB10023039302940D9B01930C9B009343462A4639463046FFF797FE2046FFF716FF00
:4047C000012001E04FF0FF3005B0BDE8F08300BF00B583B0194B019300230093802218491848FFF7C3FF012801D100F0FFFB012814D14FF03F0383F31188BFF36F8FBFF327
:404800004F8F114B4FF0FF32DA620122C3F804210022C3F8142100F06FFE0BE0B0F1FF3F08D14FF03F0383F31188BFF36F8FBFF34F8FFEE703B05DF804FB00BFE0FA02081E
:404840009CE40810DD460810C4F90208034AD2F818310133C2F81831704700BFC4F90208014BD3F814017047C4F902082DE9F0413C4BD3F81831002B65D13A4BD3F8144138
:404880000134C3F81441CCB99B6A1B6843B14FF03F0383F31188BFF36F8FBFF34F8FFEE7304B9A6AD3F8F8109962C3F8F820D3F820210132C3F82021FFF7F6FD294BDB6A00
:4048C0009C4203D2002645E0012600E00026254B9B6A1B680BB9012300E0002323B14FF0FF32204BDA6235E01E4B9B6ADB68DD686B689C4202D21B4AD3622BE005F1040888
:404900004046FFF741F9AB6A1BB105F11800FFF73BF9EB6A134AD2F80C21934202D9114AC2F80C310F4F07F1300003EB83039A0041461044FFF702F9EA6AD7F80031DB6A04
:404940009A42C1D2C3E7074AD2F824310133C2F824310026034BD3F8283103B101263046BDE8F081C4F90208394BD3F8183143B94FF03F0383F31188BFF36F8FBFF34F8F41
:40498000FEE770B500F016FD314BD3F81821013AC3F81821D3F81831002B52D12C4BD3F8FC303BBB00244FE0294D2B6ADC6804F11800FFF7E9F8261D3046FFF7E5F8E36A16
:4049C000D5F80C21934201D9C5F80C31204D05F1300003EB83039A0031461044FFF7AEF8E26AD5F80031DB6A9A4204D30122C5F8282100E00024164B5B69002BD4D10CB1EB
:404A0000FFF752FD124BD3F8244164B1FFF72EFF18B101220E4BC3F82821013CF6D100220B4BC3F824210A4BD3F828315BB14FF08052084B1A60BFF34F8FBFF36F8F0124DF
:404A400002E0002400E0002400F0D6FC204670BDC4F9020804ED00E010B5B0B10446104BD3F8183143B14FF03F0383F31188BFF36F8FBFF34F8FFEE7FFF7E8FE0021204654
:404A8000FFF740FEFFF770FF00E0002038B94FF08052044B1A60BFF34F8FBFF36F8F10BDC4F9020804ED00E0304BD3F8183123B101222E4BC3F82821704710B52B4B0022D6
:404AC000C3F82821D3F800311B6B1A68B2F1A53F0BD15A68B2F1A53F07D19A68B2F1A53F03D1DB68B3F1A53F07D0204BD3F80001D3F80011343100F08DFD1C4BD3F80C31CA
:404B00000AE043B94FF03F0383F31188BFF36F8FBFF34F8FFEE7013B03EB83018A0013490A44126B002AECD008469900CC18A2000244546B64685463303019448A0008321F
:404B40000244944206D1606803EB83018A0007490A445063054903EB830082000A44526BD268C1F80021C1F80C3110BDC4F9020840B94FF03F0383F31188BFF36F8FBFF358
:404B80004F8FFEE710B50C46054BD3F800111831FEF7E0FF01212046FFF7B4FD10BD00BFC4F9020838B540B94FF03F0383F31188BFF36F8FBFF34F8FFEE70C461546074AB7
:404BC000D2F800111831FEF7B9FF0DB14FF0FF3429462046FFF796FD38BD00BFC4F9020838B5C368DC6844B94FF03F0383F31188BFF36F8FBFF34F8FFEE704F1180528464D
:404C0000FEF7C2FF154BD3F81831ABB9251D2846FEF7BAFFE36A114AD2F80C21934202D90E4AC2F80C3103EB83039A0029460C481044FEF783FF03E029460A48FEF77EFF38
:404C4000E26A064BD3F80031DB6A9A4204D90120024BC3F8280138BD002038BDC4F90208F4F90208D8F90208034BD3F820210260D3F8143143607047C4F90208F8B540B915
:404C80004FF03F0383F31188BFF36F8FBFF34F8FFEE7054641B94FF03F0383F31188BFF36F8FBFF34F8FFEE70C4600F083FB124BD3F814016968421A2368B3F1FF3F14D0CA
:404CC0002F680D4ED6F82061B74201D088420ED29A4206D29B1A23602846FFF7C5FF002406E000232360012402E0002400E0012400F082FB2046F8BDC4F902080122024B4C
:404D0000C3F82821704700BFC4F90208014BD3F800017047C4F90208064BD3F804312BB1044BD3F818311BB9022070470120704700207047C4F90208002849D038B5034672
:404D4000C26A2549D1F80011C96A8A4237D28169002906DB2049D1F80011C96AC1F107018161586902EB820291001C4A1144884201D1012200E00022D2B11D461C1D2046ED
:404D8000FEF702FF144AD2F80031DB6AEB62D2F80C21934202D9104AC2F80C3103EB83039A0021460D481044FEF7C8FE012038BD094AD2F80021D26ADA62012038BD426CB1
:404DC000054BD3F80031DB6A9A4203D3002038BD00207047012038BDC4F90208F4F9020800283DD038B50346204AD2F80021904208D04FF03F0383F31188BFF36F8FBFF354
:404E00004F8FFEE7826C42B94FF03F0383F31188BFF36F8FBFF34F8FFEE7013A8264C06A596C88421ED0FAB91C461D1D2846FEF7ABFE636CE362C3F10702A2610B4AD2F8FB
:404E40000C21934202D9094AC2F80C3103EB83039A00294606481044FEF770FE012038BD00207047002038BD002038BDC4F90208F4F9020800284DD038B50346806C40B954
:404E80004FF03F0383F31188BFF36F8FBFF34F8FFEE75A6C8A4200D20A46D96A8A4238D0012836D11C48D0F80001834208D14FF03F0383F31188BFF36F8FBFF34F8FFEE7C2
:404EC000DA629869002802DBC2F107029A61586901EB81018A0011490A44904201D1012200E00022AAB11C461D1D2846FEF74CFEE36A094AD2F80C21934202D9064AC2F89A
:404F00000C3103EB83039A00294604481044FEF715FE38BD704700BFC4F90208F4F90208064BD3F800312BB1044BD3F80021936C01339364014BD3F800017047C4F90208C2
:404F4000064B1A681368B3FA83F35B09036013B9D368186870470020704700BFF0FA020808B54160006191420AD8D21A83699A4211D2011D0A4B5868FEF7ECFD002008BD30
:404F80009A4201D2994208D2011D054B1868FEF7E1FD002008BD012008BD012008BD00BFF0FA020870B500F005FA0E4B9B68B3B90C4C04F10C063046FEF7B0FD04F12005FB
:404FC0002846FEF7ABFD2660656000220C210A20FEF7E6FEA06010B10349FFF72BFA00F00BFA70BDF0FA0208A4E4081000B583B0FFF7D8FF0D4B9B6853B10D4B0193032305
:405000000093002380220B490B48FFF7AFFB00E0002040B94FF03F0383F31188BFF36F8FBFF34F8FFEE703B05DF804FBF0FA020824FB0208ACE40810D152081040B94FF0E4
:405040003F0383F31188BFF36F8FBFF34F8FFEE730B585B015460446124A9068F0B11A46019102950394052913DCFFF755FE022807D10023089A01A90A488068FEF7B6FE2C
:405080000DE000231A4601A906488068FEF7AEFE05E0002301A9FEF789FF00E0002005B030BD00BFF0FA020870B582B029E0DB681E68DC68251D2846FEF766FD636A2046D3
:4050C0009847E369012B1CD1A36933449E4207D2636024612946104B1868FEF73BFD10E0002100910B4632462046FFF7A7FF40B94FF03F0383F31188BFF36F8FBFF34F8F3B
:40510000FEE7054B1B681A68002AD0D1024A51681160536002B070BDF0FA020838B50546FFF79EFB0446074B9B6B984204D2FFF7BBFF01232B6001E000232B60014B9C631C
:40514000204638BDF0FA020870B582B005460E46134B1B68DB68DC68201DFEF715FDE369012B18D1A1692B46324629442046FFF7F7FE80B1002100910B462A462046FFF72C
:405180005DFF40B94FF03F0383F31188BFF36F8FBFF34F8FFEE7636A2046984702B070BDF0FA020870B582B006460C46FFF74EFB01A8FFF7B3FF019B1BBB054644B9B042CF
:4051C00006D3FFF7D1FB29463046FFF7BDFF1AE02CB10E4B5B681C68B4FA84F464092246711B0A4B9868FFF739F9FFF7BDFB50B94FF08052064B1A60BFF34F8FBFF36F8F2F
:4052000001E0FFF7B1FB02B070BD00BFF0FA020804ED00E030B587B04DE0039B002B4ADB059C636913B1201DFEF7AEFC02A8FFF775FF039B092B3ED8DFE803F00505053D42
:40524000273A05053D270499A5690B46024629442046FFF785FE70B3636A20469847E369012B28D1A269002100910B46049802442046FFF7E3FEF0B94FF03F0383F31188C3
:40528000BFF36F8FBFF34F8FFEE70499A16141B94FF03F0383F31188BFF36F8FBFF34F8FFEE70346024601442046FFF759FE02E0204600F0F1F9002203A9044B9868FEF7BE
:4052C00045FF0028A9D107B030BD00BFF0FA020800B583B001A8FFF733FE0199FFF762FFFFF798FFF6E700BF82B0002301930D4B1B68B3F1FF3F08D04FF03F0383F3118891
:40530000BFF36F8FBFF34F8FFEE74FF03F0383F31188BFF36F8FBFF34F8F019B002BFCD002B07047CC42020808480068006880F308884FF0000080F3148862B661B6BFF312
:405340004F8FBFF36F8F00DF00BF000008ED00E0DFF80C00016841F4700101607047000088ED00E04FF0807340F8043C21F0010140F8081C054B40F80C3C40F8202C6FF001
:40538000020340F8243C4438704700BFE9520810074B19680868B0E8F04F80F30988BFF36F8F4FF0000080F311887047AFF30080C4FA02084FF03F0383F31188BFF36F8F11
:4053C000BFF34F8F0A4A136801331360012B0DD1084B1B6813F0FF0F08D04FF03F0383F31188BFF36F8FBFF34F8FFEE7704700BFCC42020804ED00E0094B1B6843B94FF0B8
:405400003F0383F31188BFF36F8FBFF34F8FFEE7013B034A13600BB983F31188704700BFCC420208000000000000000000000000EFF30980BFF36F8F154B1A681EF0100F6F
:4054400008BF20ED108A20E9F04F10602DE909004FF03F0080F31188BFF34F8FBFF36F8FFFF722FB4FF0000080F3118809BC19680868B0E8F04F1EF0100F08BFB0EC108A08
:4054800080F30988BFF36F8F704700BFAFF30080C4FA020808B54FF03F0383F31188BFF36F8FBFF34F8FFFF7E1F918B14FF08052024B1A60002383F3118808BD04ED00E012
:4054C000084A0023136008490B60084B1B680849A1FB03139B09013B06490B6007231360704700BF10E000E018E000E098420208D34D621014E000E010B582B02A4B1A7892
:40550000D2B20192FF221A701B78DBB28DF803309DF80330254A03F03F0313700723536009E0224A5368013B53609DF803305B00DBB28DF803309DF8033013F0800FF0D183
:405540001A4B5B68042B08D04FF03F0383F31188BFF36F8FBFF34F8FFEE71B0203F4E063124A5360019BDBB20F4A1370104B1A6842F47F021A601A6842F07F421A60FFF7E9
:405580009FFF00240B4B1C60FFF7E2FE0A4A136843F040431360FFF7C7FEFFF785FAFFF7A3FE204602B010BD00E400E02CFB020820ED00E0CC42020834EF00E0EFF3058376
:4055C0000F2B0FD9104A9B5CDBB2104A1278934208D24FF03F0383F31188BFF36F8FBFF34F8FFEE70A4B1B6803F4E063074A5268934208D94FF03F0383F31188BFF36F8F50
:40560000BFF34F8FFEE77047F0E300E02CFB02080CED00E008B54FF03F0383F31188BFF36F8FBFF34F8F4FF441710248FEF774F9FEE700BFB4E4081038B5044610F0070FB2
:4056400002D020F007040834FFF700F9104B1B682BB90F4A02F10C0323F0070313600D4BD3F814361C4442F2F772944208D8A34208D2074A15681D44064BC3F8144602E00F
:40568000002500E00025FFF76FF9284638BD00BF34FB0208241D030840B14FF03F0383F31188BFF36F8FBFF34F8FFEE7704700BF70B539B900240AE015F8010BFBF770FF00
:4056C000013402E016460D460024B442F4DB204670BD00BF70B561B900240FE0FBF76CFFC0B2287001340A2808D00D2806D0013502E016460D460024B442EFDB204670BD68
:4057000008B502490248FEF71BF808BD7C7103080000664008B5114B1B785BB9104A11491148FDF7E9FD11491148FEF7A1F801220A4B1A700E4BB3F90030002B08DB59091D
:4057400003F01F03012202FA03F30A4A42F82130054A136843F00043136008BD3C2303087C71030804E508100000664001570810D4DF081000E100E008B502490248FDF75D
:405780007FFB08BDB47103080000634010B5144B1B788BB9134C144A14492046FCF766FF134A14492046FDF76FF813491348FEF75FF801220A4B1A70104BB3F90030002B22
:4057C00008DB590903F01F03012202FA03F30C4A42F82130034A136843F00043136010BD3D23030800006340B471030844E508109D791700A086010079570810DCDF08104D
:4058000000E100E0064B5A68596B01325A60C2008A18596A51600021117058627047C046007203080F2330B542680E4CD90009190D6C2100AA4202D2013BF7D211E00F2BD5
:405840000FD82468A21A0A608268C068002A00D05060002801D0026003E00833DB00CB185A6030BD00720308F8B5284C0600E368A26B013B0818D3180D00984206D8036882
:40588000002B03D14368F618FFF7CCFFA36B9D420BD92B1F1F68EF1B3B68002B05D17B683800F6183D00FFF7BDFF0F23DA00A218126C964202D2013BF8D225E00F2B23D8D7
:4058C0000833DA00A21850680022A91904392A606E60A8602D610E6029000831904200D04160EA602200DB00E318A860596023682932F31823601278002A05D1E268D31AC7
:40590000A268934200D9A3603000F8BD00720308F0B5234B87B09C6BDB680490013BE318039323686568002B30D1039B6719BB422CD93B680293002B28D0194EDB00726B37
:405940009B5C012B22D17B6820000193F36A0593FFF768FF3B68726BDB00D3185C60019A3900200005F08BFD029B059A934202D1736B5B1B7363019B2800E118FFF774FF81
:40598000049B002B01D0984206D2019D039B6419A342C6D8012000E0002007B0F0BDC04600720308002806D0034BDA6B0260002A00D05060D863704700720308034BC0003C
:4059C0005B6B1818406808307047C04600720308064A10B5D3690133D361526BC300D3181A7801321A70FFF7E9FF10BD00720308036810B5083B094C1B68626BDB00D3181E
:405A00001A78012A04D9E169002901D00139E161013A1A7000230360180010BD007203080322024B91431860596070474023030810B5041E0FD000F05FFD074B5A6BE300B7
:405A4000D3185B6819005868FFF70EFF2000FFF7D9FE00F045FD10BD00720308F7B5224DEB6A002B07D1214B99685868083105F0DFF8841C03E02B691C1DDB08E418E0007F
:405A800000F0CAF80126071E2CD06A6BC300D3185E68EB6A083601932B69696BDA00144B30001B68984729696E630B00CA000432EF62B218601E834203D2013313600832C7
:405AC000F9E7DB00F31800265E60074B5A685962511A091959601C61019BB34202D01800FFF7A6FF3000FEBD0072030840230308F042020870B5184C230028331A78002A7F
:405B000029D101321A70154B0F32DA609A68002A02D15A6892089A605A2210252262002228009040D100611801320864102AF7D15868196803000125143BCB180E3A2261DD
:405B40006363A163E0605D6065626560FFF78CFEFFF784FF256370BD0072030840230308F0B5040085B0FFF7C5FF0323294E03349C43376C201DB84200D30700F26B1400C9
:405B8000002C06D0231F196823688F4232D01C00F6E7F268B36B944663440193043B02931B680393039A019B9D1A2B68002B06D02000FFF7ADFE029B1D68019B5D1B2B6841
:405BC000002B23D16B689F4220DC28001C1DFFF729FEF368E41BDB1BF36073692C19DB1973616B68D81B02D02900FFF73DFE231F1F600BE0002B01D06168596061680029BE
:405C000000D00B60A24201D12368F363200005B0F0BDC04600720308F0B585B00400FFF769FF3C4D2E6CB44203D3032303349C4326002B680C360196B34241D32B6B6A6823
:405C40009A420FD96B686F6A013B6B60FB0003936B6BFA009B185A686A6201221A70002F0AD12DE0013B2B63FFF7F8FE2B6B01332B630028E6D023E00F23DA00AA18126C0C
:405C8000964201D2013BF8D21A00DB004433EB180F2A0DD81968002907D08C68002C04D061688E420ED9A168F5E701320833EFE73000FFF72DFE0028DED03800FFF7A2FD94
:405CC000002723E0636802939E1B2B6C0C339E4201D2029B01932000FFF7A4FD6B6B039A9B185C60019B019A63600023A360019B2760E1180B1F24611A601300029A934225
:405D000004DA1300019A981AFFF7AEFD380005B0F0BDC0460072030810B504000020844208D000F0E9FB2000FFF776FF040000F0D7FB200010BD000037B5050000F0DCFB16
:405D40002800FFF7E9FF041E0AD0FFF741FE064B01901B682A000021984701A8FFF748FE00F0BEFB20003EBDF4420208514BF0B51B688FB0DA69D469A589A84208DBE1898C
:405D8000814205D32168451B09910121494215E0A168002900D184E00D88A84200DA80E04E8886427DD3451B4968A8B266688000081809960021455E0221415E0891691CF9
:405DC0006FD022215E5E2420195E0691127E0A92A27C0A9951430C91227C0B922A229B5E1800079301F0C2FB324F0D903A680699D369926B300005920C9A5543099A551967
:405E000004950125A27C02950392DA7E01929B7E0B9A00930A9B01F015FD089B01331BD00220079B184301F0A1FB3B680899DA699B6B300005930C9B4B430999CB18049361
:405E4000A37C02950393D37E06990193937E0B9A00930A9B01F0F6FC164D2B68DB695A7E1B7E9A4217D9079B022B14D00420584001F07CFB2B68069AD8690B99437E057ED7
:405E80009B18827E51438A19C17E069869430918300001F0C7FB6B4634229B18187801F065FB044B617C1A68538CCB1853840FB0F0BDC046D0420208044B1B68DB69DB69A1
:405EC000002901D01A7C0A60587C7047D042020802230B80704710B5C3699A89914203DBDA8901208A4210D29B68181E0DD01A880020914209D35C888C4206D3891A5B682B
:405F00008900C85AC04380B2C00B10BDFF2230B5040014400A40A21A92B213B2002B01DA524213B25B431D00FF23020A1A4014000A0A1340E21A92B213B2002B01DA5242C0
:405F400013B2000C5B43090C411A89B208B25B19002801DA494208B280B24043C01830BD70B500282CD0002926D0002A25D013880D881C1C2EB21BB2B34200DD2C1C0480DD
:405F800053884D881C1C2EB21BB2B34200DD2C1C448093888D881C1C2EB21BB2B34200DA2C1C8480D388C9881A1C0CB21BB2A34200DA0A1CC28003E01100082205F054FA49
:405FC00070BD00280DD0038889B2CB180380838892B2C91843888180D3184380C388D218C280704770B505000C0000F085FA044B1B685D849C8400F073FA002070BDC04643
:40600000D042020870B5050000F076FA034B1B681C7E1D7600F064FA200070BDD042020830B503000222845E06200A5E0020944213DC02228C5E06255A5F94420DDC0022D1
:406040009C5E04254A5F944207DC00228A5E0421595ED00FCB179142584130BD10B500F04BFA01F039FF01F0B3FF02F01FFD00F037FA10BD10B5040000F03EFA200001F0D7
:4060800095FD00F02DFA10BD10B5040000F034FA200001F093FD00F023FA10BD70B504000D0000F029FA094B094A1C80094B21001D80094B1B685B7C9B0098582A00C368DC
:4060C0001B6A984700F00CFA70BDC046E872030810730308D8720308D042020870B50024094D0A4E10C53368210028007022984733680422210006489847064B1D60064B60
:406100001C70064B1C6070BD50230308F442020810730308D0420208F8720308D4720308014BD8607047C046D0420208F0B50700160085B00C00019300F0DEF9042001F0DB
:4061400015FA124B00901A68D36CDD199E19176D019B3C19FF1802AB18001D809E805C80DF8002F023FC002806D1009801F0FEF900F0B6F905B0F0BD3B0032002100280027
:4061800001F050FA02F062FBEDE7C046D0420208002110B50800FFF725FF034A034813000100FFF7C3FF10BDFF3F000001C0FFFF024BDA6FD86742607047C0465023030877
:4061C000094B10B51A68002A0CD101321A60FBF727FA00F0C9F9FBF79FF90448044B0360FFF7E6FF10BDC04650230308D0230308DD60081070B5FFF7E3FF2E22324B1A7030
:40620000FBF70CFA314C324D2100324B0C3123672B681A1DDA630432A2619B631B645B7C2D4A9B009858C3681B6B98472B4B6366EB6823622B680833A36101232377E377DE
:4062400002F028FD2300032268331A70244BE064606F6363A36301F0A9FCA86801F0AEFC204A214B1A6001F003FC050001F0D2FD060001F0D5FD002E01D0002808D101F04C
:40628000B9FD060001F0BBFD0100300001F0BCFD00210800FFF702FF02F056FC00F08AF9A36F002B0AD0A36F002B07D01B68002B00D09847A36F5B68A367F4E701220B4B0C
:4062C00028001A7070BDC046C972030850230308D04202089CEC08101073030894EC0810785634FFB0EC081008730308F07203080300002083420ADC054A9B00985800289B
:4063000005D0C3681B68002B01D00068F7E770471073030810B5FFF745FB10BDF8B506000D0017001C1E01DD00201BE01C20FFF717FC0028F8D0002D01D005610BE00A4BA8
:40634000A200D358002B06D01A68002A01D01300FAE71B690361002384618782C660036043608360F8BDC0461073030883690C499A0010B554580368A04204D15350002B51
:4063800001D000225A604268002A00D013600368002B00D05A6000230360436010BDC0461073030830B5002801D101203BE08269002AFADC1C4B19788A4201DB012119701E
:4063C0001A49920053580D00002B02D15050180029E05968002901D00B00FAE7C1680968DC6824688C4203DD1B68002BF8D1DCE78C420AD1848A012C07D11C68002C04D0F8
:406400002300E4682468A142F7DD5968002902D00860416000E0A85058600022984200D01A000260002030BDC17203081073030870B51C00FFF772FF051E0AD0FFF7B2FFE8
:40644000EB681B68002B04D1034B16341B68A400E550280070BDC046D04202080020704710B5002804D00468FFF79CFF2000F8E710BD0000044B10B51A68002A00D1186071
:4064800000F0D0F810BDC046E023030870B5002478250C4B1B689C420FDAFBF7BBF80A4B1A682B006343D3181A68904207D0002A01D1186003E00134EBE7002000E02000DB
:4064C00070BDC046E04202084024030810B5034C2068FFF767FA0023236010BD40240308044A10B55368013B5360002B01D1FBF77BF810BD40240308F7B5184C6368002B98
:4065000004D0FBF787F8A368984204D0FBF778F8FBF780F8A060636801336360012B1BD1FFF7B4FF0E4B07005E680193B04213D0002E0FDB78256E4323687D439E19FFF721
:406540008DFF236870675D19064B2A1D686F1A60FFF786FF019B5F60F7BDC04640240308E0420208D042020870B50E4D782428000D4B0C30EB60FFF71BFE0C4E33685C43C1
:406580002000FFF7EDFA0A4B220000211B682860984701235B427360FBF71CF8FFF776FF70BDC04640240308CD640810E0420208F4420208F8B500267827124B124C1B6850
:4065C000124D9E4214DA3B00734324682968E418251D7022280004F047FF0023236023000C33A361043BE563236465640136E4E7FFF74CFF7823584323681818043028605B
:40660000F8BDC046E042020840240308D04202080078704701207047012070470170012070470000034B10B51B68002B00D0984710BDC046542403080200FF231100000ABB
:40664000194010B51840120C40181340C0188030FF30024904F0FEFA10BDC046FD020000002800D000487047FFFFFF0001207047F7B58068C46A856B624307245218D20889
:406680000192026A0C409200002D18D080212141CCB2A446C94301248218151F019E2D68AD192F783E000E40234201D066463E436400043A2E70E4B29042EED117E001216E
:4066C0000D00A540ECB2A446ED438218141F019E2468A41927783E002E400B4201D066463E434900043A2670C9B29042EED1F7BD70B5072584680D40E36AA06B5A43236ABC
:406700005218D2089B00002810D0802129410020CDB20121E318043B1E68B65C2E4200D008434900C9B29C42F5D10EE001210E00AE40E318F5B2043B1E68B65C2E4200D01C
:4067400008434900C9B29C42F5D170BDF8B50D0016000400FFF7CCFF070023699B6898473B003200434029002000FFF781FFF8BDF0B580688BB00090066AC06A5B1A4243DF
:406780005F1CA44B5218D2081B680190039200981A7C806BD20779D50722082311405B1A002839D0F8321000DD1B0841AA40C4B21040C2B238009F4200DD1800381A009D5B
:4067C0000190B00028189F4200DB221CD3B29C46FF25031F039A1B689B183A00002905D064461A7862401A70019A0133072A05DD1E78083AF6431E700133F7E7002A06D06B
:406800000824A21A2C0094401E7866401E70009B04388342DDD1FAE0FF221000DD1B88402A41C4B21040C2B238009F4200DD1800381A009D0190B00028189F4200DB221C74
:40684000D3B29C46FF25031F039A1B689B183A00002905D064461A7862401A70019A0133072A05DD1E78083AF6431E700133F7E7002A06D00824A21A2C0014411E786640C0
:406880001E70009B04388342DDD1C0E00722DB6B11401B68FF22019308230491591A130000285AD00498CC1B0341A2401A40D8B2D3B23A008F4200DD0A00BA1A09928F428C
:4068C00000DB031CDAB2DB435BB20893012307920293013E009AB300D458039B3D00E418049B002B0BD02278089B019902981340014201D0079B1343099D23700134072D54
:4069000014DD029A0199444B11404A1E91412B400593059A414B49421B68D2102000C9B206929847069BE418059BED1A002D0DD0082321785D1BF733AB400A000198029D05
:406940009A43284201D00B43DAB22270029B5B00DBB20293002EBCD159E00498CC1B834022411A40D8B2D3B23A008F4200DD0A00BA1A09928F4200DB031CDAB2DB435BB290
:406980000893012307920293013E009AB300D458039B3D00E418049B002B0BD02278089B019902981340014201D0079B1343099D23700134072D14DD029A0199164B11406B
:4069C0004A1E91412B400593059A144B49421B68D2102000C9B206929847069BE418059BED1A002D0DD0082321785D1BF7332B410A000198029D9A43284201D00B43DAB206
:406A00002270029B5B00DBB20293002EBCD10BB0F0BDC046D0420208F8FF0000F4420208F8B505000E0014001F00069B9C4207DC22003B0031002800FFF79AFE0134F4E785
:406A4000F8BD002382680B804B80D36A013B8B80136B013BCB80704700B58368481E0D2818D804F0D1F8090B0D0F17171711131A1A070707002011E0586A0FE0986A0DE043
:406A8000D86A0BE0186B09E0186A07E001201B6A984003E00120404200E0012000BD000009390020062902D8014B8900C8587047D8EC081010B501290FD1094B1B68587CA5
:406AC000FFF716FC03699B68984701F0E8F9054B012803D0044B082800D00023180010BDD04202084CED0810C0ED081010B5002206218069FAF748FD10BD10B50022052192
:406B00008069FAF741FD10BD73B504000E00150000210822684604F0CDFC6A460321A06900960195FAF730FD73BD0000F7B51D000F4B14001B6806001A7C0F00D20708D5F9
:406B4000A54213DB220039003000FFF7FFFD0134F6E7DB6B1B680193AC4207DC2200019B39003000FFF784FD0134F5E7F7BDC046D0420208F0B591B00193179B0390581EC9
:406B800006910592072801D900F05EFC04F046F8230021005C041F005C045C045C0408000723069A1340802211001941C9B29A40099101219940D3B2199A0A939446019BD8
:406BC000C9B263440293059B07910893FBE2059B50E2059BB0E11A9A069B9446634409930723099A134080221A41D2B20A9201229A40D3B20C93059B0793059A079B9B1A2B
:406C0000169A9A4201DC00F01FFC1B9BBE4C5B680693039B9B680293D96A1A6A079B5943099BC918CB08049303232168087C1840022800D1A1E0984200D10FE1012800D1FE
:406C40000CE11B9B06981B680893834210D1CB6B089A1D681A60099A019B09999B18013B079A0398FFF784FD2368DB6B1D6043E1029B92009B6B002B3ED00127029B9E185A
:406C800008990FAA394011700699049B39405170321F12680A99D218019B1A989C46199B0B936346002B20D08025054113780D930B9B1C782C40651EAC410FAD2D5D0D9C4F
:406CC0008C43002D01D00D9C0C4301301470082803D10B9801300B900020490801D10132803101235B429C44DBE7029B7A00043ED7B2B342C4D1FFE00127029B9E180899B6
:406D00000FAA394011700699049B39405170321F11681A98C918019B0C9A9C46199B0B936346002B22D0802505410B780D930B9B1C782C40651EAC410FAD2D5D0D9C9443A5
:406D4000002D01D00D9C144301300C70082803D10B9801300B9000205200D2B2002A01D10131013201235B429C44D9E7029B7A00043ED7B2B342C2D1BEE0029B92009B6B00
:406D8000002B34D0029B9A1801230893089B06990A9819400B91111F0968049B019D1A9C199EC918002D19D08023234137783B4209D00B781F009C460B9B8743002B01D07F
:406DC000674607430F700134082C01D100240136400801D101318030013DE3E7089B043A5900CBB20893029B9342CFD184E0029B9A18012308930899069B019D0B40111F52
:406E000008680B93049B0C991A9C199EC018002D1BD08023234137783B4209D003781F009C460B9B8F43002B01D067460F4307700134082C01D1002401364900C9B20029AE
:406E400001D101300131013DE1E7089B043A5900CBB20893029B9342CDD14DE0029B92009B6B002B23D0029B9A18111F0968049B0A9C019D1A98199EC918002D12D0802326
:406E8000034137783B4202D00F7867400F700130082801D100200136640801D101318034013DEAE7029B043A9342DED124E0029B9A18111F0868049B0C99019D1A9C199E85
:406EC000C018002D14D08023234137783B4202D007784F4007700134082C01D1002401364900C9B2002901D101300131013DE8E7029B043A9342DCD1189A199B9446634416
:406F00001993079B013377E6D04202081A9A199B944603221C78069B63440493C34B1B681B7C134010D0022B4DD0189A199B944663441993029B01330293059A029B9B1AED
:406F4000169A9A42E2DC7FE21B9B1A9D199E0499002B23D003235A1B5200DB18981ABA3303412340D3401B9A9B009B580398029A01354F1CFFF77CFB042D02D100257478B1
:406F80000136019B049A39009B189F42E2D1CCE7019B049A39009B189F42C6D003235A1B5200DB18981ABA3303412340D3400398029A01354F1CFFF75BFB042DE8D174785D
:406FC00000250136E4E71B9B1A9D019E199F002B27D0019B049A991803235A1B5200DB18981ABA3303412340891BD34006D01B9A9B009B580398029AFFF73AFB0135042DDA
:4070000002D100257C780137013E002EE1D18CE70135042D02D100257C780137013E002E83D0019B049A991803235A1B5200DB18981ABA3303412340891BD340E8D0029A33
:407040000398FFF715FBE3E71A9A199B944603221F78069B63440493744B1B681B7C134010D0022B4DD0189A199B944663441993029B01330293059A029B9B1A169A9A42FC
:40708000E2DCE1E11B9B1A9C199D0499002B23D001231A1B9200CE180333981AEC3303413B40D3401B9A9B009B580398029A0134FFF7DEFA022C02D100246F780135019B6E
:4070C000049A31009B189E42E2D1CCE7049B019A31009B189E42C6D001231A1B9200CE180333981AEC3303413B40D3400398029A0134FFF7BDFA022CE8D16F780024013549
:40710000E4E71B9B1A9C019D199E002B27D0019B049A991801231A1B92000333981AEC3303413B40491BD34006D01B9A9B009B580398029AFFF79CFA0134022C02D1002458
:4071400077780136013D002DE1D18CE70134022C02D1002477780136013D002D83D0049B019A991801231A1B92000333981AEC3303413B40491BD340E8D0029A0398FFF723
:4071800077FAE3E7039B08989B680193019A1B6AD16A4143069809180320C9080491234909680B91097C014014D0022900D1ABE0189A199B944663441993089B01330893E9
:4071C000029B63440293059A089B9B1A169A9A42D8DC39E1019A1B98916B9B0000284ED0002925D00124D318191F04980968199D09180998029A954211D02E780F781B9A19
:40720000B600B2583E008643224201D03E0006430E70400801D1013180300135EAE7019A6400043BE4B29A42DED1C1E7D04202080124019AD318191F0868049A199D0799E0
